{
  "contractName": "AccessControl",
  "abi": [
    {
      "anonymous": false,
      "inputs": [
        {
          "indexed": true,
          "internalType": "bytes32",
          "name": "role",
          "type": "bytes32"
        },
        {
          "indexed": true,
          "internalType": "bytes32",
          "name": "previousAdminRole",
          "type": "bytes32"
        },
        {
          "indexed": true,
          "internalType": "bytes32",
          "name": "newAdminRole",
          "type": "bytes32"
        }
      ],
      "name": "RoleAdminChanged",
      "type": "event"
    },
    {
      "anonymous": false,
      "inputs": [
        {
          "indexed": true,
          "internalType": "bytes32",
          "name": "role",
          "type": "bytes32"
        },
        {
          "indexed": true,
          "internalType": "address",
          "name": "account",
          "type": "address"
        },
        {
          "indexed": true,
          "internalType": "address",
          "name": "sender",
          "type": "address"
        }
      ],
      "name": "RoleGranted",
      "type": "event"
    },
    {
      "anonymous": false,
      "inputs": [
        {
          "indexed": true,
          "internalType": "bytes32",
          "name": "role",
          "type": "bytes32"
        },
        {
          "indexed": true,
          "internalType": "address",
          "name": "account",
          "type": "address"
        },
        {
          "indexed": true,
          "internalType": "address",
          "name": "sender",
          "type": "address"
        }
      ],
      "name": "RoleRevoked",
      "type": "event"
    },
    {
      "inputs": [],
      "name": "ADMIN_ROLE",
      "outputs": [
        {
          "internalType": "bytes32",
          "name": "",
          "type": "bytes32"
        }
      ],
      "stateMutability": "view",
      "type": "function",
      "constant": true
    },
    {
      "inputs": [],
      "name": "AUDITOR_ROLE",
      "outputs": [
        {
          "internalType": "bytes32",
          "name": "",
          "type": "bytes32"
        }
      ],
      "stateMutability": "view",
      "type": "function",
      "constant": true
    },
    {
      "inputs": [],
      "name": "DEFAULT_ADMIN_ROLE",
      "outputs": [
        {
          "internalType": "bytes32",
          "name": "",
          "type": "bytes32"
        }
      ],
      "stateMutability": "view",
      "type": "function",
      "constant": true
    },
    {
      "inputs": [],
      "name": "IOT_DEVICE_ROLE",
      "outputs": [
        {
          "internalType": "bytes32",
          "name": "",
          "type": "bytes32"
        }
      ],
      "stateMutability": "view",
      "type": "function",
      "constant": true
    },
    {
      "inputs": [],
      "name": "PARTICIPANT_ROLE",
      "outputs": [
        {
          "internalType": "bytes32",
          "name": "",
          "type": "bytes32"
        }
      ],
      "stateMutability": "view",
      "type": "function",
      "constant": true
    },
    {
      "inputs": [],
      "name": "SHARD_MANAGER_ROLE",
      "outputs": [
        {
          "internalType": "bytes32",
          "name": "",
          "type": "bytes32"
        }
      ],
      "stateMutability": "view",
      "type": "function",
      "constant": true
    },
    {
      "inputs": [
        {
          "internalType": "bytes32",
          "name": "role",
          "type": "bytes32"
        },
        {
          "internalType": "address",
          "name": "account",
          "type": "address"
        }
      ],
      "name": "hasRole",
      "outputs": [
        {
          "internalType": "bool",
          "name": "",
          "type": "bool"
        }
      ],
      "stateMutability": "view",
      "type": "function",
      "constant": true
    },
    {
      "inputs": [
        {
          "internalType": "bytes32",
          "name": "role",
          "type": "bytes32"
        }
      ],
      "name": "getRoleAdmin",
      "outputs": [
        {
          "internalType": "bytes32",
          "name": "",
          "type": "bytes32"
        }
      ],
      "stateMutability": "view",
      "type": "function",
      "constant": true
    },
    {
      "inputs": [
        {
          "internalType": "bytes32",
          "name": "role",
          "type": "bytes32"
        },
        {
          "internalType": "address",
          "name": "account",
          "type": "address"
        }
      ],
      "name": "grantRole",
      "outputs": [],
      "stateMutability": "nonpayable",
      "type": "function"
    },
    {
      "inputs": [
        {
          "internalType": "bytes32",
          "name": "role",
          "type": "bytes32"
        },
        {
          "internalType": "address",
          "name": "account",
          "type": "address"
        }
      ],
      "name": "revokeRole",
      "outputs": [],
      "stateMutability": "nonpayable",
      "type": "function"
    },
    {
      "inputs": [
        {
          "internalType": "bytes32",
          "name": "role",
          "type": "bytes32"
        },
        {
          "internalType": "address",
          "name": "account",
          "type": "address"
        }
      ],
      "name": "renounceRole",
      "outputs": [],
      "stateMutability": "nonpayable",
      "type": "function"
    },
    {
      "inputs": [
        {
          "internalType": "bytes32[]",
          "name": "roles",
          "type": "bytes32[]"
        },
        {
          "internalType": "address[]",
          "name": "accounts",
          "type": "address[]"
        }
      ],
      "name": "hasRoles",
      "outputs": [
        {
          "internalType": "bool[]",
          "name": "",
          "type": "bool[]"
        }
      ],
      "stateMutability": "view",
      "type": "function",
      "constant": true
    },
    {
      "inputs": [
        {
          "internalType": "bytes32",
          "name": "role",
          "type": "bytes32"
        },
        {
          "internalType": "address[]",
          "name": "candidates",
          "type": "address[]"
        }
      ],
      "name": "getRoleMembers",
      "outputs": [
        {
          "internalType": "address[]",
          "name": "",
          "type": "address[]"
        }
      ],
      "stateMutability": "view",
      "type": "function",
      "constant": true
    }
  ],
  "bytecode": "0x608060405234801561001057600080fd5b50610a1e806100206000396000f3fe608060405234801561001057600080fd5b50600436106100cf5760003560e01c80638d4df7ab1161008c578063d3036dd411610066578063d3036dd4146101f2578063d547741f14610212578063e2348a5d14610225578063f1a93d4a1461024c57600080fd5b80638d4df7ab146101a757806391d14854146101c7578063a217fddf146101ea57600080fd5b8063248a9ca3146100d45780632f2ff15d1461010a57806336568abe1461011f5780635f8a7abe146101325780636e1d616e1461015957806375b238fc14610180575b600080fd5b6100f76100e23660046106aa565b60009081526020819052604090206001015490565b6040519081526020015b60405180910390f35b61011d6101183660046106df565b610273565b005b61011d61012d3660046106df565b6102c3565b6100f77f938c45fe3baa5cbd047f2473358a27f57db22291e9af95379a15ad016886dfb781565b6100f77f59a1c48e5837ad7a7f3dcedcbe129bf3249ec4fbf651fd4f5e2600ead39fe2f581565b6100f77fa49807205ce4d355092ef5a8a18f56e8913cf4a201fbe287825b095693c2177581565b6101ba6101b53660046107e8565b61033d565b60405161010191906108a1565b6101da6101d53660046106df565b610455565b6040519015158152602001610101565b6100f7600081565b6102056102003660046108e7565b61047e565b6040516101019190610924565b61011d6102203660046106df565b6105a7565b6100f77fa57066973b2155f87e85ce4b35594aa85c6061a64b99afb1fcf8f974f04290e381565b6100f77f3fd1570350ad82b8536c3ba26e9b65482f86a92bc0631d77bd1bb4bc2035747381565b600082815260208190526040902060010154610290905b33610455565b6102b55760405162461bcd60e51b81526004016102ac90610965565b60405180910390fd5b6102bf82826105de565b5050565b6001600160a01b03811633146103335760405162461bcd60e51b815260206004820152602f60248201527f416363657373436f6e74726f6c3a2063616e206f6e6c792072656e6f756e636560448201526e103937b632b9903337b91039b2b63360891b60648201526084016102ac565b6102bf8282610645565b606081518351146103895760405162461bcd60e51b8152602060048201526016602482015275082e4e4c2f2e640d8cadccee8d040dad2e6dac2e8c6d60531b60448201526064016102ac565b6000835167ffffffffffffffff8111156103a5576103a561070b565b6040519080825280602002602001820160405280156103ce578160200160208202803683370190505b50905060005b845181101561044d576104198582815181106103f2576103f26109ab565b602002602001015185838151811061040c5761040c6109ab565b6020026020010151610455565b82828151811061042b5761042b6109ab565b9115156020928302919091019091015280610445816109c1565b9150506103d4565b509392505050565b6000918252602082815260408084206001600160a01b0393909316845291905290205460ff1690565b60606000805b83518110156104c8576104a38585838151811061040c5761040c6109ab565b156104b657816104b2816109c1565b9250505b806104c0816109c1565b915050610484565b5060008167ffffffffffffffff8111156104e4576104e461070b565b60405190808252806020026020018201604052801561050d578160200160208202803683370190505b5090506000805b855181101561059c576105338787838151811061040c5761040c6109ab565b1561058a5785818151811061054a5761054a6109ab565b6020026020010151838381518110610564576105646109ab565b6001600160a01b039092166020928302919091019091015281610586816109c1565b9250505b80610594816109c1565b915050610514565b509095945050505050565b6000828152602081905260409020600101546105c29061028a565b6103335760405162461bcd60e51b81526004016102ac90610965565b6105e88282610455565b6102bf576000828152602081815260408083206001600160a01b0385168085529252808320805460ff1916600117905551339285917f2f8788117e7eff1d82e926ec794901d17c78024a50270940304540a733656f0d9190a45050565b61064f8282610455565b156102bf576000828152602081815260408083206001600160a01b0385168085529252808320805460ff1916905551339285917ff6391f5c32d9c69d2a47ea670b442974b53935d1edc7fd64eb21e047a839171b9190a45050565b6000602082840312156106bc57600080fd5b5035919050565b80356001600160a01b03811681146106da57600080fd5b919050565b600080604083850312156106f257600080fd5b82359150610702602084016106c3565b90509250929050565b634e487b7160e01b600052604160045260246000fd5b604051601f8201601f1916810167ffffffffffffffff8111828210171561074a5761074a61070b565b604052919050565b600067ffffffffffffffff82111561076c5761076c61070b565b5060051b60200190565b600082601f83011261078757600080fd5b8135602061079c61079783610752565b610721565b82815260059290921b840181019181810190868411156107bb57600080fd5b8286015b848110156107dd576107d0816106c3565b83529183019183016107bf565b509695505050505050565b600080604083850312156107fb57600080fd5b823567ffffffffffffffff8082111561081357600080fd5b818501915085601f83011261082757600080fd5b8135602061083761079783610752565b82815260059290921b8401810191818101908984111561085657600080fd5b948201945b838610156108745785358252948201949082019061085b565b9650508601359250508082111561088a57600080fd5b5061089785828601610776565b9150509250929050565b6020808252825182820181905260009190848201906040850190845b818110156108db5783511515835292840192918401916001016108bd565b50909695505050505050565b600080604083850312156108fa57600080fd5b82359150602083013567ffffffffffffffff81111561091857600080fd5b61089785828601610776565b6020808252825182820181905260009190848201906040850190845b818110156108db5783516001600160a01b031683529284019291840191600101610940565b60208082526026908201527f416363657373436f6e74726f6c3a2073656e646572206d75737420626520616e6040820152651030b236b4b760d11b606082015260800190565b634e487b7160e01b600052603260045260246000fd5b6000600182016109e157634e487b7160e01b600052601160045260246000fd5b506001019056fea26469706673582212209fcfb470f611e2fa5161bf4b205421abac77f5f12297119d7d872fbbd911021a64736f6c63430008130033",
  "immutableReferences": {},
  "source": "// SPDX-License-Identifier: MIT\r\npragma solidity ^0.8.19;\r\n\r\n/**\r\n * @title AccessControl\r\n * @dev Role-based access control for supply chain participants\r\n */\r\ncontract AccessControl {\r\n    \r\n    // Role definitions\r\n    bytes32 public constant DEFAULT_ADMIN_ROLE = 0x00;\r\n    bytes32 public constant ADMIN_ROLE = keccak256(\"ADMIN_ROLE\");\r\n    bytes32 public constant PARTICIPANT_ROLE = keccak256(\"PARTICIPANT_ROLE\");\r\n    bytes32 public constant AUDITOR_ROLE = keccak256(\"AUDITOR_ROLE\");\r\n    bytes32 public constant IOT_DEVICE_ROLE = keccak256(\"IOT_DEVICE_ROLE\");\r\n    bytes32 public constant SHARD_MANAGER_ROLE = keccak256(\"SHARD_MANAGER_ROLE\");\r\n    \r\n    // Events\r\n    event RoleGranted(bytes32 indexed role, address indexed account, address indexed sender);\r\n    event RoleRevoked(bytes32 indexed role, address indexed account, address indexed sender);\r\n    event RoleAdminChanged(bytes32 indexed role, bytes32 indexed previousAdminRole, bytes32 indexed newAdminRole);\r\n    \r\n    // Role data structure\r\n    struct RoleData {\r\n        mapping(address => bool) members;\r\n        bytes32 adminRole;\r\n    }\r\n    \r\n    // Mapping from role to role data\r\n    mapping(bytes32 => RoleData) private _roles;\r\n    \r\n    /**\r\n     * @dev Modifier to check if caller has the specified role\r\n     */\r\n    modifier onlyRole(bytes32 role) {\r\n        require(hasRole(role, msg.sender), \"AccessControl: account missing role\");\r\n        _;\r\n    }\r\n    \r\n    /**\r\n     * @dev Check if an account has a specific role\r\n     */\r\n    function hasRole(bytes32 role, address account) public view returns (bool) {\r\n        return _roles[role].members[account];\r\n    }\r\n    \r\n    /**\r\n     * @dev Get the admin role for a given role\r\n     */\r\n    function getRoleAdmin(bytes32 role) public view returns (bytes32) {\r\n        return _roles[role].adminRole;\r\n    }\r\n    \r\n    /**\r\n     * @dev Grant a role to an account\r\n     */\r\n    function grantRole(bytes32 role, address account) public {\r\n        require(hasRole(getRoleAdmin(role), msg.sender), \"AccessControl: sender must be an admin\");\r\n        _grantRole(role, account);\r\n    }\r\n    \r\n    /**\r\n     * @dev Revoke a role from an account\r\n     */\r\n    function revokeRole(bytes32 role, address account) public {\r\n        require(hasRole(getRoleAdmin(role), msg.sender), \"AccessControl: sender must be an admin\");\r\n        _revokeRole(role, account);\r\n    }\r\n    \r\n    /**\r\n     * @dev Renounce a role (can only be called by the account itself)\r\n     */\r\n    function renounceRole(bytes32 role, address account) public {\r\n        require(account == msg.sender, \"AccessControl: can only renounce roles for self\");\r\n        _revokeRole(role, account);\r\n    }\r\n    \r\n    /**\r\n     * @dev Set up initial roles during contract deployment\r\n     */\r\n    function _setupRole(bytes32 role, address account) internal {\r\n        _grantRole(role, account);\r\n    }\r\n    \r\n    /**\r\n     * @dev Set the admin role for a given role\r\n     */\r\n    function _setRoleAdmin(bytes32 role, bytes32 adminRole) internal {\r\n        bytes32 previousAdminRole = getRoleAdmin(role);\r\n        _roles[role].adminRole = adminRole;\r\n        emit RoleAdminChanged(role, previousAdminRole, adminRole);\r\n    }\r\n    \r\n    /**\r\n     * @dev Internal function to grant a role\r\n     */\r\n    function _grantRole(bytes32 role, address account) private {\r\n        if (!hasRole(role, account)) {\r\n            _roles[role].members[account] = true;\r\n            emit RoleGranted(role, account, msg.sender);\r\n        }\r\n    }\r\n    \r\n    /**\r\n     * @dev Internal function to revoke a role\r\n     */\r\n    function _revokeRole(bytes32 role, address account) private {\r\n        if (hasRole(role, account)) {\r\n            _roles[role].members[account] = false;\r\n            emit RoleRevoked(role, account, msg.sender);\r\n        }\r\n    }\r\n    \r\n    /**\r\n     * @dev Check if multiple accounts have required roles (batch check)\r\n     */\r\n    function hasRoles(bytes32[] memory roles, address[] memory accounts) \r\n        external \r\n        view \r\n        returns (bool[] memory) {\r\n        require(roles.length == accounts.length, \"Arrays length mismatch\");\r\n        \r\n        bool[] memory results = new bool[](roles.length);\r\n        for (uint256 i = 0; i < roles.length; i++) {\r\n            results[i] = hasRole(roles[i], accounts[i]);\r\n        }\r\n        return results;\r\n    }\r\n    \r\n    /**\r\n     * @dev Get all accounts with a specific role (expensive operation, use carefully)\r\n     */\r\n    function getRoleMembers(bytes32 role, address[] memory candidates) \r\n        external \r\n        view \r\n        returns (address[] memory) {\r\n        uint256 count = 0;\r\n        \r\n        // First pass: count members\r\n        for (uint256 i = 0; i < candidates.length; i++) {\r\n            if (hasRole(role, candidates[i])) {\r\n                count++;\r\n            }\r\n        }\r\n        \r\n        // Second pass: collect members\r\n        address[] memory members = new address[](count);\r\n        uint256 index = 0;\r\n        for (uint256 i = 0; i < candidates.length; i++) {\r\n            if (hasRole(role, candidates[i])) {\r\n                members[index] = candidates[i];\r\n                index++;\r\n            }\r\n        }\r\n        \r\n        return members;\r\n    }\r\n}",
  "sourcePath": "C:\\projects\\BLOCKCHAIN_PROJECT\\contracts\\AccessControl.sol",
  "compiler": {
    "name": "solc",
    "version": "0.8.19+commit.7dd6d404.Emscripten.clang"
  },
  "schemaVersion": "3.4.16",
  "updatedAt": "2025-08-24T06:17:50.834Z",
  "networkType": "ethereum",
  "devdoc": {
    "details": "Role-based access control for supply chain participants",
    "kind": "dev",
    "methods": {
      "getRoleAdmin(bytes32)": {
        "details": "Get the admin role for a given role"
      },
      "getRoleMembers(bytes32,address[])": {
        "details": "Get all accounts with a specific role (expensive operation, use carefully)"
      },
      "grantRole(bytes32,address)": {
        "details": "Grant a role to an account"
      },
      "hasRole(bytes32,address)": {
        "details": "Check if an account has a specific role"
      },
      "hasRoles(bytes32[],address[])": {
        "details": "Check if multiple accounts have required roles (batch check)"
      },
      "renounceRole(bytes32,address)": {
        "details": "Renounce a role (can only be called by the account itself)"
      },
      "revokeRole(bytes32,address)": {
        "details": "Revoke a role from an account"
      }
    },
    "title": "AccessControl",
    "version": 1
  },
  "userdoc": {
    "kind": "user",
    "methods": {},
    "version": 1
  }
}