{
  "contractName": "AccessControl",
  "abi": [
    {
      "anonymous": false,
      "inputs": [
        {
          "indexed": true,
          "internalType": "bytes32",
          "name": "role",
          "type": "bytes32"
        },
        {
          "indexed": true,
          "internalType": "bytes32",
          "name": "previousAdminRole",
          "type": "bytes32"
        },
        {
          "indexed": true,
          "internalType": "bytes32",
          "name": "newAdminRole",
          "type": "bytes32"
        }
      ],
      "name": "RoleAdminChanged",
      "type": "event"
    },
    {
      "anonymous": false,
      "inputs": [
        {
          "indexed": true,
          "internalType": "bytes32",
          "name": "role",
          "type": "bytes32"
        },
        {
          "indexed": true,
          "internalType": "address",
          "name": "account",
          "type": "address"
        },
        {
          "indexed": true,
          "internalType": "address",
          "name": "sender",
          "type": "address"
        }
      ],
      "name": "RoleGranted",
      "type": "event"
    },
    {
      "anonymous": false,
      "inputs": [
        {
          "indexed": true,
          "internalType": "bytes32",
          "name": "role",
          "type": "bytes32"
        },
        {
          "indexed": true,
          "internalType": "address",
          "name": "account",
          "type": "address"
        },
        {
          "indexed": true,
          "internalType": "address",
          "name": "sender",
          "type": "address"
        }
      ],
      "name": "RoleRevoked",
      "type": "event"
    },
    {
      "inputs": [],
      "name": "ADMIN_ROLE",
      "outputs": [
        {
          "internalType": "bytes32",
          "name": "",
          "type": "bytes32"
        }
      ],
      "stateMutability": "view",
      "type": "function"
    },
    {
      "inputs": [],
      "name": "AUDITOR_ROLE",
      "outputs": [
        {
          "internalType": "bytes32",
          "name": "",
          "type": "bytes32"
        }
      ],
      "stateMutability": "view",
      "type": "function"
    },
    {
      "inputs": [],
      "name": "DEFAULT_ADMIN_ROLE",
      "outputs": [
        {
          "internalType": "bytes32",
          "name": "",
          "type": "bytes32"
        }
      ],
      "stateMutability": "view",
      "type": "function"
    },
    {
      "inputs": [],
      "name": "IOT_DEVICE_ROLE",
      "outputs": [
        {
          "internalType": "bytes32",
          "name": "",
          "type": "bytes32"
        }
      ],
      "stateMutability": "view",
      "type": "function"
    },
    {
      "inputs": [],
      "name": "PARTICIPANT_ROLE",
      "outputs": [
        {
          "internalType": "bytes32",
          "name": "",
          "type": "bytes32"
        }
      ],
      "stateMutability": "view",
      "type": "function"
    },
    {
      "inputs": [
        {
          "internalType": "bytes32",
          "name": "role",
          "type": "bytes32"
        },
        {
          "internalType": "address",
          "name": "account",
          "type": "address"
        }
      ],
      "name": "hasRole",
      "outputs": [
        {
          "internalType": "bool",
          "name": "",
          "type": "bool"
        }
      ],
      "stateMutability": "view",
      "type": "function"
    },
    {
      "inputs": [
        {
          "internalType": "bytes32",
          "name": "role",
          "type": "bytes32"
        }
      ],
      "name": "getRoleAdmin",
      "outputs": [
        {
          "internalType": "bytes32",
          "name": "",
          "type": "bytes32"
        }
      ],
      "stateMutability": "view",
      "type": "function"
    },
    {
      "inputs": [
        {
          "internalType": "bytes32",
          "name": "role",
          "type": "bytes32"
        },
        {
          "internalType": "address",
          "name": "account",
          "type": "address"
        }
      ],
      "name": "grantRole",
      "outputs": [],
      "stateMutability": "nonpayable",
      "type": "function"
    },
    {
      "inputs": [
        {
          "internalType": "bytes32",
          "name": "role",
          "type": "bytes32"
        },
        {
          "internalType": "address",
          "name": "account",
          "type": "address"
        }
      ],
      "name": "revokeRole",
      "outputs": [],
      "stateMutability": "nonpayable",
      "type": "function"
    },
    {
      "inputs": [
        {
          "internalType": "bytes32",
          "name": "role",
          "type": "bytes32"
        },
        {
          "internalType": "address",
          "name": "account",
          "type": "address"
        }
      ],
      "name": "renounceRole",
      "outputs": [],
      "stateMutability": "nonpayable",
      "type": "function"
    },
    {
      "inputs": [
        {
          "internalType": "bytes32[]",
          "name": "roles",
          "type": "bytes32[]"
        },
        {
          "internalType": "address[]",
          "name": "accounts",
          "type": "address[]"
        }
      ],
      "name": "hasRoles",
      "outputs": [
        {
          "internalType": "bool[]",
          "name": "",
          "type": "bool[]"
        }
      ],
      "stateMutability": "view",
      "type": "function"
    },
    {
      "inputs": [
        {
          "internalType": "bytes32",
          "name": "role",
          "type": "bytes32"
        },
        {
          "internalType": "address[]",
          "name": "candidates",
          "type": "address[]"
        }
      ],
      "name": "getRoleMembers",
      "outputs": [
        {
          "internalType": "address[]",
          "name": "",
          "type": "address[]"
        }
      ],
      "stateMutability": "view",
      "type": "function"
    }
  ],
  "bytecode": "0x608060405234801561001057600080fd5b506109dc806100206000396000f3fe608060405234801561001057600080fd5b50600436106100b45760003560e01c80638d4df7ab116100715780638d4df7ab1461018c57806391d14854146101ac578063a217fddf146101cf578063d3036dd4146101d7578063d547741f146101f7578063f1a93d4a1461020a57600080fd5b8063248a9ca3146100b95780632f2ff15d146100ef57806336568abe146101045780635f8a7abe146101175780636e1d616e1461013e57806375b238fc14610165575b600080fd5b6100dc6100c7366004610668565b60009081526020819052604090206001015490565b6040519081526020015b60405180910390f35b6101026100fd36600461069d565b610231565b005b61010261011236600461069d565b610281565b6100dc7f938c45fe3baa5cbd047f2473358a27f57db22291e9af95379a15ad016886dfb781565b6100dc7f59a1c48e5837ad7a7f3dcedcbe129bf3249ec4fbf651fd4f5e2600ead39fe2f581565b6100dc7fa49807205ce4d355092ef5a8a18f56e8913cf4a201fbe287825b095693c2177581565b61019f61019a3660046107a6565b6102fb565b6040516100e6919061085f565b6101bf6101ba36600461069d565b610413565b60405190151581526020016100e6565b6100dc600081565b6101ea6101e53660046108a5565b61043c565b6040516100e691906108e2565b61010261020536600461069d565b610565565b6100dc7f3fd1570350ad82b8536c3ba26e9b65482f86a92bc0631d77bd1bb4bc2035747381565b60008281526020819052604090206001015461024e905b33610413565b6102735760405162461bcd60e51b815260040161026a90610923565b60405180910390fd5b61027d828261059c565b5050565b6001600160a01b03811633146102f15760405162461bcd60e51b815260206004820152602f60248201527f416363657373436f6e74726f6c3a2063616e206f6e6c792072656e6f756e636560448201526e103937b632b9903337b91039b2b63360891b606482015260840161026a565b61027d8282610603565b606081518351146103475760405162461bcd60e51b8152602060048201526016602482015275082e4e4c2f2e640d8cadccee8d040dad2e6dac2e8c6d60531b604482015260640161026a565b6000835167ffffffffffffffff811115610363576103636106c9565b60405190808252806020026020018201604052801561038c578160200160208202803683370190505b50905060005b845181101561040b576103d78582815181106103b0576103b0610969565b60200260200101518583815181106103ca576103ca610969565b6020026020010151610413565b8282815181106103e9576103e9610969565b91151560209283029190910190910152806104038161097f565b915050610392565b509392505050565b6000918252602082815260408084206001600160a01b0393909316845291905290205460ff1690565b60606000805b835181101561048657610461858583815181106103ca576103ca610969565b1561047457816104708161097f565b9250505b8061047e8161097f565b915050610442565b5060008167ffffffffffffffff8111156104a2576104a26106c9565b6040519080825280602002602001820160405280156104cb578160200160208202803683370190505b5090506000805b855181101561055a576104f1878783815181106103ca576103ca610969565b156105485785818151811061050857610508610969565b602002602001015183838151811061052257610522610969565b6001600160a01b0390921660209283029190910190910152816105448161097f565b9250505b806105528161097f565b9150506104d2565b509095945050505050565b60008281526020819052604090206001015461058090610248565b6102f15760405162461bcd60e51b815260040161026a90610923565b6105a68282610413565b61027d576000828152602081815260408083206001600160a01b0385168085529252808320805460ff1916600117905551339285917f2f8788117e7eff1d82e926ec794901d17c78024a50270940304540a733656f0d9190a45050565b61060d8282610413565b1561027d576000828152602081815260408083206001600160a01b0385168085529252808320805460ff1916905551339285917ff6391f5c32d9c69d2a47ea670b442974b53935d1edc7fd64eb21e047a839171b9190a45050565b60006020828403121561067a57600080fd5b5035919050565b80356001600160a01b038116811461069857600080fd5b919050565b600080604083850312156106b057600080fd5b823591506106c060208401610681565b90509250929050565b634e487b7160e01b600052604160045260246000fd5b604051601f8201601f1916810167ffffffffffffffff81118282101715610708576107086106c9565b604052919050565b600067ffffffffffffffff82111561072a5761072a6106c9565b5060051b60200190565b600082601f83011261074557600080fd5b8135602061075a61075583610710565b6106df565b82815260059290921b8401810191818101908684111561077957600080fd5b8286015b8481101561079b5761078e81610681565b835291830191830161077d565b509695505050505050565b600080604083850312156107b957600080fd5b823567ffffffffffffffff808211156107d157600080fd5b818501915085601f8301126107e557600080fd5b813560206107f561075583610710565b82815260059290921b8401810191818101908984111561081457600080fd5b948201945b8386101561083257853582529482019490820190610819565b9650508601359250508082111561084857600080fd5b5061085585828601610734565b9150509250929050565b6020808252825182820181905260009190848201906040850190845b8181101561089957835115158352928401929184019160010161087b565b50909695505050505050565b600080604083850312156108b857600080fd5b82359150602083013567ffffffffffffffff8111156108d657600080fd5b61085585828601610734565b6020808252825182820181905260009190848201906040850190845b818110156108995783516001600160a01b0316835292840192918401916001016108fe565b60208082526026908201527f416363657373436f6e74726f6c3a2073656e646572206d75737420626520616e6040820152651030b236b4b760d11b606082015260800190565b634e487b7160e01b600052603260045260246000fd5b60006001820161099f57634e487b7160e01b600052601160045260246000fd5b506001019056fea2646970667358221220268a2f5c0478a7a8b9ef92f280c20da5dca2e853aee44e8293d1ac3b7871954564736f6c63430008130033",
  "immutableReferences": {},
  "source": "// SPDX-License-Identifier: MIT\r\npragma solidity ^0.8.19;\r\n\r\n/**\r\n * @title AccessControl\r\n * @dev Role-based access control for supply chain participants\r\n */\r\ncontract AccessControl {\r\n    \r\n    // Role definitions\r\n    bytes32 public constant DEFAULT_ADMIN_ROLE = 0x00;\r\n    bytes32 public constant ADMIN_ROLE = keccak256(\"ADMIN_ROLE\");\r\n    bytes32 public constant PARTICIPANT_ROLE = keccak256(\"PARTICIPANT_ROLE\");\r\n    bytes32 public constant AUDITOR_ROLE = keccak256(\"AUDITOR_ROLE\");\r\n    bytes32 public constant IOT_DEVICE_ROLE = keccak256(\"IOT_DEVICE_ROLE\");\r\n    \r\n    // Events\r\n    event RoleGranted(bytes32 indexed role, address indexed account, address indexed sender);\r\n    event RoleRevoked(bytes32 indexed role, address indexed account, address indexed sender);\r\n    event RoleAdminChanged(bytes32 indexed role, bytes32 indexed previousAdminRole, bytes32 indexed newAdminRole);\r\n    \r\n    // Role data structure\r\n    struct RoleData {\r\n        mapping(address => bool) members;\r\n        bytes32 adminRole;\r\n    }\r\n    \r\n    // Mapping from role to role data\r\n    mapping(bytes32 => RoleData) private _roles;\r\n    \r\n    /**\r\n     * @dev Modifier to check if caller has the specified role\r\n     */\r\n    modifier onlyRole(bytes32 role) {\r\n        require(hasRole(role, msg.sender), \"AccessControl: account missing role\");\r\n        _;\r\n    }\r\n    \r\n    /**\r\n     * @dev Check if an account has a specific role\r\n     */\r\n    function hasRole(bytes32 role, address account) public view returns (bool) {\r\n        return _roles[role].members[account];\r\n    }\r\n    \r\n    /**\r\n     * @dev Get the admin role for a given role\r\n     */\r\n    function getRoleAdmin(bytes32 role) public view returns (bytes32) {\r\n        return _roles[role].adminRole;\r\n    }\r\n    \r\n    /**\r\n     * @dev Grant a role to an account\r\n     */\r\n    function grantRole(bytes32 role, address account) public {\r\n        require(hasRole(getRoleAdmin(role), msg.sender), \"AccessControl: sender must be an admin\");\r\n        _grantRole(role, account);\r\n    }\r\n    \r\n    /**\r\n     * @dev Revoke a role from an account\r\n     */\r\n    function revokeRole(bytes32 role, address account) public {\r\n        require(hasRole(getRoleAdmin(role), msg.sender), \"AccessControl: sender must be an admin\");\r\n        _revokeRole(role, account);\r\n    }\r\n    \r\n    /**\r\n     * @dev Renounce a role (can only be called by the account itself)\r\n     */\r\n    function renounceRole(bytes32 role, address account) public {\r\n        require(account == msg.sender, \"AccessControl: can only renounce roles for self\");\r\n        _revokeRole(role, account);\r\n    }\r\n    \r\n    /**\r\n     * @dev Set up initial roles during contract deployment\r\n     */\r\n    function _setupRole(bytes32 role, address account) internal {\r\n        _grantRole(role, account);\r\n    }\r\n    \r\n    /**\r\n     * @dev Set the admin role for a given role\r\n     */\r\n    function _setRoleAdmin(bytes32 role, bytes32 adminRole) internal {\r\n        bytes32 previousAdminRole = getRoleAdmin(role);\r\n        _roles[role].adminRole = adminRole;\r\n        emit RoleAdminChanged(role, previousAdminRole, adminRole);\r\n    }\r\n    \r\n    /**\r\n     * @dev Internal function to grant a role\r\n     */\r\n    function _grantRole(bytes32 role, address account) private {\r\n        if (!hasRole(role, account)) {\r\n            _roles[role].members[account] = true;\r\n            emit RoleGranted(role, account, msg.sender);\r\n        }\r\n    }\r\n    \r\n    /**\r\n     * @dev Internal function to revoke a role\r\n     */\r\n    function _revokeRole(bytes32 role, address account) private {\r\n        if (hasRole(role, account)) {\r\n            _roles[role].members[account] = false;\r\n            emit RoleRevoked(role, account, msg.sender);\r\n        }\r\n    }\r\n    \r\n    /**\r\n     * @dev Check if multiple accounts have required roles (batch check)\r\n     */\r\n    function hasRoles(bytes32[] memory roles, address[] memory accounts) \r\n        external \r\n        view \r\n        returns (bool[] memory) {\r\n        require(roles.length == accounts.length, \"Arrays length mismatch\");\r\n        \r\n        bool[] memory results = new bool[](roles.length);\r\n        for (uint256 i = 0; i < roles.length; i++) {\r\n            results[i] = hasRole(roles[i], accounts[i]);\r\n        }\r\n        return results;\r\n    }\r\n    \r\n    /**\r\n     * @dev Get all accounts with a specific role (expensive operation, use carefully)\r\n     */\r\n    function getRoleMembers(bytes32 role, address[] memory candidates) \r\n        external \r\n        view \r\n        returns (address[] memory) {\r\n        uint256 count = 0;\r\n        \r\n        // First pass: count members\r\n        for (uint256 i = 0; i < candidates.length; i++) {\r\n            if (hasRole(role, candidates[i])) {\r\n                count++;\r\n            }\r\n        }\r\n        \r\n        // Second pass: collect members\r\n        address[] memory members = new address[](count);\r\n        uint256 index = 0;\r\n        for (uint256 i = 0; i < candidates.length; i++) {\r\n            if (hasRole(role, candidates[i])) {\r\n                members[index] = candidates[i];\r\n                index++;\r\n            }\r\n        }\r\n        \r\n        return members;\r\n    }\r\n}",
  "sourcePath": "C:\\projects\\BLOCKCHAIN_PROJECT\\contracts\\AccessControl.sol",
  "compiler": {
    "name": "solc",
    "version": "0.8.19+commit.7dd6d404.Emscripten.clang"
  },
  "schemaVersion": "3.4.16",
  "updatedAt": "2025-08-18T18:08:07.652Z",
  "devdoc": {
    "details": "Role-based access control for supply chain participants",
    "kind": "dev",
    "methods": {
      "getRoleAdmin(bytes32)": {
        "details": "Get the admin role for a given role"
      },
      "getRoleMembers(bytes32,address[])": {
        "details": "Get all accounts with a specific role (expensive operation, use carefully)"
      },
      "grantRole(bytes32,address)": {
        "details": "Grant a role to an account"
      },
      "hasRole(bytes32,address)": {
        "details": "Check if an account has a specific role"
      },
      "hasRoles(bytes32[],address[])": {
        "details": "Check if multiple accounts have required roles (batch check)"
      },
      "renounceRole(bytes32,address)": {
        "details": "Renounce a role (can only be called by the account itself)"
      },
      "revokeRole(bytes32,address)": {
        "details": "Revoke a role from an account"
      }
    },
    "title": "AccessControl",
    "version": 1
  },
  "userdoc": {
    "kind": "user",
    "methods": {},
    "version": 1
  }
}