{
  "contractName": "AdaptiveSharding",
  "abi": [
    {
      "inputs": [],
      "stateMutability": "nonpayable",
      "type": "constructor"
    },
    {
      "anonymous": false,
      "inputs": [
        {
          "indexed": false,
          "internalType": "uint256",
          "name": "fromShardId",
          "type": "uint256"
        },
        {
          "indexed": false,
          "internalType": "uint256",
          "name": "toShardId",
          "type": "uint256"
        },
        {
          "indexed": false,
          "internalType": "uint256",
          "name": "transactionsMoved",
          "type": "uint256"
        }
      ],
      "name": "LoadRebalanced",
      "type": "event"
    },
    {
      "anonymous": false,
      "inputs": [
        {
          "indexed": true,
          "internalType": "uint256",
          "name": "shardId",
          "type": "uint256"
        },
        {
          "indexed": false,
          "internalType": "uint256",
          "name": "avgTime",
          "type": "uint256"
        },
        {
          "indexed": false,
          "internalType": "uint256",
          "name": "throughput",
          "type": "uint256"
        }
      ],
      "name": "PerformanceMetricsUpdated",
      "type": "event"
    },
    {
      "anonymous": false,
      "inputs": [
        {
          "indexed": true,
          "internalType": "bytes32",
          "name": "role",
          "type": "bytes32"
        },
        {
          "indexed": true,
          "internalType": "bytes32",
          "name": "previousAdminRole",
          "type": "bytes32"
        },
        {
          "indexed": true,
          "internalType": "bytes32",
          "name": "newAdminRole",
          "type": "bytes32"
        }
      ],
      "name": "RoleAdminChanged",
      "type": "event"
    },
    {
      "anonymous": false,
      "inputs": [
        {
          "indexed": true,
          "internalType": "bytes32",
          "name": "role",
          "type": "bytes32"
        },
        {
          "indexed": true,
          "internalType": "address",
          "name": "account",
          "type": "address"
        },
        {
          "indexed": true,
          "internalType": "address",
          "name": "sender",
          "type": "address"
        }
      ],
      "name": "RoleGranted",
      "type": "event"
    },
    {
      "anonymous": false,
      "inputs": [
        {
          "indexed": true,
          "internalType": "bytes32",
          "name": "role",
          "type": "bytes32"
        },
        {
          "indexed": true,
          "internalType": "address",
          "name": "account",
          "type": "address"
        },
        {
          "indexed": true,
          "internalType": "address",
          "name": "sender",
          "type": "address"
        }
      ],
      "name": "RoleRevoked",
      "type": "event"
    },
    {
      "anonymous": false,
      "inputs": [
        {
          "indexed": true,
          "internalType": "uint256",
          "name": "shardId",
          "type": "uint256"
        }
      ],
      "name": "ShardActivated",
      "type": "event"
    },
    {
      "anonymous": false,
      "inputs": [
        {
          "indexed": true,
          "internalType": "uint256",
          "name": "shardId",
          "type": "uint256"
        },
        {
          "indexed": false,
          "internalType": "address",
          "name": "shardContract",
          "type": "address"
        },
        {
          "indexed": false,
          "internalType": "string",
          "name": "shardType",
          "type": "string"
        }
      ],
      "name": "ShardCreated",
      "type": "event"
    },
    {
      "anonymous": false,
      "inputs": [
        {
          "indexed": true,
          "internalType": "uint256",
          "name": "shardId",
          "type": "uint256"
        }
      ],
      "name": "ShardDeactivated",
      "type": "event"
    },
    {
      "anonymous": false,
      "inputs": [
        {
          "indexed": false,
          "internalType": "uint256",
          "name": "maxShards",
          "type": "uint256"
        },
        {
          "indexed": false,
          "internalType": "uint256",
          "name": "loadThreshold",
          "type": "uint256"
        },
        {
          "indexed": false,
          "internalType": "bool",
          "name": "autoScaling",
          "type": "bool"
        }
      ],
      "name": "ShardingConfigUpdated",
      "type": "event"
    },
    {
      "inputs": [],
      "name": "ADMIN_ROLE",
      "outputs": [
        {
          "internalType": "bytes32",
          "name": "",
          "type": "bytes32"
        }
      ],
      "stateMutability": "view",
      "type": "function",
      "constant": true
    },
    {
      "inputs": [],
      "name": "AUDITOR_ROLE",
      "outputs": [
        {
          "internalType": "bytes32",
          "name": "",
          "type": "bytes32"
        }
      ],
      "stateMutability": "view",
      "type": "function",
      "constant": true
    },
    {
      "inputs": [],
      "name": "DEFAULT_ADMIN_ROLE",
      "outputs": [
        {
          "internalType": "bytes32",
          "name": "",
          "type": "bytes32"
        }
      ],
      "stateMutability": "view",
      "type": "function",
      "constant": true
    },
    {
      "inputs": [],
      "name": "IOT_DEVICE_ROLE",
      "outputs": [
        {
          "internalType": "bytes32",
          "name": "",
          "type": "bytes32"
        }
      ],
      "stateMutability": "view",
      "type": "function",
      "constant": true
    },
    {
      "inputs": [],
      "name": "PARTICIPANT_ROLE",
      "outputs": [
        {
          "internalType": "bytes32",
          "name": "",
          "type": "bytes32"
        }
      ],
      "stateMutability": "view",
      "type": "function",
      "constant": true
    },
    {
      "inputs": [],
      "name": "SHARD_MANAGER_ROLE",
      "outputs": [
        {
          "internalType": "bytes32",
          "name": "",
          "type": "bytes32"
        }
      ],
      "stateMutability": "view",
      "type": "function",
      "constant": true
    },
    {
      "inputs": [],
      "name": "config",
      "outputs": [
        {
          "internalType": "uint256",
          "name": "maxShardsPerType",
          "type": "uint256"
        },
        {
          "internalType": "uint256",
          "name": "loadThreshold",
          "type": "uint256"
        },
        {
          "internalType": "uint256",
          "name": "minShardCapacity",
          "type": "uint256"
        },
        {
          "internalType": "uint256",
          "name": "maxShardCapacity",
          "type": "uint256"
        },
        {
          "internalType": "uint256",
          "name": "rebalanceInterval",
          "type": "uint256"
        },
        {
          "internalType": "bool",
          "name": "autoScaling",
          "type": "bool"
        }
      ],
      "stateMutability": "view",
      "type": "function",
      "constant": true
    },
    {
      "inputs": [
        {
          "internalType": "bytes32",
          "name": "role",
          "type": "bytes32"
        }
      ],
      "name": "getRoleAdmin",
      "outputs": [
        {
          "internalType": "bytes32",
          "name": "",
          "type": "bytes32"
        }
      ],
      "stateMutability": "view",
      "type": "function",
      "constant": true
    },
    {
      "inputs": [
        {
          "internalType": "bytes32",
          "name": "role",
          "type": "bytes32"
        },
        {
          "internalType": "address[]",
          "name": "candidates",
          "type": "address[]"
        }
      ],
      "name": "getRoleMembers",
      "outputs": [
        {
          "internalType": "address[]",
          "name": "",
          "type": "address[]"
        }
      ],
      "stateMutability": "view",
      "type": "function",
      "constant": true
    },
    {
      "inputs": [
        {
          "internalType": "bytes32",
          "name": "role",
          "type": "bytes32"
        },
        {
          "internalType": "address",
          "name": "account",
          "type": "address"
        }
      ],
      "name": "grantRole",
      "outputs": [],
      "stateMutability": "nonpayable",
      "type": "function"
    },
    {
      "inputs": [
        {
          "internalType": "bytes32",
          "name": "role",
          "type": "bytes32"
        },
        {
          "internalType": "address",
          "name": "account",
          "type": "address"
        }
      ],
      "name": "hasRole",
      "outputs": [
        {
          "internalType": "bool",
          "name": "",
          "type": "bool"
        }
      ],
      "stateMutability": "view",
      "type": "function",
      "constant": true
    },
    {
      "inputs": [
        {
          "internalType": "bytes32[]",
          "name": "roles",
          "type": "bytes32[]"
        },
        {
          "internalType": "address[]",
          "name": "accounts",
          "type": "address[]"
        }
      ],
      "name": "hasRoles",
      "outputs": [
        {
          "internalType": "bool[]",
          "name": "",
          "type": "bool[]"
        }
      ],
      "stateMutability": "view",
      "type": "function",
      "constant": true
    },
    {
      "inputs": [
        {
          "internalType": "bytes32",
          "name": "role",
          "type": "bytes32"
        },
        {
          "internalType": "address",
          "name": "account",
          "type": "address"
        }
      ],
      "name": "renounceRole",
      "outputs": [],
      "stateMutability": "nonpayable",
      "type": "function"
    },
    {
      "inputs": [
        {
          "internalType": "bytes32",
          "name": "role",
          "type": "bytes32"
        },
        {
          "internalType": "address",
          "name": "account",
          "type": "address"
        }
      ],
      "name": "revokeRole",
      "outputs": [],
      "stateMutability": "nonpayable",
      "type": "function"
    },
    {
      "inputs": [
        {
          "internalType": "uint256",
          "name": "",
          "type": "uint256"
        }
      ],
      "name": "shardMetrics",
      "outputs": [
        {
          "internalType": "uint256",
          "name": "avgTransactionTime",
          "type": "uint256"
        },
        {
          "internalType": "uint256",
          "name": "avgGasPrice",
          "type": "uint256"
        },
        {
          "internalType": "uint256",
          "name": "throughput",
          "type": "uint256"
        },
        {
          "internalType": "uint256",
          "name": "errorRate",
          "type": "uint256"
        },
        {
          "internalType": "uint256",
          "name": "lastUpdated",
          "type": "uint256"
        }
      ],
      "stateMutability": "view",
      "type": "function",
      "constant": true
    },
    {
      "inputs": [
        {
          "internalType": "uint256",
          "name": "",
          "type": "uint256"
        }
      ],
      "name": "shards",
      "outputs": [
        {
          "internalType": "uint256",
          "name": "shardId",
          "type": "uint256"
        },
        {
          "internalType": "address",
          "name": "shardContract",
          "type": "address"
        },
        {
          "internalType": "uint256",
          "name": "currentLoad",
          "type": "uint256"
        },
        {
          "internalType": "uint256",
          "name": "maxCapacity",
          "type": "uint256"
        },
        {
          "internalType": "uint256",
          "name": "transactionCount",
          "type": "uint256"
        },
        {
          "internalType": "uint256",
          "name": "averageGasUsed",
          "type": "uint256"
        },
        {
          "internalType": "bool",
          "name": "isActive",
          "type": "bool"
        },
        {
          "internalType": "uint256",
          "name": "createdAt",
          "type": "uint256"
        },
        {
          "internalType": "string",
          "name": "shardType",
          "type": "string"
        }
      ],
      "stateMutability": "view",
      "type": "function",
      "constant": true
    },
    {
      "inputs": [
        {
          "internalType": "string",
          "name": "",
          "type": "string"
        },
        {
          "internalType": "uint256",
          "name": "",
          "type": "uint256"
        }
      ],
      "name": "shardsByType",
      "outputs": [
        {
          "internalType": "uint256",
          "name": "",
          "type": "uint256"
        }
      ],
      "stateMutability": "view",
      "type": "function",
      "constant": true
    },
    {
      "inputs": [
        {
          "internalType": "bytes32",
          "name": "",
          "type": "bytes32"
        }
      ],
      "name": "transactionToShard",
      "outputs": [
        {
          "internalType": "uint256",
          "name": "",
          "type": "uint256"
        }
      ],
      "stateMutability": "view",
      "type": "function",
      "constant": true
    },
    {
      "inputs": [
        {
          "internalType": "string",
          "name": "_shardType",
          "type": "string"
        },
        {
          "internalType": "address",
          "name": "_shardContract",
          "type": "address"
        },
        {
          "internalType": "uint256",
          "name": "_capacity",
          "type": "uint256"
        }
      ],
      "name": "createShard",
      "outputs": [
        {
          "internalType": "uint256",
          "name": "",
          "type": "uint256"
        }
      ],
      "stateMutability": "nonpayable",
      "type": "function"
    },
    {
      "inputs": [
        {
          "internalType": "string",
          "name": "_shardType",
          "type": "string"
        }
      ],
      "name": "getOptimalShard",
      "outputs": [
        {
          "internalType": "uint256",
          "name": "",
          "type": "uint256"
        }
      ],
      "stateMutability": "view",
      "type": "function",
      "constant": true
    },
    {
      "inputs": [
        {
          "internalType": "string",
          "name": "_shardType",
          "type": "string"
        },
        {
          "internalType": "uint256",
          "name": "_estimatedGas",
          "type": "uint256"
        },
        {
          "internalType": "uint256",
          "name": "_priority",
          "type": "uint256"
        }
      ],
      "name": "getRecommendedShard",
      "outputs": [
        {
          "internalType": "uint256",
          "name": "",
          "type": "uint256"
        },
        {
          "internalType": "string",
          "name": "",
          "type": "string"
        }
      ],
      "stateMutability": "view",
      "type": "function",
      "constant": true
    },
    {
      "inputs": [
        {
          "internalType": "uint256",
          "name": "_shardId",
          "type": "uint256"
        },
        {
          "internalType": "uint256",
          "name": "_gasUsed",
          "type": "uint256"
        },
        {
          "internalType": "uint256",
          "name": "_executionTime",
          "type": "uint256"
        },
        {
          "internalType": "bool",
          "name": "_success",
          "type": "bool"
        }
      ],
      "name": "updateShardLoad",
      "outputs": [],
      "stateMutability": "nonpayable",
      "type": "function"
    },
    {
      "inputs": [
        {
          "internalType": "string",
          "name": "_shardType",
          "type": "string"
        }
      ],
      "name": "rebalanceShards",
      "outputs": [],
      "stateMutability": "nonpayable",
      "type": "function"
    },
    {
      "inputs": [],
      "name": "getSystemStats",
      "outputs": [
        {
          "internalType": "uint256",
          "name": "totalShards",
          "type": "uint256"
        },
        {
          "internalType": "uint256",
          "name": "activeShards",
          "type": "uint256"
        },
        {
          "internalType": "uint256",
          "name": "totalTransactions",
          "type": "uint256"
        },
        {
          "internalType": "uint256",
          "name": "avgSystemLoad",
          "type": "uint256"
        },
        {
          "internalType": "uint256",
          "name": "systemEfficiency",
          "type": "uint256"
        }
      ],
      "stateMutability": "view",
      "type": "function",
      "constant": true
    },
    {
      "inputs": [],
      "name": "getSystemEfficiencyScore",
      "outputs": [
        {
          "internalType": "uint256",
          "name": "",
          "type": "uint256"
        }
      ],
      "stateMutability": "view",
      "type": "function",
      "constant": true
    },
    {
      "inputs": [
        {
          "internalType": "uint256",
          "name": "_shardId",
          "type": "uint256"
        }
      ],
      "name": "getShardInfo",
      "outputs": [
        {
          "internalType": "address",
          "name": "shardContract",
          "type": "address"
        },
        {
          "internalType": "uint256",
          "name": "currentLoad",
          "type": "uint256"
        },
        {
          "internalType": "uint256",
          "name": "maxCapacity",
          "type": "uint256"
        },
        {
          "internalType": "uint256",
          "name": "transactionCount",
          "type": "uint256"
        },
        {
          "internalType": "bool",
          "name": "isActive",
          "type": "bool"
        },
        {
          "internalType": "string",
          "name": "shardType",
          "type": "string"
        }
      ],
      "stateMutability": "view",
      "type": "function",
      "constant": true
    },
    {
      "inputs": [
        {
          "internalType": "uint256",
          "name": "_shardId",
          "type": "uint256"
        }
      ],
      "name": "getShardMetrics",
      "outputs": [
        {
          "internalType": "uint256",
          "name": "avgTransactionTime",
          "type": "uint256"
        },
        {
          "internalType": "uint256",
          "name": "avgGasPrice",
          "type": "uint256"
        },
        {
          "internalType": "uint256",
          "name": "throughput",
          "type": "uint256"
        },
        {
          "internalType": "uint256",
          "name": "errorRate",
          "type": "uint256"
        },
        {
          "internalType": "uint256",
          "name": "lastUpdated",
          "type": "uint256"
        }
      ],
      "stateMutability": "view",
      "type": "function",
      "constant": true
    },
    {
      "inputs": [
        {
          "internalType": "string",
          "name": "_shardType",
          "type": "string"
        }
      ],
      "name": "getShardsByType",
      "outputs": [
        {
          "internalType": "uint256[]",
          "name": "",
          "type": "uint256[]"
        }
      ],
      "stateMutability": "view",
      "type": "function",
      "constant": true
    },
    {
      "inputs": [],
      "name": "emergencyRebalance",
      "outputs": [],
      "stateMutability": "nonpayable",
      "type": "function"
    }
  ],
  "bytecode": "0x60806040523480156200001157600080fd5b506200001f600033620000b8565b6200004b7fa49807205ce4d355092ef5a8a18f56e8913cf4a201fbe287825b095693c2177533620000b8565b6040805160c081018252600a8082526050602083018190526103e893830184905261271060608401819052610e1060808501819052600160a0909501859052600684905560079290925560089490945560099390935591909155600b805460ff191690911790556200014a565b620000c48282620000c8565b5050565b6000828152602081815260408083206001600160a01b038516845290915290205460ff16620000c4576000828152602081815260408083206001600160a01b0385168085529252808320805460ff1916600117905551339285917f2f8788117e7eff1d82e926ec794901d17c78024a50270940304540a733656f0d9190a45050565b612fc8806200015a6000396000f3fe608060405234801561001057600080fd5b50600436106101cf5760003560e01c8063884b099c11610104578063caed295d116100a2578063d547741f11610071578063d547741f1461051f578063dfa5e47114610532578063e2348a5d14610557578063f1a93d4a1461057e57600080fd5b8063caed295d146104b1578063ce633e27146104ef578063d1ce59a7146104f7578063d3036dd4146104ff57600080fd5b8063948e4bac116100de578063948e4bac1461046e578063952eedfc1461048e5780639b624c5f146104a1578063a217fddf146104a957600080fd5b8063884b099c1461040b5780638d4df7ab1461042b57806391d148541461044b57600080fd5b80635f8a7abe116101715780636e1d616e1161014b5780636e1d616e1461036c57806375b238fc1461039357806379502c55146103a8578063821511b9146103f857600080fd5b80635f8a7abe1461031f57806363148495146103465780636d66aa8f1461035957600080fd5b80632f2ff15d116101ad5780632f2ff15d1461024b57806336568abe1461025e5780634477a5d8146102715780635c56f9a3146102fe57600080fd5b806316faae90146101d4578063248a9ca3146102055780632866e09314610236575b600080fd5b6101e76101e236600461263f565b6105a5565b6040516101fc999897969594939291906126a8565b60405180910390f35b61022861021336600461263f565b60009081526020819052604090206001015490565b6040519081526020016101fc565b6102496102443660046127be565b610689565b005b610249610259366004612817565b610acb565b61024961026c366004612817565b610b12565b6102d661027f36600461263f565b600090815260046020818152604092839020835160a0810185528154808252600183015493820184905260028301549582018690526003830154606083018190529290940154608090910181905292949193929091565b604080519586526020860194909452928401919091526060830152608082015260a0016101fc565b61031161030c366004612843565b610b8c565b6040516101fc929190612891565b6102287f938c45fe3baa5cbd047f2473358a27f57db22291e9af95379a15ad016886dfb781565b6102286103543660046128aa565b610fef565b6102286103673660046127be565b611445565b6102287f59a1c48e5837ad7a7f3dcedcbe129bf3249ec4fbf651fd4f5e2600ead39fe2f581565b610228600080516020612f7383398151915281565b600654600754600854600954600a54600b546103c995949392919060ff1686565b6040805196875260208701959095529385019290925260608401526080830152151560a082015260c0016101fc565b610249610406366004612901565b6116b4565b61041e6104193660046127be565b611931565b6040516101fc9190612947565b61043e610439366004612a21565b611a6e565b6040516101fc9190612ada565b61045e610459366004612817565b611b88565b60405190151581526020016101fc565b61022861047c36600461263f565b60056020526000908152604090205481565b61022861049c366004612b14565b611bb1565b610228611bf1565b610228600081565b6102d66104bf36600461263f565b60046020819052600091825260409091208054600182015460028301546003840154939094015491939092909185565b610249611d3c565b6102d6612141565b61051261050d366004612b59565b612278565b6040516101fc9190612b96565b61024961052d366004612817565b6123a1565b61054561054036600461263f565b6123d8565b6040516101fc96959493929190612bd7565b6102287fa57066973b2155f87e85ce4b35594aa85c6061a64b99afb1fcf8f974f04290e381565b6102287f3fd1570350ad82b8536c3ba26e9b65482f86a92bc0631d77bd1bb4bc2035747381565b600260208190526000918252604090912080546001820154928201546003830154600484015460058501546006860154600787015460088801805497996001600160a01b031698969795969495939460ff9093169391929161060690612c1e565b80601f016020809104026020016040519081016040528092919081815260200182805461063290612c1e565b801561067f5780601f106106545761010080835404028352916020019161067f565b820191906000526020600020905b81548152906001019060200180831161066257829003601f168201915b5050505050905089565b600080516020612f738339815191526106a28133611b88565b6106c75760405162461bcd60e51b81526004016106be90612c52565b60405180910390fd5b6040805180820190915260078152661c1c9bd91d58dd60ca1b6020918201528251908301208290600080516020612f33833981519152148061073657506040805180820190915260038152621a5bdd60ea1b602091820152815190820120600080516020612f13833981519152145b80610776575060408051808201909152600b81526a1c185c9d1a58da5c185b9d60aa1b602091820152815190820120600080516020612f53833981519152145b6107925760405162461bcd60e51b81526004016106be90612c95565b60006003846040516107a49190612cc1565b90815260408051918290036020908101832080548083028501830190935282845291908301828280156107f657602002820191906000526020600020905b8154815260200190600101908083116107e2575b50505050509050600181511161085a5760405162461bcd60e51b815260206004820152602360248201527f4e656564206174206c6561737420322073686172647320746f20726562616c616044820152626e636560e81b60648201526084016106be565b60008080600019815b85518110156109ea57600086828151811061088057610880612cdd565b6020908102919091018101516000818152600280845260408083208151610120810183528154815260018201546001600160a01b03169681019690965291820154908501526003810154606085015260048101546080850152600581015460a0850152600681015460ff16151560c0850152600781015460e0850152600881018054939550919392909161010084019161091990612c1e565b80601f016020809104026020016040519081016040528092919081815260200182805461094590612c1e565b80156109925780601f1061096757610100808354040283529160200191610992565b820191906000526020600020905b81548152906001019060200180831161097557829003601f168201915b50505050508152505090508060c00151156109d55784816040015111156109be57806040015194508196505b83816040015110156109d557806040015193508195505b505080806109e290612d09565b915050610863565b5083158015906109f957508215155b8015610a0e5750610a0b816002612d22565b82115b15610ac15760006002610a218385612d39565b610a2b9190612d4c565b905080600260008781526020019081526020016000206002016000828254610a539190612d39565b909155505060008481526002602081905260408220018054839290610a79908490612d6e565b909155505060408051868152602081018690529081018290527f83bdc75422497faac7801be849ac8aa5eab8e32e9a7f9325d7777997baaff9039060600160405180910390a1505b5050505050505050565b600082815260208190526040902060010154610ae8905b33611b88565b610b045760405162461bcd60e51b81526004016106be90612d81565b610b0e8282612573565b5050565b6001600160a01b0381163314610b825760405162461bcd60e51b815260206004820152602f60248201527f416363657373436f6e74726f6c3a2063616e206f6e6c792072656e6f756e636560448201526e103937b632b9903337b91039b2b63360891b60648201526084016106be565b610b0e82826125da565b6040805180820190915260078152661c1c9bd91d58dd60ca1b6020918201528351908401206000906060908590600080516020612f338339815191521480610c0157506040805180820190915260038152621a5bdd60ea1b602091820152815190820120600080516020612f13833981519152145b80610c41575060408051808201909152600b81526a1c185c9d1a58da5c185b9d60aa1b602091820152815190820120600080516020612f53833981519152145b610c5d5760405162461bcd60e51b81526004016106be90612c95565b6000600387604051610c6f9190612cc1565b9081526040805191829003602090810183208054808302850183019093528284529190830182828015610cc157602002820191906000526020600020905b815481526020019060010190808311610cad575b505050505090506000815111610d0f5760405162461bcd60e51b81526020600482015260136024820152724e6f2073686172647320617661696c61626c6560681b60448201526064016106be565b60008060005b8351811015610ef6576000848281518110610d3257610d32612cdd565b6020908102919091018101516000818152600280845260408083208151610120810183528154815260018201546001600160a01b03169681019690965291820154908501526003810154606085015260048101546080850152600581015460a0850152600681015460ff16151560c0850152600781015460e08501526008810180549395509193929091610100840191610dcb90612c1e565b80601f0160208091040260200160405190810160405280929190818152602001828054610df790612c1e565b8015610e445780601f10610e1957610100808354040283529160200191610e44565b820191906000526020600020905b815481529060010190602001808311610e2757829003601f168201915b50505050508152505090508060c00151610e5f575050610ee4565b60008160400151826060015111610e77576000610e8b565b81604001518260600151610e8b9190612d39565b905060008260600151826064610ea19190612d22565b610eab9190612d4c565b905060058c1115610ed0576064610ec3826078612d22565b610ecd9190612d4c565b90505b85811115610edf578095508396505b505050505b80610eee81612d09565b915050610d15565b5081600003610f475760405162461bcd60e51b815260206004820152601760248201527f4e6f207375697461626c6520736861726420666f756e6400000000000000000060448201526064016106be565b600060508211610fb65760328211610f86576040518060400160405280600f81526020016e105d985a5b18589b19481cda185c99608a1b815250610fde565b604051806040016040528060128152602001712130b630b731b2b21039b2b632b1ba34b7b760711b815250610fde565b6040518060400160405280600e81526020016d131bddc81b1bd859081cda185c9960921b8152505b929a92995091975050505050505050565b6000600080516020612f7383398151915261100a8133611b88565b6110265760405162461bcd60e51b81526004016106be90612c52565b6040805180820190915260078152661c1c9bd91d58dd60ca1b6020918201528551908601208590600080516020612f33833981519152148061109557506040805180820190915260038152621a5bdd60ea1b602091820152815190820120600080516020612f13833981519152145b806110d5575060408051808201909152600b81526a1c185c9d1a58da5c185b9d60aa1b602091820152815190820120600080516020612f53833981519152145b6110f15760405162461bcd60e51b81526004016106be90612c95565b6001600160a01b0385166111475760405162461bcd60e51b815260206004820152601e60248201527f496e76616c696420736861726420636f6e74726163742061646472657373000060448201526064016106be565b6008548410156111925760405162461bcd60e51b815260206004820152601660248201527543617061636974792062656c6f77206d696e696d756d60501b60448201526064016106be565b6009548411156111dd5760405162461bcd60e51b815260206004820152601660248201527543617061636974792061626f7665206d6178696d756d60501b60448201526064016106be565b6006546040516003906111f1908990612cc1565b908152604051908190036020019020541061125a5760405162461bcd60e51b8152602060048201526024808201527f4d6178696d756d20736861726473207265616368656420666f722074686973206044820152637479706560e01b60648201526084016106be565b6001805490600061126a83612d09565b91905055506040518061012001604052806001548152602001866001600160a01b03168152602001600081526020018581526020016000815260200160008152602001600115158152602001428152602001878152506002600060015481526020019081526020016000206000820151816000015560208201518160010160006101000a8154816001600160a01b0302191690836001600160a01b0316021790555060408201518160020155606082015181600301556080820151816004015560a0820151816005015560c08201518160060160006101000a81548160ff02191690831515021790555060e082015181600701556101008201518160080190816113749190612e15565b509050506003866040516113889190612cc1565b908152604080516020928190038301812060018054825480830184556000938452868420015560a08301845281835284830182815283850183815260608501848152426080870190815284548652600498899052948790209551865591518584015551600285015551600384015590519190930155905490517f221e33faad76b519287028f3bf516d9e3fde7af85c39968eac68ecda03e722ed906114309088908a90612ed5565b60405180910390a25050600154949350505050565b6040805180820190915260078152661c1c9bd91d58dd60ca1b6020918201528151908201206000908290600080516020612f3383398151915214806114b757506040805180820190915260038152621a5bdd60ea1b602091820152815190820120600080516020612f13833981519152145b806114f7575060408051808201909152600b81526a1c185c9d1a58da5c185b9d60aa1b602091820152815190820120600080516020612f53833981519152145b6115135760405162461bcd60e51b81526004016106be90612c95565b60006003846040516115259190612cc1565b908152604080519182900360209081018320805480830285018301909352828452919083018282801561157757602002820191906000526020600020905b815481526020019060010190808311611563575b5050505050905060008151116115d95760405162461bcd60e51b815260206004820152602160248201527f4e6f2073686172647320617661696c61626c6520666f722074686973207479706044820152606560f81b60648201526084016106be565b6000600019815b83518110156116585760008482815181106115fd576115fd612cdd565b60209081029190910181015160008181526002909252604090912060068101549192509060ff1680156116335750838160020154105b1561164357806002015493508194505b5050808061165090612d09565b9150506115e0565b50816000036116a95760405162461bcd60e51b815260206004820152601a60248201527f4e6f206163746976652073686172647320617661696c61626c6500000000000060448201526064016106be565b509250505b50919050565b7f938c45fe3baa5cbd047f2473358a27f57db22291e9af95379a15ad016886dfb76116df8133611b88565b6116fb5760405162461bcd60e51b81526004016106be90612c52565b600085815260026020526040902060060154859060ff166117545760405162461bcd60e51b81526020600482015260136024820152725368617264206973206e6f742061637469766560681b60448201526064016106be565b600086815260026020908152604080832060049283905292209082015461177c906001612d6e565b826004015483600201546117909190612d22565b61179b906001612d6e565b6117a59190612d4c565b60028301556004820180549060006117bc83612d09565b90915550506004820154876117d2600183612d39565b84600501546117e19190612d22565b6117eb9190612d6e565b6117f59190612d4c565b600583015560048201548661180b600183612d39565b83546118179190612d22565b6118219190612d6e565b61182b9190612d4c565b8155600782015461183c9042612d39565b611847906001612d6e565b6004830154611858906103e8612d22565b6118629190612d4c565b6002820155846118aa57600482015461187c600182612d39565b826003015461188b9190612d22565b611896906064612d6e565b6118a09190612d4c565b60038201556118d9565b60048201546118ba600182612d39565b82600301546118c99190612d22565b6118d39190612d4c565b60038201555b426004820155805460028201546040518a927fea2e3c1ac5557f320227567571552a93843bb39beaeb2cf3a370ff68fbc9a24e9261191f92918252602082015260400190565b60405180910390a25050505050505050565b6040805180820190915260078152661c1c9bd91d58dd60ca1b6020918201528151908201206060908290600080516020612f3383398151915214806119a357506040805180820190915260038152621a5bdd60ea1b602091820152815190820120600080516020612f13833981519152145b806119e3575060408051808201909152600b81526a1c185c9d1a58da5c185b9d60aa1b602091820152815190820120600080516020612f53833981519152145b6119ff5760405162461bcd60e51b81526004016106be90612c95565b600383604051611a0f9190612cc1565b9081526040805191829003602090810183208054808302850183019093528284529190830182828015611a6157602002820191906000526020600020905b815481526020019060010190808311611a4d575b5050505050915050919050565b60608151835114611aba5760405162461bcd60e51b8152602060048201526016602482015275082e4e4c2f2e640d8cadccee8d040dad2e6dac2e8c6d60531b60448201526064016106be565b6000835167ffffffffffffffff811115611ad657611ad6612707565b604051908082528060200260200182016040528015611aff578160200160208202803683370190505b50905060005b8451811015611b7e57611b4a858281518110611b2357611b23612cdd565b6020026020010151858381518110611b3d57611b3d612cdd565b6020026020010151611b88565b828281518110611b5c57611b5c612cdd565b9115156020928302919091019091015280611b7681612d09565b915050611b05565b5090505b92915050565b6000918252602082815260408084206001600160a01b0393909316845291905290205460ff1690565b81516020818401810180516003825292820191850191909120919052805482908110611bdc57600080fd5b90600052602060002001600091509150505481565b6000600154600003611c035750600090565b6000808060015b6001548111611cb55760008181526002602052604090206006015460ff1615611ca357600081815260046020818152604092839020835160a0810185528154815260018201549281019290925260028101549382018490526003810154606083015290910154608082015290611c809086612d6e565b9450806060015184611c929190612d6e565b935082611c9e81612d09565b935050505b80611cad81612d09565b915050611c0a565b5080600003611cc8576000935050505090565b6000611cd48285612d4c565b90506000611ce28385612d4c565b90506000808311611cf4576000611d1e565b611cfe8284612d6e565b611d09906001612d6e565b611d14846064612d22565b611d1e9190612d4c565b905060648111611d2e5780611d31565b60645b965050505050505090565b600080516020612f73833981519152611d558133611b88565b611d715760405162461bcd60e51b81526004016106be90612c52565b60006040518060600160405280604051806040016040528060078152602001661c1c9bd91d58dd60ca1b8152508152602001604051806040016040528060038152602001621a5bdd60ea1b81525081526020016040518060400160405280600b81526020016a1c185c9d1a58da5c185b9d60aa1b815250815250905060005b600381101561213c5760016003838360038110611e0f57611e0f612cdd565b6020020151604051611e219190612cc1565b90815260405190819003602001902054111561212a5760006003838360038110611e4d57611e4d612cdd565b6020020151604051611e5f9190612cc1565b9081526040805191829003602090810183208054808302850183019093528284529190830182828015611eb157602002820191906000526020600020905b815481526020019060010190808311611e9d575b50505050509050600080600080600019905060005b855181101561204d576000868281518110611ee357611ee3612cdd565b6020908102919091018101516000818152600280845260408083208151610120810183528154815260018201546001600160a01b03169681019690965291820154908501526003810154606085015260048101546080850152600581015460a0850152600681015460ff16151560c0850152600781015460e08501526008810180549395509193929091610100840191611f7c90612c1e565b80601f0160208091040260200160405190810160405280929190818152602001828054611fa890612c1e565b8015611ff55780601f10611fca57610100808354040283529160200191611ff5565b820191906000526020600020905b815481529060010190602001808311611fd857829003601f168201915b50505050508152505090508060c001511561203857848160400151111561202157806040015194508196505b838160400151101561203857806040015193508195505b5050808061204590612d09565b915050611ec6565b50831580159061205c57508215155b8015612071575061206e816002612d22565b82115b1561212457600060026120848385612d39565b61208e9190612d4c565b9050806002600087815260200190815260200160002060020160008282546120b69190612d39565b9091555050600084815260026020819052604082200180548392906120dc908490612d6e565b909155505060408051868152602081018690529081018290527f83bdc75422497faac7801be849ac8aa5eab8e32e9a7f9325d7777997baaff9039060600160405180910390a1505b50505050505b8061213481612d09565b915050611df0565b505050565b600180549060009081908190819081905b60015481116121f05760008181526002602052604090206006015460ff16156121de578561217f81612d09565b60008381526002602052604090206004015490975061219f915086612d6e565b60008281526002602081905260409091206003810154910154919650906121c7906064612d22565b6121d19190612d4c565b6121db9083612d6e565b91505b806121e881612d09565b915050612152565b506000851161220057600061220a565b61220a8582612d4c565b9250306001600160a01b0316639b624c5f6040518163ffffffff1660e01b8152600401602060405180830381865afa15801561224a573d6000803e3d6000fd5b505050506040513d601f19601f8201168201806040525081019061226e9190612ef9565b9150509091929394565b60606000805b83518110156122c25761229d85858381518110611b3d57611b3d612cdd565b156122b057816122ac81612d09565b9250505b806122ba81612d09565b91505061227e565b5060008167ffffffffffffffff8111156122de576122de612707565b604051908082528060200260200182016040528015612307578160200160208202803683370190505b5090506000805b85518110156123965761232d87878381518110611b3d57611b3d612cdd565b156123845785818151811061234457612344612cdd565b602002602001015183838151811061235e5761235e612cdd565b6001600160a01b03909216602092830291909101909101528161238081612d09565b9250505b8061238e81612d09565b91505061230e565b509095945050505050565b6000828152602081905260409020600101546123bc90610ae2565b610b825760405162461bcd60e51b81526004016106be90612d81565b60008181526002602081815260408084208151610120810183528154815260018201546001600160a01b0316938101939093529283015490820152600382015460608281019190915260048301546080830152600583015460a0830152600683015460ff16151560c0830152600783015460e08301526008830180548594859485948594909385939161010084019161247090612c1e565b80601f016020809104026020016040519081016040528092919081815260200182805461249c90612c1e565b80156124e95780601f106124be576101008083540402835291602001916124e9565b820191906000526020600020905b8154815290600101906020018083116124cc57829003601f168201915b5050505050815250509050806000015160000361253f5760405162461bcd60e51b815260206004820152601460248201527314da185c9908191bd95cc81b9bdd08195e1a5cdd60621b60448201526064016106be565b602081015160408201516060830151608084015160c085015161010090950151939c929b5090995097509195509350915050565b61257d8282611b88565b610b0e576000828152602081815260408083206001600160a01b0385168085529252808320805460ff1916600117905551339285917f2f8788117e7eff1d82e926ec794901d17c78024a50270940304540a733656f0d9190a45050565b6125e48282611b88565b15610b0e576000828152602081815260408083206001600160a01b0385168085529252808320805460ff1916905551339285917ff6391f5c32d9c69d2a47ea670b442974b53935d1edc7fd64eb21e047a839171b9190a45050565b60006020828403121561265157600080fd5b5035919050565b60005b8381101561267357818101518382015260200161265b565b50506000910152565b60008151808452612694816020860160208601612658565b601f01601f19169290920160200192915050565b60006101208b835260018060a01b038b1660208401528960408401528860608401528760808401528660a084015285151560c08401528460e0840152806101008401526126f78184018561267c565b9c9b505050505050505050505050565b634e487b7160e01b600052604160045260246000fd5b604051601f8201601f1916810167ffffffffffffffff8111828210171561274657612746612707565b604052919050565b600082601f83011261275f57600080fd5b813567ffffffffffffffff81111561277957612779612707565b61278c601f8201601f191660200161271d565b8181528460208386010111156127a157600080fd5b816020850160208301376000918101602001919091529392505050565b6000602082840312156127d057600080fd5b813567ffffffffffffffff8111156127e757600080fd5b6127f38482850161274e565b949350505050565b80356001600160a01b038116811461281257600080fd5b919050565b6000806040838503121561282a57600080fd5b8235915061283a602084016127fb565b90509250929050565b60008060006060848603121561285857600080fd5b833567ffffffffffffffff81111561286f57600080fd5b61287b8682870161274e565b9660208601359650604090950135949350505050565b8281526040602082015260006127f3604083018461267c565b6000806000606084860312156128bf57600080fd5b833567ffffffffffffffff8111156128d657600080fd5b6128e28682870161274e565b9350506128f1602085016127fb565b9150604084013590509250925092565b6000806000806080858703121561291757600080fd5b8435935060208501359250604085013591506060850135801515811461293c57600080fd5b939692955090935050565b6020808252825182820181905260009190848201906040850190845b8181101561297f57835183529284019291840191600101612963565b50909695505050505050565b600067ffffffffffffffff8211156129a5576129a5612707565b5060051b60200190565b600082601f8301126129c057600080fd5b813560206129d56129d08361298b565b61271d565b82815260059290921b840181019181810190868411156129f457600080fd5b8286015b84811015612a1657612a09816127fb565b83529183019183016129f8565b509695505050505050565b60008060408385031215612a3457600080fd5b823567ffffffffffffffff80821115612a4c57600080fd5b818501915085601f830112612a6057600080fd5b81356020612a706129d08361298b565b82815260059290921b84018101918181019089841115612a8f57600080fd5b948201945b83861015612aad57853582529482019490820190612a94565b96505086013592505080821115612ac357600080fd5b50612ad0858286016129af565b9150509250929050565b6020808252825182820181905260009190848201906040850190845b8181101561297f578351151583529284019291840191600101612af6565b60008060408385031215612b2757600080fd5b823567ffffffffffffffff811115612b3e57600080fd5b612b4a8582860161274e565b95602094909401359450505050565b60008060408385031215612b6c57600080fd5b82359150602083013567ffffffffffffffff811115612b8a57600080fd5b612ad0858286016129af565b6020808252825182820181905260009190848201906040850190845b8181101561297f5783516001600160a01b031683529284019291840191600101612bb2565b60018060a01b0387168152856020820152846040820152836060820152821515608082015260c060a08201526000612c1260c083018461267c565b98975050505050505050565b600181811c90821680612c3257607f821691505b6020821081036116ae57634e487b7160e01b600052602260045260246000fd5b60208082526023908201527f416363657373436f6e74726f6c3a206163636f756e74206d697373696e6720726040820152626f6c6560e81b606082015260800190565b602080825260129082015271496e76616c6964207368617264207479706560701b604082015260600190565b60008251612cd3818460208701612658565b9190910192915050565b634e487b7160e01b600052603260045260246000fd5b634e487b7160e01b600052601160045260246000fd5b600060018201612d1b57612d1b612cf3565b5060010190565b8082028115828204841417611b8257611b82612cf3565b81810381811115611b8257611b82612cf3565b600082612d6957634e487b7160e01b600052601260045260246000fd5b500490565b80820180821115611b8257611b82612cf3565b60208082526026908201527f416363657373436f6e74726f6c3a2073656e646572206d75737420626520616e6040820152651030b236b4b760d11b606082015260800190565b601f82111561213c57600081815260208120601f850160051c81016020861015612dee5750805b601f850160051c820191505b81811015612e0d57828155600101612dfa565b505050505050565b815167ffffffffffffffff811115612e2f57612e2f612707565b612e4381612e3d8454612c1e565b84612dc7565b602080601f831160018114612e785760008415612e605750858301515b600019600386901b1c1916600185901b178555612e0d565b600085815260208120601f198616915b82811015612ea757888601518255948401946001909101908401612e88565b5085821015612ec55787850151600019600388901b60f8161c191681555b5050505050600190811b01905550565b6001600160a01b03831681526040602082018190526000906127f39083018461267c565b600060208284031215612f0b57600080fd5b505191905056fe7fb8bbb419454d6c0c5e17e942b33b29c13f1adfc4836d269058f3f4c384df1236a4a183f82db747ab399ca476ab84cc3def6abe3ac63748d03b4584af38d05789ac24e9d325e5935dd9098bddc7f9879a6b0e297f7e2423d271ca0fed835edba49807205ce4d355092ef5a8a18f56e8913cf4a201fbe287825b095693c21775a264697066735822122027d486520233f646215006f255359341aff42b8ca3f08a1a5f189f32de0c2bc364736f6c63430008130033",
  "immutableReferences": {},
  "source": "// SPDX-License-Identifier: MIT\r\npragma solidity ^0.8.19;\r\n\r\nimport \"./AccessControl.sol\";\r\n\r\n/**\r\n * @title AdaptiveSharding\r\n * @dev Implements adaptive sharding for high-efficiency blockchain operations\r\n * This contract manages multiple shards dynamically based on load and performance\r\n */\r\ncontract AdaptiveSharding is AccessControl {\r\n    \r\n    // Shard structure\r\n    struct Shard {\r\n        uint256 shardId;\r\n        address shardContract;\r\n        uint256 currentLoad;\r\n        uint256 maxCapacity;\r\n        uint256 transactionCount;\r\n        uint256 averageGasUsed;\r\n        bool isActive;\r\n        uint256 createdAt;\r\n        string shardType; // \"product\", \"iot\", \"participant\"\r\n    }\r\n    \r\n    // Performance metrics for adaptive decisions\r\n    struct PerformanceMetrics {\r\n        uint256 avgTransactionTime;\r\n        uint256 avgGasPrice;\r\n        uint256 throughput;\r\n        uint256 errorRate;\r\n        uint256 lastUpdated;\r\n    }\r\n    \r\n    // Sharding configuration\r\n    struct ShardingConfig {\r\n        uint256 maxShardsPerType;\r\n        uint256 loadThreshold; // Percentage (0-100)\r\n        uint256 minShardCapacity;\r\n        uint256 maxShardCapacity;\r\n        uint256 rebalanceInterval; // seconds\r\n        bool autoScaling;\r\n    }\r\n    \r\n    // Events\r\n    event ShardCreated(uint256 indexed shardId, address shardContract, string shardType);\r\n    event ShardActivated(uint256 indexed shardId);\r\n    event ShardDeactivated(uint256 indexed shardId);\r\n    event LoadRebalanced(uint256 fromShardId, uint256 toShardId, uint256 transactionsMoved);\r\n    event PerformanceMetricsUpdated(uint256 indexed shardId, uint256 avgTime, uint256 throughput);\r\n    event ShardingConfigUpdated(uint256 maxShards, uint256 loadThreshold, bool autoScaling);\r\n    \r\n    // State variables\r\n    uint256 private shardCounter;\r\n    mapping(uint256 => Shard) public shards;\r\n    mapping(string => uint256[]) public shardsByType;\r\n    mapping(uint256 => PerformanceMetrics) public shardMetrics;\r\n    mapping(bytes32 => uint256) public transactionToShard;\r\n    \r\n    ShardingConfig public config;\r\n    \r\n    // Modifiers\r\n    modifier onlyActiveShard(uint256 _shardId) {\r\n        require(shards[_shardId].isActive, \"Shard is not active\");\r\n        _;\r\n    }\r\n    \r\n    modifier validShardType(string memory _shardType) {\r\n        require(\r\n            keccak256(bytes(_shardType)) == keccak256(bytes(\"product\")) ||\r\n            keccak256(bytes(_shardType)) == keccak256(bytes(\"iot\")) ||\r\n            keccak256(bytes(_shardType)) == keccak256(bytes(\"participant\")),\r\n            \"Invalid shard type\"\r\n        );\r\n        _;\r\n    }\r\n    \r\n    constructor() {\r\n        _setupRole(DEFAULT_ADMIN_ROLE, msg.sender);\r\n        _setupRole(ADMIN_ROLE, msg.sender);\r\n        \r\n        // Initialize default configuration\r\n        config = ShardingConfig({\r\n            maxShardsPerType: 10,\r\n            loadThreshold: 80, // 80% load triggers new shard\r\n            minShardCapacity: 1000,\r\n            maxShardCapacity: 10000,\r\n            rebalanceInterval: 3600, // 1 hour\r\n            autoScaling: true\r\n        });\r\n    }\r\n    \r\n    /**\r\n     * @dev Create a new shard for a specific type\r\n     */\r\n    function createShard(\r\n        string memory _shardType,\r\n        address _shardContract,\r\n        uint256 _capacity\r\n    ) external onlyRole(ADMIN_ROLE) validShardType(_shardType) returns (uint256) {\r\n        require(_shardContract != address(0), \"Invalid shard contract address\");\r\n        require(_capacity >= config.minShardCapacity, \"Capacity below minimum\");\r\n        require(_capacity <= config.maxShardCapacity, \"Capacity above maximum\");\r\n        \r\n        // Check if we can create more shards of this type\r\n        require(shardsByType[_shardType].length < config.maxShardsPerType, \"Maximum shards reached for this type\");\r\n        \r\n        shardCounter++;\r\n        \r\n        shards[shardCounter] = Shard({\r\n            shardId: shardCounter,\r\n            shardContract: _shardContract,\r\n            currentLoad: 0,\r\n            maxCapacity: _capacity,\r\n            transactionCount: 0,\r\n            averageGasUsed: 0,\r\n            isActive: true,\r\n            createdAt: block.timestamp,\r\n            shardType: _shardType\r\n        });\r\n        \r\n        shardsByType[_shardType].push(shardCounter);\r\n        \r\n        // Initialize performance metrics\r\n        shardMetrics[shardCounter] = PerformanceMetrics({\r\n            avgTransactionTime: 0,\r\n            avgGasPrice: 0,\r\n            throughput: 0,\r\n            errorRate: 0,\r\n            lastUpdated: block.timestamp\r\n        });\r\n        \r\n        emit ShardCreated(shardCounter, _shardContract, _shardType);\r\n        \r\n        return shardCounter;\r\n    }\r\n    \r\n    /**\r\n     * @dev Get optimal shard for a transaction based on load and performance\r\n     */\r\n    function getOptimalShard(string memory _shardType) external view validShardType(_shardType) returns (uint256) {\r\n        uint256[] memory typeShards = shardsByType[_shardType];\r\n        require(typeShards.length > 0, \"No shards available for this type\");\r\n        \r\n        uint256 optimalShardId = 0;\r\n        uint256 lowestLoad = type(uint256).max;\r\n        \r\n        for (uint256 i = 0; i < typeShards.length; i++) {\r\n            uint256 shardId = typeShards[i];\r\n            Shard storage shard = shards[shardId];\r\n            \r\n            if (shard.isActive && shard.currentLoad < lowestLoad) {\r\n                lowestLoad = shard.currentLoad;\r\n                optimalShardId = shardId;\r\n            }\r\n        }\r\n        \r\n        require(optimalShardId != 0, \"No active shards available\");\r\n        return optimalShardId;\r\n    }\r\n    \r\n    /**\r\n     * @dev Get recommended shard for new transaction based on predictive analysis\r\n     */\r\n    function getRecommendedShard(\r\n        string memory _shardType,\r\n        uint256 _estimatedGas,\r\n        uint256 _priority\r\n    ) external view validShardType(_shardType) returns (uint256, string memory) {\r\n        uint256[] memory typeShards = shardsByType[_shardType];\r\n        require(typeShards.length > 0, \"No shards available\");\r\n        \r\n        uint256 bestShardId = 0;\r\n        uint256 bestScore = 0;\r\n        \r\n        for (uint256 i = 0; i < typeShards.length; i++) {\r\n            uint256 shardId = typeShards[i];\r\n            Shard memory shard = shards[shardId];\r\n            \r\n            if (!shard.isActive) continue;\r\n            \r\n            // Simplified scoring to avoid stack depth\r\n            uint256 availableCapacity = shard.maxCapacity > shard.currentLoad ? \r\n                shard.maxCapacity - shard.currentLoad : 0;\r\n            \r\n            uint256 score = (availableCapacity * 100) / shard.maxCapacity;\r\n            \r\n            // Bonus for priority transactions\r\n            if (_priority > 5) {\r\n                score = (score * 120) / 100;\r\n            }\r\n            \r\n            if (score > bestScore) {\r\n                bestScore = score;\r\n                bestShardId = shardId;\r\n            }\r\n        }\r\n        \r\n        require(bestShardId != 0, \"No suitable shard found\");\r\n        \r\n        string memory reason = bestScore > 80 ? \"Low load shard\" : \r\n                              bestScore > 50 ? \"Balanced selection\" : \r\n                              \"Available shard\";\r\n        \r\n        return (bestShardId, reason);\r\n    }\r\n    \r\n    /**\r\n     * @dev Update shard load after transaction\r\n     */\r\n    function updateShardLoad(\r\n        uint256 _shardId,\r\n        uint256 _gasUsed,\r\n        uint256 _executionTime,\r\n        bool _success\r\n    ) external onlyRole(PARTICIPANT_ROLE) onlyActiveShard(_shardId) {\r\n        Shard storage shard = shards[_shardId];\r\n        PerformanceMetrics storage metrics = shardMetrics[_shardId];\r\n        \r\n        // Update shard load\r\n        shard.currentLoad = (shard.currentLoad * shard.transactionCount + 1) / (shard.transactionCount + 1);\r\n        shard.transactionCount++;\r\n        \r\n        // Update average gas used\r\n        shard.averageGasUsed = (shard.averageGasUsed * (shard.transactionCount - 1) + _gasUsed) / shard.transactionCount;\r\n        \r\n        // Update performance metrics\r\n        metrics.avgTransactionTime = (metrics.avgTransactionTime * (shard.transactionCount - 1) + _executionTime) / shard.transactionCount;\r\n        metrics.throughput = shard.transactionCount * 1000 / (block.timestamp - shard.createdAt + 1);\r\n        \r\n        if (!_success) {\r\n            metrics.errorRate = (metrics.errorRate * (shard.transactionCount - 1) + 100) / shard.transactionCount;\r\n        } else {\r\n            metrics.errorRate = (metrics.errorRate * (shard.transactionCount - 1)) / shard.transactionCount;\r\n        }\r\n        \r\n        metrics.lastUpdated = block.timestamp;\r\n        \r\n        emit PerformanceMetricsUpdated(_shardId, metrics.avgTransactionTime, metrics.throughput);\r\n    }\r\n    \r\n    /**\r\n     * @dev Rebalance load between shards\r\n     */\r\n    function rebalanceShards(string memory _shardType) external onlyRole(ADMIN_ROLE) validShardType(_shardType) {\r\n        uint256[] memory typeShards = shardsByType[_shardType];\r\n        require(typeShards.length > 1, \"Need at least 2 shards to rebalance\");\r\n        \r\n        // Find overloaded and underloaded shards\r\n        uint256 overloadedShard = 0;\r\n        uint256 underloadedShard = 0;\r\n        uint256 maxLoad = 0;\r\n        uint256 minLoad = type(uint256).max;\r\n        \r\n        for (uint256 i = 0; i < typeShards.length; i++) {\r\n            uint256 shardId = typeShards[i];\r\n            Shard memory shard = shards[shardId];\r\n            \r\n            if (shard.isActive) {\r\n                if (shard.currentLoad > maxLoad) {\r\n                    maxLoad = shard.currentLoad;\r\n                    overloadedShard = shardId;\r\n                }\r\n                if (shard.currentLoad < minLoad) {\r\n                    minLoad = shard.currentLoad;\r\n                    underloadedShard = shardId;\r\n                }\r\n            }\r\n        }\r\n        \r\n        // Perform rebalancing if significant difference\r\n        if (overloadedShard != 0 && underloadedShard != 0 && maxLoad > minLoad * 2) {\r\n            uint256 transactionsToMove = (maxLoad - minLoad) / 2;\r\n            \r\n            // Update loads\r\n            shards[overloadedShard].currentLoad -= transactionsToMove;\r\n            shards[underloadedShard].currentLoad += transactionsToMove;\r\n            \r\n            emit LoadRebalanced(overloadedShard, underloadedShard, transactionsToMove);\r\n        }\r\n    }\r\n    \r\n    /**\r\n     * @dev Get system-wide statistics\r\n     */\r\n    function getSystemStats() external view returns (\r\n        uint256 totalShards,\r\n        uint256 activeShards,\r\n        uint256 totalTransactions,\r\n        uint256 avgSystemLoad,\r\n        uint256 systemEfficiency\r\n    ) {\r\n        totalShards = shardCounter;\r\n        activeShards = 0;\r\n        totalTransactions = 0;\r\n        uint256 totalLoad = 0;\r\n        \r\n        for (uint256 i = 1; i <= shardCounter; i++) {\r\n            if (shards[i].isActive) {\r\n                activeShards++;\r\n                totalTransactions += shards[i].transactionCount;\r\n                totalLoad += (shards[i].currentLoad * 100) / shards[i].maxCapacity;\r\n            }\r\n        }\r\n        \r\n        avgSystemLoad = activeShards > 0 ? totalLoad / activeShards : 0;\r\n        systemEfficiency = this.getSystemEfficiencyScore();\r\n        \r\n        return (totalShards, activeShards, totalTransactions, avgSystemLoad, systemEfficiency);\r\n    }\r\n    \r\n    /**\r\n     * @dev Calculate system efficiency score\r\n     */\r\n    function getSystemEfficiencyScore() external view returns (uint256) {\r\n        if (shardCounter == 0) return 0;\r\n        \r\n        uint256 totalThroughput = 0;\r\n        uint256 totalErrorRate = 0;\r\n        uint256 activeShards = 0;\r\n        \r\n        for (uint256 i = 1; i <= shardCounter; i++) {\r\n            if (shards[i].isActive) {\r\n                PerformanceMetrics memory metrics = shardMetrics[i];\r\n                totalThroughput += metrics.throughput;\r\n                totalErrorRate += metrics.errorRate;\r\n                activeShards++;\r\n            }\r\n        }\r\n        \r\n        if (activeShards == 0) return 0;\r\n        \r\n        uint256 avgThroughput = totalThroughput / activeShards;\r\n        uint256 avgErrorRate = totalErrorRate / activeShards;\r\n        \r\n        // Calculate efficiency score (0-100)\r\n        uint256 efficiencyScore = avgThroughput > 0 ? \r\n            (avgThroughput * 100) / (avgThroughput + avgErrorRate + 1) : 0;\r\n            \r\n        return efficiencyScore > 100 ? 100 : efficiencyScore;\r\n    }\r\n    \r\n    /**\r\n     * @dev Get shard information\r\n     */\r\n    function getShardInfo(uint256 _shardId) external view returns (\r\n        address shardContract,\r\n        uint256 currentLoad,\r\n        uint256 maxCapacity,\r\n        uint256 transactionCount,\r\n        bool isActive,\r\n        string memory shardType\r\n    ) {\r\n        Shard memory shard = shards[_shardId];\r\n        require(shard.shardId != 0, \"Shard does not exist\");\r\n        \r\n        return (\r\n            shard.shardContract,\r\n            shard.currentLoad,\r\n            shard.maxCapacity,\r\n            shard.transactionCount,\r\n            shard.isActive,\r\n            shard.shardType\r\n        );\r\n    }\r\n    \r\n    /**\r\n     * @dev Get performance metrics for a shard\r\n     */\r\n    function getShardMetrics(uint256 _shardId) external view returns (\r\n        uint256 avgTransactionTime,\r\n        uint256 avgGasPrice,\r\n        uint256 throughput,\r\n        uint256 errorRate,\r\n        uint256 lastUpdated\r\n    ) {\r\n        PerformanceMetrics memory metrics = shardMetrics[_shardId];\r\n        \r\n        return (\r\n            metrics.avgTransactionTime,\r\n            metrics.avgGasPrice,\r\n            metrics.throughput,\r\n            metrics.errorRate,\r\n            metrics.lastUpdated\r\n        );\r\n    }\r\n    \r\n    /**\r\n     * @dev Get all shards for a specific type\r\n     */\r\n    function getShardsByType(string memory _shardType) external view validShardType(_shardType) returns (uint256[] memory) {\r\n        return shardsByType[_shardType];\r\n    }\r\n    \r\n    /**\r\n     * @dev Emergency function to redistribute all transactions\r\n     */\r\n    function emergencyRebalance() external onlyRole(ADMIN_ROLE) {\r\n        string[3] memory types = [\"product\", \"iot\", \"participant\"];\r\n        for (uint256 i = 0; i < 3; i++) {\r\n            if (shardsByType[types[i]].length > 1) {\r\n                // Find overloaded and underloaded shards for each type\r\n                uint256[] memory typeShards = shardsByType[types[i]];\r\n                uint256 overloadedShard = 0;\r\n                uint256 underloadedShard = 0;\r\n                uint256 maxLoad = 0;\r\n                uint256 minLoad = type(uint256).max;\r\n                \r\n                for (uint256 j = 0; j < typeShards.length; j++) {\r\n                    uint256 shardId = typeShards[j];\r\n                    Shard memory shard = shards[shardId];\r\n                    \r\n                    if (shard.isActive) {\r\n                        if (shard.currentLoad > maxLoad) {\r\n                            maxLoad = shard.currentLoad;\r\n                            overloadedShard = shardId;\r\n                        }\r\n                        if (shard.currentLoad < minLoad) {\r\n                            minLoad = shard.currentLoad;\r\n                            underloadedShard = shardId;\r\n                        }\r\n                    }\r\n                }\r\n                \r\n                // Perform rebalancing if significant difference\r\n                if (overloadedShard != 0 && underloadedShard != 0 && maxLoad > minLoad * 2) {\r\n                    uint256 transactionsToMove = (maxLoad - minLoad) / 2;\r\n                    \r\n                    // Update loads\r\n                    shards[overloadedShard].currentLoad -= transactionsToMove;\r\n                    shards[underloadedShard].currentLoad += transactionsToMove;\r\n                    \r\n                    emit LoadRebalanced(overloadedShard, underloadedShard, transactionsToMove);\r\n                }\r\n            }\r\n        }\r\n    }\r\n}",
  "sourcePath": "C:\\projects\\BLOCKCHAIN_PROJECT\\contracts\\AdaptiveSharding.sol",
  "compiler": {
    "name": "solc",
    "version": "0.8.19+commit.7dd6d404.Emscripten.clang"
  },
  "schemaVersion": "3.4.16",
  "updatedAt": "2025-08-21T18:46:36.722Z",
  "networkType": "ethereum",
  "devdoc": {
    "details": "Implements adaptive sharding for high-efficiency blockchain operations This contract manages multiple shards dynamically based on load and performance",
    "kind": "dev",
    "methods": {
      "createShard(string,address,uint256)": {
        "details": "Create a new shard for a specific type"
      },
      "emergencyRebalance()": {
        "details": "Emergency function to redistribute all transactions"
      },
      "getOptimalShard(string)": {
        "details": "Get optimal shard for a transaction based on load and performance"
      },
      "getRecommendedShard(string,uint256,uint256)": {
        "details": "Get recommended shard for new transaction based on predictive analysis"
      },
      "getRoleAdmin(bytes32)": {
        "details": "Get the admin role for a given role"
      },
      "getRoleMembers(bytes32,address[])": {
        "details": "Get all accounts with a specific role (expensive operation, use carefully)"
      },
      "getShardInfo(uint256)": {
        "details": "Get shard information"
      },
      "getShardMetrics(uint256)": {
        "details": "Get performance metrics for a shard"
      },
      "getShardsByType(string)": {
        "details": "Get all shards for a specific type"
      },
      "getSystemEfficiencyScore()": {
        "details": "Calculate system efficiency score"
      },
      "getSystemStats()": {
        "details": "Get system-wide statistics"
      },
      "grantRole(bytes32,address)": {
        "details": "Grant a role to an account"
      },
      "hasRole(bytes32,address)": {
        "details": "Check if an account has a specific role"
      },
      "hasRoles(bytes32[],address[])": {
        "details": "Check if multiple accounts have required roles (batch check)"
      },
      "rebalanceShards(string)": {
        "details": "Rebalance load between shards"
      },
      "renounceRole(bytes32,address)": {
        "details": "Renounce a role (can only be called by the account itself)"
      },
      "revokeRole(bytes32,address)": {
        "details": "Revoke a role from an account"
      },
      "updateShardLoad(uint256,uint256,uint256,bool)": {
        "details": "Update shard load after transaction"
      }
    },
    "title": "AdaptiveSharding",
    "version": 1
  },
  "userdoc": {
    "kind": "user",
    "methods": {},
    "version": 1
  }
}