{
  "contractName": "AdaptiveSharding",
  "abi": [
    {
      "inputs": [],
      "stateMutability": "nonpayable",
      "type": "constructor"
    },
    {
      "anonymous": false,
      "inputs": [
        {
          "indexed": false,
          "internalType": "uint256",
          "name": "highThreshold",
          "type": "uint256"
        },
        {
          "indexed": false,
          "internalType": "uint256",
          "name": "lowThreshold",
          "type": "uint256"
        }
      ],
      "name": "LoadThresholdUpdated",
      "type": "event"
    },
    {
      "anonymous": false,
      "inputs": [
        {
          "indexed": true,
          "internalType": "uint256",
          "name": "productId",
          "type": "uint256"
        },
        {
          "indexed": true,
          "internalType": "uint256",
          "name": "shardId",
          "type": "uint256"
        },
        {
          "indexed": false,
          "internalType": "uint256",
          "name": "timestamp",
          "type": "uint256"
        }
      ],
      "name": "ProductAssignedToShard",
      "type": "event"
    },
    {
      "anonymous": false,
      "inputs": [
        {
          "indexed": true,
          "internalType": "bytes32",
          "name": "role",
          "type": "bytes32"
        },
        {
          "indexed": true,
          "internalType": "bytes32",
          "name": "previousAdminRole",
          "type": "bytes32"
        },
        {
          "indexed": true,
          "internalType": "bytes32",
          "name": "newAdminRole",
          "type": "bytes32"
        }
      ],
      "name": "RoleAdminChanged",
      "type": "event"
    },
    {
      "anonymous": false,
      "inputs": [
        {
          "indexed": true,
          "internalType": "bytes32",
          "name": "role",
          "type": "bytes32"
        },
        {
          "indexed": true,
          "internalType": "address",
          "name": "account",
          "type": "address"
        },
        {
          "indexed": true,
          "internalType": "address",
          "name": "sender",
          "type": "address"
        }
      ],
      "name": "RoleGranted",
      "type": "event"
    },
    {
      "anonymous": false,
      "inputs": [
        {
          "indexed": true,
          "internalType": "bytes32",
          "name": "role",
          "type": "bytes32"
        },
        {
          "indexed": true,
          "internalType": "address",
          "name": "account",
          "type": "address"
        },
        {
          "indexed": true,
          "internalType": "address",
          "name": "sender",
          "type": "address"
        }
      ],
      "name": "RoleRevoked",
      "type": "event"
    },
    {
      "anonymous": false,
      "inputs": [
        {
          "indexed": true,
          "internalType": "uint256",
          "name": "shardId",
          "type": "uint256"
        },
        {
          "indexed": false,
          "internalType": "uint256",
          "name": "timestamp",
          "type": "uint256"
        }
      ],
      "name": "ShardActivated",
      "type": "event"
    },
    {
      "anonymous": false,
      "inputs": [
        {
          "indexed": true,
          "internalType": "uint256",
          "name": "shardId",
          "type": "uint256"
        },
        {
          "indexed": false,
          "internalType": "address",
          "name": "shardManager",
          "type": "address"
        },
        {
          "indexed": false,
          "internalType": "uint256",
          "name": "minCapacity",
          "type": "uint256"
        },
        {
          "indexed": false,
          "internalType": "uint256",
          "name": "maxCapacity",
          "type": "uint256"
        }
      ],
      "name": "ShardCreated",
      "type": "event"
    },
    {
      "anonymous": false,
      "inputs": [
        {
          "indexed": true,
          "internalType": "uint256",
          "name": "shardId",
          "type": "uint256"
        },
        {
          "indexed": false,
          "internalType": "string",
          "name": "reason",
          "type": "string"
        },
        {
          "indexed": false,
          "internalType": "uint256",
          "name": "timestamp",
          "type": "uint256"
        }
      ],
      "name": "ShardDeactivated",
      "type": "event"
    },
    {
      "anonymous": false,
      "inputs": [
        {
          "indexed": false,
          "internalType": "uint256[]",
          "name": "affectedShards",
          "type": "uint256[]"
        },
        {
          "indexed": false,
          "internalType": "uint256",
          "name": "timestamp",
          "type": "uint256"
        }
      ],
      "name": "ShardRebalanced",
      "type": "event"
    },
    {
      "inputs": [],
      "name": "ADMIN_ROLE",
      "outputs": [
        {
          "internalType": "bytes32",
          "name": "",
          "type": "bytes32"
        }
      ],
      "stateMutability": "view",
      "type": "function"
    },
    {
      "inputs": [],
      "name": "AUDITOR_ROLE",
      "outputs": [
        {
          "internalType": "bytes32",
          "name": "",
          "type": "bytes32"
        }
      ],
      "stateMutability": "view",
      "type": "function"
    },
    {
      "inputs": [],
      "name": "DEFAULT_ADMIN_ROLE",
      "outputs": [
        {
          "internalType": "bytes32",
          "name": "",
          "type": "bytes32"
        }
      ],
      "stateMutability": "view",
      "type": "function"
    },
    {
      "inputs": [],
      "name": "IOT_DEVICE_ROLE",
      "outputs": [
        {
          "internalType": "bytes32",
          "name": "",
          "type": "bytes32"
        }
      ],
      "stateMutability": "view",
      "type": "function"
    },
    {
      "inputs": [],
      "name": "PARTICIPANT_ROLE",
      "outputs": [
        {
          "internalType": "bytes32",
          "name": "",
          "type": "bytes32"
        }
      ],
      "stateMutability": "view",
      "type": "function"
    },
    {
      "inputs": [],
      "name": "SHARD_MANAGER_ROLE",
      "outputs": [
        {
          "internalType": "bytes32",
          "name": "",
          "type": "bytes32"
        }
      ],
      "stateMutability": "view",
      "type": "function"
    },
    {
      "inputs": [
        {
          "internalType": "uint256",
          "name": "",
          "type": "uint256"
        }
      ],
      "name": "activeShards",
      "outputs": [
        {
          "internalType": "uint256",
          "name": "",
          "type": "uint256"
        }
      ],
      "stateMutability": "view",
      "type": "function"
    },
    {
      "inputs": [
        {
          "internalType": "bytes32",
          "name": "role",
          "type": "bytes32"
        }
      ],
      "name": "getRoleAdmin",
      "outputs": [
        {
          "internalType": "bytes32",
          "name": "",
          "type": "bytes32"
        }
      ],
      "stateMutability": "view",
      "type": "function"
    },
    {
      "inputs": [
        {
          "internalType": "bytes32",
          "name": "role",
          "type": "bytes32"
        },
        {
          "internalType": "address[]",
          "name": "candidates",
          "type": "address[]"
        }
      ],
      "name": "getRoleMembers",
      "outputs": [
        {
          "internalType": "address[]",
          "name": "",
          "type": "address[]"
        }
      ],
      "stateMutability": "view",
      "type": "function"
    },
    {
      "inputs": [
        {
          "internalType": "bytes32",
          "name": "role",
          "type": "bytes32"
        },
        {
          "internalType": "address",
          "name": "account",
          "type": "address"
        }
      ],
      "name": "grantRole",
      "outputs": [],
      "stateMutability": "nonpayable",
      "type": "function"
    },
    {
      "inputs": [
        {
          "internalType": "bytes32",
          "name": "role",
          "type": "bytes32"
        },
        {
          "internalType": "address",
          "name": "account",
          "type": "address"
        }
      ],
      "name": "hasRole",
      "outputs": [
        {
          "internalType": "bool",
          "name": "",
          "type": "bool"
        }
      ],
      "stateMutability": "view",
      "type": "function"
    },
    {
      "inputs": [
        {
          "internalType": "bytes32[]",
          "name": "roles",
          "type": "bytes32[]"
        },
        {
          "internalType": "address[]",
          "name": "accounts",
          "type": "address[]"
        }
      ],
      "name": "hasRoles",
      "outputs": [
        {
          "internalType": "bool[]",
          "name": "",
          "type": "bool[]"
        }
      ],
      "stateMutability": "view",
      "type": "function"
    },
    {
      "inputs": [
        {
          "internalType": "uint256",
          "name": "",
          "type": "uint256"
        }
      ],
      "name": "inactiveShards",
      "outputs": [
        {
          "internalType": "uint256",
          "name": "",
          "type": "uint256"
        }
      ],
      "stateMutability": "view",
      "type": "function"
    },
    {
      "inputs": [
        {
          "internalType": "address",
          "name": "",
          "type": "address"
        },
        {
          "internalType": "uint256",
          "name": "",
          "type": "uint256"
        }
      ],
      "name": "managerShards",
      "outputs": [
        {
          "internalType": "uint256",
          "name": "",
          "type": "uint256"
        }
      ],
      "stateMutability": "view",
      "type": "function"
    },
    {
      "inputs": [
        {
          "internalType": "uint256",
          "name": "",
          "type": "uint256"
        }
      ],
      "name": "productToShard",
      "outputs": [
        {
          "internalType": "uint256",
          "name": "",
          "type": "uint256"
        }
      ],
      "stateMutability": "view",
      "type": "function"
    },
    {
      "inputs": [],
      "name": "rebalancingConfig",
      "outputs": [
        {
          "internalType": "uint256",
          "name": "highLoadThreshold",
          "type": "uint256"
        },
        {
          "internalType": "uint256",
          "name": "lowLoadThreshold",
          "type": "uint256"
        },
        {
          "internalType": "uint256",
          "name": "rebalanceInterval",
          "type": "uint256"
        },
        {
          "internalType": "uint256",
          "name": "migrationBatchSize",
          "type": "uint256"
        },
        {
          "internalType": "bool",
          "name": "autoRebalanceEnabled",
          "type": "bool"
        }
      ],
      "stateMutability": "view",
      "type": "function"
    },
    {
      "inputs": [
        {
          "internalType": "string",
          "name": "",
          "type": "string"
        },
        {
          "internalType": "uint256",
          "name": "",
          "type": "uint256"
        }
      ],
      "name": "regionShards",
      "outputs": [
        {
          "internalType": "uint256",
          "name": "",
          "type": "uint256"
        }
      ],
      "stateMutability": "view",
      "type": "function"
    },
    {
      "inputs": [
        {
          "internalType": "bytes32",
          "name": "role",
          "type": "bytes32"
        },
        {
          "internalType": "address",
          "name": "account",
          "type": "address"
        }
      ],
      "name": "renounceRole",
      "outputs": [],
      "stateMutability": "nonpayable",
      "type": "function"
    },
    {
      "inputs": [
        {
          "internalType": "bytes32",
          "name": "role",
          "type": "bytes32"
        },
        {
          "internalType": "address",
          "name": "account",
          "type": "address"
        }
      ],
      "name": "revokeRole",
      "outputs": [],
      "stateMutability": "nonpayable",
      "type": "function"
    },
    {
      "inputs": [
        {
          "internalType": "uint256",
          "name": "",
          "type": "uint256"
        }
      ],
      "name": "shardMetrics",
      "outputs": [
        {
          "internalType": "uint256",
          "name": "totalTransactions",
          "type": "uint256"
        },
        {
          "internalType": "uint256",
          "name": "avgResponseTime",
          "type": "uint256"
        },
        {
          "internalType": "uint256",
          "name": "throughput",
          "type": "uint256"
        },
        {
          "internalType": "uint256",
          "name": "errorRate",
          "type": "uint256"
        },
        {
          "internalType": "uint256",
          "name": "timestamp",
          "type": "uint256"
        }
      ],
      "stateMutability": "view",
      "type": "function"
    },
    {
      "inputs": [
        {
          "internalType": "uint256",
          "name": "",
          "type": "uint256"
        }
      ],
      "name": "shards",
      "outputs": [
        {
          "internalType": "uint256",
          "name": "shardId",
          "type": "uint256"
        },
        {
          "internalType": "address",
          "name": "shardManager",
          "type": "address"
        },
        {
          "internalType": "enum AdaptiveSharding.ShardStatus",
          "name": "status",
          "type": "uint8"
        },
        {
          "internalType": "uint256",
          "name": "currentLoad",
          "type": "uint256"
        },
        {
          "internalType": "uint256",
          "name": "minCapacity",
          "type": "uint256"
        },
        {
          "internalType": "uint256",
          "name": "maxCapacity",
          "type": "uint256"
        },
        {
          "internalType": "uint256",
          "name": "createdAt",
          "type": "uint256"
        },
        {
          "internalType": "uint256",
          "name": "lastRebalanced",
          "type": "uint256"
        },
        {
          "internalType": "string",
          "name": "region",
          "type": "string"
        }
      ],
      "stateMutability": "view",
      "type": "function"
    },
    {
      "inputs": [
        {
          "internalType": "address",
          "name": "_shardManager",
          "type": "address"
        },
        {
          "internalType": "uint256",
          "name": "_minCapacity",
          "type": "uint256"
        },
        {
          "internalType": "uint256",
          "name": "_maxCapacity",
          "type": "uint256"
        },
        {
          "internalType": "string",
          "name": "_region",
          "type": "string"
        }
      ],
      "name": "createShard",
      "outputs": [
        {
          "internalType": "uint256",
          "name": "",
          "type": "uint256"
        }
      ],
      "stateMutability": "nonpayable",
      "type": "function"
    },
    {
      "inputs": [
        {
          "internalType": "uint256",
          "name": "_shardId",
          "type": "uint256"
        }
      ],
      "name": "activateShard",
      "outputs": [],
      "stateMutability": "nonpayable",
      "type": "function"
    },
    {
      "inputs": [
        {
          "internalType": "uint256",
          "name": "_shardId",
          "type": "uint256"
        },
        {
          "internalType": "string",
          "name": "_reason",
          "type": "string"
        }
      ],
      "name": "deactivateShard",
      "outputs": [],
      "stateMutability": "nonpayable",
      "type": "function"
    },
    {
      "inputs": [
        {
          "internalType": "uint256",
          "name": "_productId",
          "type": "uint256"
        },
        {
          "internalType": "string",
          "name": "_preferredRegion",
          "type": "string"
        }
      ],
      "name": "assignProductToShard",
      "outputs": [
        {
          "internalType": "uint256",
          "name": "",
          "type": "uint256"
        }
      ],
      "stateMutability": "nonpayable",
      "type": "function"
    },
    {
      "inputs": [
        {
          "internalType": "uint256",
          "name": "_shardId",
          "type": "uint256"
        },
        {
          "internalType": "uint256",
          "name": "_totalTransactions",
          "type": "uint256"
        },
        {
          "internalType": "uint256",
          "name": "_avgResponseTime",
          "type": "uint256"
        },
        {
          "internalType": "uint256",
          "name": "_throughput",
          "type": "uint256"
        },
        {
          "internalType": "uint256",
          "name": "_errorRate",
          "type": "uint256"
        }
      ],
      "name": "updateShardMetrics",
      "outputs": [],
      "stateMutability": "nonpayable",
      "type": "function"
    },
    {
      "inputs": [],
      "name": "triggerRebalancing",
      "outputs": [],
      "stateMutability": "nonpayable",
      "type": "function"
    },
    {
      "inputs": [
        {
          "internalType": "uint256",
          "name": "_highThreshold",
          "type": "uint256"
        },
        {
          "internalType": "uint256",
          "name": "_lowThreshold",
          "type": "uint256"
        },
        {
          "internalType": "uint256",
          "name": "_rebalanceInterval",
          "type": "uint256"
        },
        {
          "internalType": "uint256",
          "name": "_migrationBatchSize",
          "type": "uint256"
        },
        {
          "internalType": "bool",
          "name": "_autoRebalanceEnabled",
          "type": "bool"
        }
      ],
      "name": "updateRebalancingConfig",
      "outputs": [],
      "stateMutability": "nonpayable",
      "type": "function"
    },
    {
      "inputs": [
        {
          "internalType": "uint256",
          "name": "_shardId",
          "type": "uint256"
        }
      ],
      "name": "getShardInfo",
      "outputs": [
        {
          "internalType": "address",
          "name": "shardManager",
          "type": "address"
        },
        {
          "internalType": "enum AdaptiveSharding.ShardStatus",
          "name": "status",
          "type": "uint8"
        },
        {
          "internalType": "uint256",
          "name": "currentLoad",
          "type": "uint256"
        },
        {
          "internalType": "uint256",
          "name": "minCapacity",
          "type": "uint256"
        },
        {
          "internalType": "uint256",
          "name": "maxCapacity",
          "type": "uint256"
        },
        {
          "internalType": "string",
          "name": "region",
          "type": "string"
        },
        {
          "internalType": "uint256[]",
          "name": "assignedProducts",
          "type": "uint256[]"
        }
      ],
      "stateMutability": "view",
      "type": "function"
    },
    {
      "inputs": [
        {
          "internalType": "string",
          "name": "_preferredRegion",
          "type": "string"
        }
      ],
      "name": "getOptimalShard",
      "outputs": [
        {
          "internalType": "uint256",
          "name": "",
          "type": "uint256"
        }
      ],
      "stateMutability": "view",
      "type": "function"
    },
    {
      "inputs": [
        {
          "internalType": "uint256",
          "name": "_shardId",
          "type": "uint256"
        }
      ],
      "name": "getShardLoadPercentage",
      "outputs": [
        {
          "internalType": "uint256",
          "name": "",
          "type": "uint256"
        }
      ],
      "stateMutability": "view",
      "type": "function"
    },
    {
      "inputs": [],
      "name": "getActiveShardCount",
      "outputs": [
        {
          "internalType": "uint256",
          "name": "",
          "type": "uint256"
        }
      ],
      "stateMutability": "view",
      "type": "function"
    },
    {
      "inputs": [],
      "name": "getInactiveShardCount",
      "outputs": [
        {
          "internalType": "uint256",
          "name": "",
          "type": "uint256"
        }
      ],
      "stateMutability": "view",
      "type": "function"
    },
    {
      "inputs": [],
      "name": "getTotalShardCount",
      "outputs": [
        {
          "internalType": "uint256",
          "name": "",
          "type": "uint256"
        }
      ],
      "stateMutability": "view",
      "type": "function"
    },
    {
      "inputs": [],
      "name": "getActiveShards",
      "outputs": [
        {
          "internalType": "uint256[]",
          "name": "",
          "type": "uint256[]"
        }
      ],
      "stateMutability": "view",
      "type": "function"
    }
  ],
  "bytecode": "0x60806040523480156200001157600080fd5b506200001f600033620000a7565b6200004b7fa49807205ce4d355092ef5a8a18f56e8913cf4a201fbe287825b095693c2177533620000a7565b6040805160a081018252605080825260146020830181905261012c93830184905260646060840181905260016080909401849052600892909255600955600a92909255600b91909155600c805460ff1916909117905562000139565b620000b38282620000b7565b5050565b6000828152602081815260408083206001600160a01b038516845290915290205460ff16620000b3576000828152602081815260408083206001600160a01b0385168085529252808320805460ff1916600117905551339285917f2f8788117e7eff1d82e926ec794901d17c78024a50270940304540a733656f0d9190a45050565b612d5580620001496000396000f3fe608060405234801561001057600080fd5b50600436106102115760003560e01c80638d4df7ab11610125578063d547741f116100ad578063e3c6eadd1161007c578063e3c6eadd14610575578063eca178c01461057d578063f0d4e2e314610585578063f1a93d4a14610598578063f93b7d91146105bf57600080fd5b8063d547741f14610502578063db492bbd14610515578063dfa5e47114610528578063e2348a5d1461054e57600080fd5b8063a2f2f907116100f4578063a2f2f90714610403578063abfd1e8b14610423578063ae46dd6b1461046a578063caed295d1461047d578063d3036dd4146104e257600080fd5b80638d4df7ab146103a557806391731958146103c557806391d14854146103d8578063a217fddf146103fb57600080fd5b80634e2fedce116101a857806365c3d2e01161017757806365c3d2e0146103305780636d66aa8f146103435780636e1d616e1461035657806372b215961461037d57806375b238fc1461039057600080fd5b80634e2fedce146102ce57806354ad44c0146102e35780635f8a7abe146102f6578063626afb1a1461031d57600080fd5b8063248a9ca3116101e4578063248a9ca3146102725780632f2ff15d1461029557806336568abe146102a857806346d5d924146102bb57600080fd5b80630646b6da1461021657806316faae901461022d5780631cd44acf14610255578063219fcad81461025f575b600080fd5b600d545b6040519081526020015b60405180910390f35b61024061023b366004612349565b6105d2565b604051610224999897969594939291906123ea565b61025d6106b1565b005b61021a61026d366004612349565b61077f565b61021a610280366004612349565b60009081526020819052604090206001015490565b61025d6102a336600461246b565b6107fd565b61025d6102b636600461246b565b610844565b61021a6102c9366004612349565b6108be565b6102d66108df565b60405161022491906124d2565b61021a6102f13660046124ec565b610937565b61021a7f938c45fe3baa5cbd047f2473358a27f57db22291e9af95379a15ad016886dfb781565b61021a61032b366004612349565b610968565b61025d61033e366004612516565b610978565b61021a61035136600461261d565b610aba565b61021a7f59a1c48e5837ad7a7f3dcedcbe129bf3249ec4fbf651fd4f5e2600ead39fe2f581565b61025d61038b366004612659565b610acb565b61021a600080516020612d0083398151915281565b6103b86103b3366004612734565b610c9d565b60405161022491906127e2565b61025d6103d3366004612828565b610db4565b6103eb6103e636600461246b565b610e9b565b6040519015158152602001610224565b61021a600081565b61021a610411366004612349565b60046020526000908152604090205481565b600854600954600a54600b54600c54610440949392919060ff1685565b6040805195865260208601949094529284019190915260608301521515608082015260a001610224565b61025d610478366004612349565b610ec4565b6104ba61048b366004612349565b600760205260009081526040902080546001820154600283015460038401546004909401549293919290919085565b604080519586526020860194909452928401919091526060830152608082015260a001610224565b6104f56104f0366004612863565b611034565b604051610224919061289f565b61025d61051036600461246b565b61115c565b61021a6105233660046128e0565b611193565b61053b610536366004612349565b6111be565b6040516102249796959493929190612924565b61021a7fa57066973b2155f87e85ce4b35594aa85c6061a64b99afb1fcf8f974f04290e381565b60015461021a565b600e5461021a565b61021a610593366004612659565b61133d565b61021a7f3fd1570350ad82b8536c3ba26e9b65482f86a92bc0631d77bd1bb4bc2035747381565b61021a6105cd366004612985565b611538565b60036020819052600091825260409091208054600182015460028301549383015460048401546005850154600686015460078701805496986001600160a01b03871698600160a01b90970460ff16979096919061062e906129e5565b80601f016020809104026020016040519081016040528092919081815260200182805461065a906129e5565b80156106a75780601f1061067c576101008083540402835291602001916106a7565b820191906000526020600020905b81548152906001019060200180831161068a57829003601f168201915b5050505050905089565b600080516020612d008339815191526106ca8133610e9b565b6106ef5760405162461bcd60e51b81526004016106e690612a19565b60405180910390fd5b600d546001106107415760405162461bcd60e51b815260206004820152601d60248201527f4e656564206174206c656173742032206163746976652073686172647300000060448201526064016106e6565b600061074b6117f0565b90506000610757611987565b90506000825111801561076b575060008151115b1561077a5761077a8282611b1e565b505050565b60008160008111801561079457506001548111155b6107b05760405162461bcd60e51b81526004016106e690612a5c565b600083815260036020526040812060048101549091036107d45760009250506107f7565b600481015460028201546107e9906064612aa0565b6107f39190612ab7565b9250505b50919050565b60008281526020819052604090206001015461081a905b33610e9b565b6108365760405162461bcd60e51b81526004016106e690612ad9565b6108408282611dc4565b5050565b6001600160a01b03811633146108b45760405162461bcd60e51b815260206004820152602f60248201527f416363657373436f6e74726f6c3a2063616e206f6e6c792072656e6f756e636560448201526e103937b632b9903337b91039b2b63360891b60648201526084016106e6565b6108408282611e2b565b600d81815481106108ce57600080fd5b600091825260209091200154905081565b6060600d80548060200260200160405190810160405280929190818152602001828054801561092d57602002820191906000526020600020905b815481526020019060010190808311610919575b5050505050905090565b6005602052816000526040600020818154811061095357600080fd5b90600052602060002001600091509150505481565b600e81815481106108ce57600080fd5b600080516020612d008339815191526109918133610e9b565b6109ad5760405162461bcd60e51b81526004016106e690612a19565b8486116109fc5760405162461bcd60e51b815260206004820152601760248201527f496e76616c6964207468726573686f6c642072616e676500000000000000000060448201526064016106e6565b6064861115610a575760405162461bcd60e51b815260206004820152602160248201527f48696768207468726573686f6c642063616e6e6f7420657863656564203130306044820152602560f81b60648201526084016106e6565b60088690556009859055600a849055600b839055600c805460ff191683151517905560408051878152602081018790527f0afdaff890e9722fbdd37597659b7c15e6a8a9026261a915039b88c79bb089fc910160405180910390a1505050505050565b6000610ac582611e90565b92915050565b81600081118015610ade57506001548111155b610afa5760405162461bcd60e51b81526004016106e690612a5c565b600080516020612d00833981519152610b138133610e9b565b610b2f5760405162461bcd60e51b81526004016106e690612a19565b6001600085815260036020819052604090912060010154600160a01b900460ff1690811115610b6057610b60612362565b14610ba05760405162461bcd60e51b815260206004820152601060248201526f5368617264206e6f742061637469766560801b60448201526064016106e6565b60008481526003602052604090206002015415610bff5760405162461bcd60e51b815260206004820152601960248201527f536861726420686173206163746976652070726f64756374730000000000000060448201526064016106e6565b6000848152600360205260409020600101805460ff60a01b19169055610c26600d85612045565b600e80546001810182556000919091527fbb7b4a454dc3493923482f07822329ed19e8244eff582cc204f8554c3620c3fd0184905560405184907fac0cd39acaf672073c17249191a8bf808e7448cbb9a99fcde1fffa4b55a4514390610c8f9086904290612b1f565b60405180910390a250505050565b60608151835114610ce95760405162461bcd60e51b8152602060048201526016602482015275082e4e4c2f2e640d8cadccee8d040dad2e6dac2e8c6d60531b60448201526064016106e6565b600083516001600160401b03811115610d0457610d04612568565b604051908082528060200260200182016040528015610d2d578160200160208202803683370190505b50905060005b8451811015610dac57610d78858281518110610d5157610d51612b41565b6020026020010151858381518110610d6b57610d6b612b41565b6020026020010151610e9b565b828281518110610d8a57610d8a612b41565b9115156020928302919091019091015280610da481612b57565b915050610d33565b509392505050565b84600081118015610dc757506001548111155b610de35760405162461bcd60e51b81526004016106e690612a5c565b60008681526003602052604090206001015486906001600160a01b03163314610e425760405162461bcd60e51b81526020600482015260116024820152702737ba1039b430b9321036b0b730b3b2b960791b60448201526064016106e6565b50506040805160a081018252948552602080860194855285820193845260608601928352426080870190815260009788526007909152952093518455915160018401555160028301555160038201559051600490910155565b6000918252602082815260408084206001600160a01b0393909316845291905290205460ff1690565b80600081118015610ed757506001548111155b610ef35760405162461bcd60e51b81526004016106e690612a5c565b600080516020612d00833981519152610f0c8133610e9b565b610f285760405162461bcd60e51b81526004016106e690612a19565b6000838152600360208190526040822060010154600160a01b900460ff1690811115610f5657610f56612362565b14610f985760405162461bcd60e51b81526020600482015260126024820152715368617264206e6f7420696e61637469766560701b60448201526064016106e6565b6000838152600360205260409020600101805460ff60a01b1916600160a01b179055610fc5600e84612045565b600d80546001810182556000919091527fd7b6990105719101dabeb77144f2a3385c8033acd3af97e9423a695e81ad1eb50183905560405142815283907ff264b82b0f1ded745a8d396db5c73f75663553bd7c4f062789d1c3759a5b6d0b9060200160405180910390a2505050565b60606000805b835181101561107e5761105985858381518110610d6b57610d6b612b41565b1561106c578161106881612b57565b9250505b8061107681612b57565b91505061103a565b506000816001600160401b0381111561109957611099612568565b6040519080825280602002602001820160405280156110c2578160200160208202803683370190505b5090506000805b8551811015611151576110e887878381518110610d6b57610d6b612b41565b1561113f578581815181106110ff576110ff612b41565b602002602001015183838151811061111957611119612b41565b6001600160a01b03909216602092830291909101909101528161113b81612b57565b9250505b8061114981612b57565b9150506110c9565b509095945050505050565b60008281526020819052604090206001015461117790610814565b6108b45760405162461bcd60e51b81526004016106e690612ad9565b8151602081840181018051600682529282019185019190912091905280548290811061095357600080fd5b6000806000806000606080876000811180156111dc57506001548111155b6111f85760405162461bcd60e51b81526004016106e690612a5c565b60008981526003602081905260409091206001810154600282015492820154600483015460078401805494956001600160a01b03851695600160a01b90950460ff1694909392919060088801908290611250906129e5565b80601f016020809104026020016040519081016040528092919081815260200182805461127c906129e5565b80156112c95780601f1061129e576101008083540402835291602001916112c9565b820191906000526020600020905b8154815290600101906020018083116112ac57829003601f168201915b505050505091508080548060200260200160405190810160405280929190818152602001828054801561131b57602002820191906000526020600020905b815481526020019060010190808311611307575b5050505050905098509850985098509850985098505050919395979092949650565b60007f938c45fe3baa5cbd047f2473358a27f57db22291e9af95379a15ad016886dfb761136a8133610e9b565b6113865760405162461bcd60e51b81526004016106e690612a19565b600084116113cb5760405162461bcd60e51b8152602060048201526012602482015271125b9d985b1a59081c1c9bd91d58dd08125160721b60448201526064016106e6565b600084815260046020526040902054156114275760405162461bcd60e51b815260206004820152601860248201527f50726f6475637420616c72656164792061737369676e6564000000000000000060448201526064016106e6565b600061143284611e90565b9050600081116114795760405162461bcd60e51b8152602060048201526012602482015271139bc8185d985a5b18589b19481cda185c9960721b60448201526064016106e6565b6000858152600460209081526040808320849055838352600380835281842060088101805460018181018355918752858720018b90558a8652600982018552928520805460ff19169093179092558484529091526002018054916114dc83612b57565b9091555050600c5460ff16156114f5576114f5816120fc565b80857ffe9eea74923be99a86db5f5465c7615fec2ad09fcd54d28c54172822649924214260405161152891815260200190565b60405180910390a3949350505050565b6000600080516020612d008339815191526115538133610e9b565b61156f5760405162461bcd60e51b81526004016106e690612a19565b6001600160a01b0386166115bd5760405162461bcd60e51b815260206004820152601560248201527424b73b30b634b21039b430b9321036b0b730b3b2b960591b60448201526064016106e6565b8484116116055760405162461bcd60e51b8152602060048201526016602482015275496e76616c69642063617061636974792072616e676560501b60448201526064016106e6565b600085116116555760405162461bcd60e51b815260206004820152601c60248201527f4d696e696d756d206361706163697479206d757374206265203e20300000000060448201526064016106e6565b6001805490600061166583612b57565b9091555050600180546000818152600360208190526040822092835592820180546001600160a81b0319166001600160a01b038b1617905560028201559081018690556004810185905542600582018190556006820155600781016116ca8582612bbe565b506001600160a01b0387166000908152600560209081526040808320600180548254918201835591855292909320909101919091555160069061170e908690612c7d565b9081526040516020918190038201902060018054825480830184556000938452938320909301929092558154600e805493840181559091527fbb7b4a454dc3493923482f07822329ed19e8244eff582cc204f8554c3620c3fd909101556117957fa57066973b2155f87e85ce4b35594aa85c6061a64b99afb1fcf8f974f04290e3886107fd565b600154604080516001600160a01b038a168152602081018990529081018790527f80711e34ce0bbafa69998c02450771648006049c100fd334135fa1187121835b9060600160405180910390a2505060015495945050505050565b600d546060906000906001600160401b0381111561181057611810612568565b604051908082528060200260200182016040528015611839578160200160208202803683370190505b5090506000805b600d548110156118ec576000600d828154811061185f5761185f612b41565b600091825260208083209091015480835260039091526040822060048101546002820154929450909291611894906064612aa0565b61189e9190612ab7565b60085490915081106118d657828686815181106118bd576118bd612b41565b6020908102919091010152846118d281612b57565b9550505b50505080806118e490612b57565b915050611840565b506000816001600160401b0381111561190757611907612568565b604051908082528060200260200182016040528015611930578160200160208202803683370190505b50905060005b82811015610dac5783818151811061195057611950612b41565b602002602001015182828151811061196a5761196a612b41565b60209081029190910101528061197f81612b57565b915050611936565b600d546060906000906001600160401b038111156119a7576119a7612568565b6040519080825280602002602001820160405280156119d0578160200160208202803683370190505b5090506000805b600d54811015611a83576000600d82815481106119f6576119f6612b41565b600091825260208083209091015480835260039091526040822060048101546002820154929450909291611a2b906064612aa0565b611a359190612ab7565b6009549091508111611a6d5782868681518110611a5457611a54612b41565b602090810291909101015284611a6981612b57565b9550505b5050508080611a7b90612b57565b9150506119d7565b506000816001600160401b03811115611a9e57611a9e612568565b604051908082528060200260200182016040528015611ac7578160200160208202803683370190505b50905060005b82811015610dac57838181518110611ae757611ae7612b41565b6020026020010151828281518110611b0157611b01612b41565b602090810291909101015280611b1681612b57565b915050611acd565b60028054906000611b2e83612b57565b9190505550600081518351611b439190612c99565b6001600160401b03811115611b5a57611b5a612568565b604051908082528060200260200182016040528015611b83578160200160208202803683370190505b50905060005b8351811015611bdb57838181518110611ba457611ba4612b41565b6020026020010151828281518110611bbe57611bbe612b41565b602090810291909101015280611bd381612b57565b915050611b89565b5060005b8251811015611c3d57828181518110611bfa57611bfa612b41565b602002602001015182828651611c109190612c99565b81518110611c2057611c20612b41565b602090810291909101015280611c3581612b57565b915050611bdf565b506000805b845181108015611c525750835182105b15611d84576000858281518110611c6b57611c6b612b41565b602002602001015190506000858481518110611c8957611c89612b41565b6020908102919091018101516000848152600390925260408083208284529083206008546004830154939550919390929091606491611cc89190612aa0565b611cd29190612ab7565b8360020154611ce19190612cac565b9050600082600201548360040154611cf99190612cac565b90506000818310611d0a5781611d0c565b825b600b54909150811115611d1e5750600b545b611d298787836121cc565b4260068087018290558501556004840154606490611d48906050612aa0565b611d529190612ab7565b846002015410611d6a5788611d6681612b57565b9950505b505050505050508080611d7c90612b57565b915050611c42565b507ffc70ccaf331955ca522086d698888751bd19ad885aef82b80e48d1f0d1423c928242604051611db6929190612cbf565b60405180910390a150505050565b611dce8282610e9b565b610840576000828152602081815260408083206001600160a01b0385168085529252808320805460ff1916600117905551339285917f2f8788117e7eff1d82e926ec794901d17c78024a50270940304540a733656f0d9190a45050565b611e358282610e9b565b15610840576000828152602081815260408083206001600160a01b0385168085529252808320805460ff1916905551339285917ff6391f5c32d9c69d2a47ea670b442974b53935d1edc7fd64eb21e047a839171b9190a45050565b6040516000908190600019908290600690611eac908790612c7d565b9081526040805191829003602090810183208054808302850183019093528284529190830182828015611efe57602002820191906000526020600020905b815481526020019060010190808311611eea575b5050505050905060005b8151811015611fac576000828281518110611f2557611f25612b41565b602090810291909101810151600081815260039092526040909120909150600180820154600160a01b900460ff166003811115611f6457611f64612362565b148015611f78575080600401548160020154105b8015611f875750848160020154105b15611f9757819550806002015494505b50508080611fa490612b57565b915050611f08565b508260000361203c5760005b600d5481101561203a576000600d8281548110611fd757611fd7612b41565b906000526020600020015490506000600360008381526020019081526020016000209050806004015481600201541080156120155750848160020154105b1561202557819550806002015494505b5050808061203290612b57565b915050611fb8565b505b50909392505050565b60005b825481101561077a578183828154811061206457612064612b41565b9060005260206000200154036120ea578254839061208490600190612cac565b8154811061209457612094612b41565b90600052602060002001548382815481106120b1576120b1612b41565b9060005260206000200181905550828054806120cf576120cf612cd2565b60019003818190600052602060002001600090559055505050565b806120f481612b57565b915050612048565b600c5460ff166121095750565b60008181526003602052604081206004810154600282015491929161212f906064612aa0565b6121399190612ab7565b600854909150811080159061215f5750600a54600683015461215b9190612c99565b4210155b1561077a57600061216e611987565b8051909150156121c6576040805160018082528183019092526000916020808301908036833701905050905084816000815181106121ae576121ae612b41565b6020026020010181815250506121c48183611b1e565b505b50505050565b6000838152600360205260408082208483529082206008820154919290915b84821080156121fa5750600081115b15612340578061220981612ce8565b915050600084600801828154811061222357612223612b41565b60009182526020808320909101548083526004825260408084208b90556008880180546001818101835591865284862001839055828552600989019093528320805460ff1916909217909155600286018054919350909161228383612b57565b909155505060008181526009860160205260408120805460ff19169055600286018054916122b083612ce8565b90915550506008850180546122c790600190612cac565b815481106122d7576122d7612b41565b90600052602060002001548560080183815481106122f7576122f7612b41565b6000918252602090912001556008850180548061231657612316612cd2565b60019003818190600052602060002001600090559055828061233790612b57565b935050506121eb565b50505050505050565b60006020828403121561235b57600080fd5b5035919050565b634e487b7160e01b600052602160045260246000fd5b6004811061239657634e487b7160e01b600052602160045260246000fd5b9052565b60005b838110156123b557818101518382015260200161239d565b50506000910152565b600081518084526123d681602086016020860161239a565b601f01601f19169290920160200192915050565b8981526001600160a01b0389166020820152600061012061240e604084018b612378565b8860608401528760808401528660a08401528560c08401528460e08401528061010084015261243f818401856123be565b9c9b505050505050505050505050565b80356001600160a01b038116811461246657600080fd5b919050565b6000806040838503121561247e57600080fd5b8235915061248e6020840161244f565b90509250929050565b600081518084526020808501945080840160005b838110156124c7578151875295820195908201906001016124ab565b509495945050505050565b6020815260006124e56020830184612497565b9392505050565b600080604083850312156124ff57600080fd5b6125088361244f565b946020939093013593505050565b600080600080600060a0868803121561252e57600080fd5b853594506020860135935060408601359250606086013591506080860135801515811461255a57600080fd5b809150509295509295909350565b634e487b7160e01b600052604160045260246000fd5b604051601f8201601f191681016001600160401b03811182821017156125a6576125a6612568565b604052919050565b600082601f8301126125bf57600080fd5b81356001600160401b038111156125d8576125d8612568565b6125eb601f8201601f191660200161257e565b81815284602083860101111561260057600080fd5b816020850160208301376000918101602001919091529392505050565b60006020828403121561262f57600080fd5b81356001600160401b0381111561264557600080fd5b612651848285016125ae565b949350505050565b6000806040838503121561266c57600080fd5b8235915060208301356001600160401b0381111561268957600080fd5b612695858286016125ae565b9150509250929050565b60006001600160401b038211156126b8576126b8612568565b5060051b60200190565b600082601f8301126126d357600080fd5b813560206126e86126e38361269f565b61257e565b82815260059290921b8401810191818101908684111561270757600080fd5b8286015b848110156127295761271c8161244f565b835291830191830161270b565b509695505050505050565b6000806040838503121561274757600080fd5b82356001600160401b038082111561275e57600080fd5b818501915085601f83011261277257600080fd5b813560206127826126e38361269f565b82815260059290921b840181019181810190898411156127a157600080fd5b948201945b838610156127bf578535825294820194908201906127a6565b965050860135925050808211156127d557600080fd5b50612695858286016126c2565b6020808252825182820181905260009190848201906040850190845b8181101561281c5783511515835292840192918401916001016127fe565b50909695505050505050565b600080600080600060a0868803121561284057600080fd5b505083359560208501359550604085013594606081013594506080013592509050565b6000806040838503121561287657600080fd5b8235915060208301356001600160401b0381111561289357600080fd5b612695858286016126c2565b6020808252825182820181905260009190848201906040850190845b8181101561281c5783516001600160a01b0316835292840192918401916001016128bb565b600080604083850312156128f357600080fd5b82356001600160401b0381111561290957600080fd5b612915858286016125ae565b95602094909401359450505050565b6001600160a01b038816815261293d6020820188612378565b85604082015284606082015283608082015260e060a0820152600061296560e08301856123be565b82810360c08401526129778185612497565b9a9950505050505050505050565b6000806000806080858703121561299b57600080fd5b6129a48561244f565b9350602085013592506040850135915060608501356001600160401b038111156129cd57600080fd5b6129d9878288016125ae565b91505092959194509250565b600181811c908216806129f957607f821691505b6020821081036107f757634e487b7160e01b600052602260045260246000fd5b60208082526023908201527f416363657373436f6e74726f6c3a206163636f756e74206d697373696e6720726040820152626f6c6560e81b606082015260800190565b60208082526014908201527314da185c9908191bd95cc81b9bdd08195e1a5cdd60621b604082015260600190565b634e487b7160e01b600052601160045260246000fd5b8082028115828204841417610ac557610ac5612a8a565b600082612ad457634e487b7160e01b600052601260045260246000fd5b500490565b60208082526026908201527f416363657373436f6e74726f6c3a2073656e646572206d75737420626520616e6040820152651030b236b4b760d11b606082015260800190565b604081526000612b3260408301856123be565b90508260208301529392505050565b634e487b7160e01b600052603260045260246000fd5b600060018201612b6957612b69612a8a565b5060010190565b601f82111561077a57600081815260208120601f850160051c81016020861015612b975750805b601f850160051c820191505b81811015612bb657828155600101612ba3565b505050505050565b81516001600160401b03811115612bd757612bd7612568565b612beb81612be584546129e5565b84612b70565b602080601f831160018114612c205760008415612c085750858301515b600019600386901b1c1916600185901b178555612bb6565b600085815260208120601f198616915b82811015612c4f57888601518255948401946001909101908401612c30565b5085821015612c6d5787850151600019600388901b60f8161c191681555b5050505050600190811b01905550565b60008251612c8f81846020870161239a565b9190910192915050565b80820180821115610ac557610ac5612a8a565b81810381811115610ac557610ac5612a8a565b604081526000612b326040830185612497565b634e487b7160e01b600052603160045260246000fd5b600081612cf757612cf7612a8a565b50600019019056fea49807205ce4d355092ef5a8a18f56e8913cf4a201fbe287825b095693c21775a264697066735822122035a0062a7eb73b5fdf4fb6f6a5e6262c4e31a0059cb8f96f0787260652c4b2c064736f6c63430008130033",
  "immutableReferences": {},
  "source": "// SPDX-License-Identifier: MIT\r\npragma solidity ^0.8.19;\r\n\r\nimport \"./AccessControl.sol\";\r\n\r\n/**\r\n * @title AdaptiveSharding\r\n * @dev Contract for adaptive sharding to improve scalability and performance\r\n * This implements a dynamic sharding mechanism based on transaction load and network conditions\r\n */\r\ncontract AdaptiveSharding is AccessControl {\r\n    \r\n    // Events\r\n    event ShardCreated(uint256 indexed shardId, address shardManager, uint256 minCapacity, uint256 maxCapacity);\r\n    event ShardActivated(uint256 indexed shardId, uint256 timestamp);\r\n    event ShardDeactivated(uint256 indexed shardId, string reason, uint256 timestamp);\r\n    event ProductAssignedToShard(uint256 indexed productId, uint256 indexed shardId, uint256 timestamp);\r\n    event ShardRebalanced(uint256[] affectedShards, uint256 timestamp);\r\n    event LoadThresholdUpdated(uint256 highThreshold, uint256 lowThreshold);\r\n    \r\n    // Shard status\r\n    enum ShardStatus {\r\n        Inactive,\r\n        Active,\r\n        Rebalancing,\r\n        Maintenance\r\n    }\r\n    \r\n    // Shard information\r\n    struct Shard {\r\n        uint256 shardId;\r\n        address shardManager;\r\n        ShardStatus status;\r\n        uint256 currentLoad; // Number of products/transactions\r\n        uint256 minCapacity;\r\n        uint256 maxCapacity;\r\n        uint256 createdAt;\r\n        uint256 lastRebalanced;\r\n        string region; // Geographic region for optimization\r\n        uint256[] assignedProducts;\r\n        mapping(uint256 => bool) productExists;\r\n    }\r\n    \r\n    // Load metrics for adaptive decisions\r\n    struct LoadMetrics {\r\n        uint256 totalTransactions;\r\n        uint256 avgResponseTime;\r\n        uint256 throughput;\r\n        uint256 errorRate;\r\n        uint256 timestamp;\r\n    }\r\n    \r\n    // Rebalancing configuration\r\n    struct RebalancingConfig {\r\n        uint256 highLoadThreshold; // Percentage (e.g., 80 = 80%)\r\n        uint256 lowLoadThreshold;  // Percentage (e.g., 20 = 20%)\r\n        uint256 rebalanceInterval; // Minimum time between rebalances\r\n        uint256 migrationBatchSize; // Products to migrate per transaction\r\n        bool autoRebalanceEnabled;\r\n    }\r\n    \r\n    // State variables\r\n    uint256 private shardCounter;\r\n    uint256 private rebalanceCounter;\r\n    \r\n    // Mappings\r\n    mapping(uint256 => Shard) public shards;\r\n    mapping(uint256 => uint256) public productToShard; // productId => shardId\r\n    mapping(address => uint256[]) public managerShards;\r\n    mapping(string => uint256[]) public regionShards; // region => shardIds\r\n    mapping(uint256 => LoadMetrics) public shardMetrics;\r\n    \r\n    // Configuration\r\n    RebalancingConfig public rebalancingConfig;\r\n    \r\n    // Arrays for iteration\r\n    uint256[] public activeShards;\r\n    uint256[] public inactiveShards;\r\n    \r\n    modifier shardExists(uint256 _shardId) {\r\n        require(_shardId > 0 && _shardId <= shardCounter, \"Shard does not exist\");\r\n        _;\r\n    }\r\n    \r\n    modifier onlyShardManager(uint256 _shardId) {\r\n        require(shards[_shardId].shardManager == msg.sender, \"Not shard manager\");\r\n        _;\r\n    }\r\n    \r\n    modifier onlyActiveShard(uint256 _shardId) {\r\n        require(shards[_shardId].status == ShardStatus.Active, \"Shard not active\");\r\n        _;\r\n    }\r\n    \r\n    constructor() {\r\n        _setupRole(DEFAULT_ADMIN_ROLE, msg.sender);\r\n        _setupRole(ADMIN_ROLE, msg.sender);\r\n        \r\n        // Set default rebalancing configuration\r\n        rebalancingConfig = RebalancingConfig({\r\n            highLoadThreshold: 80, // 80%\r\n            lowLoadThreshold: 20,  // 20%\r\n            rebalanceInterval: 300, // 5 minutes\r\n            migrationBatchSize: 100,\r\n            autoRebalanceEnabled: true\r\n        });\r\n    }\r\n    \r\n    /**\r\n     * @dev Create a new shard\r\n     */\r\n    function createShard(\r\n        address _shardManager,\r\n        uint256 _minCapacity,\r\n        uint256 _maxCapacity,\r\n        string memory _region\r\n    ) external onlyRole(ADMIN_ROLE) returns (uint256) {\r\n        require(_shardManager != address(0), \"Invalid shard manager\");\r\n        require(_maxCapacity > _minCapacity, \"Invalid capacity range\");\r\n        require(_minCapacity > 0, \"Minimum capacity must be > 0\");\r\n        \r\n        shardCounter++;\r\n        \r\n        Shard storage newShard = shards[shardCounter];\r\n        newShard.shardId = shardCounter;\r\n        newShard.shardManager = _shardManager;\r\n        newShard.status = ShardStatus.Inactive;\r\n        newShard.currentLoad = 0;\r\n        newShard.minCapacity = _minCapacity;\r\n        newShard.maxCapacity = _maxCapacity;\r\n        newShard.createdAt = block.timestamp;\r\n        newShard.lastRebalanced = block.timestamp;\r\n        newShard.region = _region;\r\n        \r\n        managerShards[_shardManager].push(shardCounter);\r\n        regionShards[_region].push(shardCounter);\r\n        inactiveShards.push(shardCounter);\r\n        \r\n        // Grant shard manager role\r\n        grantRole(SHARD_MANAGER_ROLE, _shardManager);\r\n        \r\n        emit ShardCreated(shardCounter, _shardManager, _minCapacity, _maxCapacity);\r\n        \r\n        return shardCounter;\r\n    }\r\n    \r\n    /**\r\n     * @dev Activate a shard\r\n     */\r\n    function activateShard(uint256 _shardId) \r\n        external \r\n        shardExists(_shardId) \r\n        onlyRole(ADMIN_ROLE) {\r\n        require(shards[_shardId].status == ShardStatus.Inactive, \"Shard not inactive\");\r\n        \r\n        shards[_shardId].status = ShardStatus.Active;\r\n        \r\n        // Move from inactive to active array\r\n        _removeFromArray(inactiveShards, _shardId);\r\n        activeShards.push(_shardId);\r\n        \r\n        emit ShardActivated(_shardId, block.timestamp);\r\n    }\r\n    \r\n    /**\r\n     * @dev Deactivate a shard\r\n     */\r\n    function deactivateShard(uint256 _shardId, string memory _reason) \r\n        external \r\n        shardExists(_shardId) \r\n        onlyRole(ADMIN_ROLE) {\r\n        require(shards[_shardId].status == ShardStatus.Active, \"Shard not active\");\r\n        require(shards[_shardId].currentLoad == 0, \"Shard has active products\");\r\n        \r\n        shards[_shardId].status = ShardStatus.Inactive;\r\n        \r\n        // Move from active to inactive array\r\n        _removeFromArray(activeShards, _shardId);\r\n        inactiveShards.push(_shardId);\r\n        \r\n        emit ShardDeactivated(_shardId, _reason, block.timestamp);\r\n    }\r\n    \r\n    /**\r\n     * @dev Assign product to optimal shard\r\n     */\r\n    function assignProductToShard(uint256 _productId, string memory _preferredRegion) \r\n        external \r\n        onlyRole(PARTICIPANT_ROLE) \r\n        returns (uint256) {\r\n        require(_productId > 0, \"Invalid product ID\");\r\n        require(productToShard[_productId] == 0, \"Product already assigned\");\r\n        \r\n        uint256 optimalShardId = _findOptimalShard(_preferredRegion);\r\n        require(optimalShardId > 0, \"No available shard\");\r\n        \r\n        // Assign product to shard\r\n        productToShard[_productId] = optimalShardId;\r\n        shards[optimalShardId].assignedProducts.push(_productId);\r\n        shards[optimalShardId].productExists[_productId] = true;\r\n        shards[optimalShardId].currentLoad++;\r\n        \r\n        // Check if rebalancing is needed\r\n        if (rebalancingConfig.autoRebalanceEnabled) {\r\n            _checkRebalanceNeed(optimalShardId);\r\n        }\r\n        \r\n        emit ProductAssignedToShard(_productId, optimalShardId, block.timestamp);\r\n        \r\n        return optimalShardId;\r\n    }\r\n    \r\n    /**\r\n     * @dev Update load metrics for a shard\r\n     */\r\n    function updateShardMetrics(\r\n        uint256 _shardId,\r\n        uint256 _totalTransactions,\r\n        uint256 _avgResponseTime,\r\n        uint256 _throughput,\r\n        uint256 _errorRate\r\n    ) external shardExists(_shardId) onlyShardManager(_shardId) {\r\n        shardMetrics[_shardId] = LoadMetrics({\r\n            totalTransactions: _totalTransactions,\r\n            avgResponseTime: _avgResponseTime,\r\n            throughput: _throughput,\r\n            errorRate: _errorRate,\r\n            timestamp: block.timestamp\r\n        });\r\n    }\r\n    \r\n    /**\r\n     * @dev Trigger manual rebalancing\r\n     */\r\n    function triggerRebalancing() external onlyRole(ADMIN_ROLE) {\r\n        require(activeShards.length > 1, \"Need at least 2 active shards\");\r\n        \r\n        uint256[] memory overloadedShards = _getOverloadedShards();\r\n        uint256[] memory underloadedShards = _getUnderloadedShards();\r\n        \r\n        if (overloadedShards.length > 0 && underloadedShards.length > 0) {\r\n            _performRebalancing(overloadedShards, underloadedShards);\r\n        }\r\n    }\r\n    \r\n    /**\r\n     * @dev Update rebalancing configuration\r\n     */\r\n    function updateRebalancingConfig(\r\n        uint256 _highThreshold,\r\n        uint256 _lowThreshold,\r\n        uint256 _rebalanceInterval,\r\n        uint256 _migrationBatchSize,\r\n        bool _autoRebalanceEnabled\r\n    ) external onlyRole(ADMIN_ROLE) {\r\n        require(_highThreshold > _lowThreshold, \"Invalid threshold range\");\r\n        require(_highThreshold <= 100, \"High threshold cannot exceed 100%\");\r\n        \r\n        rebalancingConfig.highLoadThreshold = _highThreshold;\r\n        rebalancingConfig.lowLoadThreshold = _lowThreshold;\r\n        rebalancingConfig.rebalanceInterval = _rebalanceInterval;\r\n        rebalancingConfig.migrationBatchSize = _migrationBatchSize;\r\n        rebalancingConfig.autoRebalanceEnabled = _autoRebalanceEnabled;\r\n        \r\n        emit LoadThresholdUpdated(_highThreshold, _lowThreshold);\r\n    }\r\n    \r\n    /**\r\n     * @dev Get shard information\r\n     */\r\n    function getShardInfo(uint256 _shardId) \r\n        external \r\n        view \r\n        shardExists(_shardId) \r\n        returns (\r\n            address shardManager,\r\n            ShardStatus status,\r\n            uint256 currentLoad,\r\n            uint256 minCapacity,\r\n            uint256 maxCapacity,\r\n            string memory region,\r\n            uint256[] memory assignedProducts\r\n        ) {\r\n        Shard storage shard = shards[_shardId];\r\n        return (\r\n            shard.shardManager,\r\n            shard.status,\r\n            shard.currentLoad,\r\n            shard.minCapacity,\r\n            shard.maxCapacity,\r\n            shard.region,\r\n            shard.assignedProducts\r\n        );\r\n    }\r\n    \r\n    /**\r\n     * @dev Get optimal shard for a product\r\n     */\r\n    function getOptimalShard(string memory _preferredRegion) \r\n        external \r\n        view \r\n        returns (uint256) {\r\n        return _findOptimalShard(_preferredRegion);\r\n    }\r\n    \r\n    /**\r\n     * @dev Get shard load percentage\r\n     */\r\n    function getShardLoadPercentage(uint256 _shardId) \r\n        external \r\n        view \r\n        shardExists(_shardId) \r\n        returns (uint256) {\r\n        Shard storage shard = shards[_shardId];\r\n        if (shard.maxCapacity == 0) return 0;\r\n        return (shard.currentLoad * 100) / shard.maxCapacity;\r\n    }\r\n    \r\n    /**\r\n     * @dev Find optimal shard based on load and region\r\n     */\r\n    function _findOptimalShard(string memory _preferredRegion) \r\n        private \r\n        view \r\n        returns (uint256) {\r\n        uint256 bestShard = 0;\r\n        uint256 lowestLoad = type(uint256).max;\r\n        \r\n        // First, try to find shard in preferred region\r\n        uint256[] memory regionShardIds = regionShards[_preferredRegion];\r\n        for (uint256 i = 0; i < regionShardIds.length; i++) {\r\n            uint256 shardId = regionShardIds[i];\r\n            Shard storage shard = shards[shardId];\r\n            \r\n            if (shard.status == ShardStatus.Active && \r\n                shard.currentLoad < shard.maxCapacity &&\r\n                shard.currentLoad < lowestLoad) {\r\n                bestShard = shardId;\r\n                lowestLoad = shard.currentLoad;\r\n            }\r\n        }\r\n        \r\n        // If no shard found in preferred region, check all active shards\r\n        if (bestShard == 0) {\r\n            for (uint256 i = 0; i < activeShards.length; i++) {\r\n                uint256 shardId = activeShards[i];\r\n                Shard storage shard = shards[shardId];\r\n                \r\n                if (shard.currentLoad < shard.maxCapacity &&\r\n                    shard.currentLoad < lowestLoad) {\r\n                    bestShard = shardId;\r\n                    lowestLoad = shard.currentLoad;\r\n                }\r\n            }\r\n        }\r\n        \r\n        return bestShard;\r\n    }\r\n    \r\n    /**\r\n     * @dev Check if rebalancing is needed for a shard\r\n     */\r\n    function _checkRebalanceNeed(uint256 _shardId) private {\r\n        if (!rebalancingConfig.autoRebalanceEnabled) return;\r\n        \r\n        Shard storage shard = shards[_shardId];\r\n        uint256 loadPercentage = (shard.currentLoad * 100) / shard.maxCapacity;\r\n        \r\n        if (loadPercentage >= rebalancingConfig.highLoadThreshold &&\r\n            block.timestamp >= shard.lastRebalanced + rebalancingConfig.rebalanceInterval) {\r\n            \r\n            // Find underloaded shards for migration\r\n            uint256[] memory underloadedShards = _getUnderloadedShards();\r\n            if (underloadedShards.length > 0) {\r\n                uint256[] memory overloaded = new uint256[](1);\r\n                overloaded[0] = _shardId;\r\n                _performRebalancing(overloaded, underloadedShards);\r\n            }\r\n        }\r\n    }\r\n    \r\n    /**\r\n     * @dev Get overloaded shards\r\n     */\r\n    function _getOverloadedShards() private view returns (uint256[] memory) {\r\n        uint256[] memory overloaded = new uint256[](activeShards.length);\r\n        uint256 count = 0;\r\n        \r\n        for (uint256 i = 0; i < activeShards.length; i++) {\r\n            uint256 shardId = activeShards[i];\r\n            Shard storage shard = shards[shardId];\r\n            uint256 loadPercentage = (shard.currentLoad * 100) / shard.maxCapacity;\r\n            \r\n            if (loadPercentage >= rebalancingConfig.highLoadThreshold) {\r\n                overloaded[count] = shardId;\r\n                count++;\r\n            }\r\n        }\r\n        \r\n        // Resize array\r\n        uint256[] memory result = new uint256[](count);\r\n        for (uint256 i = 0; i < count; i++) {\r\n            result[i] = overloaded[i];\r\n        }\r\n        \r\n        return result;\r\n    }\r\n    \r\n    /**\r\n     * @dev Get underloaded shards\r\n     */\r\n    function _getUnderloadedShards() private view returns (uint256[] memory) {\r\n        uint256[] memory underloaded = new uint256[](activeShards.length);\r\n        uint256 count = 0;\r\n        \r\n        for (uint256 i = 0; i < activeShards.length; i++) {\r\n            uint256 shardId = activeShards[i];\r\n            Shard storage shard = shards[shardId];\r\n            uint256 loadPercentage = (shard.currentLoad * 100) / shard.maxCapacity;\r\n            \r\n            if (loadPercentage <= rebalancingConfig.lowLoadThreshold) {\r\n                underloaded[count] = shardId;\r\n                count++;\r\n            }\r\n        }\r\n        \r\n        // Resize array\r\n        uint256[] memory result = new uint256[](count);\r\n        for (uint256 i = 0; i < count; i++) {\r\n            result[i] = underloaded[i];\r\n        }\r\n        \r\n        return result;\r\n    }\r\n    \r\n    /**\r\n     * @dev Perform rebalancing between shards\r\n     */\r\n    function _performRebalancing(\r\n        uint256[] memory _overloadedShards,\r\n        uint256[] memory _underloadedShards\r\n    ) private {\r\n        rebalanceCounter++;\r\n        uint256[] memory affectedShards = new uint256[](_overloadedShards.length + _underloadedShards.length);\r\n        \r\n        // Copy shard IDs to affected shards array\r\n        for (uint256 i = 0; i < _overloadedShards.length; i++) {\r\n            affectedShards[i] = _overloadedShards[i];\r\n        }\r\n        for (uint256 i = 0; i < _underloadedShards.length; i++) {\r\n            affectedShards[_overloadedShards.length + i] = _underloadedShards[i];\r\n        }\r\n        \r\n        // Migrate products from overloaded to underloaded shards\r\n        uint256 underloadedIndex = 0;\r\n        \r\n        for (uint256 i = 0; i < _overloadedShards.length && underloadedIndex < _underloadedShards.length; i++) {\r\n            uint256 overloadedShardId = _overloadedShards[i];\r\n            uint256 underloadedShardId = _underloadedShards[underloadedIndex];\r\n            \r\n            Shard storage overloadedShard = shards[overloadedShardId];\r\n            Shard storage underloadedShard = shards[underloadedShardId];\r\n            \r\n            // Calculate how many products to migrate\r\n            uint256 excessLoad = overloadedShard.currentLoad - (overloadedShard.maxCapacity * rebalancingConfig.highLoadThreshold / 100);\r\n            uint256 availableCapacity = underloadedShard.maxCapacity - underloadedShard.currentLoad;\r\n            uint256 toMigrate = excessLoad < availableCapacity ? excessLoad : availableCapacity;\r\n            \r\n            if (toMigrate > rebalancingConfig.migrationBatchSize) {\r\n                toMigrate = rebalancingConfig.migrationBatchSize;\r\n            }\r\n            \r\n            // Migrate products\r\n            _migrateProducts(overloadedShardId, underloadedShardId, toMigrate);\r\n            \r\n            // Update last rebalanced timestamp\r\n            overloadedShard.lastRebalanced = block.timestamp;\r\n            underloadedShard.lastRebalanced = block.timestamp;\r\n            \r\n            // Move to next underloaded shard if current one is getting full\r\n            if (underloadedShard.currentLoad >= underloadedShard.maxCapacity * 80 / 100) {\r\n                underloadedIndex++;\r\n            }\r\n        }\r\n        \r\n        emit ShardRebalanced(affectedShards, block.timestamp);\r\n    }\r\n    \r\n    /**\r\n     * @dev Migrate products between shards\r\n     */\r\n    function _migrateProducts(uint256 _fromShard, uint256 _toShard, uint256 _count) private {\r\n        Shard storage fromShard = shards[_fromShard];\r\n        Shard storage toShard = shards[_toShard];\r\n        \r\n        uint256 migrated = 0;\r\n        uint256 i = fromShard.assignedProducts.length;\r\n        \r\n        while (migrated < _count && i > 0) {\r\n            i--;\r\n            uint256 productId = fromShard.assignedProducts[i];\r\n            \r\n            // Update product assignment\r\n            productToShard[productId] = _toShard;\r\n            \r\n            // Add to destination shard\r\n            toShard.assignedProducts.push(productId);\r\n            toShard.productExists[productId] = true;\r\n            toShard.currentLoad++;\r\n            \r\n            // Remove from source shard\r\n            fromShard.productExists[productId] = false;\r\n            fromShard.currentLoad--;\r\n            \r\n            // Remove from array (swap with last element and pop)\r\n            fromShard.assignedProducts[i] = fromShard.assignedProducts[fromShard.assignedProducts.length - 1];\r\n            fromShard.assignedProducts.pop();\r\n            \r\n            migrated++;\r\n        }\r\n    }\r\n    \r\n    /**\r\n     * @dev Remove element from array\r\n     */\r\n    function _removeFromArray(uint256[] storage _array, uint256 _element) private {\r\n        for (uint256 i = 0; i < _array.length; i++) {\r\n            if (_array[i] == _element) {\r\n                _array[i] = _array[_array.length - 1];\r\n                _array.pop();\r\n                break;\r\n            }\r\n        }\r\n    }\r\n    \r\n    // Utility functions\r\n    function getActiveShardCount() external view returns (uint256) {\r\n        return activeShards.length;\r\n    }\r\n    \r\n    function getInactiveShardCount() external view returns (uint256) {\r\n        return inactiveShards.length;\r\n    }\r\n    \r\n    function getTotalShardCount() external view returns (uint256) {\r\n        return shardCounter;\r\n    }\r\n    \r\n    function getActiveShards() external view returns (uint256[] memory) {\r\n        return activeShards;\r\n    }\r\n}",
  "sourcePath": "C:\\projects\\BLOCKCHAIN_PROJECT\\contracts\\AdaptiveSharding.sol",
  "compiler": {
    "name": "solc",
    "version": "0.8.19+commit.7dd6d404.Emscripten.clang"
  },
  "schemaVersion": "3.4.16",
  "updatedAt": "2025-08-21T13:38:05.582Z",
  "devdoc": {
    "details": "Contract for adaptive sharding to improve scalability and performance This implements a dynamic sharding mechanism based on transaction load and network conditions",
    "kind": "dev",
    "methods": {
      "activateShard(uint256)": {
        "details": "Activate a shard"
      },
      "assignProductToShard(uint256,string)": {
        "details": "Assign product to optimal shard"
      },
      "createShard(address,uint256,uint256,string)": {
        "details": "Create a new shard"
      },
      "deactivateShard(uint256,string)": {
        "details": "Deactivate a shard"
      },
      "getOptimalShard(string)": {
        "details": "Get optimal shard for a product"
      },
      "getRoleAdmin(bytes32)": {
        "details": "Get the admin role for a given role"
      },
      "getRoleMembers(bytes32,address[])": {
        "details": "Get all accounts with a specific role (expensive operation, use carefully)"
      },
      "getShardInfo(uint256)": {
        "details": "Get shard information"
      },
      "getShardLoadPercentage(uint256)": {
        "details": "Get shard load percentage"
      },
      "grantRole(bytes32,address)": {
        "details": "Grant a role to an account"
      },
      "hasRole(bytes32,address)": {
        "details": "Check if an account has a specific role"
      },
      "hasRoles(bytes32[],address[])": {
        "details": "Check if multiple accounts have required roles (batch check)"
      },
      "renounceRole(bytes32,address)": {
        "details": "Renounce a role (can only be called by the account itself)"
      },
      "revokeRole(bytes32,address)": {
        "details": "Revoke a role from an account"
      },
      "triggerRebalancing()": {
        "details": "Trigger manual rebalancing"
      },
      "updateRebalancingConfig(uint256,uint256,uint256,uint256,bool)": {
        "details": "Update rebalancing configuration"
      },
      "updateShardMetrics(uint256,uint256,uint256,uint256,uint256)": {
        "details": "Update load metrics for a shard"
      }
    },
    "title": "AdaptiveSharding",
    "version": 1
  },
  "userdoc": {
    "kind": "user",
    "methods": {},
    "version": 1
  }
}