{
  "contractName": "HighEfficiencyProcessor",
  "abi": [
    {
      "inputs": [
        {
          "internalType": "address",
          "name": "_shardingContract",
          "type": "address"
        }
      ],
      "stateMutability": "nonpayable",
      "type": "constructor"
    },
    {
      "anonymous": false,
      "inputs": [
        {
          "indexed": true,
          "internalType": "uint256",
          "name": "batchId",
          "type": "uint256"
        },
        {
          "indexed": false,
          "internalType": "string",
          "name": "operationType",
          "type": "string"
        },
        {
          "indexed": false,
          "internalType": "uint256",
          "name": "operationCount",
          "type": "uint256"
        }
      ],
      "name": "BatchCreated",
      "type": "event"
    },
    {
      "anonymous": false,
      "inputs": [
        {
          "indexed": true,
          "internalType": "uint256",
          "name": "batchId",
          "type": "uint256"
        },
        {
          "indexed": false,
          "internalType": "uint256",
          "name": "gasUsed",
          "type": "uint256"
        },
        {
          "indexed": false,
          "internalType": "uint256",
          "name": "processingTime",
          "type": "uint256"
        }
      ],
      "name": "BatchProcessed",
      "type": "event"
    },
    {
      "anonymous": false,
      "inputs": [
        {
          "indexed": true,
          "internalType": "uint256",
          "name": "batchId",
          "type": "uint256"
        },
        {
          "indexed": false,
          "internalType": "uint256",
          "name": "gasSaved",
          "type": "uint256"
        },
        {
          "indexed": false,
          "internalType": "string",
          "name": "optimizationType",
          "type": "string"
        }
      ],
      "name": "OptimizationApplied",
      "type": "event"
    },
    {
      "anonymous": false,
      "inputs": [
        {
          "indexed": true,
          "internalType": "bytes32",
          "name": "role",
          "type": "bytes32"
        },
        {
          "indexed": true,
          "internalType": "bytes32",
          "name": "previousAdminRole",
          "type": "bytes32"
        },
        {
          "indexed": true,
          "internalType": "bytes32",
          "name": "newAdminRole",
          "type": "bytes32"
        }
      ],
      "name": "RoleAdminChanged",
      "type": "event"
    },
    {
      "anonymous": false,
      "inputs": [
        {
          "indexed": true,
          "internalType": "bytes32",
          "name": "role",
          "type": "bytes32"
        },
        {
          "indexed": true,
          "internalType": "address",
          "name": "account",
          "type": "address"
        },
        {
          "indexed": true,
          "internalType": "address",
          "name": "sender",
          "type": "address"
        }
      ],
      "name": "RoleGranted",
      "type": "event"
    },
    {
      "anonymous": false,
      "inputs": [
        {
          "indexed": true,
          "internalType": "bytes32",
          "name": "role",
          "type": "bytes32"
        },
        {
          "indexed": true,
          "internalType": "address",
          "name": "account",
          "type": "address"
        },
        {
          "indexed": true,
          "internalType": "address",
          "name": "sender",
          "type": "address"
        }
      ],
      "name": "RoleRevoked",
      "type": "event"
    },
    {
      "inputs": [],
      "name": "ADMIN_ROLE",
      "outputs": [
        {
          "internalType": "bytes32",
          "name": "",
          "type": "bytes32"
        }
      ],
      "stateMutability": "view",
      "type": "function",
      "constant": true
    },
    {
      "inputs": [],
      "name": "AUDITOR_ROLE",
      "outputs": [
        {
          "internalType": "bytes32",
          "name": "",
          "type": "bytes32"
        }
      ],
      "stateMutability": "view",
      "type": "function",
      "constant": true
    },
    {
      "inputs": [],
      "name": "DEFAULT_ADMIN_ROLE",
      "outputs": [
        {
          "internalType": "bytes32",
          "name": "",
          "type": "bytes32"
        }
      ],
      "stateMutability": "view",
      "type": "function",
      "constant": true
    },
    {
      "inputs": [],
      "name": "IOT_DEVICE_ROLE",
      "outputs": [
        {
          "internalType": "bytes32",
          "name": "",
          "type": "bytes32"
        }
      ],
      "stateMutability": "view",
      "type": "function",
      "constant": true
    },
    {
      "inputs": [],
      "name": "PARTICIPANT_ROLE",
      "outputs": [
        {
          "internalType": "bytes32",
          "name": "",
          "type": "bytes32"
        }
      ],
      "stateMutability": "view",
      "type": "function",
      "constant": true
    },
    {
      "inputs": [],
      "name": "SHARD_MANAGER_ROLE",
      "outputs": [
        {
          "internalType": "bytes32",
          "name": "",
          "type": "bytes32"
        }
      ],
      "stateMutability": "view",
      "type": "function",
      "constant": true
    },
    {
      "inputs": [
        {
          "internalType": "uint256",
          "name": "",
          "type": "uint256"
        }
      ],
      "name": "batches",
      "outputs": [
        {
          "internalType": "uint256",
          "name": "batchId",
          "type": "uint256"
        },
        {
          "internalType": "string",
          "name": "operationType",
          "type": "string"
        },
        {
          "internalType": "bytes",
          "name": "operationData",
          "type": "bytes"
        },
        {
          "internalType": "address",
          "name": "initiator",
          "type": "address"
        },
        {
          "internalType": "uint256",
          "name": "timestamp",
          "type": "uint256"
        },
        {
          "internalType": "uint256",
          "name": "gasUsed",
          "type": "uint256"
        },
        {
          "internalType": "bool",
          "name": "completed",
          "type": "bool"
        },
        {
          "internalType": "uint256",
          "name": "shardId",
          "type": "uint256"
        }
      ],
      "stateMutability": "view",
      "type": "function",
      "constant": true
    },
    {
      "inputs": [],
      "name": "config",
      "outputs": [
        {
          "internalType": "uint256",
          "name": "maxBatchSize",
          "type": "uint256"
        },
        {
          "internalType": "uint256",
          "name": "gasOptimizationLevel",
          "type": "uint256"
        },
        {
          "internalType": "bool",
          "name": "compressionEnabled",
          "type": "bool"
        },
        {
          "internalType": "bool",
          "name": "parallelProcessing",
          "type": "bool"
        },
        {
          "internalType": "uint256",
          "name": "cacheSize",
          "type": "uint256"
        },
        {
          "internalType": "uint256",
          "name": "priorityThreshold",
          "type": "uint256"
        }
      ],
      "stateMutability": "view",
      "type": "function",
      "constant": true
    },
    {
      "inputs": [
        {
          "internalType": "string",
          "name": "",
          "type": "string"
        }
      ],
      "name": "gasOptimizations",
      "outputs": [
        {
          "internalType": "uint256",
          "name": "",
          "type": "uint256"
        }
      ],
      "stateMutability": "view",
      "type": "function",
      "constant": true
    },
    {
      "inputs": [
        {
          "internalType": "bytes32",
          "name": "role",
          "type": "bytes32"
        }
      ],
      "name": "getRoleAdmin",
      "outputs": [
        {
          "internalType": "bytes32",
          "name": "",
          "type": "bytes32"
        }
      ],
      "stateMutability": "view",
      "type": "function",
      "constant": true
    },
    {
      "inputs": [
        {
          "internalType": "bytes32",
          "name": "role",
          "type": "bytes32"
        },
        {
          "internalType": "address[]",
          "name": "candidates",
          "type": "address[]"
        }
      ],
      "name": "getRoleMembers",
      "outputs": [
        {
          "internalType": "address[]",
          "name": "",
          "type": "address[]"
        }
      ],
      "stateMutability": "view",
      "type": "function",
      "constant": true
    },
    {
      "inputs": [
        {
          "internalType": "bytes32",
          "name": "role",
          "type": "bytes32"
        },
        {
          "internalType": "address",
          "name": "account",
          "type": "address"
        }
      ],
      "name": "grantRole",
      "outputs": [],
      "stateMutability": "nonpayable",
      "type": "function"
    },
    {
      "inputs": [
        {
          "internalType": "bytes32",
          "name": "role",
          "type": "bytes32"
        },
        {
          "internalType": "address",
          "name": "account",
          "type": "address"
        }
      ],
      "name": "hasRole",
      "outputs": [
        {
          "internalType": "bool",
          "name": "",
          "type": "bool"
        }
      ],
      "stateMutability": "view",
      "type": "function",
      "constant": true
    },
    {
      "inputs": [
        {
          "internalType": "bytes32[]",
          "name": "roles",
          "type": "bytes32[]"
        },
        {
          "internalType": "address[]",
          "name": "accounts",
          "type": "address[]"
        }
      ],
      "name": "hasRoles",
      "outputs": [
        {
          "internalType": "bool[]",
          "name": "",
          "type": "bool[]"
        }
      ],
      "stateMutability": "view",
      "type": "function",
      "constant": true
    },
    {
      "inputs": [],
      "name": "performance",
      "outputs": [
        {
          "internalType": "uint256",
          "name": "totalBatches",
          "type": "uint256"
        },
        {
          "internalType": "uint256",
          "name": "totalOperations",
          "type": "uint256"
        },
        {
          "internalType": "uint256",
          "name": "avgGasSaved",
          "type": "uint256"
        },
        {
          "internalType": "uint256",
          "name": "avgProcessingTime",
          "type": "uint256"
        },
        {
          "internalType": "uint256",
          "name": "successRate",
          "type": "uint256"
        },
        {
          "internalType": "uint256",
          "name": "compressionRatio",
          "type": "uint256"
        }
      ],
      "stateMutability": "view",
      "type": "function",
      "constant": true
    },
    {
      "inputs": [
        {
          "internalType": "bytes32",
          "name": "role",
          "type": "bytes32"
        },
        {
          "internalType": "address",
          "name": "account",
          "type": "address"
        }
      ],
      "name": "renounceRole",
      "outputs": [],
      "stateMutability": "nonpayable",
      "type": "function"
    },
    {
      "inputs": [
        {
          "internalType": "bytes32",
          "name": "role",
          "type": "bytes32"
        },
        {
          "internalType": "address",
          "name": "account",
          "type": "address"
        }
      ],
      "name": "revokeRole",
      "outputs": [],
      "stateMutability": "nonpayable",
      "type": "function"
    },
    {
      "inputs": [],
      "name": "shardingContract",
      "outputs": [
        {
          "internalType": "contract AdaptiveSharding",
          "name": "",
          "type": "address"
        }
      ],
      "stateMutability": "view",
      "type": "function",
      "constant": true
    },
    {
      "inputs": [
        {
          "internalType": "address",
          "name": "",
          "type": "address"
        },
        {
          "internalType": "uint256",
          "name": "",
          "type": "uint256"
        }
      ],
      "name": "userBatches",
      "outputs": [
        {
          "internalType": "uint256",
          "name": "",
          "type": "uint256"
        }
      ],
      "stateMutability": "view",
      "type": "function",
      "constant": true
    },
    {
      "inputs": [
        {
          "internalType": "string",
          "name": "_operationType",
          "type": "string"
        },
        {
          "internalType": "uint256[]",
          "name": "_targetIds",
          "type": "uint256[]"
        },
        {
          "internalType": "bytes",
          "name": "_operationData",
          "type": "bytes"
        }
      ],
      "name": "createBatch",
      "outputs": [
        {
          "internalType": "uint256",
          "name": "",
          "type": "uint256"
        }
      ],
      "stateMutability": "nonpayable",
      "type": "function"
    },
    {
      "inputs": [
        {
          "internalType": "uint256",
          "name": "_batchId",
          "type": "uint256"
        }
      ],
      "name": "processBatch",
      "outputs": [],
      "stateMutability": "nonpayable",
      "type": "function"
    },
    {
      "inputs": [
        {
          "internalType": "string",
          "name": "_operationType",
          "type": "string"
        },
        {
          "internalType": "uint256",
          "name": "_itemCount",
          "type": "uint256"
        }
      ],
      "name": "calculateGasSavings",
      "outputs": [
        {
          "internalType": "uint256",
          "name": "",
          "type": "uint256"
        }
      ],
      "stateMutability": "view",
      "type": "function",
      "constant": true
    },
    {
      "inputs": [],
      "name": "getPerformanceStats",
      "outputs": [
        {
          "internalType": "uint256",
          "name": "totalBatches",
          "type": "uint256"
        },
        {
          "internalType": "uint256",
          "name": "totalOperations",
          "type": "uint256"
        },
        {
          "internalType": "uint256",
          "name": "avgGasSaved",
          "type": "uint256"
        },
        {
          "internalType": "uint256",
          "name": "avgProcessingTime",
          "type": "uint256"
        },
        {
          "internalType": "uint256",
          "name": "successRate",
          "type": "uint256"
        },
        {
          "internalType": "uint256",
          "name": "compressionRatio",
          "type": "uint256"
        },
        {
          "internalType": "uint256",
          "name": "efficiencyScore",
          "type": "uint256"
        }
      ],
      "stateMutability": "view",
      "type": "function",
      "constant": true
    }
  ],
  "bytecode": "0x60806040523480156200001157600080fd5b506040516200201238038062002012833981016040819052620000349162000293565b6200004160003362000201565b6200006d7fa49807205ce4d355092ef5a8a18f56e8913cf4a201fbe287825b095693c217753362000201565b6001600160a01b038116156200009957600f80546001600160a01b0319166001600160a01b0383161790555b6040805160c0808201835260648083526003602080850182905260018587018190526060808701919091526103e86080808801829052605060a098890181905260048790556005959095556006805461ffff191661010117905560079190915560089384558751958601885260008087529286018390528588018390529085018290528401839052929093018290526009829055600a829055600b829055600c829055600d55600e559051673a3930b739b332b960c11b81526152089160109101908152604051908190036020018120919091556c7175616c6974795f636865636b60981b815261afc890601090600d01908152604051908190036020018120919091556b73746167655f75706461746560a01b815261753090601090600c01908152604051908190036020018120919091556d3130ba31b42fba3930b739b332b960911b8152613a9890601090600e019081526040519081900360200190205550620002c5565b6200020d828262000211565b5050565b6000828152602081815260408083206001600160a01b038516845290915290205460ff166200020d576000828152602081815260408083206001600160a01b0385168085529252808320805460ff1916600117905551339285917f2f8788117e7eff1d82e926ec794901d17c78024a50270940304540a733656f0d9190a45050565b600060208284031215620002a657600080fd5b81516001600160a01b0381168114620002be57600080fd5b9392505050565b611d3d80620002d56000396000f3fe608060405234801561001057600080fd5b506004361061014d5760003560e01c80636e1d616e116100c3578063a5f9392d1161007c578063a5f9392d146103aa578063b32c4d8d146103f5578063d3036dd41461041c578063d547741f1461043c578063e2348a5d1461044f578063f1a93d4a1461047657600080fd5b80636e1d616e146102b657806375b238fc146102dd57806379502c55146103045780638d4df7ab1461035f57806391d148541461037f578063a217fddf146103a257600080fd5b80632f2ff15d116101155780632f2ff15d14610216578063318fd5d01461022b57806336568abe14610256578063475d1ba3146102695780635f8a7abe1461027c5780636309463b146102a357600080fd5b806302932e3814610152578063159901d1146101945780631d405b98146101b5578063248a9ca3146101e05780632ae0934414610203575b600080fd5b61015a61049d565b604080519788526020880196909652948601939093526060850191909152608084015260a083015260c082015260e0015b60405180910390f35b6101a76101a23660046114d2565b61050c565b60405190815260200161018b565b6101a76101c33660046115ae565b805160208183018101805160108252928201919093012091525481565b6101a76101ee3660046115eb565b60009081526020819052604090206001015490565b6101a7610211366004611604565b61085d565b610229610224366004611665565b6108bd565b005b600f5461023e906001600160a01b031681565b6040516001600160a01b03909116815260200161018b565b610229610264366004611665565b610904565b6101a7610277366004611691565b61097e565b6101a77f938c45fe3baa5cbd047f2473358a27f57db22291e9af95379a15ad016886dfb781565b6102296102b13660046115eb565b6109af565b6101a77f59a1c48e5837ad7a7f3dcedcbe129bf3249ec4fbf651fd4f5e2600ead39fe2f581565b6101a77fa49807205ce4d355092ef5a8a18f56e8913cf4a201fbe287825b095693c2177581565b60045460055460065460075460085461032a94939260ff80821693610100909204169186565b6040805196875260208701959095529215159385019390935215156060840152608083019190915260a082015260c00161018b565b61037261036d366004611728565b610d61565b60405161018b91906117e1565b61039261038d366004611665565b610e79565b604051901515815260200161018b565b6101a7600081565b600954600a54600b54600c54600d54600e546103c895949392919086565b604080519687526020870195909552938501929092526060840152608083015260a082015260c00161018b565b6104086104033660046115eb565b610ea2565b60405161018b989796959493929190611877565b61042f61042a3660046118dc565b611002565b60405161018b9190611919565b61022961044a366004611665565b61112b565b6101a77fa57066973b2155f87e85ce4b35594aa85c6061a64b99afb1fcf8f974f04290e381565b6101a77f3fd1570350ad82b8536c3ba26e9b65482f86a92bc0631d77bd1bb4bc2035747381565b60008060008060008060008060009050600060096003015411156104e457600c546104c9906001611970565b600b546104d7906064611983565b6104e1919061199a565b90505b600954600a54600b54600c54600d54600e54949d939c50919a50985096509094509092509050565b60007f938c45fe3baa5cbd047f2473358a27f57db22291e9af95379a15ad016886dfb76105398133610e79565b61055e5760405162461bcd60e51b8152600401610555906119bc565b60405180910390fd5b60008451116105a75760405162461bcd60e51b815260206004820152601560248201527442617463682063616e6e6f7420626520656d70747960581b6044820152606401610555565b600454845111156105fa5760405162461bcd60e51b815260206004820152601a60248201527f42617463682073697a652065786365656473206d6178696d756d0000000000006044820152606401610555565b600f546000906001600160a01b0316156106d7576000855160108860405161062291906119ff565b90815260200160405180910390205461063b9190611983565b600f54604051635c56f9a360e01b81526060600482015260076064820152661c1c9bd91d58dd60ca1b608482015260248101839052600160448201529192506001600160a01b031690635c56f9a39060a401600060405180830381865afa1580156106aa573d6000803e3d6000fd5b505050506040513d6000823e601f3d908101601f191682016040526106d29190810190611a1b565b509150505b600180549060006106e783611a9e565b909155505060408051610120810182526001805480835260208084018b81528486018b9052606085018a90523360808601524260a0860152600060c0860181905260e0860181905261010086018890529283526002909152939020825181559251919291908201906107599082611b40565b5060408201518051610775916002840191602090910190611389565b506060820151600382019061078a9082611b40565b5060808201516004820180546001600160a01b0319166001600160a01b0390921691909117905560a0820151600582015560c0820151600682015560e082015160078201805460ff191691151591909117905561010090910151600890910155336000908152600360209081526040808320600180548254808301845592865293909420019190915590548651915190917f58c168780de5fc719a1e7a85c7eca394e664c0e74b7c9ebc621f0b093112d04b91610848918a91611c00565b60405180910390a25050600154949350505050565b6000808260108560405161087191906119ff565b90815260200160405180910390205461088a9190611983565b905060006108988286611162565b90508082116108a85760006108b2565b6108b28183611c22565b925050505b92915050565b6000828152602081905260409020600101546108da905b33610e79565b6108f65760405162461bcd60e51b815260040161055590611c35565b61090082826111e1565b5050565b6001600160a01b03811633146109745760405162461bcd60e51b815260206004820152602f60248201527f416363657373436f6e74726f6c3a2063616e206f6e6c792072656e6f756e636560448201526e103937b632b9903337b91039b2b63360891b6064820152608401610555565b6109008282611248565b6003602052816000526040600020818154811061099a57600080fd5b90600052602060002001600091509150505481565b7f938c45fe3baa5cbd047f2473358a27f57db22291e9af95379a15ad016886dfb76109da8133610e79565b6109f65760405162461bcd60e51b8152600401610555906119bc565b6000828152600260205260409020600781015460ff1615610a595760405162461bcd60e51b815260206004820152601760248201527f426174636820616c72656164792070726f6365737365640000000000000000006044820152606401610555565b60048101546001600160a01b0316331480610a995750610a997fa49807205ce4d355092ef5a8a18f56e8913cf4a201fbe287825b095693c2177533610e79565b610ad65760405162461bcd60e51b815260206004820152600e60248201526d139bdd08185d5d1a1bdc9a5e995960921b6044820152606401610555565b60005a6002830154604051919250429160009190601090610afb906001880190611c7b565b908152602001604051809103902054610b149190611983565b90506000610bae82866001018054610b2b90611ab7565b80601f0160208091040260200160405190810160405280929190818152602001828054610b5790611ab7565b8015610ba45780601f10610b7957610100808354040283529160200191610ba4565b820191906000526020600020905b815481529060010190602001808311610b8757829003601f168201915b5050505050611162565b905060005b6002860154811015610bd15780610bc981611a9e565b915050610bb3565b5060005a610bdf9086611c22565b90506000610bed8542611c22565b6006880183905560078801805460ff191660011790559050610c108483836112ad565b600f546001600160a01b031615801590610c2d5750600887015415155b15610cac57600f54600888015460405163821511b960e01b815260048101919091526024810184905260448101839052600160648201526001600160a01b039091169063821511b990608401600060405180830381600087803b158015610c9357600080fd5b505af1158015610ca7573d6000803e3d6000fd5b505050505b60408051838152602081018390528a917fd03f99f321df6e5a7f705a548f7e6b4880d02286dda4ffbbf00ff5353381fa89910160405180910390a282821015610d5657887fb4c526e9a7e6c3d7388f6a160136239e0eeb9d91bb0aafb3191870bc0c0ec9d4610d1b8486611c22565b6040805191825260208201819052601290820152712130ba31b41037b83a34b6b4bd30ba34b7b760711b606082015260800160405180910390a25b505050505050505050565b60608151835114610dad5760405162461bcd60e51b8152602060048201526016602482015275082e4e4c2f2e640d8cadccee8d040dad2e6dac2e8c6d60531b6044820152606401610555565b6000835167ffffffffffffffff811115610dc957610dc96113e9565b604051908082528060200260200182016040528015610df2578160200160208202803683370190505b50905060005b8451811015610e7157610e3d858281518110610e1657610e16611cf1565b6020026020010151858381518110610e3057610e30611cf1565b6020026020010151610e79565b828281518110610e4f57610e4f611cf1565b9115156020928302919091019091015280610e6981611a9e565b915050610df8565b509392505050565b6000918252602082815260408084206001600160a01b0393909316845291905290205460ff1690565b60026020526000908152604090208054600182018054919291610ec490611ab7565b80601f0160208091040260200160405190810160405280929190818152602001828054610ef090611ab7565b8015610f3d5780601f10610f1257610100808354040283529160200191610f3d565b820191906000526020600020905b815481529060010190602001808311610f2057829003601f168201915b505050505090806003018054610f5290611ab7565b80601f0160208091040260200160405190810160405280929190818152602001828054610f7e90611ab7565b8015610fcb5780601f10610fa057610100808354040283529160200191610fcb565b820191906000526020600020905b815481529060010190602001808311610fae57829003601f168201915b50505050600483015460058401546006850154600786015460089096015494956001600160a01b03909316949193509160ff169088565b60606000805b835181101561104c5761102785858381518110610e3057610e30611cf1565b1561103a578161103681611a9e565b9250505b8061104481611a9e565b915050611008565b5060008167ffffffffffffffff811115611068576110686113e9565b604051908082528060200260200182016040528015611091578160200160208202803683370190505b5090506000805b8551811015611120576110b787878381518110610e3057610e30611cf1565b1561110e578581815181106110ce576110ce611cf1565b60200260200101518383815181106110e8576110e8611cf1565b6001600160a01b03909216602092830291909101909101528161110a81611a9e565b9250505b8061111881611a9e565b915050611098565b509095945050505050565b600082815260208190526040902060010154611146906108d4565b6109745760405162461bcd60e51b815260040161055590611c35565b600554600090839060031161118b57606461117e826055611983565b611188919061199a565b90505b60065460ff16156111b05760646111a382605a611983565b6111ad919061199a565b90505b600654610100900460ff16156111da5760646111cd826050611983565b6111d7919061199a565b90505b9392505050565b6111eb8282610e79565b610900576000828152602081815260408083206001600160a01b0385168085529252808320805460ff1916600117905551339285917f2f8788117e7eff1d82e926ec794901d17c78024a50270940304540a733656f0d9190a45050565b6112528282610e79565b15610900576000828152602081815260408083206001600160a01b0385168085529252808320805460ff1916905551339285917ff6391f5c32d9c69d2a47ea670b442974b53935d1edc7fd64eb21e047a839171b9190a45050565b600980549060006112bd83611a9e565b919050555060008284116112d25760006112dc565b6112dc8385611c22565b600954909150816112ee600183611c22565b600b546112fb9190611983565b6113059190611970565b61130f919061199a565b600b5560095482611321600183611c22565b600c5461132e9190611983565b6113389190611970565b611342919061199a565b600c5560065460ff1615611383576000841161135f57600061137f565b8361136a8482611c22565b611375906064611983565b61137f919061199a565b600e555b50505050565b8280548282559060005260206000209081019282156113c4579160200282015b828111156113c45782518255916020019190600101906113a9565b506113d09291506113d4565b5090565b5b808211156113d057600081556001016113d5565b634e487b7160e01b600052604160045260246000fd5b604051601f8201601f1916810167ffffffffffffffff81118282101715611428576114286113e9565b604052919050565b600067ffffffffffffffff82111561144a5761144a6113e9565b50601f01601f191660200190565b600082601f83011261146957600080fd5b813561147c61147782611430565b6113ff565b81815284602083860101111561149157600080fd5b816020850160208301376000918101602001919091529392505050565b600067ffffffffffffffff8211156114c8576114c86113e9565b5060051b60200190565b6000806000606084860312156114e757600080fd5b833567ffffffffffffffff808211156114ff57600080fd5b61150b87838801611458565b945060209150818601358181111561152257600080fd5b8601601f8101881361153357600080fd5b8035611541611477826114ae565b81815260059190911b8201840190848101908a83111561156057600080fd5b928501925b8284101561157e57833582529285019290850190611565565b9650505050604086013591508082111561159757600080fd5b506115a486828701611458565b9150509250925092565b6000602082840312156115c057600080fd5b813567ffffffffffffffff8111156115d757600080fd5b6115e384828501611458565b949350505050565b6000602082840312156115fd57600080fd5b5035919050565b6000806040838503121561161757600080fd5b823567ffffffffffffffff81111561162e57600080fd5b61163a85828601611458565b95602094909401359450505050565b80356001600160a01b038116811461166057600080fd5b919050565b6000806040838503121561167857600080fd5b8235915061168860208401611649565b90509250929050565b600080604083850312156116a457600080fd5b6116ad83611649565b946020939093013593505050565b600082601f8301126116cc57600080fd5b813560206116dc611477836114ae565b82815260059290921b840181019181810190868411156116fb57600080fd5b8286015b8481101561171d5761171081611649565b83529183019183016116ff565b509695505050505050565b6000806040838503121561173b57600080fd5b823567ffffffffffffffff8082111561175357600080fd5b818501915085601f83011261176757600080fd5b81356020611777611477836114ae565b82815260059290921b8401810191818101908984111561179657600080fd5b948201945b838610156117b45785358252948201949082019061179b565b965050860135925050808211156117ca57600080fd5b506117d7858286016116bb565b9150509250929050565b6020808252825182820181905260009190848201906040850190845b8181101561181b5783511515835292840192918401916001016117fd565b50909695505050505050565b60005b8381101561184257818101518382015260200161182a565b50506000910152565b60008151808452611863816020860160208601611827565b601f01601f19169290920160200192915050565b60006101008a83528060208401526118918184018b61184b565b905082810360408401526118a5818a61184b565b6001600160a01b039890981660608401525050608081019490945260a0840192909252151560c083015260e0909101529392505050565b600080604083850312156118ef57600080fd5b82359150602083013567ffffffffffffffff81111561190d57600080fd5b6117d7858286016116bb565b6020808252825182820181905260009190848201906040850190845b8181101561181b5783516001600160a01b031683529284019291840191600101611935565b634e487b7160e01b600052601160045260246000fd5b808201808211156108b7576108b761195a565b80820281158282048414176108b7576108b761195a565b6000826119b757634e487b7160e01b600052601260045260246000fd5b500490565b60208082526023908201527f416363657373436f6e74726f6c3a206163636f756e74206d697373696e6720726040820152626f6c6560e81b606082015260800190565b60008251611a11818460208701611827565b9190910192915050565b60008060408385031215611a2e57600080fd5b82519150602083015167ffffffffffffffff811115611a4c57600080fd5b8301601f81018513611a5d57600080fd5b8051611a6b61147782611430565b818152866020838501011115611a8057600080fd5b611a91826020830160208601611827565b8093505050509250929050565b600060018201611ab057611ab061195a565b5060010190565b600181811c90821680611acb57607f821691505b602082108103611aeb57634e487b7160e01b600052602260045260246000fd5b50919050565b601f821115611b3b57600081815260208120601f850160051c81016020861015611b185750805b601f850160051c820191505b81811015611b3757828155600101611b24565b5050505b505050565b815167ffffffffffffffff811115611b5a57611b5a6113e9565b611b6e81611b688454611ab7565b84611af1565b602080601f831160018114611ba35760008415611b8b5750858301515b600019600386901b1c1916600185901b178555611b37565b600085815260208120601f198616915b82811015611bd257888601518255948401946001909101908401611bb3565b5085821015611bf05787850151600019600388901b60f8161c191681555b5050505050600190811b01905550565b604081526000611c13604083018561184b565b90508260208301529392505050565b818103818111156108b7576108b761195a565b60208082526026908201527f416363657373436f6e74726f6c3a2073656e646572206d75737420626520616e6040820152651030b236b4b760d11b606082015260800190565b6000808354611c8981611ab7565b60018281168015611ca15760018114611cb657611ce5565b60ff1984168752821515830287019450611ce5565b8760005260208060002060005b85811015611cdc5781548a820152908401908201611cc3565b50505082870194505b50929695505050505050565b634e487b7160e01b600052603260045260246000fdfea264697066735822122094f37b3d726f1e8fbf5569d668bef1e77f95fd7d8ed30911994d1385e1ed28df64736f6c63430008130033",
  "immutableReferences": {},
  "source": "// SPDX-License-Identifier: MIT\r\npragma solidity ^0.8.19;\r\n\r\nimport \"./AccessControl.sol\";\r\nimport \"./AdaptiveSharding.sol\";\r\n\r\n/**\r\n * @title HighEfficiencyProcessor\r\n * @dev Implements high-efficiency batch processing and optimization techniques\r\n */\r\ncontract HighEfficiencyProcessor is AccessControl {\r\n    \r\n    // Batch operation structure\r\n    struct BatchOperation {\r\n        uint256 batchId;\r\n        string operationType; // \"transfer\", \"quality_check\", \"stage_update\"\r\n        uint256[] targetIds;\r\n        bytes operationData;\r\n        address initiator;\r\n        uint256 timestamp;\r\n        uint256 gasUsed;\r\n        bool completed;\r\n        uint256 shardId;\r\n    }\r\n    \r\n    // Efficiency optimization settings\r\n    struct OptimizationConfig {\r\n        uint256 maxBatchSize;\r\n        uint256 gasOptimizationLevel; // 1-5\r\n        bool compressionEnabled;\r\n        bool parallelProcessing;\r\n        uint256 cacheSize;\r\n        uint256 priorityThreshold;\r\n    }\r\n    \r\n    // Performance tracking\r\n    struct PerformanceData {\r\n        uint256 totalBatches;\r\n        uint256 totalOperations;\r\n        uint256 avgGasSaved;\r\n        uint256 avgProcessingTime;\r\n        uint256 successRate;\r\n        uint256 compressionRatio;\r\n    }\r\n    \r\n    // Events\r\n    event BatchCreated(uint256 indexed batchId, string operationType, uint256 operationCount);\r\n    event BatchProcessed(uint256 indexed batchId, uint256 gasUsed, uint256 processingTime);\r\n    event OptimizationApplied(uint256 indexed batchId, uint256 gasSaved, string optimizationType);\r\n    \r\n    // State variables\r\n    uint256 private batchCounter;\r\n    mapping(uint256 => BatchOperation) public batches;\r\n    mapping(address => uint256[]) public userBatches;\r\n    \r\n    OptimizationConfig public config;\r\n    PerformanceData public performance;\r\n    AdaptiveSharding public shardingContract;\r\n    \r\n    // Gas optimization lookup table\r\n    mapping(string => uint256) public gasOptimizations;\r\n    \r\n    constructor(address _shardingContract) {\r\n        _setupRole(DEFAULT_ADMIN_ROLE, msg.sender);\r\n        _setupRole(ADMIN_ROLE, msg.sender);\r\n        \r\n        if (_shardingContract != address(0)) {\r\n            shardingContract = AdaptiveSharding(_shardingContract);\r\n        }\r\n        \r\n        // Initialize optimization configuration\r\n        config = OptimizationConfig({\r\n            maxBatchSize: 100,\r\n            gasOptimizationLevel: 3,\r\n            compressionEnabled: true,\r\n            parallelProcessing: true,\r\n            cacheSize: 1000,\r\n            priorityThreshold: 80\r\n        });\r\n        \r\n        // Initialize performance data\r\n        performance = PerformanceData({\r\n            totalBatches: 0,\r\n            totalOperations: 0,\r\n            avgGasSaved: 0,\r\n            avgProcessingTime: 0,\r\n            successRate: 100,\r\n            compressionRatio: 0\r\n        });\r\n        \r\n        // Initialize gas optimization lookup\r\n        gasOptimizations[\"transfer\"] = 21000;\r\n        gasOptimizations[\"quality_check\"] = 45000;\r\n        gasOptimizations[\"stage_update\"] = 30000;\r\n        gasOptimizations[\"batch_transfer\"] = 15000; // Per item in batch\r\n    }\r\n    \r\n    /**\r\n     * @dev Create a new batch operation\r\n     */\r\n    function createBatch(\r\n        string memory _operationType,\r\n        uint256[] memory _targetIds,\r\n        bytes memory _operationData\r\n    ) external onlyRole(PARTICIPANT_ROLE) returns (uint256) {\r\n        require(_targetIds.length > 0, \"Batch cannot be empty\");\r\n        require(_targetIds.length <= config.maxBatchSize, \"Batch size exceeds maximum\");\r\n        \r\n        // Select optimal shard for batch processing\r\n        uint256 selectedShardId = 0;\r\n        if (address(shardingContract) != address(0)) {\r\n            uint256 estimatedGas = gasOptimizations[_operationType] * _targetIds.length;\r\n            (selectedShardId,) = shardingContract.getRecommendedShard(\"product\", estimatedGas, 1);\r\n        }\r\n        \r\n        batchCounter++;\r\n        \r\n        batches[batchCounter] = BatchOperation({\r\n            batchId: batchCounter,\r\n            operationType: _operationType,\r\n            targetIds: _targetIds,\r\n            operationData: _operationData,\r\n            initiator: msg.sender,\r\n            timestamp: block.timestamp,\r\n            gasUsed: 0,\r\n            completed: false,\r\n            shardId: selectedShardId\r\n        });\r\n        \r\n        userBatches[msg.sender].push(batchCounter);\r\n        \r\n        emit BatchCreated(batchCounter, _operationType, _targetIds.length);\r\n        \r\n        return batchCounter;\r\n    }\r\n    \r\n    /**\r\n     * @dev Process a batch operation with optimization\r\n     */\r\n    function processBatch(uint256 _batchId) external onlyRole(PARTICIPANT_ROLE) {\r\n        BatchOperation storage batch = batches[_batchId];\r\n        require(!batch.completed, \"Batch already processed\");\r\n        require(batch.initiator == msg.sender || hasRole(ADMIN_ROLE, msg.sender), \"Not authorized\");\r\n        \r\n        uint256 gasStart = gasleft();\r\n        uint256 timeStart = block.timestamp;\r\n        \r\n        // Apply gas optimizations based on configuration\r\n        uint256 originalGasEstimate = gasOptimizations[batch.operationType] * batch.targetIds.length;\r\n        uint256 optimizedGas = applyGasOptimizations(originalGasEstimate, batch.operationType);\r\n        \r\n        // Process the batch (simplified - in production would call actual functions)\r\n        for (uint256 i = 0; i < batch.targetIds.length; i++) {\r\n            // Simulate processing each item in the batch\r\n            // In real implementation, this would call the actual contract functions\r\n        }\r\n        \r\n        uint256 gasUsed = gasStart - gasleft();\r\n        uint256 processingTime = block.timestamp - timeStart;\r\n        \r\n        batch.gasUsed = gasUsed;\r\n        batch.completed = true;\r\n        \r\n        // Update performance metrics\r\n        updatePerformanceMetrics(originalGasEstimate, gasUsed, processingTime);\r\n        \r\n        // Update shard metrics\r\n        if (address(shardingContract) != address(0) && batch.shardId != 0) {\r\n            shardingContract.updateShardLoad(batch.shardId, gasUsed, processingTime, true);\r\n        }\r\n        \r\n        emit BatchProcessed(_batchId, gasUsed, processingTime);\r\n        \r\n        if (gasUsed < optimizedGas) {\r\n            emit OptimizationApplied(_batchId, optimizedGas - gasUsed, \"Batch optimization\");\r\n        }\r\n    }\r\n    \r\n    /**\r\n     * @dev Apply gas optimizations based on operation type and configuration\r\n     */\r\n    function applyGasOptimizations(uint256 _originalGas, string memory /*_operationType*/) internal view returns (uint256) {\r\n        uint256 optimizedGas = _originalGas;\r\n        \r\n        // Apply optimization level multiplier\r\n        if (config.gasOptimizationLevel >= 3) {\r\n            optimizedGas = (optimizedGas * 85) / 100; // 15% reduction\r\n        }\r\n        \r\n        // Apply compression if enabled\r\n        if (config.compressionEnabled) {\r\n            optimizedGas = (optimizedGas * 90) / 100; // 10% reduction\r\n        }\r\n        \r\n        // Apply parallel processing optimization\r\n        if (config.parallelProcessing) {\r\n            optimizedGas = (optimizedGas * 80) / 100; // 20% reduction\r\n        }\r\n        \r\n        return optimizedGas;\r\n    }\r\n    \r\n    /**\r\n     * @dev Calculate potential gas savings for a batch\r\n     */\r\n    function calculateGasSavings(string memory _operationType, uint256 _itemCount) external view returns (uint256) {\r\n        uint256 individualGas = gasOptimizations[_operationType] * _itemCount;\r\n        uint256 batchGas = applyGasOptimizations(individualGas, _operationType);\r\n        \r\n        return individualGas > batchGas ? individualGas - batchGas : 0;\r\n    }\r\n    \r\n    /**\r\n     * @dev Get performance statistics\r\n     */\r\n    function getPerformanceStats() external view returns (\r\n        uint256 totalBatches,\r\n        uint256 totalOperations,\r\n        uint256 avgGasSaved,\r\n        uint256 avgProcessingTime,\r\n        uint256 successRate,\r\n        uint256 compressionRatio,\r\n        uint256 efficiencyScore\r\n    ) {\r\n        uint256 calculatedEfficiencyScore = 0;\r\n        if (performance.avgProcessingTime > 0) {\r\n            calculatedEfficiencyScore = (performance.avgGasSaved * 100) / (performance.avgProcessingTime + 1);\r\n        }\r\n        \r\n        return (\r\n            performance.totalBatches,\r\n            performance.totalOperations,\r\n            performance.avgGasSaved,\r\n            performance.avgProcessingTime,\r\n            performance.successRate,\r\n            performance.compressionRatio,\r\n            calculatedEfficiencyScore\r\n        );\r\n    }\r\n    \r\n    /**\r\n     * @dev Update performance metrics\r\n     */\r\n    function updatePerformanceMetrics(uint256 _originalGas, uint256 _actualGas, uint256 _processingTime) internal {\r\n        performance.totalBatches++;\r\n        \r\n        uint256 gasSaved = _originalGas > _actualGas ? _originalGas - _actualGas : 0;\r\n        performance.avgGasSaved = (performance.avgGasSaved * (performance.totalBatches - 1) + gasSaved) / performance.totalBatches;\r\n        performance.avgProcessingTime = (performance.avgProcessingTime * (performance.totalBatches - 1) + _processingTime) / performance.totalBatches;\r\n        \r\n        // Calculate compression ratio if applicable\r\n        if (config.compressionEnabled) {\r\n            performance.compressionRatio = _originalGas > 0 ? ((_originalGas - _actualGas) * 100) / _originalGas : 0;\r\n        }\r\n    }\r\n}",
  "sourcePath": "C:\\projects\\BLOCKCHAIN_PROJECT\\contracts\\HighEfficiencyProcessor.sol",
  "compiler": {
    "name": "solc",
    "version": "0.8.19+commit.7dd6d404.Emscripten.clang"
  },
  "schemaVersion": "3.4.16",
  "updatedAt": "2025-08-25T11:35:43.820Z",
  "networkType": "ethereum",
  "devdoc": {
    "details": "Implements high-efficiency batch processing and optimization techniques",
    "kind": "dev",
    "methods": {
      "calculateGasSavings(string,uint256)": {
        "details": "Calculate potential gas savings for a batch"
      },
      "createBatch(string,uint256[],bytes)": {
        "details": "Create a new batch operation"
      },
      "getPerformanceStats()": {
        "details": "Get performance statistics"
      },
      "getRoleAdmin(bytes32)": {
        "details": "Get the admin role for a given role"
      },
      "getRoleMembers(bytes32,address[])": {
        "details": "Get all accounts with a specific role (expensive operation, use carefully)"
      },
      "grantRole(bytes32,address)": {
        "details": "Grant a role to an account"
      },
      "hasRole(bytes32,address)": {
        "details": "Check if an account has a specific role"
      },
      "hasRoles(bytes32[],address[])": {
        "details": "Check if multiple accounts have required roles (batch check)"
      },
      "processBatch(uint256)": {
        "details": "Process a batch operation with optimization"
      },
      "renounceRole(bytes32,address)": {
        "details": "Renounce a role (can only be called by the account itself)"
      },
      "revokeRole(bytes32,address)": {
        "details": "Revoke a role from an account"
      }
    },
    "title": "HighEfficiencyProcessor",
    "version": 1
  },
  "userdoc": {
    "kind": "user",
    "methods": {},
    "version": 1
  }
}