{
  "contractName": "IoTIntegration",
  "abi": [
    {
      "inputs": [],
      "stateMutability": "nonpayable",
      "type": "constructor"
    },
    {
      "anonymous": false,
      "inputs": [
        {
          "indexed": true,
          "internalType": "uint256",
          "name": "productId",
          "type": "uint256"
        },
        {
          "indexed": false,
          "internalType": "string",
          "name": "alertType",
          "type": "string"
        },
        {
          "indexed": false,
          "internalType": "string",
          "name": "message",
          "type": "string"
        },
        {
          "indexed": false,
          "internalType": "uint256",
          "name": "timestamp",
          "type": "uint256"
        }
      ],
      "name": "AlertTriggered",
      "type": "event"
    },
    {
      "anonymous": false,
      "inputs": [
        {
          "indexed": true,
          "internalType": "bytes32",
          "name": "role",
          "type": "bytes32"
        },
        {
          "indexed": true,
          "internalType": "bytes32",
          "name": "previousAdminRole",
          "type": "bytes32"
        },
        {
          "indexed": true,
          "internalType": "bytes32",
          "name": "newAdminRole",
          "type": "bytes32"
        }
      ],
      "name": "RoleAdminChanged",
      "type": "event"
    },
    {
      "anonymous": false,
      "inputs": [
        {
          "indexed": true,
          "internalType": "bytes32",
          "name": "role",
          "type": "bytes32"
        },
        {
          "indexed": true,
          "internalType": "address",
          "name": "account",
          "type": "address"
        },
        {
          "indexed": true,
          "internalType": "address",
          "name": "sender",
          "type": "address"
        }
      ],
      "name": "RoleGranted",
      "type": "event"
    },
    {
      "anonymous": false,
      "inputs": [
        {
          "indexed": true,
          "internalType": "bytes32",
          "name": "role",
          "type": "bytes32"
        },
        {
          "indexed": true,
          "internalType": "address",
          "name": "account",
          "type": "address"
        },
        {
          "indexed": true,
          "internalType": "address",
          "name": "sender",
          "type": "address"
        }
      ],
      "name": "RoleRevoked",
      "type": "event"
    },
    {
      "anonymous": false,
      "inputs": [
        {
          "indexed": true,
          "internalType": "string",
          "name": "sensorId",
          "type": "string"
        },
        {
          "indexed": true,
          "internalType": "uint256",
          "name": "productId",
          "type": "uint256"
        },
        {
          "indexed": false,
          "internalType": "bytes",
          "name": "data",
          "type": "bytes"
        },
        {
          "indexed": false,
          "internalType": "uint256",
          "name": "timestamp",
          "type": "uint256"
        }
      ],
      "name": "SensorDataRecorded",
      "type": "event"
    },
    {
      "anonymous": false,
      "inputs": [
        {
          "indexed": false,
          "internalType": "string",
          "name": "sensorId",
          "type": "string"
        },
        {
          "indexed": false,
          "internalType": "address",
          "name": "owner",
          "type": "address"
        },
        {
          "indexed": false,
          "internalType": "enum IoTIntegration.SensorType",
          "name": "sensorType",
          "type": "uint8"
        },
        {
          "indexed": false,
          "internalType": "string",
          "name": "description",
          "type": "string"
        }
      ],
      "name": "SensorRegistered",
      "type": "event"
    },
    {
      "anonymous": false,
      "inputs": [
        {
          "indexed": false,
          "internalType": "enum IoTIntegration.SensorType",
          "name": "sensorType",
          "type": "uint8"
        },
        {
          "indexed": false,
          "internalType": "int256",
          "name": "minValue",
          "type": "int256"
        },
        {
          "indexed": false,
          "internalType": "int256",
          "name": "maxValue",
          "type": "int256"
        }
      ],
      "name": "ThresholdSet",
      "type": "event"
    },
    {
      "inputs": [],
      "name": "ADMIN_ROLE",
      "outputs": [
        {
          "internalType": "bytes32",
          "name": "",
          "type": "bytes32"
        }
      ],
      "stateMutability": "view",
      "type": "function",
      "constant": true
    },
    {
      "inputs": [],
      "name": "AUDITOR_ROLE",
      "outputs": [
        {
          "internalType": "bytes32",
          "name": "",
          "type": "bytes32"
        }
      ],
      "stateMutability": "view",
      "type": "function",
      "constant": true
    },
    {
      "inputs": [],
      "name": "DEFAULT_ADMIN_ROLE",
      "outputs": [
        {
          "internalType": "bytes32",
          "name": "",
          "type": "bytes32"
        }
      ],
      "stateMutability": "view",
      "type": "function",
      "constant": true
    },
    {
      "inputs": [],
      "name": "IOT_DEVICE_ROLE",
      "outputs": [
        {
          "internalType": "bytes32",
          "name": "",
          "type": "bytes32"
        }
      ],
      "stateMutability": "view",
      "type": "function",
      "constant": true
    },
    {
      "inputs": [],
      "name": "PARTICIPANT_ROLE",
      "outputs": [
        {
          "internalType": "bytes32",
          "name": "",
          "type": "bytes32"
        }
      ],
      "stateMutability": "view",
      "type": "function",
      "constant": true
    },
    {
      "inputs": [],
      "name": "SHARD_MANAGER_ROLE",
      "outputs": [
        {
          "internalType": "bytes32",
          "name": "",
          "type": "bytes32"
        }
      ],
      "stateMutability": "view",
      "type": "function",
      "constant": true
    },
    {
      "inputs": [
        {
          "internalType": "uint256",
          "name": "",
          "type": "uint256"
        }
      ],
      "name": "alerts",
      "outputs": [
        {
          "internalType": "uint256",
          "name": "productId",
          "type": "uint256"
        },
        {
          "internalType": "string",
          "name": "sensorId",
          "type": "string"
        },
        {
          "internalType": "string",
          "name": "alertType",
          "type": "string"
        },
        {
          "internalType": "string",
          "name": "message",
          "type": "string"
        },
        {
          "internalType": "int256",
          "name": "triggerValue",
          "type": "int256"
        },
        {
          "internalType": "uint256",
          "name": "timestamp",
          "type": "uint256"
        },
        {
          "internalType": "bool",
          "name": "isResolved",
          "type": "bool"
        },
        {
          "internalType": "string",
          "name": "resolution",
          "type": "string"
        }
      ],
      "stateMutability": "view",
      "type": "function",
      "constant": true
    },
    {
      "inputs": [
        {
          "internalType": "bytes32",
          "name": "role",
          "type": "bytes32"
        }
      ],
      "name": "getRoleAdmin",
      "outputs": [
        {
          "internalType": "bytes32",
          "name": "",
          "type": "bytes32"
        }
      ],
      "stateMutability": "view",
      "type": "function",
      "constant": true
    },
    {
      "inputs": [
        {
          "internalType": "bytes32",
          "name": "role",
          "type": "bytes32"
        },
        {
          "internalType": "address[]",
          "name": "candidates",
          "type": "address[]"
        }
      ],
      "name": "getRoleMembers",
      "outputs": [
        {
          "internalType": "address[]",
          "name": "",
          "type": "address[]"
        }
      ],
      "stateMutability": "view",
      "type": "function",
      "constant": true
    },
    {
      "inputs": [
        {
          "internalType": "bytes32",
          "name": "role",
          "type": "bytes32"
        },
        {
          "internalType": "address",
          "name": "account",
          "type": "address"
        }
      ],
      "name": "grantRole",
      "outputs": [],
      "stateMutability": "nonpayable",
      "type": "function"
    },
    {
      "inputs": [
        {
          "internalType": "bytes32",
          "name": "role",
          "type": "bytes32"
        },
        {
          "internalType": "address",
          "name": "account",
          "type": "address"
        }
      ],
      "name": "hasRole",
      "outputs": [
        {
          "internalType": "bool",
          "name": "",
          "type": "bool"
        }
      ],
      "stateMutability": "view",
      "type": "function",
      "constant": true
    },
    {
      "inputs": [
        {
          "internalType": "bytes32[]",
          "name": "roles",
          "type": "bytes32[]"
        },
        {
          "internalType": "address[]",
          "name": "accounts",
          "type": "address[]"
        }
      ],
      "name": "hasRoles",
      "outputs": [
        {
          "internalType": "bool[]",
          "name": "",
          "type": "bool[]"
        }
      ],
      "stateMutability": "view",
      "type": "function",
      "constant": true
    },
    {
      "inputs": [
        {
          "internalType": "address",
          "name": "",
          "type": "address"
        },
        {
          "internalType": "uint256",
          "name": "",
          "type": "uint256"
        }
      ],
      "name": "ownerSensors",
      "outputs": [
        {
          "internalType": "string",
          "name": "",
          "type": "string"
        }
      ],
      "stateMutability": "view",
      "type": "function",
      "constant": true
    },
    {
      "inputs": [
        {
          "internalType": "uint256",
          "name": "",
          "type": "uint256"
        },
        {
          "internalType": "uint256",
          "name": "",
          "type": "uint256"
        }
      ],
      "name": "productAlerts",
      "outputs": [
        {
          "internalType": "uint256",
          "name": "",
          "type": "uint256"
        }
      ],
      "stateMutability": "view",
      "type": "function",
      "constant": true
    },
    {
      "inputs": [
        {
          "internalType": "uint256",
          "name": "",
          "type": "uint256"
        },
        {
          "internalType": "uint256",
          "name": "",
          "type": "uint256"
        }
      ],
      "name": "productSensorData",
      "outputs": [
        {
          "internalType": "string",
          "name": "sensorId",
          "type": "string"
        },
        {
          "internalType": "uint256",
          "name": "productId",
          "type": "uint256"
        },
        {
          "internalType": "int256",
          "name": "value",
          "type": "int256"
        },
        {
          "internalType": "string",
          "name": "unit",
          "type": "string"
        },
        {
          "internalType": "uint256",
          "name": "timestamp",
          "type": "uint256"
        },
        {
          "internalType": "bytes",
          "name": "additionalData",
          "type": "bytes"
        },
        {
          "internalType": "address",
          "name": "recorder",
          "type": "address"
        }
      ],
      "stateMutability": "view",
      "type": "function",
      "constant": true
    },
    {
      "inputs": [
        {
          "internalType": "bytes32",
          "name": "role",
          "type": "bytes32"
        },
        {
          "internalType": "address",
          "name": "account",
          "type": "address"
        }
      ],
      "name": "renounceRole",
      "outputs": [],
      "stateMutability": "nonpayable",
      "type": "function"
    },
    {
      "inputs": [
        {
          "internalType": "bytes32",
          "name": "role",
          "type": "bytes32"
        },
        {
          "internalType": "address",
          "name": "account",
          "type": "address"
        }
      ],
      "name": "revokeRole",
      "outputs": [],
      "stateMutability": "nonpayable",
      "type": "function"
    },
    {
      "inputs": [
        {
          "internalType": "uint256",
          "name": "",
          "type": "uint256"
        }
      ],
      "name": "sensorIds",
      "outputs": [
        {
          "internalType": "string",
          "name": "",
          "type": "string"
        }
      ],
      "stateMutability": "view",
      "type": "function",
      "constant": true
    },
    {
      "inputs": [
        {
          "internalType": "string",
          "name": "",
          "type": "string"
        },
        {
          "internalType": "uint256",
          "name": "",
          "type": "uint256"
        }
      ],
      "name": "sensorReadings",
      "outputs": [
        {
          "internalType": "string",
          "name": "sensorId",
          "type": "string"
        },
        {
          "internalType": "uint256",
          "name": "productId",
          "type": "uint256"
        },
        {
          "internalType": "int256",
          "name": "value",
          "type": "int256"
        },
        {
          "internalType": "string",
          "name": "unit",
          "type": "string"
        },
        {
          "internalType": "uint256",
          "name": "timestamp",
          "type": "uint256"
        },
        {
          "internalType": "bytes",
          "name": "additionalData",
          "type": "bytes"
        },
        {
          "internalType": "address",
          "name": "recorder",
          "type": "address"
        }
      ],
      "stateMutability": "view",
      "type": "function",
      "constant": true
    },
    {
      "inputs": [
        {
          "internalType": "string",
          "name": "",
          "type": "string"
        }
      ],
      "name": "sensors",
      "outputs": [
        {
          "internalType": "string",
          "name": "sensorId",
          "type": "string"
        },
        {
          "internalType": "address",
          "name": "owner",
          "type": "address"
        },
        {
          "internalType": "enum IoTIntegration.SensorType",
          "name": "sensorType",
          "type": "uint8"
        },
        {
          "internalType": "string",
          "name": "description",
          "type": "string"
        },
        {
          "internalType": "bool",
          "name": "isActive",
          "type": "bool"
        },
        {
          "internalType": "uint256",
          "name": "registeredAt",
          "type": "uint256"
        },
        {
          "internalType": "string",
          "name": "calibrationData",
          "type": "string"
        }
      ],
      "stateMutability": "view",
      "type": "function",
      "constant": true
    },
    {
      "inputs": [
        {
          "internalType": "enum IoTIntegration.SensorType",
          "name": "",
          "type": "uint8"
        }
      ],
      "name": "thresholds",
      "outputs": [
        {
          "internalType": "enum IoTIntegration.SensorType",
          "name": "sensorType",
          "type": "uint8"
        },
        {
          "internalType": "int256",
          "name": "minValue",
          "type": "int256"
        },
        {
          "internalType": "int256",
          "name": "maxValue",
          "type": "int256"
        },
        {
          "internalType": "string",
          "name": "alertMessage",
          "type": "string"
        },
        {
          "internalType": "bool",
          "name": "isActive",
          "type": "bool"
        }
      ],
      "stateMutability": "view",
      "type": "function",
      "constant": true
    },
    {
      "inputs": [
        {
          "internalType": "string",
          "name": "_sensorId",
          "type": "string"
        },
        {
          "internalType": "enum IoTIntegration.SensorType",
          "name": "_sensorType",
          "type": "uint8"
        },
        {
          "internalType": "string",
          "name": "_description",
          "type": "string"
        },
        {
          "internalType": "string",
          "name": "_calibrationData",
          "type": "string"
        }
      ],
      "name": "registerSensor",
      "outputs": [],
      "stateMutability": "nonpayable",
      "type": "function"
    },
    {
      "inputs": [
        {
          "internalType": "string",
          "name": "_sensorId",
          "type": "string"
        },
        {
          "internalType": "uint256",
          "name": "_productId",
          "type": "uint256"
        },
        {
          "internalType": "int256",
          "name": "_value",
          "type": "int256"
        },
        {
          "internalType": "string",
          "name": "_unit",
          "type": "string"
        },
        {
          "internalType": "bytes",
          "name": "_additionalData",
          "type": "bytes"
        }
      ],
      "name": "recordSensorData",
      "outputs": [],
      "stateMutability": "nonpayable",
      "type": "function"
    },
    {
      "inputs": [
        {
          "internalType": "string[]",
          "name": "_sensorIds",
          "type": "string[]"
        },
        {
          "internalType": "uint256[]",
          "name": "_productIds",
          "type": "uint256[]"
        },
        {
          "internalType": "int256[]",
          "name": "_values",
          "type": "int256[]"
        },
        {
          "internalType": "string[]",
          "name": "_units",
          "type": "string[]"
        },
        {
          "internalType": "bytes[]",
          "name": "_additionalData",
          "type": "bytes[]"
        }
      ],
      "name": "batchRecordSensorData",
      "outputs": [],
      "stateMutability": "nonpayable",
      "type": "function"
    },
    {
      "inputs": [
        {
          "internalType": "enum IoTIntegration.SensorType",
          "name": "_sensorType",
          "type": "uint8"
        },
        {
          "internalType": "int256",
          "name": "_minValue",
          "type": "int256"
        },
        {
          "internalType": "int256",
          "name": "_maxValue",
          "type": "int256"
        },
        {
          "internalType": "string",
          "name": "_alertMessage",
          "type": "string"
        }
      ],
      "name": "setThreshold",
      "outputs": [],
      "stateMutability": "nonpayable",
      "type": "function"
    },
    {
      "inputs": [
        {
          "internalType": "string",
          "name": "_sensorId",
          "type": "string"
        }
      ],
      "name": "deactivateSensor",
      "outputs": [],
      "stateMutability": "nonpayable",
      "type": "function"
    },
    {
      "inputs": [
        {
          "internalType": "uint256",
          "name": "_alertId",
          "type": "uint256"
        },
        {
          "internalType": "string",
          "name": "_resolution",
          "type": "string"
        }
      ],
      "name": "resolveAlert",
      "outputs": [],
      "stateMutability": "nonpayable",
      "type": "function"
    },
    {
      "inputs": [
        {
          "internalType": "uint256",
          "name": "_productId",
          "type": "uint256"
        }
      ],
      "name": "getProductSensorData",
      "outputs": [
        {
          "components": [
            {
              "internalType": "string",
              "name": "sensorId",
              "type": "string"
            },
            {
              "internalType": "uint256",
              "name": "productId",
              "type": "uint256"
            },
            {
              "internalType": "int256",
              "name": "value",
              "type": "int256"
            },
            {
              "internalType": "string",
              "name": "unit",
              "type": "string"
            },
            {
              "internalType": "uint256",
              "name": "timestamp",
              "type": "uint256"
            },
            {
              "internalType": "bytes",
              "name": "additionalData",
              "type": "bytes"
            },
            {
              "internalType": "address",
              "name": "recorder",
              "type": "address"
            }
          ],
          "internalType": "struct IoTIntegration.SensorReading[]",
          "name": "",
          "type": "tuple[]"
        }
      ],
      "stateMutability": "view",
      "type": "function",
      "constant": true
    },
    {
      "inputs": [
        {
          "internalType": "string",
          "name": "_sensorId",
          "type": "string"
        }
      ],
      "name": "getSensorReadings",
      "outputs": [
        {
          "components": [
            {
              "internalType": "string",
              "name": "sensorId",
              "type": "string"
            },
            {
              "internalType": "uint256",
              "name": "productId",
              "type": "uint256"
            },
            {
              "internalType": "int256",
              "name": "value",
              "type": "int256"
            },
            {
              "internalType": "string",
              "name": "unit",
              "type": "string"
            },
            {
              "internalType": "uint256",
              "name": "timestamp",
              "type": "uint256"
            },
            {
              "internalType": "bytes",
              "name": "additionalData",
              "type": "bytes"
            },
            {
              "internalType": "address",
              "name": "recorder",
              "type": "address"
            }
          ],
          "internalType": "struct IoTIntegration.SensorReading[]",
          "name": "",
          "type": "tuple[]"
        }
      ],
      "stateMutability": "view",
      "type": "function",
      "constant": true
    },
    {
      "inputs": [
        {
          "internalType": "uint256",
          "name": "_productId",
          "type": "uint256"
        }
      ],
      "name": "getProductAlerts",
      "outputs": [
        {
          "components": [
            {
              "internalType": "uint256",
              "name": "productId",
              "type": "uint256"
            },
            {
              "internalType": "string",
              "name": "sensorId",
              "type": "string"
            },
            {
              "internalType": "string",
              "name": "alertType",
              "type": "string"
            },
            {
              "internalType": "string",
              "name": "message",
              "type": "string"
            },
            {
              "internalType": "int256",
              "name": "triggerValue",
              "type": "int256"
            },
            {
              "internalType": "uint256",
              "name": "timestamp",
              "type": "uint256"
            },
            {
              "internalType": "bool",
              "name": "isResolved",
              "type": "bool"
            },
            {
              "internalType": "string",
              "name": "resolution",
              "type": "string"
            }
          ],
          "internalType": "struct IoTIntegration.Alert[]",
          "name": "",
          "type": "tuple[]"
        }
      ],
      "stateMutability": "view",
      "type": "function",
      "constant": true
    },
    {
      "inputs": [
        {
          "internalType": "address",
          "name": "_owner",
          "type": "address"
        }
      ],
      "name": "getOwnerSensors",
      "outputs": [
        {
          "internalType": "string[]",
          "name": "",
          "type": "string[]"
        }
      ],
      "stateMutability": "view",
      "type": "function",
      "constant": true
    },
    {
      "inputs": [
        {
          "internalType": "uint256",
          "name": "_productId",
          "type": "uint256"
        },
        {
          "internalType": "enum IoTIntegration.SensorType",
          "name": "_sensorType",
          "type": "uint8"
        }
      ],
      "name": "getLatestReading",
      "outputs": [
        {
          "components": [
            {
              "internalType": "string",
              "name": "sensorId",
              "type": "string"
            },
            {
              "internalType": "uint256",
              "name": "productId",
              "type": "uint256"
            },
            {
              "internalType": "int256",
              "name": "value",
              "type": "int256"
            },
            {
              "internalType": "string",
              "name": "unit",
              "type": "string"
            },
            {
              "internalType": "uint256",
              "name": "timestamp",
              "type": "uint256"
            },
            {
              "internalType": "bytes",
              "name": "additionalData",
              "type": "bytes"
            },
            {
              "internalType": "address",
              "name": "recorder",
              "type": "address"
            }
          ],
          "internalType": "struct IoTIntegration.SensorReading",
          "name": "",
          "type": "tuple"
        }
      ],
      "stateMutability": "view",
      "type": "function",
      "constant": true
    },
    {
      "inputs": [],
      "name": "getAlertCount",
      "outputs": [
        {
          "internalType": "uint256",
          "name": "",
          "type": "uint256"
        }
      ],
      "stateMutability": "view",
      "type": "function",
      "constant": true
    },
    {
      "inputs": [],
      "name": "getSensorCount",
      "outputs": [
        {
          "internalType": "uint256",
          "name": "",
          "type": "uint256"
        }
      ],
      "stateMutability": "view",
      "type": "function",
      "constant": true
    }
  ],
  "bytecode": "0x60806040523480156200001157600080fd5b506200001f6000336200005b565b6200004b7fa49807205ce4d355092ef5a8a18f56e8913cf4a201fbe287825b095693c21775336200005b565b620000556200006b565b6200058f565b62000067828262000386565b5050565b6040805160a08101825260008082526013196020808401919091526032838501528351808501909452601d84527f54656d7065726174757265206f7574206f6620736166652072616e6765000000848201526060830193909352600160808301819052908052600590925280517f05b8ccbb9d4d8fb16ea74ce3c29a41f1b461fbdaff4714a0d9a8eb05499746bc805492939092839160ff19909116908360068111156200011d576200011d62000408565b02179055506020820151600182015560408201516002820155606082015160038201906200014c9082620004c3565b50608091909101516004909101805460ff19169115159190911790556040805160a08101909152806001815260200160008152602001606481526020016040518060400160405280601a81526020017f48756d6964697479206f7574206f6620736166652072616e67650000000000008152508152602001600115158152506005600060016006811115620001e557620001e562000408565b6006811115620001f957620001f962000408565b8152602081019190915260400160002081518154829060ff191660018360068111156200022a576200022a62000408565b0217905550602082015160018201556040820151600282015560608201516003820190620002599082620004c3565b50608091909101516004909101805460ff19169115159190911790556040805160a08101909152806002815260200161032081526020016104b081526020016040518060400160405280601a81526020017f5072657373757265206f7574206f6620736166652072616e67650000000000008152508152602001600115158152506005600060026006811115620002f457620002f462000408565b600681111562000308576200030862000408565b8152602081019190915260400160002081518154829060ff1916600183600681111562000339576200033962000408565b0217905550602082015160018201556040820151600282015560608201516003820190620003689082620004c3565b50608091909101516004909101805460ff1916911515919091179055565b6000828152602081815260408083206001600160a01b038516845290915290205460ff1662000067576000828152602081815260408083206001600160a01b0385168085529252808320805460ff1916600117905551339285917f2f8788117e7eff1d82e926ec794901d17c78024a50270940304540a733656f0d9190a45050565b634e487b7160e01b600052602160045260246000fd5b634e487b7160e01b600052604160045260246000fd5b600181811c908216806200044957607f821691505b6020821081036200046a57634e487b7160e01b600052602260045260246000fd5b50919050565b601f821115620004be57600081815260208120601f850160051c81016020861015620004995750805b601f850160051c820191505b81811015620004ba57828155600101620004a5565b5050505b505050565b81516001600160401b03811115620004df57620004df6200041e565b620004f781620004f0845462000434565b8462000470565b602080601f8311600181146200052f5760008415620005165750858301515b600019600386901b1c1916600185901b178555620004ba565b600085815260208120601f198616915b8281101562000560578886015182559484019460019091019084016200053f565b50858210156200057f5787850151600019600388901b60f8161c191681555b5050505050600190811b01905550565b6141a0806200059f6000396000f3fe608060405234801561001057600080fd5b50600436106102055760003560e01c80636e1d616e1161011a578063968efa39116100ad578063d547741f1161007c578063d547741f1461052b578063d620d9391461053e578063e2348a5d14610551578063ee35d3c814610578578063f1a93d4a1461058b57600080fd5b8063968efa39146104dd578063a217fddf146104f0578063bb097fa8146104f8578063d3036dd41461050b57600080fd5b8063887a5042116100e9578063887a50421461045457806389b6c78f1461047a5780638d4df7ab1461049a57806391d14854146104ba57600080fd5b80636e1d616e146103e057806375b238fc146104075780637c0b80f71461042e5780638231a4c51461044157600080fd5b806336568abe1161019d5780635e73607f1161016c5780635e73607f146103535780635f8a7abe1461037357806369d80e771461039a5780636d612673146103ad5780636dc65f95146103cd57600080fd5b806336568abe1461030c5780633c51b21f1461031f57806340411fc8146103275780635a50d2f41461032f57600080fd5b80631a562ea1116101d95780631a562ea114610282578063248a9ca3146102a857806326a2dbec146102d95780632f2ff15d146102f957600080fd5b8062f3435b1461020a57806307b9aa4e1461021f57806313cd8f1414610248578063171d073a1461025b575b600080fd5b61021d61021836600461323b565b6105a0565b005b61023261022d3660046132d3565b610841565b60405161023f91906133c1565b60405180910390f35b61021d610256366004613423565b610a9d565b61026e6102693660046132d3565b610bc7565b60405161023f989796959493929190613469565b6102956102903660046134e2565b610e31565b60405161023f9796959493929190613526565b6102cb6102b63660046132d3565b60009081526020819052604090206001015490565b60405190815260200161023f565b6102ec6102e736600461358e565b611040565b60405161023f91906135ba565b61021d6103073660046135eb565b6113e9565b61021d61031a3660046135eb565b611430565b6009546102cb565b6001546102cb565b61034261033d36600461360e565b6114aa565b60405161023f959493929190613661565b6103666103613660046136a1565b61156a565b60405161023f91906136bc565b6102cb7f938c45fe3baa5cbd047f2473358a27f57db22291e9af95379a15ad016886dfb781565b61021d6103a8366004613711565b61164e565b6103c06103bb3660046137ac565b611973565b60405161023f91906137d6565b6103c06103db3660046132d3565b611a2c565b6102cb7f59a1c48e5837ad7a7f3dcedcbe129bf3249ec4fbf651fd4f5e2600ead39fe2f581565b6102cb7fa49807205ce4d355092ef5a8a18f56e8913cf4a201fbe287825b095693c2177581565b61029561043c3660046137e9565b611a57565b61021d61044f36600461380b565b611a73565b61046761046236600461380b565b611b70565b60405161023f9796959493929190613847565b61048d6104883660046132d3565b611d67565b60405161023f91906138b8565b6104ad6104a8366004613a40565b612151565b60405161023f9190613aee565b6104cd6104c83660046135eb565b612260565b604051901515815260200161023f565b61021d6104eb366004613b34565b612289565b6102cb600081565b61021d610506366004613c62565b6123dd565b61051e610519366004613d26565b612956565b60405161023f9190613d62565b61021d6105393660046135eb565b612a7e565b6102cb61054c3660046137e9565b612ab5565b6102cb7fa57066973b2155f87e85ce4b35594aa85c6061a64b99afb1fcf8f974f04290e381565b61023261058636600461380b565b612ae6565b6102cb60008051602061414b83398151915281565b7f938c45fe3baa5cbd047f2473358a27f57db22291e9af95379a15ad016886dfb76105cb8133612260565b6105f05760405162461bcd60e51b81526004016105e790613da3565b60405180910390fd5b6002856040516106009190613de6565b908152604051908190036020019020805461061a90613e02565b1590506106695760405162461bcd60e51b815260206004820152601960248201527f53656e736f7220616c726561647920726567697374657265640000000000000060448201526064016105e7565b6040805160e08101825286815233602082015290810185600681111561069157610691613629565b8152602001848152602001600115158152602001428152602001838152506002866040516106bf9190613de6565b908152604051908190036020019020815181906106dc9082613e85565b5060208201516001820180546001600160a01b039092166001600160a01b03198316811782556040850151926001600160a81b03191617600160a01b83600681111561072a5761072a613629565b0217905550606082015160028201906107439082613e85565b50608082015160038201805460ff191691151591909117905560a0820151600482015560c0820151600582019061077a9082613e85565b5050600980546001810182556000919091527f6e1540171b6c0c960b71a7020d9f60077f6af931a8bbf590da0223dacf75c7af0190506107ba8682613e85565b50336000908152600860209081526040822080546001810182559083529120016107e48682613e85565b506107fd60008051602061414b833981519152336113e9565b7f88e2f721b8cc550dd0e039e5891e36df5d1a63d5787d3f861c234dfc9e7a69a7853386866040516108329493929190613f44565b60405180910390a15050505050565b606060046000838152602001908152602001600020805480602002602001604051908101604052809291908181526020016000905b82821015610a9257838290600052602060002090600702016040518060e00160405290816000820180546108a990613e02565b80601f01602080910402602001604051908101604052809291908181526020018280546108d590613e02565b80156109225780601f106108f757610100808354040283529160200191610922565b820191906000526020600020905b81548152906001019060200180831161090557829003601f168201915b50505050508152602001600182015481526020016002820154815260200160038201805461094f90613e02565b80601f016020809104026020016040519081016040528092919081815260200182805461097b90613e02565b80156109c85780601f1061099d576101008083540402835291602001916109c8565b820191906000526020600020905b8154815290600101906020018083116109ab57829003601f168201915b50505050508152602001600482015481526020016005820180546109eb90613e02565b80601f0160208091040260200160405190810160405280929190818152602001828054610a1790613e02565b8015610a645780601f10610a3957610100808354040283529160200191610a64565b820191906000526020600020905b815481529060010190602001808311610a4757829003601f168201915b5050509183525050600691909101546001600160a01b03166020918201529082526001929092019101610876565b505050509050919050565b7f938c45fe3baa5cbd047f2473358a27f57db22291e9af95379a15ad016886dfb7610ac88133612260565b610ae45760405162461bcd60e51b81526004016105e790613da3565b600083118015610af657506001548311155b610b395760405162461bcd60e51b8152602060048201526014602482015273105b195c9d08191bd95cc81b9bdd08195e1a5cdd60621b60448201526064016105e7565b6000838152600660208190526040909120015460ff1615610b955760405162461bcd60e51b8152602060048201526016602482015275105b195c9d08185b1c9958591e481c995cdbdb1d995960521b60448201526064016105e7565b6000838152600660208190526040909120908101805460ff19166001179055600701610bc18382613e85565b50505050565b60066020526000908152604090208054600182018054919291610be990613e02565b80601f0160208091040260200160405190810160405280929190818152602001828054610c1590613e02565b8015610c625780601f10610c3757610100808354040283529160200191610c62565b820191906000526020600020905b815481529060010190602001808311610c4557829003601f168201915b505050505090806002018054610c7790613e02565b80601f0160208091040260200160405190810160405280929190818152602001828054610ca390613e02565b8015610cf05780601f10610cc557610100808354040283529160200191610cf0565b820191906000526020600020905b815481529060010190602001808311610cd357829003601f168201915b505050505090806003018054610d0590613e02565b80601f0160208091040260200160405190810160405280929190818152602001828054610d3190613e02565b8015610d7e5780601f10610d5357610100808354040283529160200191610d7e565b820191906000526020600020905b815481529060010190602001808311610d6157829003601f168201915b5050506004840154600585015460068601546007870180549697939692955060ff909116935090610dae90613e02565b80601f0160208091040260200160405190810160405280929190818152602001828054610dda90613e02565b8015610e275780601f10610dfc57610100808354040283529160200191610e27565b820191906000526020600020905b815481529060010190602001808311610e0a57829003601f168201915b5050505050905088565b81516020818401810180516003825292820191850191909120919052805482908110610e5c57600080fd5b906000526020600020906007020160009150915050806000018054610e8090613e02565b80601f0160208091040260200160405190810160405280929190818152602001828054610eac90613e02565b8015610ef95780601f10610ece57610100808354040283529160200191610ef9565b820191906000526020600020905b815481529060010190602001808311610edc57829003601f168201915b505050505090806001015490806002015490806003018054610f1a90613e02565b80601f0160208091040260200160405190810160405280929190818152602001828054610f4690613e02565b8015610f935780601f10610f6857610100808354040283529160200191610f93565b820191906000526020600020905b815481529060010190602001808311610f7657829003601f168201915b505050505090806004015490806005018054610fae90613e02565b80601f0160208091040260200160405190810160405280929190818152602001828054610fda90613e02565b80156110275780601f10610ffc57610100808354040283529160200191611027565b820191906000526020600020905b81548152906001019060200180831161100a57829003601f168201915b505050600690930154919250506001600160a01b031687565b6110896040518060e0016040528060608152602001600081526020016000815260200160608152602001600081526020016060815260200160006001600160a01b031681525090565b600083815260046020908152604080832080548251818502810185019093528083529192909190849084015b828210156112d157838290600052602060002090600702016040518060e00160405290816000820180546110e890613e02565b80601f016020809104026020016040519081016040528092919081815260200182805461111490613e02565b80156111615780601f1061113657610100808354040283529160200191611161565b820191906000526020600020905b81548152906001019060200180831161114457829003601f168201915b50505050508152602001600182015481526020016002820154815260200160038201805461118e90613e02565b80601f01602080910402602001604051908101604052809291908181526020018280546111ba90613e02565b80156112075780601f106111dc57610100808354040283529160200191611207565b820191906000526020600020905b8154815290600101906020018083116111ea57829003601f168201915b505050505081526020016004820154815260200160058201805461122a90613e02565b80601f016020809104026020016040519081016040528092919081815260200182805461125690613e02565b80156112a35780601f10611278576101008083540402835291602001916112a3565b820191906000526020600020905b81548152906001019060200180831161128657829003601f168201915b5050509183525050600691909101546001600160a01b031660209182015290825260019290920191016110b5565b5050505090506000600182516112e79190613fa6565b90505b6000811261139a5783600681111561130457611304613629565b600283838151811061131857611318613fcd565b6020026020010151600001516040516113319190613de6565b9081526040519081900360200190206001015460ff600160a01b90910416600681111561136057611360613629565b036113885781818151811061137757611377613fcd565b6020026020010151925050506113e3565b8061139281613fe3565b9150506112ea565b5060405162461bcd60e51b815260206004820181905260248201527f4e6f2072656164696e6720666f756e6420666f722073656e736f72207479706560448201526064016105e7565b92915050565b600082815260208190526040902060010154611406905b33612260565b6114225760405162461bcd60e51b81526004016105e790614000565b61142c8282612d9b565b5050565b6001600160a01b03811633146114a05760405162461bcd60e51b815260206004820152602f60248201527f416363657373436f6e74726f6c3a2063616e206f6e6c792072656e6f756e636560448201526e103937b632b9903337b91039b2b63360891b60648201526084016105e7565b61142c8282612e02565b600560205260009081526040902080546001820154600283015460038401805460ff9094169492939192916114de90613e02565b80601f016020809104026020016040519081016040528092919081815260200182805461150a90613e02565b80156115575780601f1061152c57610100808354040283529160200191611557565b820191906000526020600020905b81548152906001019060200180831161153a57829003601f168201915b5050506004909301549192505060ff1685565b6001600160a01b0381166000908152600860209081526040808320805482518185028101850190935280835260609492939192909184015b82821015610a925783829060005260206000200180546115c190613e02565b80601f01602080910402602001604051908101604052809291908181526020018280546115ed90613e02565b801561163a5780601f1061160f5761010080835404028352916020019161163a565b820191906000526020600020905b81548152906001019060200180831161161d57829003601f168201915b5050505050815260200190600101906115a2565b8460006002826040516116619190613de6565b908152604051908190036020019020805461167b90613e02565b90501161169a5760405162461bcd60e51b81526004016105e790614046565b60008051602061414b8339815191526116b38133612260565b6116cf5760405162461bcd60e51b81526004016105e790613da3565b6002876040516116df9190613de6565b9081526040519081900360200190206003015460ff166117365760405162461bcd60e51b815260206004820152601260248201527153656e736f7220697320696e61637469766560701b60448201526064016105e7565b6000861161177b5760405162461bcd60e51b8152602060048201526012602482015271125b9d985b1a59081c1c9bd91d58dd08125160721b60448201526064016105e7565b6040805160e081018252888152602081018890528082018790526060810186905242608082015260a081018590523360c082015290516003906117bf908a90613de6565b9081526040516020918190038201902080546001810182556000918252919020825183926007029091019081906117f69082613e85565b5060208201516001820155604082015160028201556060820151600382019061181f9082613e85565b506080820151600482015560a0820151600582019061183e9082613e85565b5060c09190910151600690910180546001600160a01b0319166001600160a01b0390921691909117905560008781526004602090815260408220805460018101825590835291208251839260070290910190819061189c9082613e85565b506020820151600182015560408201516002820155606082015160038201906118c59082613e85565b506080820151600482015560a082015160058201906118e49082613e85565b5060c09190910151600690910180546001600160a01b0319166001600160a01b03909216919091179055611919888888612e67565b86886040516119289190613de6565b60405180910390207f42e59dab04bb1a1119755dbb0231b82d757bab1fc0b13e4cde2b9fcfe1b97dc78642604051611961929190614075565b60405180910390a35050505050505050565b6008602052816000526040600020818154811061198f57600080fd5b906000526020600020016000915091505080546119ab90613e02565b80601f01602080910402602001604051908101604052809291908181526020018280546119d790613e02565b8015611a245780601f106119f957610100808354040283529160200191611a24565b820191906000526020600020905b815481529060010190602001808311611a0757829003601f168201915b505050505081565b60098181548110611a3c57600080fd5b9060005260206000200160009150905080546119ab90613e02565b60046020528160005260406000208181548110610e5c57600080fd5b806000600282604051611a869190613de6565b9081526040519081900360200190208054611aa090613e02565b905011611abf5760405162461bcd60e51b81526004016105e790614046565b81336001600160a01b0316600282604051611ada9190613de6565b908152604051908190036020019020600101546001600160a01b031614611b365760405162461bcd60e51b815260206004820152601060248201526f2737ba1039b2b739b7b91037bbb732b960811b60448201526064016105e7565b6000600284604051611b489190613de6565b908152604051908190036020019020600301805491151560ff19909216919091179055505050565b8051602081830181018051600282529282019190930120915280548190611b9690613e02565b80601f0160208091040260200160405190810160405280929190818152602001828054611bc290613e02565b8015611c0f5780601f10611be457610100808354040283529160200191611c0f565b820191906000526020600020905b815481529060010190602001808311611bf257829003601f168201915b50505050600183015460028401805493946001600160a01b03831694600160a01b90930460ff16935091611c4290613e02565b80601f0160208091040260200160405190810160405280929190818152602001828054611c6e90613e02565b8015611cbb5780601f10611c9057610100808354040283529160200191611cbb565b820191906000526020600020905b815481529060010190602001808311611c9e57829003601f168201915b5050505060038301546004840154600585018054949560ff9093169491935090611ce490613e02565b80601f0160208091040260200160405190810160405280929190818152602001828054611d1090613e02565b8015611d5d5780601f10611d3257610100808354040283529160200191611d5d565b820191906000526020600020905b815481529060010190602001808311611d4057829003601f168201915b5050505050905087565b6000818152600760209081526040808320805482518185028101850190935280835260609493830182828015611dbc57602002820191906000526020600020905b815481526020019060010190808311611da8575b50505050509050600081516001600160401b03811115611dde57611dde613172565b604051908082528060200260200182016040528015611e5957816020015b611e46604051806101000160405280600081526020016060815260200160608152602001606081526020016000815260200160008152602001600015158152602001606081525090565b815260200190600190039081611dfc5790505b50905060005b82518110156121495760066000848381518110611e7e57611e7e613fcd565b602002602001015181526020019081526020016000206040518061010001604052908160008201548152602001600182018054611eba90613e02565b80601f0160208091040260200160405190810160405280929190818152602001828054611ee690613e02565b8015611f335780601f10611f0857610100808354040283529160200191611f33565b820191906000526020600020905b815481529060010190602001808311611f1657829003601f168201915b50505050508152602001600282018054611f4c90613e02565b80601f0160208091040260200160405190810160405280929190818152602001828054611f7890613e02565b8015611fc55780601f10611f9a57610100808354040283529160200191611fc5565b820191906000526020600020905b815481529060010190602001808311611fa857829003601f168201915b50505050508152602001600382018054611fde90613e02565b80601f016020809104026020016040519081016040528092919081815260200182805461200a90613e02565b80156120575780601f1061202c57610100808354040283529160200191612057565b820191906000526020600020905b81548152906001019060200180831161203a57829003601f168201915b50505091835250506004820154602082015260058201546040820152600682015460ff161515606082015260078201805460809092019161209790613e02565b80601f01602080910402602001604051908101604052809291908181526020018280546120c390613e02565b80156121105780601f106120e557610100808354040283529160200191612110565b820191906000526020600020905b8154815290600101906020018083116120f357829003601f168201915b50505050508152505082828151811061212b5761212b613fcd565b6020026020010181905250808061214190614097565b915050611e5f565b509392505050565b6060815183511461219d5760405162461bcd60e51b8152602060048201526016602482015275082e4e4c2f2e640d8cadccee8d040dad2e6dac2e8c6d60531b60448201526064016105e7565b600083516001600160401b038111156121b8576121b8613172565b6040519080825280602002602001820160405280156121e1578160200160208202803683370190505b50905060005b84518110156121495761222c85828151811061220557612205613fcd565b602002602001015185838151811061221f5761221f613fcd565b6020026020010151612260565b82828151811061223e5761223e613fcd565b911515602092830291909101909101528061225881614097565b9150506121e7565b6000918252602082815260408084206001600160a01b0393909316845291905290205460ff1690565b7fa49807205ce4d355092ef5a8a18f56e8913cf4a201fbe287825b095693c217756122b48133612260565b6122d05760405162461bcd60e51b81526004016105e790613da3565b6040518060a001604052808660068111156122ed576122ed613629565b8152602001858152602001848152602001838152602001600115158152506005600087600681111561232157612321613629565b600681111561233257612332613629565b8152602081019190915260400160002081518154829060ff1916600183600681111561236057612360613629565b021790555060208201516001820155604082015160028201556060820151600382019061238d9082613e85565b50608091909101516004909101805460ff19169115159190911790556040517f05a72bf03262e35aac2b6f62b425a3025450125ed4e5f633f9e934c497fe0d2790610832908790879087906140b0565b60008051602061414b8339815191526123f68133612260565b6124125760405162461bcd60e51b81526004016105e790613da3565b84518651146124335760405162461bcd60e51b81526004016105e7906140cf565b83518651146124545760405162461bcd60e51b81526004016105e7906140cf565b82518651146124755760405162461bcd60e51b81526004016105e7906140cf565b81518651146124965760405162461bcd60e51b81526004016105e7906140cf565b60005b865181101561294d57600060028883815181106124b8576124b8613fcd565b60200260200101516040516124cd9190613de6565b90815260405190819003602001902080546124e790613e02565b9050116125065760405162461bcd60e51b81526004016105e790614046565b600287828151811061251a5761251a613fcd565b602002602001015160405161252f9190613de6565b9081526040519081900360200190206003015460ff166125865760405162461bcd60e51b815260206004820152601260248201527153656e736f7220697320696e61637469766560701b60448201526064016105e7565b600086828151811061259a5761259a613fcd565b6020026020010151116125e45760405162461bcd60e51b8152602060048201526012602482015271125b9d985b1a59081c1c9bd91d58dd08125160721b60448201526064016105e7565b60006040518060e0016040528089848151811061260357612603613fcd565b6020026020010151815260200188848151811061262257612622613fcd565b6020026020010151815260200187848151811061264157612641613fcd565b6020026020010151815260200186848151811061266057612660613fcd565b6020026020010151815260200142815260200185848151811061268557612685613fcd565b60200260200101518152602001336001600160a01b0316815250905060038883815181106126b5576126b5613fcd565b60200260200101516040516126ca9190613de6565b9081526040516020918190038201902080546001810182556000918252919020825183926007029091019081906127019082613e85565b5060208201516001820155604082015160028201556060820151600382019061272a9082613e85565b506080820151600482015560a082015160058201906127499082613e85565b5060c08201518160060160006101000a8154816001600160a01b0302191690836001600160a01b0316021790555050506004600088848151811061278f5761278f613fcd565b60209081029190910181015182528181019290925260400160009081208054600181018255908252919020825183926007029091019081906127d19082613e85565b506020820151600182015560408201516002820155606082015160038201906127fa9082613e85565b506080820151600482015560a082015160058201906128199082613e85565b5060c08201518160060160006101000a8154816001600160a01b0302191690836001600160a01b03160217905550505061289f88838151811061285e5761285e613fcd565b602002602001015188848151811061287857612878613fcd565b602002602001015188858151811061289257612892613fcd565b6020026020010151612e67565b8682815181106128b1576128b1613fcd565b60200260200101518883815181106128cb576128cb613fcd565b60200260200101516040516128e09190613de6565b60405180910390207f42e59dab04bb1a1119755dbb0231b82d757bab1fc0b13e4cde2b9fcfe1b97dc786858151811061291b5761291b613fcd565b602002602001015142604051612932929190614075565b60405180910390a3508061294581614097565b915050612499565b50505050505050565b60606000805b83518110156129a05761297b8585838151811061221f5761221f613fcd565b1561298e578161298a81614097565b9250505b8061299881614097565b91505061295c565b506000816001600160401b038111156129bb576129bb613172565b6040519080825280602002602001820160405280156129e4578160200160208202803683370190505b5090506000805b8551811015612a7357612a0a8787838151811061221f5761221f613fcd565b15612a6157858181518110612a2157612a21613fcd565b6020026020010151838381518110612a3b57612a3b613fcd565b6001600160a01b039092166020928302919091019091015281612a5d81614097565b9250505b80612a6b81614097565b9150506129eb565b509095945050505050565b600082815260208190526040902060010154612a9990611400565b6114a05760405162461bcd60e51b81526004016105e790614000565b60076020528160005260406000208181548110612ad157600080fd5b90600052602060002001600091509150505481565b6060816000600282604051612afb9190613de6565b9081526040519081900360200190208054612b1590613e02565b905011612b345760405162461bcd60e51b81526004016105e790614046565b600383604051612b449190613de6565b9081526020016040518091039020805480602002602001604051908101604052809291908181526020016000905b82821015612d8e57838290600052602060002090600702016040518060e0016040529081600082018054612ba590613e02565b80601f0160208091040260200160405190810160405280929190818152602001828054612bd190613e02565b8015612c1e5780601f10612bf357610100808354040283529160200191612c1e565b820191906000526020600020905b815481529060010190602001808311612c0157829003601f168201915b505050505081526020016001820154815260200160028201548152602001600382018054612c4b90613e02565b80601f0160208091040260200160405190810160405280929190818152602001828054612c7790613e02565b8015612cc45780601f10612c9957610100808354040283529160200191612cc4565b820191906000526020600020905b815481529060010190602001808311612ca757829003601f168201915b5050505050815260200160048201548152602001600582018054612ce790613e02565b80601f0160208091040260200160405190810160405280929190818152602001828054612d1390613e02565b8015612d605780601f10612d3557610100808354040283529160200191612d60565b820191906000526020600020905b815481529060010190602001808311612d4357829003601f168201915b5050509183525050600691909101546001600160a01b03166020918201529082526001929092019101612b72565b5050505091505b50919050565b612da58282612260565b61142c576000828152602081815260408083206001600160a01b0385168085529252808320805460ff1916600117905551339285917f2f8788117e7eff1d82e926ec794901d17c78024a50270940304540a733656f0d9190a45050565b612e0c8282612260565b1561142c576000828152602081815260408083206001600160a01b0385168085529252808320805460ff1916905551339285917ff6391f5c32d9c69d2a47ea670b442974b53935d1edc7fd64eb21e047a839171b9190a45050565b6000600284604051612e799190613de6565b9081526040519081900360200190206001015460ff600160a01b9091041690506000600581836006811115612eb057612eb0613629565b6006811115612ec157612ec1613629565b815260208101919091526040908101600020815160a081019092528054829060ff166006811115612ef457612ef4613629565b6006811115612f0557612f05613629565b81526020016001820154815260200160028201548152602001600382018054612f2d90613e02565b80601f0160208091040260200160405190810160405280929190818152602001828054612f5990613e02565b8015612fa65780601f10612f7b57610100808354040283529160200191612fa6565b820191906000526020600020905b815481529060010190602001808311612f8957829003601f168201915b50505091835250506004919091015460ff16151560209091015260808101519091508015612fe457508060200151831280612fe45750806040015183135b1561316b5760018054906000612ff983614097565b9091555050604080516101008101825285815260208082018881528351808501855260138152722a242922a9a427a6222fab24a7a620aa24a7a760691b818401528385015260608581015190840152608083018790524260a0840152600060c084018190528451808401865281815260e0850152600180548252600690935293909320825181559251919291908201906130939082613e85565b50604082015160028201906130a89082613e85565b50606082015160038201906130bd9082613e85565b506080820151600482015560a0820151600582015560c082015160068201805460ff191691151591909117905560e082015160078201906130fe9082613e85565b5050506000848152600760209081526040808320600180548254918201835591855292909320909101919091556060820151905185917f6af8a40f8a661f2ea1898dc041375ba059bc15f9120cb2c9cae247243d14e53491613162919042906140fe565b60405180910390a25b5050505050565b634e487b7160e01b600052604160045260246000fd5b604051601f8201601f191681016001600160401b03811182821017156131b0576131b0613172565b604052919050565b600082601f8301126131c957600080fd5b81356001600160401b038111156131e2576131e2613172565b6131f5601f8201601f1916602001613188565b81815284602083860101111561320a57600080fd5b816020850160208301376000918101602001919091529392505050565b80356007811061323657600080fd5b919050565b6000806000806080858703121561325157600080fd5b84356001600160401b038082111561326857600080fd5b613274888389016131b8565b955061328260208801613227565b9450604087013591508082111561329857600080fd5b6132a4888389016131b8565b935060608701359150808211156132ba57600080fd5b506132c7878288016131b8565b91505092959194509250565b6000602082840312156132e557600080fd5b5035919050565b60005b838110156133075781810151838201526020016132ef565b50506000910152565b600081518084526133288160208601602086016132ec565b601f01601f19169290920160200192915050565b6000815160e0845261335160e0850182613310565b905060208301516020850152604083015160408501526060830151848203606086015261337e8282613310565b9150506080830151608085015260a083015184820360a08601526133a28282613310565b60c0948501516001600160a01b03169590940194909452509092915050565b6000602080830181845280855180835260408601915060408160051b870101925083870160005b8281101561341657603f1988860301845261340485835161333c565b945092850192908501906001016133e8565b5092979650505050505050565b6000806040838503121561343657600080fd5b8235915060208301356001600160401b0381111561345357600080fd5b61345f858286016131b8565b9150509250929050565b60006101008a83528060208401526134838184018b613310565b90508281036040840152613497818a613310565b905082810360608401526134ab8189613310565b90508660808401528560a084015284151560c084015282810360e08401526134d38185613310565b9b9a5050505050505050505050565b600080604083850312156134f557600080fd5b82356001600160401b0381111561350b57600080fd5b613517858286016131b8565b95602094909401359450505050565b60e08152600061353960e083018a613310565b88602084015287604084015282810360608401526135578188613310565b905085608084015282810360a08401526135718186613310565b91505060018060a01b03831660c083015298975050505050505050565b600080604083850312156135a157600080fd5b823591506135b160208401613227565b90509250929050565b6020815260006135cd602083018461333c565b9392505050565b80356001600160a01b038116811461323657600080fd5b600080604083850312156135fe57600080fd5b823591506135b1602084016135d4565b60006020828403121561362057600080fd5b6135cd82613227565b634e487b7160e01b600052602160045260246000fd5b6007811061365d57634e487b7160e01b600052602160045260246000fd5b9052565b61366b818761363f565b84602082015283604082015260a06060820152600061368d60a0830185613310565b905082151560808301529695505050505050565b6000602082840312156136b357600080fd5b6135cd826135d4565b6000602080830181845280855180835260408601915060408160051b870101925083870160005b8281101561341657603f198886030184526136ff858351613310565b945092850192908501906001016136e3565b600080600080600060a0868803121561372957600080fd5b85356001600160401b038082111561374057600080fd5b61374c89838a016131b8565b96506020880135955060408801359450606088013591508082111561377057600080fd5b61377c89838a016131b8565b9350608088013591508082111561379257600080fd5b5061379f888289016131b8565b9150509295509295909350565b600080604083850312156137bf57600080fd5b6137c8836135d4565b946020939093013593505050565b6020815260006135cd6020830184613310565b600080604083850312156137fc57600080fd5b50508035926020909101359150565b60006020828403121561381d57600080fd5b81356001600160401b0381111561383357600080fd5b61383f848285016131b8565b949350505050565b60e08152600061385a60e083018a613310565b6001600160a01b0389166020840152613876604084018961363f565b82810360608401526138888188613310565b905085151560808401528460a084015282810360c08401526138aa8185613310565b9a9950505050505050505050565b60006020808301818452808551808352604092508286019150828160051b87010184880160005b8381101561399d57603f1989840301855281516101008151855288820151818a87015261390e82870182613310565b91505087820151858203898701526139268282613310565b915050606080830151868303828801526139408382613310565b92505050608080830151818701525060a080830151818701525060c08083015161396d8288018215159052565b505060e080830151925085820381870152506139898183613310565b9689019694505050908601906001016138df565b509098975050505050505050565b60006001600160401b038211156139c4576139c4613172565b5060051b60200190565b600082601f8301126139df57600080fd5b813560206139f46139ef836139ab565b613188565b82815260059290921b84018101918181019086841115613a1357600080fd5b8286015b84811015613a3557613a28816135d4565b8352918301918301613a17565b509695505050505050565b60008060408385031215613a5357600080fd5b82356001600160401b0380821115613a6a57600080fd5b818501915085601f830112613a7e57600080fd5b81356020613a8e6139ef836139ab565b82815260059290921b84018101918181019089841115613aad57600080fd5b948201945b83861015613acb57853582529482019490820190613ab2565b96505086013592505080821115613ae157600080fd5b5061345f858286016139ce565b6020808252825182820181905260009190848201906040850190845b81811015613b28578351151583529284019291840191600101613b0a565b50909695505050505050565b60008060008060808587031215613b4a57600080fd5b613b5385613227565b9350602085013592506040850135915060608501356001600160401b03811115613b7c57600080fd5b6132c7878288016131b8565b600082601f830112613b9957600080fd5b81356020613ba96139ef836139ab565b82815260059290921b84018101918181019086841115613bc857600080fd5b8286015b84811015613a355780356001600160401b03811115613beb5760008081fd5b613bf98986838b01016131b8565b845250918301918301613bcc565b600082601f830112613c1857600080fd5b81356020613c286139ef836139ab565b82815260059290921b84018101918181019086841115613c4757600080fd5b8286015b84811015613a355780358352918301918301613c4b565b600080600080600060a08688031215613c7a57600080fd5b85356001600160401b0380821115613c9157600080fd5b613c9d89838a01613b88565b96506020880135915080821115613cb357600080fd5b613cbf89838a01613c07565b95506040880135915080821115613cd557600080fd5b613ce189838a01613c07565b94506060880135915080821115613cf757600080fd5b613d0389838a01613b88565b93506080880135915080821115613d1957600080fd5b5061379f88828901613b88565b60008060408385031215613d3957600080fd5b8235915060208301356001600160401b03811115613d5657600080fd5b61345f858286016139ce565b6020808252825182820181905260009190848201906040850190845b81811015613b285783516001600160a01b031683529284019291840191600101613d7e565b60208082526023908201527f416363657373436f6e74726f6c3a206163636f756e74206d697373696e6720726040820152626f6c6560e81b606082015260800190565b60008251613df88184602087016132ec565b9190910192915050565b600181811c90821680613e1657607f821691505b602082108103612d9557634e487b7160e01b600052602260045260246000fd5b601f821115613e8057600081815260208120601f850160051c81016020861015613e5d5750805b601f850160051c820191505b81811015613e7c57828155600101613e69565b5050505b505050565b81516001600160401b03811115613e9e57613e9e613172565b613eb281613eac8454613e02565b84613e36565b602080601f831160018114613ee75760008415613ecf5750858301515b600019600386901b1c1916600185901b178555613e7c565b600085815260208120601f198616915b82811015613f1657888601518255948401946001909101908401613ef7565b5085821015613f345787850151600019600388901b60f8161c191681555b5050505050600190811b01905550565b608081526000613f576080830187613310565b6001600160a01b0386166020840152613f73604084018661363f565b8281036060840152613f858185613310565b979650505050505050565b634e487b7160e01b600052601160045260246000fd5b8181036000831280158383131683831282161715613fc657613fc6613f90565b5092915050565b634e487b7160e01b600052603260045260246000fd5b6000600160ff1b8201613ff857613ff8613f90565b506000190190565b60208082526026908201527f416363657373436f6e74726f6c3a2073656e646572206d75737420626520616e6040820152651030b236b4b760d11b606082015260800190565b60208082526015908201527414d95b9cdbdc88191bd95cc81b9bdd08195e1a5cdd605a1b604082015260600190565b6040815260006140886040830185613310565b90508260208301529392505050565b6000600182016140a9576140a9613f90565b5060010190565b606081016140be828661363f565b602082019390935260400152919050565b602080825260159082015274082e4e4c2f240d8cadccee8d040dad2e6dac2e8c6d605b1b604082015260600190565b6060815260136060820152722a242922a9a427a6222fab24a7a620aa24a7a760691b608082015260a06020820152600061413b60a0830185613310565b9050826040830152939250505056fe3fd1570350ad82b8536c3ba26e9b65482f86a92bc0631d77bd1bb4bc20357473a2646970667358221220094b23d8ee142542c69fd317f8a4e1abb887440fff1bf462d7c94e6553071d5f64736f6c63430008130033",
  "immutableReferences": {},
  "source": "// SPDX-License-Identifier: MIT\r\npragma solidity ^0.8.19;\r\n\r\nimport \"./AccessControl.sol\";\r\n\r\n/**\r\n * @title IoTIntegration\r\n * @dev Contract for integrating IoT devices and sensor data into supply chain\r\n */\r\ncontract IoTIntegration is AccessControl {\r\n    \r\n    // Events\r\n    event SensorRegistered(string sensorId, address owner, SensorType sensorType, string description);\r\n    event SensorDataRecorded(string indexed sensorId, uint256 indexed productId, bytes data, uint256 timestamp);\r\n    event AlertTriggered(uint256 indexed productId, string alertType, string message, uint256 timestamp);\r\n    event ThresholdSet(SensorType sensorType, int256 minValue, int256 maxValue);\r\n    // Sensor types\r\n    enum SensorType {\r\n        Temperature,\r\n        Humidity,\r\n        Pressure,\r\n        Location,\r\n        Shock,\r\n        Light,\r\n        Custom\r\n    }\r\n    \r\n    // Sensor information\r\n    struct Sensor {\r\n        string sensorId;\r\n        address owner;\r\n        SensorType sensorType;\r\n        string description;\r\n        bool isActive;\r\n        uint256 registeredAt;\r\n        string calibrationData;\r\n    }\r\n    \r\n    // Sensor reading\r\n    struct SensorReading {\r\n        string sensorId;\r\n        uint256 productId;\r\n        int256 value;\r\n        string unit;\r\n        uint256 timestamp;\r\n        bytes additionalData;\r\n        address recorder;\r\n    }\r\n    \r\n    // Threshold for alerts\r\n    struct Threshold {\r\n        SensorType sensorType;\r\n        int256 minValue;\r\n        int256 maxValue;\r\n        string alertMessage;\r\n        bool isActive;\r\n    }\r\n    \r\n    // Alert information\r\n    struct Alert {\r\n        uint256 productId;\r\n        string sensorId;\r\n        string alertType;\r\n        string message;\r\n        int256 triggerValue;\r\n        uint256 timestamp;\r\n        bool isResolved;\r\n        string resolution;\r\n    }\r\n    \r\n    // State variables\r\n    uint256 private alertCounter;\r\n    \r\n    // Mappings\r\n    mapping(string => Sensor) public sensors;\r\n    mapping(string => SensorReading[]) public sensorReadings;\r\n    mapping(uint256 => SensorReading[]) public productSensorData;\r\n    mapping(SensorType => Threshold) public thresholds;\r\n    mapping(uint256 => Alert) public alerts;\r\n    mapping(uint256 => uint256[]) public productAlerts; // productId => alertIds\r\n    mapping(address => string[]) public ownerSensors;\r\n    \r\n    // Arrays for iteration\r\n    string[] public sensorIds;\r\n    \r\n    modifier sensorExists(string memory _sensorId) {\r\n        require(bytes(sensors[_sensorId].sensorId).length > 0, \"Sensor does not exist\");\r\n        _;\r\n    }\r\n    \r\n    modifier onlySensorOwner(string memory _sensorId) {\r\n        require(sensors[_sensorId].owner == msg.sender, \"Not sensor owner\");\r\n        _;\r\n    }\r\n    \r\n    constructor() {\r\n        _setupRole(DEFAULT_ADMIN_ROLE, msg.sender);\r\n        _setupRole(ADMIN_ROLE, msg.sender);\r\n        \r\n        // Set default thresholds\r\n        _setDefaultThresholds();\r\n    }\r\n    \r\n    /**\r\n     * @dev Register a new IoT sensor\r\n     */\r\n    function registerSensor(\r\n        string memory _sensorId,\r\n        SensorType _sensorType,\r\n        string memory _description,\r\n        string memory _calibrationData\r\n    ) external onlyRole(PARTICIPANT_ROLE) {\r\n        require(bytes(sensors[_sensorId].sensorId).length == 0, \"Sensor already registered\");\r\n        \r\n        sensors[_sensorId] = Sensor({\r\n            sensorId: _sensorId,\r\n            owner: msg.sender,\r\n            sensorType: _sensorType,\r\n            description: _description,\r\n            isActive: true,\r\n            registeredAt: block.timestamp,\r\n            calibrationData: _calibrationData\r\n        });\r\n        \r\n        sensorIds.push(_sensorId);\r\n        ownerSensors[msg.sender].push(_sensorId);\r\n        \r\n        // Grant IoT device role to sensor owner for this sensor\r\n        grantRole(IOT_DEVICE_ROLE, msg.sender);\r\n        \r\n        emit SensorRegistered(_sensorId, msg.sender, _sensorType, _description);\r\n    }\r\n    \r\n    /**\r\n     * @dev Record sensor data\r\n     */\r\n    function recordSensorData(\r\n        string memory _sensorId,\r\n        uint256 _productId,\r\n        int256 _value,\r\n        string memory _unit,\r\n        bytes memory _additionalData\r\n    ) external sensorExists(_sensorId) onlyRole(IOT_DEVICE_ROLE) {\r\n        require(sensors[_sensorId].isActive, \"Sensor is inactive\");\r\n        require(_productId > 0, \"Invalid product ID\");\r\n        \r\n        SensorReading memory reading = SensorReading({\r\n            sensorId: _sensorId,\r\n            productId: _productId,\r\n            value: _value,\r\n            unit: _unit,\r\n            timestamp: block.timestamp,\r\n            additionalData: _additionalData,\r\n            recorder: msg.sender\r\n        });\r\n        \r\n        sensorReadings[_sensorId].push(reading);\r\n        productSensorData[_productId].push(reading);\r\n        \r\n        // Check for threshold violations\r\n        _checkThresholds(_sensorId, _productId, _value);\r\n        \r\n        emit SensorDataRecorded(_sensorId, _productId, _additionalData, block.timestamp);\r\n    }\r\n    \r\n    /**\r\n     * @dev Batch record multiple sensor readings (gas optimization)\r\n     */\r\n    function batchRecordSensorData(\r\n        string[] memory _sensorIds,\r\n        uint256[] memory _productIds,\r\n        int256[] memory _values,\r\n        string[] memory _units,\r\n        bytes[] memory _additionalData\r\n    ) external onlyRole(IOT_DEVICE_ROLE) {\r\n        require(_sensorIds.length == _productIds.length, \"Array length mismatch\");\r\n        require(_sensorIds.length == _values.length, \"Array length mismatch\");\r\n        require(_sensorIds.length == _units.length, \"Array length mismatch\");\r\n        require(_sensorIds.length == _additionalData.length, \"Array length mismatch\");\r\n        \r\n        for (uint256 i = 0; i < _sensorIds.length; i++) {\r\n            require(bytes(sensors[_sensorIds[i]].sensorId).length > 0, \"Sensor does not exist\");\r\n            require(sensors[_sensorIds[i]].isActive, \"Sensor is inactive\");\r\n            require(_productIds[i] > 0, \"Invalid product ID\");\r\n            \r\n            SensorReading memory reading = SensorReading({\r\n                sensorId: _sensorIds[i],\r\n                productId: _productIds[i],\r\n                value: _values[i],\r\n                unit: _units[i],\r\n                timestamp: block.timestamp,\r\n                additionalData: _additionalData[i],\r\n                recorder: msg.sender\r\n            });\r\n            \r\n            sensorReadings[_sensorIds[i]].push(reading);\r\n            productSensorData[_productIds[i]].push(reading);\r\n            \r\n            _checkThresholds(_sensorIds[i], _productIds[i], _values[i]);\r\n            \r\n            emit SensorDataRecorded(_sensorIds[i], _productIds[i], _additionalData[i], block.timestamp);\r\n        }\r\n    }\r\n    \r\n    /**\r\n     * @dev Set threshold for sensor type\r\n     */\r\n    function setThreshold(\r\n        SensorType _sensorType,\r\n        int256 _minValue,\r\n        int256 _maxValue,\r\n        string memory _alertMessage\r\n    ) external onlyRole(ADMIN_ROLE) {\r\n        thresholds[_sensorType] = Threshold({\r\n            sensorType: _sensorType,\r\n            minValue: _minValue,\r\n            maxValue: _maxValue,\r\n            alertMessage: _alertMessage,\r\n            isActive: true\r\n        });\r\n        \r\n        emit ThresholdSet(_sensorType, _minValue, _maxValue);\r\n    }\r\n    \r\n    /**\r\n     * @dev Deactivate a sensor\r\n     */\r\n    function deactivateSensor(string memory _sensorId) \r\n        external \r\n        sensorExists(_sensorId) \r\n        onlySensorOwner(_sensorId) {\r\n        sensors[_sensorId].isActive = false;\r\n    }\r\n    \r\n    /**\r\n     * @dev Resolve an alert\r\n     */\r\n    function resolveAlert(\r\n        uint256 _alertId,\r\n        string memory _resolution\r\n    ) external onlyRole(PARTICIPANT_ROLE) {\r\n        require(_alertId > 0 && _alertId <= alertCounter, \"Alert does not exist\");\r\n        require(!alerts[_alertId].isResolved, \"Alert already resolved\");\r\n        \r\n        alerts[_alertId].isResolved = true;\r\n        alerts[_alertId].resolution = _resolution;\r\n    }\r\n    \r\n    /**\r\n     * @dev Get sensor readings for a product\r\n     */\r\n    function getProductSensorData(uint256 _productId) \r\n        external \r\n        view \r\n        returns (SensorReading[] memory) {\r\n        return productSensorData[_productId];\r\n    }\r\n    \r\n    /**\r\n     * @dev Get readings from a specific sensor\r\n     */\r\n    function getSensorReadings(string memory _sensorId) \r\n        external \r\n        view \r\n        sensorExists(_sensorId) \r\n        returns (SensorReading[] memory) {\r\n        return sensorReadings[_sensorId];\r\n    }\r\n    \r\n    /**\r\n     * @dev Get alerts for a product\r\n     */\r\n    function getProductAlerts(uint256 _productId) \r\n        external \r\n        view \r\n        returns (Alert[] memory) {\r\n        uint256[] memory alertIds = productAlerts[_productId];\r\n        Alert[] memory productAlertsList = new Alert[](alertIds.length);\r\n        \r\n        for (uint256 i = 0; i < alertIds.length; i++) {\r\n            productAlertsList[i] = alerts[alertIds[i]];\r\n        }\r\n        \r\n        return productAlertsList;\r\n    }\r\n    \r\n    /**\r\n     * @dev Get sensors owned by an address\r\n     */\r\n    function getOwnerSensors(address _owner) \r\n        external \r\n        view \r\n        returns (string[] memory) {\r\n        return ownerSensors[_owner];\r\n    }\r\n    \r\n    /**\r\n     * @dev Get latest sensor reading for a product and sensor type\r\n     */\r\n    function getLatestReading(uint256 _productId, SensorType _sensorType) \r\n        external \r\n        view \r\n        returns (SensorReading memory) {\r\n        SensorReading[] memory readings = productSensorData[_productId];\r\n        \r\n        for (int256 i = int256(readings.length) - 1; i >= 0; i--) {\r\n            if (sensors[readings[uint256(i)].sensorId].sensorType == _sensorType) {\r\n                return readings[uint256(i)];\r\n            }\r\n        }\r\n        \r\n        revert(\"No reading found for sensor type\");\r\n    }\r\n    \r\n    /**\r\n     * @dev Check if sensor data is within acceptable ranges\r\n     */\r\n    function _checkThresholds(\r\n        string memory _sensorId,\r\n        uint256 _productId,\r\n        int256 _value\r\n    ) private {\r\n        SensorType sensorType = sensors[_sensorId].sensorType;\r\n        Threshold memory threshold = thresholds[sensorType];\r\n        \r\n        if (threshold.isActive && \r\n            (_value < threshold.minValue || _value > threshold.maxValue)) {\r\n            \r\n            alertCounter++;\r\n            alerts[alertCounter] = Alert({\r\n                productId: _productId,\r\n                sensorId: _sensorId,\r\n                alertType: \"THRESHOLD_VIOLATION\",\r\n                message: threshold.alertMessage,\r\n                triggerValue: _value,\r\n                timestamp: block.timestamp,\r\n                isResolved: false,\r\n                resolution: \"\"\r\n            });\r\n            \r\n            productAlerts[_productId].push(alertCounter);\r\n            \r\n            emit AlertTriggered(_productId, \"THRESHOLD_VIOLATION\", threshold.alertMessage, block.timestamp);\r\n        }\r\n    }\r\n    \r\n    /**\r\n     * @dev Set default thresholds for common sensor types\r\n     */\r\n    function _setDefaultThresholds() private {\r\n        // Temperature: -20C to 50C\r\n        thresholds[SensorType.Temperature] = Threshold({\r\n            sensorType: SensorType.Temperature,\r\n            minValue: -20,\r\n            maxValue: 50,\r\n            alertMessage: \"Temperature out of safe range\",\r\n            isActive: true\r\n        });\r\n        \r\n        // Humidity: 0% to 100%\r\n        thresholds[SensorType.Humidity] = Threshold({\r\n            sensorType: SensorType.Humidity,\r\n            minValue: 0,\r\n            maxValue: 100,\r\n            alertMessage: \"Humidity out of safe range\",\r\n            isActive: true\r\n        });\r\n        \r\n        // Pressure: 800 to 1200 hPa\r\n        thresholds[SensorType.Pressure] = Threshold({\r\n            sensorType: SensorType.Pressure,\r\n            minValue: 800,\r\n            maxValue: 1200,\r\n            alertMessage: \"Pressure out of safe range\",\r\n            isActive: true\r\n        });\r\n    }\r\n    \r\n    // Utility functions\r\n    function getAlertCount() external view returns (uint256) {\r\n        return alertCounter;\r\n    }\r\n    \r\n    function getSensorCount() external view returns (uint256) {\r\n        return sensorIds.length;\r\n    }\r\n}",
  "sourcePath": "C:\\projects\\BLOCKCHAIN_PROJECT\\contracts\\IoTIntegration.sol",
  "compiler": {
    "name": "solc",
    "version": "0.8.19+commit.7dd6d404.Emscripten.clang"
  },
  "schemaVersion": "3.4.16",
  "updatedAt": "2025-08-24T06:17:50.851Z",
  "networkType": "ethereum",
  "devdoc": {
    "details": "Contract for integrating IoT devices and sensor data into supply chain",
    "kind": "dev",
    "methods": {
      "batchRecordSensorData(string[],uint256[],int256[],string[],bytes[])": {
        "details": "Batch record multiple sensor readings (gas optimization)"
      },
      "deactivateSensor(string)": {
        "details": "Deactivate a sensor"
      },
      "getLatestReading(uint256,uint8)": {
        "details": "Get latest sensor reading for a product and sensor type"
      },
      "getOwnerSensors(address)": {
        "details": "Get sensors owned by an address"
      },
      "getProductAlerts(uint256)": {
        "details": "Get alerts for a product"
      },
      "getProductSensorData(uint256)": {
        "details": "Get sensor readings for a product"
      },
      "getRoleAdmin(bytes32)": {
        "details": "Get the admin role for a given role"
      },
      "getRoleMembers(bytes32,address[])": {
        "details": "Get all accounts with a specific role (expensive operation, use carefully)"
      },
      "getSensorReadings(string)": {
        "details": "Get readings from a specific sensor"
      },
      "grantRole(bytes32,address)": {
        "details": "Grant a role to an account"
      },
      "hasRole(bytes32,address)": {
        "details": "Check if an account has a specific role"
      },
      "hasRoles(bytes32[],address[])": {
        "details": "Check if multiple accounts have required roles (batch check)"
      },
      "recordSensorData(string,uint256,int256,string,bytes)": {
        "details": "Record sensor data"
      },
      "registerSensor(string,uint8,string,string)": {
        "details": "Register a new IoT sensor"
      },
      "renounceRole(bytes32,address)": {
        "details": "Renounce a role (can only be called by the account itself)"
      },
      "resolveAlert(uint256,string)": {
        "details": "Resolve an alert"
      },
      "revokeRole(bytes32,address)": {
        "details": "Revoke a role from an account"
      },
      "setThreshold(uint8,int256,int256,string)": {
        "details": "Set threshold for sensor type"
      }
    },
    "title": "IoTIntegration",
    "version": 1
  },
  "userdoc": {
    "kind": "user",
    "methods": {},
    "version": 1
  }
}