{
  "contractName": "IoTIntegration",
  "abi": [
    {
      "inputs": [],
      "stateMutability": "nonpayable",
      "type": "constructor"
    },
    {
      "anonymous": false,
      "inputs": [
        {
          "indexed": true,
          "internalType": "uint256",
          "name": "productId",
          "type": "uint256"
        },
        {
          "indexed": false,
          "internalType": "string",
          "name": "alertType",
          "type": "string"
        },
        {
          "indexed": false,
          "internalType": "string",
          "name": "message",
          "type": "string"
        },
        {
          "indexed": false,
          "internalType": "uint256",
          "name": "timestamp",
          "type": "uint256"
        }
      ],
      "name": "AlertTriggered",
      "type": "event"
    },
    {
      "anonymous": false,
      "inputs": [
        {
          "indexed": true,
          "internalType": "bytes32",
          "name": "role",
          "type": "bytes32"
        },
        {
          "indexed": true,
          "internalType": "bytes32",
          "name": "previousAdminRole",
          "type": "bytes32"
        },
        {
          "indexed": true,
          "internalType": "bytes32",
          "name": "newAdminRole",
          "type": "bytes32"
        }
      ],
      "name": "RoleAdminChanged",
      "type": "event"
    },
    {
      "anonymous": false,
      "inputs": [
        {
          "indexed": true,
          "internalType": "bytes32",
          "name": "role",
          "type": "bytes32"
        },
        {
          "indexed": true,
          "internalType": "address",
          "name": "account",
          "type": "address"
        },
        {
          "indexed": true,
          "internalType": "address",
          "name": "sender",
          "type": "address"
        }
      ],
      "name": "RoleGranted",
      "type": "event"
    },
    {
      "anonymous": false,
      "inputs": [
        {
          "indexed": true,
          "internalType": "bytes32",
          "name": "role",
          "type": "bytes32"
        },
        {
          "indexed": true,
          "internalType": "address",
          "name": "account",
          "type": "address"
        },
        {
          "indexed": true,
          "internalType": "address",
          "name": "sender",
          "type": "address"
        }
      ],
      "name": "RoleRevoked",
      "type": "event"
    },
    {
      "anonymous": false,
      "inputs": [
        {
          "indexed": true,
          "internalType": "string",
          "name": "sensorId",
          "type": "string"
        },
        {
          "indexed": true,
          "internalType": "uint256",
          "name": "productId",
          "type": "uint256"
        },
        {
          "indexed": false,
          "internalType": "bytes",
          "name": "data",
          "type": "bytes"
        },
        {
          "indexed": false,
          "internalType": "uint256",
          "name": "timestamp",
          "type": "uint256"
        }
      ],
      "name": "SensorDataRecorded",
      "type": "event"
    },
    {
      "anonymous": false,
      "inputs": [
        {
          "indexed": false,
          "internalType": "string",
          "name": "sensorId",
          "type": "string"
        },
        {
          "indexed": false,
          "internalType": "address",
          "name": "owner",
          "type": "address"
        },
        {
          "indexed": false,
          "internalType": "enum IoTIntegration.SensorType",
          "name": "sensorType",
          "type": "uint8"
        },
        {
          "indexed": false,
          "internalType": "string",
          "name": "description",
          "type": "string"
        }
      ],
      "name": "SensorRegistered",
      "type": "event"
    },
    {
      "anonymous": false,
      "inputs": [
        {
          "indexed": false,
          "internalType": "enum IoTIntegration.SensorType",
          "name": "sensorType",
          "type": "uint8"
        },
        {
          "indexed": false,
          "internalType": "int256",
          "name": "minValue",
          "type": "int256"
        },
        {
          "indexed": false,
          "internalType": "int256",
          "name": "maxValue",
          "type": "int256"
        }
      ],
      "name": "ThresholdSet",
      "type": "event"
    },
    {
      "inputs": [],
      "name": "ADMIN_ROLE",
      "outputs": [
        {
          "internalType": "bytes32",
          "name": "",
          "type": "bytes32"
        }
      ],
      "stateMutability": "view",
      "type": "function",
      "constant": true
    },
    {
      "inputs": [],
      "name": "AUDITOR_ROLE",
      "outputs": [
        {
          "internalType": "bytes32",
          "name": "",
          "type": "bytes32"
        }
      ],
      "stateMutability": "view",
      "type": "function",
      "constant": true
    },
    {
      "inputs": [],
      "name": "DEFAULT_ADMIN_ROLE",
      "outputs": [
        {
          "internalType": "bytes32",
          "name": "",
          "type": "bytes32"
        }
      ],
      "stateMutability": "view",
      "type": "function",
      "constant": true
    },
    {
      "inputs": [],
      "name": "IOT_DEVICE_ROLE",
      "outputs": [
        {
          "internalType": "bytes32",
          "name": "",
          "type": "bytes32"
        }
      ],
      "stateMutability": "view",
      "type": "function",
      "constant": true
    },
    {
      "inputs": [],
      "name": "PARTICIPANT_ROLE",
      "outputs": [
        {
          "internalType": "bytes32",
          "name": "",
          "type": "bytes32"
        }
      ],
      "stateMutability": "view",
      "type": "function",
      "constant": true
    },
    {
      "inputs": [
        {
          "internalType": "uint256",
          "name": "",
          "type": "uint256"
        }
      ],
      "name": "alerts",
      "outputs": [
        {
          "internalType": "uint256",
          "name": "productId",
          "type": "uint256"
        },
        {
          "internalType": "string",
          "name": "sensorId",
          "type": "string"
        },
        {
          "internalType": "string",
          "name": "alertType",
          "type": "string"
        },
        {
          "internalType": "string",
          "name": "message",
          "type": "string"
        },
        {
          "internalType": "int256",
          "name": "triggerValue",
          "type": "int256"
        },
        {
          "internalType": "uint256",
          "name": "timestamp",
          "type": "uint256"
        },
        {
          "internalType": "bool",
          "name": "isResolved",
          "type": "bool"
        },
        {
          "internalType": "string",
          "name": "resolution",
          "type": "string"
        }
      ],
      "stateMutability": "view",
      "type": "function",
      "constant": true
    },
    {
      "inputs": [
        {
          "internalType": "bytes32",
          "name": "role",
          "type": "bytes32"
        }
      ],
      "name": "getRoleAdmin",
      "outputs": [
        {
          "internalType": "bytes32",
          "name": "",
          "type": "bytes32"
        }
      ],
      "stateMutability": "view",
      "type": "function",
      "constant": true
    },
    {
      "inputs": [
        {
          "internalType": "bytes32",
          "name": "role",
          "type": "bytes32"
        },
        {
          "internalType": "address[]",
          "name": "candidates",
          "type": "address[]"
        }
      ],
      "name": "getRoleMembers",
      "outputs": [
        {
          "internalType": "address[]",
          "name": "",
          "type": "address[]"
        }
      ],
      "stateMutability": "view",
      "type": "function",
      "constant": true
    },
    {
      "inputs": [
        {
          "internalType": "bytes32",
          "name": "role",
          "type": "bytes32"
        },
        {
          "internalType": "address",
          "name": "account",
          "type": "address"
        }
      ],
      "name": "grantRole",
      "outputs": [],
      "stateMutability": "nonpayable",
      "type": "function"
    },
    {
      "inputs": [
        {
          "internalType": "bytes32",
          "name": "role",
          "type": "bytes32"
        },
        {
          "internalType": "address",
          "name": "account",
          "type": "address"
        }
      ],
      "name": "hasRole",
      "outputs": [
        {
          "internalType": "bool",
          "name": "",
          "type": "bool"
        }
      ],
      "stateMutability": "view",
      "type": "function",
      "constant": true
    },
    {
      "inputs": [
        {
          "internalType": "bytes32[]",
          "name": "roles",
          "type": "bytes32[]"
        },
        {
          "internalType": "address[]",
          "name": "accounts",
          "type": "address[]"
        }
      ],
      "name": "hasRoles",
      "outputs": [
        {
          "internalType": "bool[]",
          "name": "",
          "type": "bool[]"
        }
      ],
      "stateMutability": "view",
      "type": "function",
      "constant": true
    },
    {
      "inputs": [
        {
          "internalType": "address",
          "name": "",
          "type": "address"
        },
        {
          "internalType": "uint256",
          "name": "",
          "type": "uint256"
        }
      ],
      "name": "ownerSensors",
      "outputs": [
        {
          "internalType": "string",
          "name": "",
          "type": "string"
        }
      ],
      "stateMutability": "view",
      "type": "function",
      "constant": true
    },
    {
      "inputs": [
        {
          "internalType": "uint256",
          "name": "",
          "type": "uint256"
        },
        {
          "internalType": "uint256",
          "name": "",
          "type": "uint256"
        }
      ],
      "name": "productAlerts",
      "outputs": [
        {
          "internalType": "uint256",
          "name": "",
          "type": "uint256"
        }
      ],
      "stateMutability": "view",
      "type": "function",
      "constant": true
    },
    {
      "inputs": [
        {
          "internalType": "uint256",
          "name": "",
          "type": "uint256"
        },
        {
          "internalType": "uint256",
          "name": "",
          "type": "uint256"
        }
      ],
      "name": "productSensorData",
      "outputs": [
        {
          "internalType": "string",
          "name": "sensorId",
          "type": "string"
        },
        {
          "internalType": "uint256",
          "name": "productId",
          "type": "uint256"
        },
        {
          "internalType": "int256",
          "name": "value",
          "type": "int256"
        },
        {
          "internalType": "string",
          "name": "unit",
          "type": "string"
        },
        {
          "internalType": "uint256",
          "name": "timestamp",
          "type": "uint256"
        },
        {
          "internalType": "bytes",
          "name": "additionalData",
          "type": "bytes"
        },
        {
          "internalType": "address",
          "name": "recorder",
          "type": "address"
        }
      ],
      "stateMutability": "view",
      "type": "function",
      "constant": true
    },
    {
      "inputs": [
        {
          "internalType": "bytes32",
          "name": "role",
          "type": "bytes32"
        },
        {
          "internalType": "address",
          "name": "account",
          "type": "address"
        }
      ],
      "name": "renounceRole",
      "outputs": [],
      "stateMutability": "nonpayable",
      "type": "function"
    },
    {
      "inputs": [
        {
          "internalType": "bytes32",
          "name": "role",
          "type": "bytes32"
        },
        {
          "internalType": "address",
          "name": "account",
          "type": "address"
        }
      ],
      "name": "revokeRole",
      "outputs": [],
      "stateMutability": "nonpayable",
      "type": "function"
    },
    {
      "inputs": [
        {
          "internalType": "uint256",
          "name": "",
          "type": "uint256"
        }
      ],
      "name": "sensorIds",
      "outputs": [
        {
          "internalType": "string",
          "name": "",
          "type": "string"
        }
      ],
      "stateMutability": "view",
      "type": "function",
      "constant": true
    },
    {
      "inputs": [
        {
          "internalType": "string",
          "name": "",
          "type": "string"
        },
        {
          "internalType": "uint256",
          "name": "",
          "type": "uint256"
        }
      ],
      "name": "sensorReadings",
      "outputs": [
        {
          "internalType": "string",
          "name": "sensorId",
          "type": "string"
        },
        {
          "internalType": "uint256",
          "name": "productId",
          "type": "uint256"
        },
        {
          "internalType": "int256",
          "name": "value",
          "type": "int256"
        },
        {
          "internalType": "string",
          "name": "unit",
          "type": "string"
        },
        {
          "internalType": "uint256",
          "name": "timestamp",
          "type": "uint256"
        },
        {
          "internalType": "bytes",
          "name": "additionalData",
          "type": "bytes"
        },
        {
          "internalType": "address",
          "name": "recorder",
          "type": "address"
        }
      ],
      "stateMutability": "view",
      "type": "function",
      "constant": true
    },
    {
      "inputs": [
        {
          "internalType": "string",
          "name": "",
          "type": "string"
        }
      ],
      "name": "sensors",
      "outputs": [
        {
          "internalType": "string",
          "name": "sensorId",
          "type": "string"
        },
        {
          "internalType": "address",
          "name": "owner",
          "type": "address"
        },
        {
          "internalType": "enum IoTIntegration.SensorType",
          "name": "sensorType",
          "type": "uint8"
        },
        {
          "internalType": "string",
          "name": "description",
          "type": "string"
        },
        {
          "internalType": "bool",
          "name": "isActive",
          "type": "bool"
        },
        {
          "internalType": "uint256",
          "name": "registeredAt",
          "type": "uint256"
        },
        {
          "internalType": "string",
          "name": "calibrationData",
          "type": "string"
        }
      ],
      "stateMutability": "view",
      "type": "function",
      "constant": true
    },
    {
      "inputs": [
        {
          "internalType": "enum IoTIntegration.SensorType",
          "name": "",
          "type": "uint8"
        }
      ],
      "name": "thresholds",
      "outputs": [
        {
          "internalType": "enum IoTIntegration.SensorType",
          "name": "sensorType",
          "type": "uint8"
        },
        {
          "internalType": "int256",
          "name": "minValue",
          "type": "int256"
        },
        {
          "internalType": "int256",
          "name": "maxValue",
          "type": "int256"
        },
        {
          "internalType": "string",
          "name": "alertMessage",
          "type": "string"
        },
        {
          "internalType": "bool",
          "name": "isActive",
          "type": "bool"
        }
      ],
      "stateMutability": "view",
      "type": "function",
      "constant": true
    },
    {
      "inputs": [
        {
          "internalType": "string",
          "name": "_sensorId",
          "type": "string"
        },
        {
          "internalType": "enum IoTIntegration.SensorType",
          "name": "_sensorType",
          "type": "uint8"
        },
        {
          "internalType": "string",
          "name": "_description",
          "type": "string"
        },
        {
          "internalType": "string",
          "name": "_calibrationData",
          "type": "string"
        }
      ],
      "name": "registerSensor",
      "outputs": [],
      "stateMutability": "nonpayable",
      "type": "function"
    },
    {
      "inputs": [
        {
          "internalType": "string",
          "name": "_sensorId",
          "type": "string"
        },
        {
          "internalType": "uint256",
          "name": "_productId",
          "type": "uint256"
        },
        {
          "internalType": "int256",
          "name": "_value",
          "type": "int256"
        },
        {
          "internalType": "string",
          "name": "_unit",
          "type": "string"
        },
        {
          "internalType": "bytes",
          "name": "_additionalData",
          "type": "bytes"
        }
      ],
      "name": "recordSensorData",
      "outputs": [],
      "stateMutability": "nonpayable",
      "type": "function"
    },
    {
      "inputs": [
        {
          "internalType": "string[]",
          "name": "_sensorIds",
          "type": "string[]"
        },
        {
          "internalType": "uint256[]",
          "name": "_productIds",
          "type": "uint256[]"
        },
        {
          "internalType": "int256[]",
          "name": "_values",
          "type": "int256[]"
        },
        {
          "internalType": "string[]",
          "name": "_units",
          "type": "string[]"
        },
        {
          "internalType": "bytes[]",
          "name": "_additionalData",
          "type": "bytes[]"
        }
      ],
      "name": "batchRecordSensorData",
      "outputs": [],
      "stateMutability": "nonpayable",
      "type": "function"
    },
    {
      "inputs": [
        {
          "internalType": "enum IoTIntegration.SensorType",
          "name": "_sensorType",
          "type": "uint8"
        },
        {
          "internalType": "int256",
          "name": "_minValue",
          "type": "int256"
        },
        {
          "internalType": "int256",
          "name": "_maxValue",
          "type": "int256"
        },
        {
          "internalType": "string",
          "name": "_alertMessage",
          "type": "string"
        }
      ],
      "name": "setThreshold",
      "outputs": [],
      "stateMutability": "nonpayable",
      "type": "function"
    },
    {
      "inputs": [
        {
          "internalType": "string",
          "name": "_sensorId",
          "type": "string"
        }
      ],
      "name": "deactivateSensor",
      "outputs": [],
      "stateMutability": "nonpayable",
      "type": "function"
    },
    {
      "inputs": [
        {
          "internalType": "uint256",
          "name": "_alertId",
          "type": "uint256"
        },
        {
          "internalType": "string",
          "name": "_resolution",
          "type": "string"
        }
      ],
      "name": "resolveAlert",
      "outputs": [],
      "stateMutability": "nonpayable",
      "type": "function"
    },
    {
      "inputs": [
        {
          "internalType": "uint256",
          "name": "_productId",
          "type": "uint256"
        }
      ],
      "name": "getProductSensorData",
      "outputs": [
        {
          "components": [
            {
              "internalType": "string",
              "name": "sensorId",
              "type": "string"
            },
            {
              "internalType": "uint256",
              "name": "productId",
              "type": "uint256"
            },
            {
              "internalType": "int256",
              "name": "value",
              "type": "int256"
            },
            {
              "internalType": "string",
              "name": "unit",
              "type": "string"
            },
            {
              "internalType": "uint256",
              "name": "timestamp",
              "type": "uint256"
            },
            {
              "internalType": "bytes",
              "name": "additionalData",
              "type": "bytes"
            },
            {
              "internalType": "address",
              "name": "recorder",
              "type": "address"
            }
          ],
          "internalType": "struct IoTIntegration.SensorReading[]",
          "name": "",
          "type": "tuple[]"
        }
      ],
      "stateMutability": "view",
      "type": "function",
      "constant": true
    },
    {
      "inputs": [
        {
          "internalType": "string",
          "name": "_sensorId",
          "type": "string"
        }
      ],
      "name": "getSensorReadings",
      "outputs": [
        {
          "components": [
            {
              "internalType": "string",
              "name": "sensorId",
              "type": "string"
            },
            {
              "internalType": "uint256",
              "name": "productId",
              "type": "uint256"
            },
            {
              "internalType": "int256",
              "name": "value",
              "type": "int256"
            },
            {
              "internalType": "string",
              "name": "unit",
              "type": "string"
            },
            {
              "internalType": "uint256",
              "name": "timestamp",
              "type": "uint256"
            },
            {
              "internalType": "bytes",
              "name": "additionalData",
              "type": "bytes"
            },
            {
              "internalType": "address",
              "name": "recorder",
              "type": "address"
            }
          ],
          "internalType": "struct IoTIntegration.SensorReading[]",
          "name": "",
          "type": "tuple[]"
        }
      ],
      "stateMutability": "view",
      "type": "function",
      "constant": true
    },
    {
      "inputs": [
        {
          "internalType": "uint256",
          "name": "_productId",
          "type": "uint256"
        }
      ],
      "name": "getProductAlerts",
      "outputs": [
        {
          "components": [
            {
              "internalType": "uint256",
              "name": "productId",
              "type": "uint256"
            },
            {
              "internalType": "string",
              "name": "sensorId",
              "type": "string"
            },
            {
              "internalType": "string",
              "name": "alertType",
              "type": "string"
            },
            {
              "internalType": "string",
              "name": "message",
              "type": "string"
            },
            {
              "internalType": "int256",
              "name": "triggerValue",
              "type": "int256"
            },
            {
              "internalType": "uint256",
              "name": "timestamp",
              "type": "uint256"
            },
            {
              "internalType": "bool",
              "name": "isResolved",
              "type": "bool"
            },
            {
              "internalType": "string",
              "name": "resolution",
              "type": "string"
            }
          ],
          "internalType": "struct IoTIntegration.Alert[]",
          "name": "",
          "type": "tuple[]"
        }
      ],
      "stateMutability": "view",
      "type": "function",
      "constant": true
    },
    {
      "inputs": [
        {
          "internalType": "address",
          "name": "_owner",
          "type": "address"
        }
      ],
      "name": "getOwnerSensors",
      "outputs": [
        {
          "internalType": "string[]",
          "name": "",
          "type": "string[]"
        }
      ],
      "stateMutability": "view",
      "type": "function",
      "constant": true
    },
    {
      "inputs": [
        {
          "internalType": "uint256",
          "name": "_productId",
          "type": "uint256"
        },
        {
          "internalType": "enum IoTIntegration.SensorType",
          "name": "_sensorType",
          "type": "uint8"
        }
      ],
      "name": "getLatestReading",
      "outputs": [
        {
          "components": [
            {
              "internalType": "string",
              "name": "sensorId",
              "type": "string"
            },
            {
              "internalType": "uint256",
              "name": "productId",
              "type": "uint256"
            },
            {
              "internalType": "int256",
              "name": "value",
              "type": "int256"
            },
            {
              "internalType": "string",
              "name": "unit",
              "type": "string"
            },
            {
              "internalType": "uint256",
              "name": "timestamp",
              "type": "uint256"
            },
            {
              "internalType": "bytes",
              "name": "additionalData",
              "type": "bytes"
            },
            {
              "internalType": "address",
              "name": "recorder",
              "type": "address"
            }
          ],
          "internalType": "struct IoTIntegration.SensorReading",
          "name": "",
          "type": "tuple"
        }
      ],
      "stateMutability": "view",
      "type": "function",
      "constant": true
    },
    {
      "inputs": [],
      "name": "getAlertCount",
      "outputs": [
        {
          "internalType": "uint256",
          "name": "",
          "type": "uint256"
        }
      ],
      "stateMutability": "view",
      "type": "function",
      "constant": true
    },
    {
      "inputs": [],
      "name": "getSensorCount",
      "outputs": [
        {
          "internalType": "uint256",
          "name": "",
          "type": "uint256"
        }
      ],
      "stateMutability": "view",
      "type": "function",
      "constant": true
    }
  ],
  "bytecode": "0x60806040523480156200001157600080fd5b506200001f6000336200005b565b6200004b7fa49807205ce4d355092ef5a8a18f56e8913cf4a201fbe287825b095693c21775336200005b565b620000556200006b565b6200058f565b62000067828262000386565b5050565b6040805160a08101825260008082526013196020808401919091526032838501528351808501909452601d84527f54656d7065726174757265206f7574206f6620736166652072616e6765000000848201526060830193909352600160808301819052908052600590925280517f05b8ccbb9d4d8fb16ea74ce3c29a41f1b461fbdaff4714a0d9a8eb05499746bc805492939092839160ff19909116908360068111156200011d576200011d62000408565b02179055506020820151600182015560408201516002820155606082015160038201906200014c9082620004c3565b50608091909101516004909101805460ff19169115159190911790556040805160a08101909152806001815260200160008152602001606481526020016040518060400160405280601a81526020017f48756d6964697479206f7574206f6620736166652072616e67650000000000008152508152602001600115158152506005600060016006811115620001e557620001e562000408565b6006811115620001f957620001f962000408565b8152602081019190915260400160002081518154829060ff191660018360068111156200022a576200022a62000408565b0217905550602082015160018201556040820151600282015560608201516003820190620002599082620004c3565b50608091909101516004909101805460ff19169115159190911790556040805160a08101909152806002815260200161032081526020016104b081526020016040518060400160405280601a81526020017f5072657373757265206f7574206f6620736166652072616e67650000000000008152508152602001600115158152506005600060026006811115620002f457620002f462000408565b600681111562000308576200030862000408565b8152602081019190915260400160002081518154829060ff1916600183600681111562000339576200033962000408565b0217905550602082015160018201556040820151600282015560608201516003820190620003689082620004c3565b50608091909101516004909101805460ff1916911515919091179055565b6000828152602081815260408083206001600160a01b038516845290915290205460ff1662000067576000828152602081815260408083206001600160a01b0385168085529252808320805460ff1916600117905551339285917f2f8788117e7eff1d82e926ec794901d17c78024a50270940304540a733656f0d9190a45050565b634e487b7160e01b600052602160045260246000fd5b634e487b7160e01b600052604160045260246000fd5b600181811c908216806200044957607f821691505b6020821081036200046a57634e487b7160e01b600052602260045260246000fd5b50919050565b601f821115620004be57600081815260208120601f850160051c81016020861015620004995750805b601f850160051c820191505b81811015620004ba57828155600101620004a5565b5050505b505050565b81516001600160401b03811115620004df57620004df6200041e565b620004f781620004f0845462000434565b8462000470565b602080601f8311600181146200052f5760008415620005165750858301515b600019600386901b1c1916600185901b178555620004ba565b600085815260208120601f198616915b8281101562000560578886015182559484019460019091019084016200053f565b50858210156200057f5787850151600019600388901b60f8161c191681555b5050505050600190811b01905550565b61416e806200059f6000396000f3fe608060405234801561001057600080fd5b50600436106101fa5760003560e01c80636dc65f951161011a57806391d14854116100ad578063d3036dd41161007c578063d3036dd414610500578063d547741f14610520578063d620d93914610533578063ee35d3c814610546578063f1a93d4a1461055957600080fd5b806391d14854146104af578063968efa39146104d2578063a217fddf146104e5578063bb097fa8146104ed57600080fd5b80638231a4c5116100e95780638231a4c514610436578063887a50421461044957806389b6c78f1461046f5780638d4df7ab1461048f57600080fd5b80636dc65f95146103c25780636e1d616e146103d557806375b238fc146103fc5780637c0b80f71461042357600080fd5b806336568abe116101925780635e73607f116101615780635e73607f146103485780635f8a7abe1461036857806369d80e771461038f5780636d612673146103a257600080fd5b806336568abe146103015780633c51b21f1461031457806340411fc81461031c5780635a50d2f41461032457600080fd5b80631a562ea1116101ce5780631a562ea114610277578063248a9ca31461029d57806326a2dbec146102ce5780632f2ff15d146102ee57600080fd5b8062f3435b146101ff57806307b9aa4e1461021457806313cd8f141461023d578063171d073a14610250575b600080fd5b61021261020d366004613209565b61056e565b005b6102276102223660046132a1565b61080f565b604051610234919061338f565b60405180910390f35b61021261024b3660046133f1565b610a6b565b61026361025e3660046132a1565b610b95565b604051610234989796959493929190613437565b61028a6102853660046134b0565b610dff565b60405161023497969594939291906134f4565b6102c06102ab3660046132a1565b60009081526020819052604090206001015490565b604051908152602001610234565b6102e16102dc36600461355c565b61100e565b6040516102349190613588565b6102126102fc3660046135b9565b6113b7565b61021261030f3660046135b9565b6113fe565b6009546102c0565b6001546102c0565b6103376103323660046135dc565b611478565b60405161023495949392919061362f565b61035b61035636600461366f565b611538565b604051610234919061368a565b6102c07f938c45fe3baa5cbd047f2473358a27f57db22291e9af95379a15ad016886dfb781565b61021261039d3660046136df565b61161c565b6103b56103b036600461377a565b611941565b60405161023491906137a4565b6103b56103d03660046132a1565b6119fa565b6102c07f59a1c48e5837ad7a7f3dcedcbe129bf3249ec4fbf651fd4f5e2600ead39fe2f581565b6102c07fa49807205ce4d355092ef5a8a18f56e8913cf4a201fbe287825b095693c2177581565b61028a6104313660046137b7565b611a25565b6102126104443660046137d9565b611a41565b61045c6104573660046137d9565b611b3e565b6040516102349796959493929190613815565b61048261047d3660046132a1565b611d35565b6040516102349190613886565b6104a261049d366004613a0e565b61211f565b6040516102349190613abc565b6104c26104bd3660046135b9565b61222e565b6040519015158152602001610234565b6102126104e0366004613b02565b612257565b6102c0600081565b6102126104fb366004613c30565b6123ab565b61051361050e366004613cf4565b612924565b6040516102349190613d30565b61021261052e3660046135b9565b612a4c565b6102c06105413660046137b7565b612a83565b6102276105543660046137d9565b612ab4565b6102c060008051602061411983398151915281565b7f938c45fe3baa5cbd047f2473358a27f57db22291e9af95379a15ad016886dfb7610599813361222e565b6105be5760405162461bcd60e51b81526004016105b590613d71565b60405180910390fd5b6002856040516105ce9190613db4565b90815260405190819003602001902080546105e890613dd0565b1590506106375760405162461bcd60e51b815260206004820152601960248201527f53656e736f7220616c726561647920726567697374657265640000000000000060448201526064016105b5565b6040805160e08101825286815233602082015290810185600681111561065f5761065f6135f7565b81526020018481526020016001151581526020014281526020018381525060028660405161068d9190613db4565b908152604051908190036020019020815181906106aa9082613e53565b5060208201516001820180546001600160a01b039092166001600160a01b03198316811782556040850151926001600160a81b03191617600160a01b8360068111156106f8576106f86135f7565b0217905550606082015160028201906107119082613e53565b50608082015160038201805460ff191691151591909117905560a0820151600482015560c082015160058201906107489082613e53565b5050600980546001810182556000919091527f6e1540171b6c0c960b71a7020d9f60077f6af931a8bbf590da0223dacf75c7af0190506107888682613e53565b50336000908152600860209081526040822080546001810182559083529120016107b28682613e53565b506107cb600080516020614119833981519152336113b7565b7f88e2f721b8cc550dd0e039e5891e36df5d1a63d5787d3f861c234dfc9e7a69a7853386866040516108009493929190613f12565b60405180910390a15050505050565b606060046000838152602001908152602001600020805480602002602001604051908101604052809291908181526020016000905b82821015610a6057838290600052602060002090600702016040518060e001604052908160008201805461087790613dd0565b80601f01602080910402602001604051908101604052809291908181526020018280546108a390613dd0565b80156108f05780601f106108c5576101008083540402835291602001916108f0565b820191906000526020600020905b8154815290600101906020018083116108d357829003601f168201915b50505050508152602001600182015481526020016002820154815260200160038201805461091d90613dd0565b80601f016020809104026020016040519081016040528092919081815260200182805461094990613dd0565b80156109965780601f1061096b57610100808354040283529160200191610996565b820191906000526020600020905b81548152906001019060200180831161097957829003601f168201915b50505050508152602001600482015481526020016005820180546109b990613dd0565b80601f01602080910402602001604051908101604052809291908181526020018280546109e590613dd0565b8015610a325780601f10610a0757610100808354040283529160200191610a32565b820191906000526020600020905b815481529060010190602001808311610a1557829003601f168201915b5050509183525050600691909101546001600160a01b03166020918201529082526001929092019101610844565b505050509050919050565b7f938c45fe3baa5cbd047f2473358a27f57db22291e9af95379a15ad016886dfb7610a96813361222e565b610ab25760405162461bcd60e51b81526004016105b590613d71565b600083118015610ac457506001548311155b610b075760405162461bcd60e51b8152602060048201526014602482015273105b195c9d08191bd95cc81b9bdd08195e1a5cdd60621b60448201526064016105b5565b6000838152600660208190526040909120015460ff1615610b635760405162461bcd60e51b8152602060048201526016602482015275105b195c9d08185b1c9958591e481c995cdbdb1d995960521b60448201526064016105b5565b6000838152600660208190526040909120908101805460ff19166001179055600701610b8f8382613e53565b50505050565b60066020526000908152604090208054600182018054919291610bb790613dd0565b80601f0160208091040260200160405190810160405280929190818152602001828054610be390613dd0565b8015610c305780601f10610c0557610100808354040283529160200191610c30565b820191906000526020600020905b815481529060010190602001808311610c1357829003601f168201915b505050505090806002018054610c4590613dd0565b80601f0160208091040260200160405190810160405280929190818152602001828054610c7190613dd0565b8015610cbe5780601f10610c9357610100808354040283529160200191610cbe565b820191906000526020600020905b815481529060010190602001808311610ca157829003601f168201915b505050505090806003018054610cd390613dd0565b80601f0160208091040260200160405190810160405280929190818152602001828054610cff90613dd0565b8015610d4c5780601f10610d2157610100808354040283529160200191610d4c565b820191906000526020600020905b815481529060010190602001808311610d2f57829003601f168201915b5050506004840154600585015460068601546007870180549697939692955060ff909116935090610d7c90613dd0565b80601f0160208091040260200160405190810160405280929190818152602001828054610da890613dd0565b8015610df55780601f10610dca57610100808354040283529160200191610df5565b820191906000526020600020905b815481529060010190602001808311610dd857829003601f168201915b5050505050905088565b81516020818401810180516003825292820191850191909120919052805482908110610e2a57600080fd5b906000526020600020906007020160009150915050806000018054610e4e90613dd0565b80601f0160208091040260200160405190810160405280929190818152602001828054610e7a90613dd0565b8015610ec75780601f10610e9c57610100808354040283529160200191610ec7565b820191906000526020600020905b815481529060010190602001808311610eaa57829003601f168201915b505050505090806001015490806002015490806003018054610ee890613dd0565b80601f0160208091040260200160405190810160405280929190818152602001828054610f1490613dd0565b8015610f615780601f10610f3657610100808354040283529160200191610f61565b820191906000526020600020905b815481529060010190602001808311610f4457829003601f168201915b505050505090806004015490806005018054610f7c90613dd0565b80601f0160208091040260200160405190810160405280929190818152602001828054610fa890613dd0565b8015610ff55780601f10610fca57610100808354040283529160200191610ff5565b820191906000526020600020905b815481529060010190602001808311610fd857829003601f168201915b505050600690930154919250506001600160a01b031687565b6110576040518060e0016040528060608152602001600081526020016000815260200160608152602001600081526020016060815260200160006001600160a01b031681525090565b600083815260046020908152604080832080548251818502810185019093528083529192909190849084015b8282101561129f57838290600052602060002090600702016040518060e00160405290816000820180546110b690613dd0565b80601f01602080910402602001604051908101604052809291908181526020018280546110e290613dd0565b801561112f5780601f106111045761010080835404028352916020019161112f565b820191906000526020600020905b81548152906001019060200180831161111257829003601f168201915b50505050508152602001600182015481526020016002820154815260200160038201805461115c90613dd0565b80601f016020809104026020016040519081016040528092919081815260200182805461118890613dd0565b80156111d55780601f106111aa576101008083540402835291602001916111d5565b820191906000526020600020905b8154815290600101906020018083116111b857829003601f168201915b50505050508152602001600482015481526020016005820180546111f890613dd0565b80601f016020809104026020016040519081016040528092919081815260200182805461122490613dd0565b80156112715780601f1061124657610100808354040283529160200191611271565b820191906000526020600020905b81548152906001019060200180831161125457829003601f168201915b5050509183525050600691909101546001600160a01b03166020918201529082526001929092019101611083565b5050505090506000600182516112b59190613f74565b90505b60008112611368578360068111156112d2576112d26135f7565b60028383815181106112e6576112e6613f9b565b6020026020010151600001516040516112ff9190613db4565b9081526040519081900360200190206001015460ff600160a01b90910416600681111561132e5761132e6135f7565b036113565781818151811061134557611345613f9b565b6020026020010151925050506113b1565b8061136081613fb1565b9150506112b8565b5060405162461bcd60e51b815260206004820181905260248201527f4e6f2072656164696e6720666f756e6420666f722073656e736f72207479706560448201526064016105b5565b92915050565b6000828152602081905260409020600101546113d4905b3361222e565b6113f05760405162461bcd60e51b81526004016105b590613fce565b6113fa8282612d69565b5050565b6001600160a01b038116331461146e5760405162461bcd60e51b815260206004820152602f60248201527f416363657373436f6e74726f6c3a2063616e206f6e6c792072656e6f756e636560448201526e103937b632b9903337b91039b2b63360891b60648201526084016105b5565b6113fa8282612dd0565b600560205260009081526040902080546001820154600283015460038401805460ff9094169492939192916114ac90613dd0565b80601f01602080910402602001604051908101604052809291908181526020018280546114d890613dd0565b80156115255780601f106114fa57610100808354040283529160200191611525565b820191906000526020600020905b81548152906001019060200180831161150857829003601f168201915b5050506004909301549192505060ff1685565b6001600160a01b0381166000908152600860209081526040808320805482518185028101850190935280835260609492939192909184015b82821015610a6057838290600052602060002001805461158f90613dd0565b80601f01602080910402602001604051908101604052809291908181526020018280546115bb90613dd0565b80156116085780601f106115dd57610100808354040283529160200191611608565b820191906000526020600020905b8154815290600101906020018083116115eb57829003601f168201915b505050505081526020019060010190611570565b84600060028260405161162f9190613db4565b908152604051908190036020019020805461164990613dd0565b9050116116685760405162461bcd60e51b81526004016105b590614014565b600080516020614119833981519152611681813361222e565b61169d5760405162461bcd60e51b81526004016105b590613d71565b6002876040516116ad9190613db4565b9081526040519081900360200190206003015460ff166117045760405162461bcd60e51b815260206004820152601260248201527153656e736f7220697320696e61637469766560701b60448201526064016105b5565b600086116117495760405162461bcd60e51b8152602060048201526012602482015271125b9d985b1a59081c1c9bd91d58dd08125160721b60448201526064016105b5565b6040805160e081018252888152602081018890528082018790526060810186905242608082015260a081018590523360c0820152905160039061178d908a90613db4565b9081526040516020918190038201902080546001810182556000918252919020825183926007029091019081906117c49082613e53565b506020820151600182015560408201516002820155606082015160038201906117ed9082613e53565b506080820151600482015560a0820151600582019061180c9082613e53565b5060c09190910151600690910180546001600160a01b0319166001600160a01b0390921691909117905560008781526004602090815260408220805460018101825590835291208251839260070290910190819061186a9082613e53565b506020820151600182015560408201516002820155606082015160038201906118939082613e53565b506080820151600482015560a082015160058201906118b29082613e53565b5060c09190910151600690910180546001600160a01b0319166001600160a01b039092169190911790556118e7888888612e35565b86886040516118f69190613db4565b60405180910390207f42e59dab04bb1a1119755dbb0231b82d757bab1fc0b13e4cde2b9fcfe1b97dc7864260405161192f929190614043565b60405180910390a35050505050505050565b6008602052816000526040600020818154811061195d57600080fd5b9060005260206000200160009150915050805461197990613dd0565b80601f01602080910402602001604051908101604052809291908181526020018280546119a590613dd0565b80156119f25780601f106119c7576101008083540402835291602001916119f2565b820191906000526020600020905b8154815290600101906020018083116119d557829003601f168201915b505050505081565b60098181548110611a0a57600080fd5b90600052602060002001600091509050805461197990613dd0565b60046020528160005260406000208181548110610e2a57600080fd5b806000600282604051611a549190613db4565b9081526040519081900360200190208054611a6e90613dd0565b905011611a8d5760405162461bcd60e51b81526004016105b590614014565b81336001600160a01b0316600282604051611aa89190613db4565b908152604051908190036020019020600101546001600160a01b031614611b045760405162461bcd60e51b815260206004820152601060248201526f2737ba1039b2b739b7b91037bbb732b960811b60448201526064016105b5565b6000600284604051611b169190613db4565b908152604051908190036020019020600301805491151560ff19909216919091179055505050565b8051602081830181018051600282529282019190930120915280548190611b6490613dd0565b80601f0160208091040260200160405190810160405280929190818152602001828054611b9090613dd0565b8015611bdd5780601f10611bb257610100808354040283529160200191611bdd565b820191906000526020600020905b815481529060010190602001808311611bc057829003601f168201915b50505050600183015460028401805493946001600160a01b03831694600160a01b90930460ff16935091611c1090613dd0565b80601f0160208091040260200160405190810160405280929190818152602001828054611c3c90613dd0565b8015611c895780601f10611c5e57610100808354040283529160200191611c89565b820191906000526020600020905b815481529060010190602001808311611c6c57829003601f168201915b5050505060038301546004840154600585018054949560ff9093169491935090611cb290613dd0565b80601f0160208091040260200160405190810160405280929190818152602001828054611cde90613dd0565b8015611d2b5780601f10611d0057610100808354040283529160200191611d2b565b820191906000526020600020905b815481529060010190602001808311611d0e57829003601f168201915b5050505050905087565b6000818152600760209081526040808320805482518185028101850190935280835260609493830182828015611d8a57602002820191906000526020600020905b815481526020019060010190808311611d76575b50505050509050600081516001600160401b03811115611dac57611dac613140565b604051908082528060200260200182016040528015611e2757816020015b611e14604051806101000160405280600081526020016060815260200160608152602001606081526020016000815260200160008152602001600015158152602001606081525090565b815260200190600190039081611dca5790505b50905060005b82518110156121175760066000848381518110611e4c57611e4c613f9b565b602002602001015181526020019081526020016000206040518061010001604052908160008201548152602001600182018054611e8890613dd0565b80601f0160208091040260200160405190810160405280929190818152602001828054611eb490613dd0565b8015611f015780601f10611ed657610100808354040283529160200191611f01565b820191906000526020600020905b815481529060010190602001808311611ee457829003601f168201915b50505050508152602001600282018054611f1a90613dd0565b80601f0160208091040260200160405190810160405280929190818152602001828054611f4690613dd0565b8015611f935780601f10611f6857610100808354040283529160200191611f93565b820191906000526020600020905b815481529060010190602001808311611f7657829003601f168201915b50505050508152602001600382018054611fac90613dd0565b80601f0160208091040260200160405190810160405280929190818152602001828054611fd890613dd0565b80156120255780601f10611ffa57610100808354040283529160200191612025565b820191906000526020600020905b81548152906001019060200180831161200857829003601f168201915b50505091835250506004820154602082015260058201546040820152600682015460ff161515606082015260078201805460809092019161206590613dd0565b80601f016020809104026020016040519081016040528092919081815260200182805461209190613dd0565b80156120de5780601f106120b3576101008083540402835291602001916120de565b820191906000526020600020905b8154815290600101906020018083116120c157829003601f168201915b5050505050815250508282815181106120f9576120f9613f9b565b6020026020010181905250808061210f90614065565b915050611e2d565b509392505050565b6060815183511461216b5760405162461bcd60e51b8152602060048201526016602482015275082e4e4c2f2e640d8cadccee8d040dad2e6dac2e8c6d60531b60448201526064016105b5565b600083516001600160401b0381111561218657612186613140565b6040519080825280602002602001820160405280156121af578160200160208202803683370190505b50905060005b8451811015612117576121fa8582815181106121d3576121d3613f9b565b60200260200101518583815181106121ed576121ed613f9b565b602002602001015161222e565b82828151811061220c5761220c613f9b565b911515602092830291909101909101528061222681614065565b9150506121b5565b6000918252602082815260408084206001600160a01b0393909316845291905290205460ff1690565b7fa49807205ce4d355092ef5a8a18f56e8913cf4a201fbe287825b095693c21775612282813361222e565b61229e5760405162461bcd60e51b81526004016105b590613d71565b6040518060a001604052808660068111156122bb576122bb6135f7565b815260200185815260200184815260200183815260200160011515815250600560008760068111156122ef576122ef6135f7565b6006811115612300576123006135f7565b8152602081019190915260400160002081518154829060ff1916600183600681111561232e5761232e6135f7565b021790555060208201516001820155604082015160028201556060820151600382019061235b9082613e53565b50608091909101516004909101805460ff19169115159190911790556040517f05a72bf03262e35aac2b6f62b425a3025450125ed4e5f633f9e934c497fe0d27906108009087908790879061407e565b6000805160206141198339815191526123c4813361222e565b6123e05760405162461bcd60e51b81526004016105b590613d71565b84518651146124015760405162461bcd60e51b81526004016105b59061409d565b83518651146124225760405162461bcd60e51b81526004016105b59061409d565b82518651146124435760405162461bcd60e51b81526004016105b59061409d565b81518651146124645760405162461bcd60e51b81526004016105b59061409d565b60005b865181101561291b576000600288838151811061248657612486613f9b565b602002602001015160405161249b9190613db4565b90815260405190819003602001902080546124b590613dd0565b9050116124d45760405162461bcd60e51b81526004016105b590614014565b60028782815181106124e8576124e8613f9b565b60200260200101516040516124fd9190613db4565b9081526040519081900360200190206003015460ff166125545760405162461bcd60e51b815260206004820152601260248201527153656e736f7220697320696e61637469766560701b60448201526064016105b5565b600086828151811061256857612568613f9b565b6020026020010151116125b25760405162461bcd60e51b8152602060048201526012602482015271125b9d985b1a59081c1c9bd91d58dd08125160721b60448201526064016105b5565b60006040518060e001604052808984815181106125d1576125d1613f9b565b602002602001015181526020018884815181106125f0576125f0613f9b565b6020026020010151815260200187848151811061260f5761260f613f9b565b6020026020010151815260200186848151811061262e5761262e613f9b565b6020026020010151815260200142815260200185848151811061265357612653613f9b565b60200260200101518152602001336001600160a01b03168152509050600388838151811061268357612683613f9b565b60200260200101516040516126989190613db4565b9081526040516020918190038201902080546001810182556000918252919020825183926007029091019081906126cf9082613e53565b506020820151600182015560408201516002820155606082015160038201906126f89082613e53565b506080820151600482015560a082015160058201906127179082613e53565b5060c08201518160060160006101000a8154816001600160a01b0302191690836001600160a01b0316021790555050506004600088848151811061275d5761275d613f9b565b602090810291909101810151825281810192909252604001600090812080546001810182559082529190208251839260070290910190819061279f9082613e53565b506020820151600182015560408201516002820155606082015160038201906127c89082613e53565b506080820151600482015560a082015160058201906127e79082613e53565b5060c08201518160060160006101000a8154816001600160a01b0302191690836001600160a01b03160217905550505061286d88838151811061282c5761282c613f9b565b602002602001015188848151811061284657612846613f9b565b602002602001015188858151811061286057612860613f9b565b6020026020010151612e35565b86828151811061287f5761287f613f9b565b602002602001015188838151811061289957612899613f9b565b60200260200101516040516128ae9190613db4565b60405180910390207f42e59dab04bb1a1119755dbb0231b82d757bab1fc0b13e4cde2b9fcfe1b97dc78685815181106128e9576128e9613f9b565b602002602001015142604051612900929190614043565b60405180910390a3508061291381614065565b915050612467565b50505050505050565b60606000805b835181101561296e57612949858583815181106121ed576121ed613f9b565b1561295c578161295881614065565b9250505b8061296681614065565b91505061292a565b506000816001600160401b0381111561298957612989613140565b6040519080825280602002602001820160405280156129b2578160200160208202803683370190505b5090506000805b8551811015612a41576129d8878783815181106121ed576121ed613f9b565b15612a2f578581815181106129ef576129ef613f9b565b6020026020010151838381518110612a0957612a09613f9b565b6001600160a01b039092166020928302919091019091015281612a2b81614065565b9250505b80612a3981614065565b9150506129b9565b509095945050505050565b600082815260208190526040902060010154612a67906113ce565b61146e5760405162461bcd60e51b81526004016105b590613fce565b60076020528160005260406000208181548110612a9f57600080fd5b90600052602060002001600091509150505481565b6060816000600282604051612ac99190613db4565b9081526040519081900360200190208054612ae390613dd0565b905011612b025760405162461bcd60e51b81526004016105b590614014565b600383604051612b129190613db4565b9081526020016040518091039020805480602002602001604051908101604052809291908181526020016000905b82821015612d5c57838290600052602060002090600702016040518060e0016040529081600082018054612b7390613dd0565b80601f0160208091040260200160405190810160405280929190818152602001828054612b9f90613dd0565b8015612bec5780601f10612bc157610100808354040283529160200191612bec565b820191906000526020600020905b815481529060010190602001808311612bcf57829003601f168201915b505050505081526020016001820154815260200160028201548152602001600382018054612c1990613dd0565b80601f0160208091040260200160405190810160405280929190818152602001828054612c4590613dd0565b8015612c925780601f10612c6757610100808354040283529160200191612c92565b820191906000526020600020905b815481529060010190602001808311612c7557829003601f168201915b5050505050815260200160048201548152602001600582018054612cb590613dd0565b80601f0160208091040260200160405190810160405280929190818152602001828054612ce190613dd0565b8015612d2e5780601f10612d0357610100808354040283529160200191612d2e565b820191906000526020600020905b815481529060010190602001808311612d1157829003601f168201915b5050509183525050600691909101546001600160a01b03166020918201529082526001929092019101612b40565b5050505091505b50919050565b612d73828261222e565b6113fa576000828152602081815260408083206001600160a01b0385168085529252808320805460ff1916600117905551339285917f2f8788117e7eff1d82e926ec794901d17c78024a50270940304540a733656f0d9190a45050565b612dda828261222e565b156113fa576000828152602081815260408083206001600160a01b0385168085529252808320805460ff1916905551339285917ff6391f5c32d9c69d2a47ea670b442974b53935d1edc7fd64eb21e047a839171b9190a45050565b6000600284604051612e479190613db4565b9081526040519081900360200190206001015460ff600160a01b9091041690506000600581836006811115612e7e57612e7e6135f7565b6006811115612e8f57612e8f6135f7565b815260208101919091526040908101600020815160a081019092528054829060ff166006811115612ec257612ec26135f7565b6006811115612ed357612ed36135f7565b81526020016001820154815260200160028201548152602001600382018054612efb90613dd0565b80601f0160208091040260200160405190810160405280929190818152602001828054612f2790613dd0565b8015612f745780601f10612f4957610100808354040283529160200191612f74565b820191906000526020600020905b815481529060010190602001808311612f5757829003601f168201915b50505091835250506004919091015460ff16151560209091015260808101519091508015612fb257508060200151831280612fb25750806040015183135b156131395760018054906000612fc783614065565b9091555050604080516101008101825285815260208082018881528351808501855260138152722a242922a9a427a6222fab24a7a620aa24a7a760691b818401528385015260608581015190840152608083018790524260a0840152600060c084018190528451808401865281815260e0850152600180548252600690935293909320825181559251919291908201906130619082613e53565b50604082015160028201906130769082613e53565b506060820151600382019061308b9082613e53565b506080820151600482015560a0820151600582015560c082015160068201805460ff191691151591909117905560e082015160078201906130cc9082613e53565b5050506000848152600760209081526040808320600180548254918201835591855292909320909101919091556060820151905185917f6af8a40f8a661f2ea1898dc041375ba059bc15f9120cb2c9cae247243d14e53491613130919042906140cc565b60405180910390a25b5050505050565b634e487b7160e01b600052604160045260246000fd5b604051601f8201601f191681016001600160401b038111828210171561317e5761317e613140565b604052919050565b600082601f83011261319757600080fd5b81356001600160401b038111156131b0576131b0613140565b6131c3601f8201601f1916602001613156565b8181528460208386010111156131d857600080fd5b816020850160208301376000918101602001919091529392505050565b80356007811061320457600080fd5b919050565b6000806000806080858703121561321f57600080fd5b84356001600160401b038082111561323657600080fd5b61324288838901613186565b9550613250602088016131f5565b9450604087013591508082111561326657600080fd5b61327288838901613186565b9350606087013591508082111561328857600080fd5b5061329587828801613186565b91505092959194509250565b6000602082840312156132b357600080fd5b5035919050565b60005b838110156132d55781810151838201526020016132bd565b50506000910152565b600081518084526132f68160208601602086016132ba565b601f01601f19169290920160200192915050565b6000815160e0845261331f60e08501826132de565b905060208301516020850152604083015160408501526060830151848203606086015261334c82826132de565b9150506080830151608085015260a083015184820360a086015261337082826132de565b60c0948501516001600160a01b03169590940194909452509092915050565b6000602080830181845280855180835260408601915060408160051b870101925083870160005b828110156133e457603f198886030184526133d285835161330a565b945092850192908501906001016133b6565b5092979650505050505050565b6000806040838503121561340457600080fd5b8235915060208301356001600160401b0381111561342157600080fd5b61342d85828601613186565b9150509250929050565b60006101008a83528060208401526134518184018b6132de565b90508281036040840152613465818a6132de565b9050828103606084015261347981896132de565b90508660808401528560a084015284151560c084015282810360e08401526134a181856132de565b9b9a5050505050505050505050565b600080604083850312156134c357600080fd5b82356001600160401b038111156134d957600080fd5b6134e585828601613186565b95602094909401359450505050565b60e08152600061350760e083018a6132de565b886020840152876040840152828103606084015261352581886132de565b905085608084015282810360a084015261353f81866132de565b91505060018060a01b03831660c083015298975050505050505050565b6000806040838503121561356f57600080fd5b8235915061357f602084016131f5565b90509250929050565b60208152600061359b602083018461330a565b9392505050565b80356001600160a01b038116811461320457600080fd5b600080604083850312156135cc57600080fd5b8235915061357f602084016135a2565b6000602082840312156135ee57600080fd5b61359b826131f5565b634e487b7160e01b600052602160045260246000fd5b6007811061362b57634e487b7160e01b600052602160045260246000fd5b9052565b613639818761360d565b84602082015283604082015260a06060820152600061365b60a08301856132de565b905082151560808301529695505050505050565b60006020828403121561368157600080fd5b61359b826135a2565b6000602080830181845280855180835260408601915060408160051b870101925083870160005b828110156133e457603f198886030184526136cd8583516132de565b945092850192908501906001016136b1565b600080600080600060a086880312156136f757600080fd5b85356001600160401b038082111561370e57600080fd5b61371a89838a01613186565b96506020880135955060408801359450606088013591508082111561373e57600080fd5b61374a89838a01613186565b9350608088013591508082111561376057600080fd5b5061376d88828901613186565b9150509295509295909350565b6000806040838503121561378d57600080fd5b613796836135a2565b946020939093013593505050565b60208152600061359b60208301846132de565b600080604083850312156137ca57600080fd5b50508035926020909101359150565b6000602082840312156137eb57600080fd5b81356001600160401b0381111561380157600080fd5b61380d84828501613186565b949350505050565b60e08152600061382860e083018a6132de565b6001600160a01b0389166020840152613844604084018961360d565b828103606084015261385681886132de565b905085151560808401528460a084015282810360c084015261387881856132de565b9a9950505050505050505050565b60006020808301818452808551808352604092508286019150828160051b87010184880160005b8381101561396b57603f1989840301855281516101008151855288820151818a8701526138dc828701826132de565b91505087820151858203898701526138f482826132de565b9150506060808301518683038288015261390e83826132de565b92505050608080830151818701525060a080830151818701525060c08083015161393b8288018215159052565b505060e0808301519250858203818701525061395781836132de565b9689019694505050908601906001016138ad565b509098975050505050505050565b60006001600160401b0382111561399257613992613140565b5060051b60200190565b600082601f8301126139ad57600080fd5b813560206139c26139bd83613979565b613156565b82815260059290921b840181019181810190868411156139e157600080fd5b8286015b84811015613a03576139f6816135a2565b83529183019183016139e5565b509695505050505050565b60008060408385031215613a2157600080fd5b82356001600160401b0380821115613a3857600080fd5b818501915085601f830112613a4c57600080fd5b81356020613a5c6139bd83613979565b82815260059290921b84018101918181019089841115613a7b57600080fd5b948201945b83861015613a9957853582529482019490820190613a80565b96505086013592505080821115613aaf57600080fd5b5061342d8582860161399c565b6020808252825182820181905260009190848201906040850190845b81811015613af6578351151583529284019291840191600101613ad8565b50909695505050505050565b60008060008060808587031215613b1857600080fd5b613b21856131f5565b9350602085013592506040850135915060608501356001600160401b03811115613b4a57600080fd5b61329587828801613186565b600082601f830112613b6757600080fd5b81356020613b776139bd83613979565b82815260059290921b84018101918181019086841115613b9657600080fd5b8286015b84811015613a035780356001600160401b03811115613bb95760008081fd5b613bc78986838b0101613186565b845250918301918301613b9a565b600082601f830112613be657600080fd5b81356020613bf66139bd83613979565b82815260059290921b84018101918181019086841115613c1557600080fd5b8286015b84811015613a035780358352918301918301613c19565b600080600080600060a08688031215613c4857600080fd5b85356001600160401b0380821115613c5f57600080fd5b613c6b89838a01613b56565b96506020880135915080821115613c8157600080fd5b613c8d89838a01613bd5565b95506040880135915080821115613ca357600080fd5b613caf89838a01613bd5565b94506060880135915080821115613cc557600080fd5b613cd189838a01613b56565b93506080880135915080821115613ce757600080fd5b5061376d88828901613b56565b60008060408385031215613d0757600080fd5b8235915060208301356001600160401b03811115613d2457600080fd5b61342d8582860161399c565b6020808252825182820181905260009190848201906040850190845b81811015613af65783516001600160a01b031683529284019291840191600101613d4c565b60208082526023908201527f416363657373436f6e74726f6c3a206163636f756e74206d697373696e6720726040820152626f6c6560e81b606082015260800190565b60008251613dc68184602087016132ba565b9190910192915050565b600181811c90821680613de457607f821691505b602082108103612d6357634e487b7160e01b600052602260045260246000fd5b601f821115613e4e57600081815260208120601f850160051c81016020861015613e2b5750805b601f850160051c820191505b81811015613e4a57828155600101613e37565b5050505b505050565b81516001600160401b03811115613e6c57613e6c613140565b613e8081613e7a8454613dd0565b84613e04565b602080601f831160018114613eb55760008415613e9d5750858301515b600019600386901b1c1916600185901b178555613e4a565b600085815260208120601f198616915b82811015613ee457888601518255948401946001909101908401613ec5565b5085821015613f025787850151600019600388901b60f8161c191681555b5050505050600190811b01905550565b608081526000613f2560808301876132de565b6001600160a01b0386166020840152613f41604084018661360d565b8281036060840152613f5381856132de565b979650505050505050565b634e487b7160e01b600052601160045260246000fd5b8181036000831280158383131683831282161715613f9457613f94613f5e565b5092915050565b634e487b7160e01b600052603260045260246000fd5b6000600160ff1b8201613fc657613fc6613f5e565b506000190190565b60208082526026908201527f416363657373436f6e74726f6c3a2073656e646572206d75737420626520616e6040820152651030b236b4b760d11b606082015260800190565b60208082526015908201527414d95b9cdbdc88191bd95cc81b9bdd08195e1a5cdd605a1b604082015260600190565b60408152600061405660408301856132de565b90508260208301529392505050565b60006001820161407757614077613f5e565b5060010190565b6060810161408c828661360d565b602082019390935260400152919050565b602080825260159082015274082e4e4c2f240d8cadccee8d040dad2e6dac2e8c6d605b1b604082015260600190565b6060815260136060820152722a242922a9a427a6222fab24a7a620aa24a7a760691b608082015260a06020820152600061410960a08301856132de565b9050826040830152939250505056fe3fd1570350ad82b8536c3ba26e9b65482f86a92bc0631d77bd1bb4bc20357473a2646970667358221220c00f5b6f01821aabe1429c25ff0b3bc1791ca143606510d8213c5c5b7509087264736f6c63430008130033",
  "immutableReferences": {},
  "source": "// SPDX-License-Identifier: MIT\r\npragma solidity ^0.8.19;\r\n\r\nimport \"./AccessControl.sol\";\r\n\r\n/**\r\n * @title IoTIntegration\r\n * @dev Contract for integrating IoT devices and sensor data into supply chain\r\n */\r\ncontract IoTIntegration is AccessControl {\r\n    \r\n    // Events\r\n    event SensorRegistered(string sensorId, address owner, SensorType sensorType, string description);\r\n    event SensorDataRecorded(string indexed sensorId, uint256 indexed productId, bytes data, uint256 timestamp);\r\n    event AlertTriggered(uint256 indexed productId, string alertType, string message, uint256 timestamp);\r\n    event ThresholdSet(SensorType sensorType, int256 minValue, int256 maxValue);\r\n    // Sensor types\r\n    enum SensorType {\r\n        Temperature,\r\n        Humidity,\r\n        Pressure,\r\n        Location,\r\n        Shock,\r\n        Light,\r\n        Custom\r\n    }\r\n    \r\n    // Sensor information\r\n    struct Sensor {\r\n        string sensorId;\r\n        address owner;\r\n        SensorType sensorType;\r\n        string description;\r\n        bool isActive;\r\n        uint256 registeredAt;\r\n        string calibrationData;\r\n    }\r\n    \r\n    // Sensor reading\r\n    struct SensorReading {\r\n        string sensorId;\r\n        uint256 productId;\r\n        int256 value;\r\n        string unit;\r\n        uint256 timestamp;\r\n        bytes additionalData;\r\n        address recorder;\r\n    }\r\n    \r\n    // Threshold for alerts\r\n    struct Threshold {\r\n        SensorType sensorType;\r\n        int256 minValue;\r\n        int256 maxValue;\r\n        string alertMessage;\r\n        bool isActive;\r\n    }\r\n    \r\n    // Alert information\r\n    struct Alert {\r\n        uint256 productId;\r\n        string sensorId;\r\n        string alertType;\r\n        string message;\r\n        int256 triggerValue;\r\n        uint256 timestamp;\r\n        bool isResolved;\r\n        string resolution;\r\n    }\r\n    \r\n    // State variables\r\n    uint256 private alertCounter;\r\n    \r\n    // Mappings\r\n    mapping(string => Sensor) public sensors;\r\n    mapping(string => SensorReading[]) public sensorReadings;\r\n    mapping(uint256 => SensorReading[]) public productSensorData;\r\n    mapping(SensorType => Threshold) public thresholds;\r\n    mapping(uint256 => Alert) public alerts;\r\n    mapping(uint256 => uint256[]) public productAlerts; // productId => alertIds\r\n    mapping(address => string[]) public ownerSensors;\r\n    \r\n    // Arrays for iteration\r\n    string[] public sensorIds;\r\n    \r\n    modifier sensorExists(string memory _sensorId) {\r\n        require(bytes(sensors[_sensorId].sensorId).length > 0, \"Sensor does not exist\");\r\n        _;\r\n    }\r\n    \r\n    modifier onlySensorOwner(string memory _sensorId) {\r\n        require(sensors[_sensorId].owner == msg.sender, \"Not sensor owner\");\r\n        _;\r\n    }\r\n    \r\n    constructor() {\r\n        _setupRole(DEFAULT_ADMIN_ROLE, msg.sender);\r\n        _setupRole(ADMIN_ROLE, msg.sender);\r\n        \r\n        // Set default thresholds\r\n        _setDefaultThresholds();\r\n    }\r\n    \r\n    /**\r\n     * @dev Register a new IoT sensor\r\n     */\r\n    function registerSensor(\r\n        string memory _sensorId,\r\n        SensorType _sensorType,\r\n        string memory _description,\r\n        string memory _calibrationData\r\n    ) external onlyRole(PARTICIPANT_ROLE) {\r\n        require(bytes(sensors[_sensorId].sensorId).length == 0, \"Sensor already registered\");\r\n        \r\n        sensors[_sensorId] = Sensor({\r\n            sensorId: _sensorId,\r\n            owner: msg.sender,\r\n            sensorType: _sensorType,\r\n            description: _description,\r\n            isActive: true,\r\n            registeredAt: block.timestamp,\r\n            calibrationData: _calibrationData\r\n        });\r\n        \r\n        sensorIds.push(_sensorId);\r\n        ownerSensors[msg.sender].push(_sensorId);\r\n        \r\n        // Grant IoT device role to sensor owner for this sensor\r\n        grantRole(IOT_DEVICE_ROLE, msg.sender);\r\n        \r\n        emit SensorRegistered(_sensorId, msg.sender, _sensorType, _description);\r\n    }\r\n    \r\n    /**\r\n     * @dev Record sensor data\r\n     */\r\n    function recordSensorData(\r\n        string memory _sensorId,\r\n        uint256 _productId,\r\n        int256 _value,\r\n        string memory _unit,\r\n        bytes memory _additionalData\r\n    ) external sensorExists(_sensorId) onlyRole(IOT_DEVICE_ROLE) {\r\n        require(sensors[_sensorId].isActive, \"Sensor is inactive\");\r\n        require(_productId > 0, \"Invalid product ID\");\r\n        \r\n        SensorReading memory reading = SensorReading({\r\n            sensorId: _sensorId,\r\n            productId: _productId,\r\n            value: _value,\r\n            unit: _unit,\r\n            timestamp: block.timestamp,\r\n            additionalData: _additionalData,\r\n            recorder: msg.sender\r\n        });\r\n        \r\n        sensorReadings[_sensorId].push(reading);\r\n        productSensorData[_productId].push(reading);\r\n        \r\n        // Check for threshold violations\r\n        _checkThresholds(_sensorId, _productId, _value);\r\n        \r\n        emit SensorDataRecorded(_sensorId, _productId, _additionalData, block.timestamp);\r\n    }\r\n    \r\n    /**\r\n     * @dev Batch record multiple sensor readings (gas optimization)\r\n     */\r\n    function batchRecordSensorData(\r\n        string[] memory _sensorIds,\r\n        uint256[] memory _productIds,\r\n        int256[] memory _values,\r\n        string[] memory _units,\r\n        bytes[] memory _additionalData\r\n    ) external onlyRole(IOT_DEVICE_ROLE) {\r\n        require(_sensorIds.length == _productIds.length, \"Array length mismatch\");\r\n        require(_sensorIds.length == _values.length, \"Array length mismatch\");\r\n        require(_sensorIds.length == _units.length, \"Array length mismatch\");\r\n        require(_sensorIds.length == _additionalData.length, \"Array length mismatch\");\r\n        \r\n        for (uint256 i = 0; i < _sensorIds.length; i++) {\r\n            require(bytes(sensors[_sensorIds[i]].sensorId).length > 0, \"Sensor does not exist\");\r\n            require(sensors[_sensorIds[i]].isActive, \"Sensor is inactive\");\r\n            require(_productIds[i] > 0, \"Invalid product ID\");\r\n            \r\n            SensorReading memory reading = SensorReading({\r\n                sensorId: _sensorIds[i],\r\n                productId: _productIds[i],\r\n                value: _values[i],\r\n                unit: _units[i],\r\n                timestamp: block.timestamp,\r\n                additionalData: _additionalData[i],\r\n                recorder: msg.sender\r\n            });\r\n            \r\n            sensorReadings[_sensorIds[i]].push(reading);\r\n            productSensorData[_productIds[i]].push(reading);\r\n            \r\n            _checkThresholds(_sensorIds[i], _productIds[i], _values[i]);\r\n            \r\n            emit SensorDataRecorded(_sensorIds[i], _productIds[i], _additionalData[i], block.timestamp);\r\n        }\r\n    }\r\n    \r\n    /**\r\n     * @dev Set threshold for sensor type\r\n     */\r\n    function setThreshold(\r\n        SensorType _sensorType,\r\n        int256 _minValue,\r\n        int256 _maxValue,\r\n        string memory _alertMessage\r\n    ) external onlyRole(ADMIN_ROLE) {\r\n        thresholds[_sensorType] = Threshold({\r\n            sensorType: _sensorType,\r\n            minValue: _minValue,\r\n            maxValue: _maxValue,\r\n            alertMessage: _alertMessage,\r\n            isActive: true\r\n        });\r\n        \r\n        emit ThresholdSet(_sensorType, _minValue, _maxValue);\r\n    }\r\n    \r\n    /**\r\n     * @dev Deactivate a sensor\r\n     */\r\n    function deactivateSensor(string memory _sensorId) \r\n        external \r\n        sensorExists(_sensorId) \r\n        onlySensorOwner(_sensorId) {\r\n        sensors[_sensorId].isActive = false;\r\n    }\r\n    \r\n    /**\r\n     * @dev Resolve an alert\r\n     */\r\n    function resolveAlert(\r\n        uint256 _alertId,\r\n        string memory _resolution\r\n    ) external onlyRole(PARTICIPANT_ROLE) {\r\n        require(_alertId > 0 && _alertId <= alertCounter, \"Alert does not exist\");\r\n        require(!alerts[_alertId].isResolved, \"Alert already resolved\");\r\n        \r\n        alerts[_alertId].isResolved = true;\r\n        alerts[_alertId].resolution = _resolution;\r\n    }\r\n    \r\n    /**\r\n     * @dev Get sensor readings for a product\r\n     */\r\n    function getProductSensorData(uint256 _productId) \r\n        external \r\n        view \r\n        returns (SensorReading[] memory) {\r\n        return productSensorData[_productId];\r\n    }\r\n    \r\n    /**\r\n     * @dev Get readings from a specific sensor\r\n     */\r\n    function getSensorReadings(string memory _sensorId) \r\n        external \r\n        view \r\n        sensorExists(_sensorId) \r\n        returns (SensorReading[] memory) {\r\n        return sensorReadings[_sensorId];\r\n    }\r\n    \r\n    /**\r\n     * @dev Get alerts for a product\r\n     */\r\n    function getProductAlerts(uint256 _productId) \r\n        external \r\n        view \r\n        returns (Alert[] memory) {\r\n        uint256[] memory alertIds = productAlerts[_productId];\r\n        Alert[] memory productAlertsList = new Alert[](alertIds.length);\r\n        \r\n        for (uint256 i = 0; i < alertIds.length; i++) {\r\n            productAlertsList[i] = alerts[alertIds[i]];\r\n        }\r\n        \r\n        return productAlertsList;\r\n    }\r\n    \r\n    /**\r\n     * @dev Get sensors owned by an address\r\n     */\r\n    function getOwnerSensors(address _owner) \r\n        external \r\n        view \r\n        returns (string[] memory) {\r\n        return ownerSensors[_owner];\r\n    }\r\n    \r\n    /**\r\n     * @dev Get latest sensor reading for a product and sensor type\r\n     */\r\n    function getLatestReading(uint256 _productId, SensorType _sensorType) \r\n        external \r\n        view \r\n        returns (SensorReading memory) {\r\n        SensorReading[] memory readings = productSensorData[_productId];\r\n        \r\n        for (int256 i = int256(readings.length) - 1; i >= 0; i--) {\r\n            if (sensors[readings[uint256(i)].sensorId].sensorType == _sensorType) {\r\n                return readings[uint256(i)];\r\n            }\r\n        }\r\n        \r\n        revert(\"No reading found for sensor type\");\r\n    }\r\n    \r\n    /**\r\n     * @dev Check if sensor data is within acceptable ranges\r\n     */\r\n    function _checkThresholds(\r\n        string memory _sensorId,\r\n        uint256 _productId,\r\n        int256 _value\r\n    ) private {\r\n        SensorType sensorType = sensors[_sensorId].sensorType;\r\n        Threshold memory threshold = thresholds[sensorType];\r\n        \r\n        if (threshold.isActive && \r\n            (_value < threshold.minValue || _value > threshold.maxValue)) {\r\n            \r\n            alertCounter++;\r\n            alerts[alertCounter] = Alert({\r\n                productId: _productId,\r\n                sensorId: _sensorId,\r\n                alertType: \"THRESHOLD_VIOLATION\",\r\n                message: threshold.alertMessage,\r\n                triggerValue: _value,\r\n                timestamp: block.timestamp,\r\n                isResolved: false,\r\n                resolution: \"\"\r\n            });\r\n            \r\n            productAlerts[_productId].push(alertCounter);\r\n            \r\n            emit AlertTriggered(_productId, \"THRESHOLD_VIOLATION\", threshold.alertMessage, block.timestamp);\r\n        }\r\n    }\r\n    \r\n    /**\r\n     * @dev Set default thresholds for common sensor types\r\n     */\r\n    function _setDefaultThresholds() private {\r\n        // Temperature: -20C to 50C\r\n        thresholds[SensorType.Temperature] = Threshold({\r\n            sensorType: SensorType.Temperature,\r\n            minValue: -20,\r\n            maxValue: 50,\r\n            alertMessage: \"Temperature out of safe range\",\r\n            isActive: true\r\n        });\r\n        \r\n        // Humidity: 0% to 100%\r\n        thresholds[SensorType.Humidity] = Threshold({\r\n            sensorType: SensorType.Humidity,\r\n            minValue: 0,\r\n            maxValue: 100,\r\n            alertMessage: \"Humidity out of safe range\",\r\n            isActive: true\r\n        });\r\n        \r\n        // Pressure: 800 to 1200 hPa\r\n        thresholds[SensorType.Pressure] = Threshold({\r\n            sensorType: SensorType.Pressure,\r\n            minValue: 800,\r\n            maxValue: 1200,\r\n            alertMessage: \"Pressure out of safe range\",\r\n            isActive: true\r\n        });\r\n    }\r\n    \r\n    // Utility functions\r\n    function getAlertCount() external view returns (uint256) {\r\n        return alertCounter;\r\n    }\r\n    \r\n    function getSensorCount() external view returns (uint256) {\r\n        return sensorIds.length;\r\n    }\r\n}",
  "sourcePath": "C:\\projects\\BLOCKCHAIN_PROJECT\\contracts\\IoTIntegration.sol",
  "compiler": {
    "name": "solc",
    "version": "0.8.19+commit.7dd6d404.Emscripten.clang"
  },
  "schemaVersion": "3.4.16",
  "updatedAt": "2025-08-21T12:02:30.788Z",
  "networkType": "ethereum",
  "devdoc": {
    "details": "Contract for integrating IoT devices and sensor data into supply chain",
    "kind": "dev",
    "methods": {
      "batchRecordSensorData(string[],uint256[],int256[],string[],bytes[])": {
        "details": "Batch record multiple sensor readings (gas optimization)"
      },
      "deactivateSensor(string)": {
        "details": "Deactivate a sensor"
      },
      "getLatestReading(uint256,uint8)": {
        "details": "Get latest sensor reading for a product and sensor type"
      },
      "getOwnerSensors(address)": {
        "details": "Get sensors owned by an address"
      },
      "getProductAlerts(uint256)": {
        "details": "Get alerts for a product"
      },
      "getProductSensorData(uint256)": {
        "details": "Get sensor readings for a product"
      },
      "getRoleAdmin(bytes32)": {
        "details": "Get the admin role for a given role"
      },
      "getRoleMembers(bytes32,address[])": {
        "details": "Get all accounts with a specific role (expensive operation, use carefully)"
      },
      "getSensorReadings(string)": {
        "details": "Get readings from a specific sensor"
      },
      "grantRole(bytes32,address)": {
        "details": "Grant a role to an account"
      },
      "hasRole(bytes32,address)": {
        "details": "Check if an account has a specific role"
      },
      "hasRoles(bytes32[],address[])": {
        "details": "Check if multiple accounts have required roles (batch check)"
      },
      "recordSensorData(string,uint256,int256,string,bytes)": {
        "details": "Record sensor data"
      },
      "registerSensor(string,uint8,string,string)": {
        "details": "Register a new IoT sensor"
      },
      "renounceRole(bytes32,address)": {
        "details": "Renounce a role (can only be called by the account itself)"
      },
      "resolveAlert(uint256,string)": {
        "details": "Resolve an alert"
      },
      "revokeRole(bytes32,address)": {
        "details": "Revoke a role from an account"
      },
      "setThreshold(uint8,int256,int256,string)": {
        "details": "Set threshold for sensor type"
      }
    },
    "title": "IoTIntegration",
    "version": 1
  },
  "userdoc": {
    "kind": "user",
    "methods": {},
    "version": 1
  }
}