{
  "contractName": "SupplyChainTraceability",
  "abi": [
    {
      "inputs": [
        {
          "internalType": "address",
          "name": "_shardingContract",
          "type": "address"
        },
        {
          "internalType": "address",
          "name": "_processorContract",
          "type": "address"
        }
      ],
      "stateMutability": "nonpayable",
      "type": "constructor"
    },
    {
      "anonymous": false,
      "inputs": [
        {
          "indexed": false,
          "internalType": "uint256[]",
          "name": "productIds",
          "type": "uint256[]"
        },
        {
          "indexed": true,
          "internalType": "address",
          "name": "processor",
          "type": "address"
        },
        {
          "indexed": false,
          "internalType": "uint256",
          "name": "timestamp",
          "type": "uint256"
        }
      ],
      "name": "BatchProcessed",
      "type": "event"
    },
    {
      "anonymous": false,
      "inputs": [
        {
          "indexed": true,
          "internalType": "uint256",
          "name": "productId",
          "type": "uint256"
        },
        {
          "indexed": false,
          "internalType": "string",
          "name": "location",
          "type": "string"
        },
        {
          "indexed": false,
          "internalType": "uint256",
          "name": "timestamp",
          "type": "uint256"
        }
      ],
      "name": "LocationUpdated",
      "type": "event"
    },
    {
      "anonymous": false,
      "inputs": [
        {
          "indexed": true,
          "internalType": "uint256",
          "name": "productId",
          "type": "uint256"
        },
        {
          "indexed": false,
          "internalType": "string",
          "name": "name",
          "type": "string"
        },
        {
          "indexed": true,
          "internalType": "address",
          "name": "creator",
          "type": "address"
        },
        {
          "indexed": false,
          "internalType": "uint256",
          "name": "timestamp",
          "type": "uint256"
        }
      ],
      "name": "ProductCreated",
      "type": "event"
    },
    {
      "anonymous": false,
      "inputs": [
        {
          "indexed": true,
          "internalType": "uint256",
          "name": "productId",
          "type": "uint256"
        },
        {
          "indexed": true,
          "internalType": "address",
          "name": "from",
          "type": "address"
        },
        {
          "indexed": true,
          "internalType": "address",
          "name": "to",
          "type": "address"
        },
        {
          "indexed": false,
          "internalType": "uint256",
          "name": "timestamp",
          "type": "uint256"
        }
      ],
      "name": "ProductTransferred",
      "type": "event"
    },
    {
      "anonymous": false,
      "inputs": [
        {
          "indexed": true,
          "internalType": "uint256",
          "name": "productId",
          "type": "uint256"
        },
        {
          "indexed": false,
          "internalType": "string",
          "name": "checkType",
          "type": "string"
        },
        {
          "indexed": false,
          "internalType": "bool",
          "name": "passed",
          "type": "bool"
        },
        {
          "indexed": false,
          "internalType": "string",
          "name": "notes",
          "type": "string"
        }
      ],
      "name": "QualityCheckAdded",
      "type": "event"
    },
    {
      "anonymous": false,
      "inputs": [
        {
          "indexed": true,
          "internalType": "bytes32",
          "name": "role",
          "type": "bytes32"
        },
        {
          "indexed": true,
          "internalType": "bytes32",
          "name": "previousAdminRole",
          "type": "bytes32"
        },
        {
          "indexed": true,
          "internalType": "bytes32",
          "name": "newAdminRole",
          "type": "bytes32"
        }
      ],
      "name": "RoleAdminChanged",
      "type": "event"
    },
    {
      "anonymous": false,
      "inputs": [
        {
          "indexed": true,
          "internalType": "bytes32",
          "name": "role",
          "type": "bytes32"
        },
        {
          "indexed": true,
          "internalType": "address",
          "name": "account",
          "type": "address"
        },
        {
          "indexed": true,
          "internalType": "address",
          "name": "sender",
          "type": "address"
        }
      ],
      "name": "RoleGranted",
      "type": "event"
    },
    {
      "anonymous": false,
      "inputs": [
        {
          "indexed": true,
          "internalType": "bytes32",
          "name": "role",
          "type": "bytes32"
        },
        {
          "indexed": true,
          "internalType": "address",
          "name": "account",
          "type": "address"
        },
        {
          "indexed": true,
          "internalType": "address",
          "name": "sender",
          "type": "address"
        }
      ],
      "name": "RoleRevoked",
      "type": "event"
    },
    {
      "anonymous": false,
      "inputs": [
        {
          "indexed": true,
          "internalType": "uint256",
          "name": "productId",
          "type": "uint256"
        },
        {
          "indexed": false,
          "internalType": "int256",
          "name": "temperature",
          "type": "int256"
        },
        {
          "indexed": false,
          "internalType": "uint256",
          "name": "timestamp",
          "type": "uint256"
        }
      ],
      "name": "TemperatureLogged",
      "type": "event"
    },
    {
      "inputs": [],
      "name": "ADMIN_ROLE",
      "outputs": [
        {
          "internalType": "bytes32",
          "name": "",
          "type": "bytes32"
        }
      ],
      "stateMutability": "view",
      "type": "function",
      "constant": true
    },
    {
      "inputs": [],
      "name": "AUDITOR_ROLE",
      "outputs": [
        {
          "internalType": "bytes32",
          "name": "",
          "type": "bytes32"
        }
      ],
      "stateMutability": "view",
      "type": "function",
      "constant": true
    },
    {
      "inputs": [],
      "name": "DEFAULT_ADMIN_ROLE",
      "outputs": [
        {
          "internalType": "bytes32",
          "name": "",
          "type": "bytes32"
        }
      ],
      "stateMutability": "view",
      "type": "function",
      "constant": true
    },
    {
      "inputs": [],
      "name": "IOT_DEVICE_ROLE",
      "outputs": [
        {
          "internalType": "bytes32",
          "name": "",
          "type": "bytes32"
        }
      ],
      "stateMutability": "view",
      "type": "function",
      "constant": true
    },
    {
      "inputs": [],
      "name": "PARTICIPANT_ROLE",
      "outputs": [
        {
          "internalType": "bytes32",
          "name": "",
          "type": "bytes32"
        }
      ],
      "stateMutability": "view",
      "type": "function",
      "constant": true
    },
    {
      "inputs": [],
      "name": "SHARD_MANAGER_ROLE",
      "outputs": [
        {
          "internalType": "bytes32",
          "name": "",
          "type": "bytes32"
        }
      ],
      "stateMutability": "view",
      "type": "function",
      "constant": true
    },
    {
      "inputs": [
        {
          "internalType": "address",
          "name": "",
          "type": "address"
        }
      ],
      "name": "addressToParticipantId",
      "outputs": [
        {
          "internalType": "uint256",
          "name": "",
          "type": "uint256"
        }
      ],
      "stateMutability": "view",
      "type": "function",
      "constant": true
    },
    {
      "inputs": [
        {
          "internalType": "string",
          "name": "",
          "type": "string"
        },
        {
          "internalType": "uint256",
          "name": "",
          "type": "uint256"
        }
      ],
      "name": "batchProducts",
      "outputs": [
        {
          "internalType": "uint256",
          "name": "",
          "type": "uint256"
        }
      ],
      "stateMutability": "view",
      "type": "function",
      "constant": true
    },
    {
      "inputs": [
        {
          "internalType": "bytes32",
          "name": "role",
          "type": "bytes32"
        }
      ],
      "name": "getRoleAdmin",
      "outputs": [
        {
          "internalType": "bytes32",
          "name": "",
          "type": "bytes32"
        }
      ],
      "stateMutability": "view",
      "type": "function",
      "constant": true
    },
    {
      "inputs": [
        {
          "internalType": "bytes32",
          "name": "role",
          "type": "bytes32"
        },
        {
          "internalType": "address[]",
          "name": "candidates",
          "type": "address[]"
        }
      ],
      "name": "getRoleMembers",
      "outputs": [
        {
          "internalType": "address[]",
          "name": "",
          "type": "address[]"
        }
      ],
      "stateMutability": "view",
      "type": "function",
      "constant": true
    },
    {
      "inputs": [
        {
          "internalType": "bytes32",
          "name": "role",
          "type": "bytes32"
        },
        {
          "internalType": "address",
          "name": "account",
          "type": "address"
        }
      ],
      "name": "grantRole",
      "outputs": [],
      "stateMutability": "nonpayable",
      "type": "function"
    },
    {
      "inputs": [
        {
          "internalType": "bytes32",
          "name": "role",
          "type": "bytes32"
        },
        {
          "internalType": "address",
          "name": "account",
          "type": "address"
        }
      ],
      "name": "hasRole",
      "outputs": [
        {
          "internalType": "bool",
          "name": "",
          "type": "bool"
        }
      ],
      "stateMutability": "view",
      "type": "function",
      "constant": true
    },
    {
      "inputs": [
        {
          "internalType": "bytes32[]",
          "name": "roles",
          "type": "bytes32[]"
        },
        {
          "internalType": "address[]",
          "name": "accounts",
          "type": "address[]"
        }
      ],
      "name": "hasRoles",
      "outputs": [
        {
          "internalType": "bool[]",
          "name": "",
          "type": "bool[]"
        }
      ],
      "stateMutability": "view",
      "type": "function",
      "constant": true
    },
    {
      "inputs": [
        {
          "internalType": "address",
          "name": "",
          "type": "address"
        },
        {
          "internalType": "uint256",
          "name": "",
          "type": "uint256"
        }
      ],
      "name": "participantProducts",
      "outputs": [
        {
          "internalType": "uint256",
          "name": "",
          "type": "uint256"
        }
      ],
      "stateMutability": "view",
      "type": "function",
      "constant": true
    },
    {
      "inputs": [
        {
          "internalType": "uint256",
          "name": "",
          "type": "uint256"
        }
      ],
      "name": "participants",
      "outputs": [
        {
          "internalType": "address",
          "name": "participantAddress",
          "type": "address"
        },
        {
          "internalType": "string",
          "name": "name",
          "type": "string"
        },
        {
          "internalType": "string",
          "name": "role",
          "type": "string"
        },
        {
          "internalType": "string",
          "name": "location",
          "type": "string"
        },
        {
          "internalType": "string",
          "name": "userKey",
          "type": "string"
        },
        {
          "internalType": "bool",
          "name": "isActive",
          "type": "bool"
        },
        {
          "internalType": "uint256",
          "name": "registeredAt",
          "type": "uint256"
        }
      ],
      "stateMutability": "view",
      "type": "function",
      "constant": true
    },
    {
      "inputs": [],
      "name": "processorContract",
      "outputs": [
        {
          "internalType": "contract HighEfficiencyProcessor",
          "name": "",
          "type": "address"
        }
      ],
      "stateMutability": "view",
      "type": "function",
      "constant": true
    },
    {
      "inputs": [
        {
          "internalType": "uint256",
          "name": "",
          "type": "uint256"
        },
        {
          "internalType": "uint256",
          "name": "",
          "type": "uint256"
        }
      ],
      "name": "productLocationHistory",
      "outputs": [
        {
          "internalType": "string",
          "name": "location",
          "type": "string"
        },
        {
          "internalType": "uint256",
          "name": "timestamp",
          "type": "uint256"
        },
        {
          "internalType": "address",
          "name": "updatedBy",
          "type": "address"
        }
      ],
      "stateMutability": "view",
      "type": "function",
      "constant": true
    },
    {
      "inputs": [
        {
          "internalType": "uint256",
          "name": "",
          "type": "uint256"
        },
        {
          "internalType": "uint256",
          "name": "",
          "type": "uint256"
        }
      ],
      "name": "productOwnershipHistory",
      "outputs": [
        {
          "internalType": "address",
          "name": "",
          "type": "address"
        }
      ],
      "stateMutability": "view",
      "type": "function",
      "constant": true
    },
    {
      "inputs": [
        {
          "internalType": "uint256",
          "name": "",
          "type": "uint256"
        },
        {
          "internalType": "uint256",
          "name": "",
          "type": "uint256"
        }
      ],
      "name": "productQualityChecks",
      "outputs": [
        {
          "internalType": "string",
          "name": "checkType",
          "type": "string"
        },
        {
          "internalType": "bool",
          "name": "passed",
          "type": "bool"
        },
        {
          "internalType": "string",
          "name": "notes",
          "type": "string"
        },
        {
          "internalType": "address",
          "name": "inspector",
          "type": "address"
        },
        {
          "internalType": "uint256",
          "name": "timestamp",
          "type": "uint256"
        }
      ],
      "stateMutability": "view",
      "type": "function",
      "constant": true
    },
    {
      "inputs": [
        {
          "internalType": "uint256",
          "name": "",
          "type": "uint256"
        },
        {
          "internalType": "uint256",
          "name": "",
          "type": "uint256"
        }
      ],
      "name": "productTemperatureLogs",
      "outputs": [
        {
          "internalType": "int256",
          "name": "temperature",
          "type": "int256"
        },
        {
          "internalType": "uint256",
          "name": "timestamp",
          "type": "uint256"
        },
        {
          "internalType": "string",
          "name": "sensorId",
          "type": "string"
        }
      ],
      "stateMutability": "view",
      "type": "function",
      "constant": true
    },
    {
      "inputs": [
        {
          "internalType": "uint256",
          "name": "",
          "type": "uint256"
        }
      ],
      "name": "productToShard",
      "outputs": [
        {
          "internalType": "uint256",
          "name": "",
          "type": "uint256"
        }
      ],
      "stateMutability": "view",
      "type": "function",
      "constant": true
    },
    {
      "inputs": [
        {
          "internalType": "uint256",
          "name": "",
          "type": "uint256"
        }
      ],
      "name": "products",
      "outputs": [
        {
          "internalType": "uint256",
          "name": "id",
          "type": "uint256"
        },
        {
          "internalType": "string",
          "name": "name",
          "type": "string"
        },
        {
          "internalType": "string",
          "name": "description",
          "type": "string"
        },
        {
          "internalType": "string",
          "name": "category",
          "type": "string"
        },
        {
          "internalType": "uint256",
          "name": "createdAt",
          "type": "uint256"
        },
        {
          "internalType": "enum SupplyChainTraceability.Stage",
          "name": "currentStage",
          "type": "uint8"
        },
        {
          "internalType": "address",
          "name": "currentOwner",
          "type": "address"
        },
        {
          "internalType": "string",
          "name": "currentLocation",
          "type": "string"
        },
        {
          "internalType": "bool",
          "name": "isActive",
          "type": "bool"
        },
        {
          "internalType": "uint256",
          "name": "parentProductId",
          "type": "uint256"
        },
        {
          "internalType": "string",
          "name": "batchNumber",
          "type": "string"
        },
        {
          "internalType": "uint256",
          "name": "expiryDate",
          "type": "uint256"
        }
      ],
      "stateMutability": "view",
      "type": "function",
      "constant": true
    },
    {
      "inputs": [
        {
          "internalType": "bytes32",
          "name": "role",
          "type": "bytes32"
        },
        {
          "internalType": "address",
          "name": "account",
          "type": "address"
        }
      ],
      "name": "renounceRole",
      "outputs": [],
      "stateMutability": "nonpayable",
      "type": "function"
    },
    {
      "inputs": [
        {
          "internalType": "bytes32",
          "name": "role",
          "type": "bytes32"
        },
        {
          "internalType": "address",
          "name": "account",
          "type": "address"
        }
      ],
      "name": "revokeRole",
      "outputs": [],
      "stateMutability": "nonpayable",
      "type": "function"
    },
    {
      "inputs": [],
      "name": "shardingContract",
      "outputs": [
        {
          "internalType": "contract AdaptiveSharding",
          "name": "",
          "type": "address"
        }
      ],
      "stateMutability": "view",
      "type": "function",
      "constant": true
    },
    {
      "inputs": [
        {
          "internalType": "string",
          "name": "",
          "type": "string"
        }
      ],
      "name": "userKeyToParticipantId",
      "outputs": [
        {
          "internalType": "uint256",
          "name": "",
          "type": "uint256"
        }
      ],
      "stateMutability": "view",
      "type": "function",
      "constant": true
    },
    {
      "inputs": [
        {
          "internalType": "address",
          "name": "_participantAddress",
          "type": "address"
        },
        {
          "internalType": "string",
          "name": "_name",
          "type": "string"
        },
        {
          "internalType": "string",
          "name": "_role",
          "type": "string"
        },
        {
          "internalType": "string",
          "name": "_location",
          "type": "string"
        }
      ],
      "name": "registerParticipant",
      "outputs": [],
      "stateMutability": "nonpayable",
      "type": "function"
    },
    {
      "inputs": [
        {
          "internalType": "address",
          "name": "_participantAddress",
          "type": "address"
        },
        {
          "internalType": "string",
          "name": "_name",
          "type": "string"
        },
        {
          "internalType": "string",
          "name": "_role",
          "type": "string"
        },
        {
          "internalType": "string",
          "name": "_location",
          "type": "string"
        },
        {
          "internalType": "string",
          "name": "_userKey",
          "type": "string"
        }
      ],
      "name": "registerParticipant",
      "outputs": [],
      "stateMutability": "nonpayable",
      "type": "function"
    },
    {
      "inputs": [
        {
          "internalType": "string",
          "name": "_name",
          "type": "string"
        },
        {
          "internalType": "string",
          "name": "_description",
          "type": "string"
        },
        {
          "internalType": "string",
          "name": "_category",
          "type": "string"
        },
        {
          "internalType": "string",
          "name": "_batchNumber",
          "type": "string"
        },
        {
          "internalType": "uint256",
          "name": "_expiryDate",
          "type": "uint256"
        },
        {
          "internalType": "string",
          "name": "_initialLocation",
          "type": "string"
        },
        {
          "internalType": "string",
          "name": "_userKey",
          "type": "string"
        }
      ],
      "name": "createProductWithKey",
      "outputs": [
        {
          "internalType": "uint256",
          "name": "",
          "type": "uint256"
        }
      ],
      "stateMutability": "nonpayable",
      "type": "function"
    },
    {
      "inputs": [
        {
          "internalType": "string",
          "name": "_name",
          "type": "string"
        },
        {
          "internalType": "string",
          "name": "_description",
          "type": "string"
        },
        {
          "internalType": "string",
          "name": "_category",
          "type": "string"
        },
        {
          "internalType": "string",
          "name": "_batchNumber",
          "type": "string"
        },
        {
          "internalType": "uint256",
          "name": "_expiryDate",
          "type": "uint256"
        },
        {
          "internalType": "string",
          "name": "_initialLocation",
          "type": "string"
        }
      ],
      "name": "createProduct",
      "outputs": [
        {
          "internalType": "uint256",
          "name": "",
          "type": "uint256"
        }
      ],
      "stateMutability": "nonpayable",
      "type": "function"
    },
    {
      "inputs": [
        {
          "internalType": "uint256",
          "name": "_productId",
          "type": "uint256"
        },
        {
          "internalType": "address",
          "name": "_newOwner",
          "type": "address"
        },
        {
          "internalType": "string",
          "name": "_newLocation",
          "type": "string"
        }
      ],
      "name": "transferProduct",
      "outputs": [],
      "stateMutability": "nonpayable",
      "type": "function"
    },
    {
      "inputs": [
        {
          "internalType": "uint256",
          "name": "_productId",
          "type": "uint256"
        },
        {
          "internalType": "enum SupplyChainTraceability.Stage",
          "name": "_newStage",
          "type": "uint8"
        }
      ],
      "name": "updateStage",
      "outputs": [],
      "stateMutability": "nonpayable",
      "type": "function"
    },
    {
      "inputs": [
        {
          "components": [
            {
              "internalType": "uint256[]",
              "name": "productIds",
              "type": "uint256[]"
            },
            {
              "internalType": "address",
              "name": "newOwner",
              "type": "address"
            },
            {
              "internalType": "string",
              "name": "newLocation",
              "type": "string"
            },
            {
              "internalType": "enum SupplyChainTraceability.Stage",
              "name": "newStage",
              "type": "uint8"
            }
          ],
          "internalType": "struct SupplyChainTraceability.BatchOperation",
          "name": "_operation",
          "type": "tuple"
        }
      ],
      "name": "batchTransfer",
      "outputs": [],
      "stateMutability": "nonpayable",
      "type": "function"
    },
    {
      "inputs": [
        {
          "internalType": "uint256",
          "name": "_productId",
          "type": "uint256"
        },
        {
          "internalType": "string",
          "name": "_checkType",
          "type": "string"
        },
        {
          "internalType": "bool",
          "name": "_passed",
          "type": "bool"
        },
        {
          "internalType": "string",
          "name": "_notes",
          "type": "string"
        }
      ],
      "name": "addQualityCheck",
      "outputs": [],
      "stateMutability": "nonpayable",
      "type": "function"
    },
    {
      "inputs": [
        {
          "internalType": "uint256",
          "name": "_productId",
          "type": "uint256"
        },
        {
          "internalType": "int256",
          "name": "_temperature",
          "type": "int256"
        },
        {
          "internalType": "string",
          "name": "_sensorId",
          "type": "string"
        }
      ],
      "name": "logTemperature",
      "outputs": [],
      "stateMutability": "nonpayable",
      "type": "function"
    },
    {
      "inputs": [
        {
          "internalType": "uint256",
          "name": "_productId",
          "type": "uint256"
        },
        {
          "internalType": "string",
          "name": "_reason",
          "type": "string"
        }
      ],
      "name": "recallProduct",
      "outputs": [],
      "stateMutability": "nonpayable",
      "type": "function"
    },
    {
      "inputs": [
        {
          "internalType": "address",
          "name": "_participantAddress",
          "type": "address"
        }
      ],
      "name": "suspendParticipant",
      "outputs": [],
      "stateMutability": "nonpayable",
      "type": "function"
    },
    {
      "inputs": [
        {
          "internalType": "address",
          "name": "_participantAddress",
          "type": "address"
        }
      ],
      "name": "reactivateParticipant",
      "outputs": [],
      "stateMutability": "nonpayable",
      "type": "function"
    },
    {
      "inputs": [
        {
          "internalType": "uint256",
          "name": "_productId",
          "type": "uint256"
        }
      ],
      "name": "getProductHistory",
      "outputs": [
        {
          "internalType": "address[]",
          "name": "owners",
          "type": "address[]"
        },
        {
          "components": [
            {
              "internalType": "string",
              "name": "location",
              "type": "string"
            },
            {
              "internalType": "uint256",
              "name": "timestamp",
              "type": "uint256"
            },
            {
              "internalType": "address",
              "name": "updatedBy",
              "type": "address"
            }
          ],
          "internalType": "struct SupplyChainTraceability.LocationHistory[]",
          "name": "locations",
          "type": "tuple[]"
        },
        {
          "components": [
            {
              "internalType": "string",
              "name": "checkType",
              "type": "string"
            },
            {
              "internalType": "bool",
              "name": "passed",
              "type": "bool"
            },
            {
              "internalType": "string",
              "name": "notes",
              "type": "string"
            },
            {
              "internalType": "address",
              "name": "inspector",
              "type": "address"
            },
            {
              "internalType": "uint256",
              "name": "timestamp",
              "type": "uint256"
            }
          ],
          "internalType": "struct SupplyChainTraceability.QualityCheck[]",
          "name": "qualityChecks",
          "type": "tuple[]"
        }
      ],
      "stateMutability": "view",
      "type": "function",
      "constant": true
    },
    {
      "inputs": [
        {
          "internalType": "uint256",
          "name": "_productId",
          "type": "uint256"
        }
      ],
      "name": "getTemperatureHistory",
      "outputs": [
        {
          "components": [
            {
              "internalType": "int256",
              "name": "temperature",
              "type": "int256"
            },
            {
              "internalType": "uint256",
              "name": "timestamp",
              "type": "uint256"
            },
            {
              "internalType": "string",
              "name": "sensorId",
              "type": "string"
            }
          ],
          "internalType": "struct SupplyChainTraceability.TemperatureLog[]",
          "name": "",
          "type": "tuple[]"
        }
      ],
      "stateMutability": "view",
      "type": "function",
      "constant": true
    },
    {
      "inputs": [
        {
          "internalType": "string",
          "name": "_batchNumber",
          "type": "string"
        }
      ],
      "name": "getBatchProducts",
      "outputs": [
        {
          "internalType": "uint256[]",
          "name": "",
          "type": "uint256[]"
        }
      ],
      "stateMutability": "view",
      "type": "function",
      "constant": true
    },
    {
      "inputs": [
        {
          "internalType": "address",
          "name": "_participant",
          "type": "address"
        }
      ],
      "name": "getParticipantProducts",
      "outputs": [
        {
          "internalType": "uint256[]",
          "name": "",
          "type": "uint256[]"
        }
      ],
      "stateMutability": "view",
      "type": "function",
      "constant": true
    },
    {
      "inputs": [
        {
          "internalType": "uint256",
          "name": "_productId",
          "type": "uint256"
        }
      ],
      "name": "isProductAuthentic",
      "outputs": [
        {
          "internalType": "bool",
          "name": "",
          "type": "bool"
        }
      ],
      "stateMutability": "view",
      "type": "function",
      "constant": true
    },
    {
      "inputs": [],
      "name": "getProductCount",
      "outputs": [
        {
          "internalType": "uint256",
          "name": "",
          "type": "uint256"
        }
      ],
      "stateMutability": "view",
      "type": "function",
      "constant": true
    },
    {
      "inputs": [],
      "name": "getParticipantCount",
      "outputs": [
        {
          "internalType": "uint256",
          "name": "",
          "type": "uint256"
        }
      ],
      "stateMutability": "view",
      "type": "function",
      "constant": true
    }
  ],
  "bytecode": "0x60806040523480156200001157600080fd5b5060405162004ca638038062004ca683398101604081905262000034916200017c565b62000041600033620000cd565b6200006d7fa49807205ce4d355092ef5a8a18f56e8913cf4a201fbe287825b095693c2177533620000cd565b6001600160a01b038216156200009957600180546001600160a01b0319166001600160a01b0384161790555b6001600160a01b03811615620000c557600280546001600160a01b0319166001600160a01b0383161790555b5050620001b4565b620000d98282620000dd565b5050565b6000828152602081815260408083206001600160a01b038516845290915290205460ff16620000d9576000828152602081815260408083206001600160a01b0385168085529252808320805460ff1916600117905551339285917f2f8788117e7eff1d82e926ec794901d17c78024a50270940304540a733656f0d9190a45050565b80516001600160a01b03811681146200017757600080fd5b919050565b600080604083850312156200019057600080fd5b6200019b836200015f565b9150620001ab602084016200015f565b90509250929050565b614ae280620001c46000396000f3fe608060405234801561001057600080fd5b506004361061027e5760003560e01c80637acc0b201161015c578063b6dfb096116100ce578063d547741f11610087578063d547741f1461067b578063e2348a5d1461068e578063edffc4d9146106b5578063f0492648146106c8578063f1a93d4a146106db578063f405c96b1461070257600080fd5b8063b6dfb096146105fc578063bb8b18b71461060f578063c54652a814610622578063c988437b14610635578063cbf7776f14610648578063d3036dd41461065b57600080fd5b8063a217fddf11610120578063a217fddf14610593578063a2f2f9071461059b578063a5d7ceec146105bb578063a7590f7d146105ce578063ad605729146105e1578063adbf34d6146105e957600080fd5b80637acc0b20146104ff5780638d4df7ab1461052a57806391d148541461054a5780639ce0f9731461056d5780639ce72b141461058057600080fd5b806336568abe116101f557806357a096a1116101b957806357a096a1146104595780635ecd9e251461047b5780635f8a7abe1461048e5780636c00a578146104a35780636e1d616e146104c357806375b238fc146104ea57600080fd5b806336568abe146103e95780633ddab058146103fc57806349469fed1461040f5780634a348da914610431578063564987451461043957600080fd5b8063248a9ca311610247578063248a9ca31461032b578063293bb2c11461034e5780632f2ff15d14610361578063301ab60014610374578063318fd5d01461039857806335c1d349146103c357600080fd5b806248e5a5146102835780630960edad146102985780630e910386146102cb57806320fd414c146102de57806323a2d08c14610300575b600080fd5b610296610291366004613790565b610715565b005b6102b86102a6366004613790565b600d6020526000908152604090205481565b6040519081526020015b60405180910390f35b6102966102d9366004613888565b6107ea565b6102f16102ec3660046138d7565b61097d565b6040516102c293929190613949565b6102b861030e366004613971565b8051602081830181018051600e8252928201919093012091525481565b6102b86103393660046139ad565b60009081526020819052604090206001015490565b61029661035c3660046139c6565b610a4c565b61029661036f366004613a06565b610ddc565b6103876103823660046138d7565b610e23565b6040516102c2959493929190613a32565b6001546103ab906001600160a01b031681565b6040516001600160a01b0390911681526020016102c2565b6103d66103d13660046139ad565b610f99565b6040516102c29796959493929190613a7d565b6102966103f7366004613a06565b611202565b61029661040a366004613790565b61127c565b61042261041d3660046138d7565b611340565b6040516102c293929190613af2565b6004546102b8565b61044c6104473660046139ad565b611419565b6040516102c29190613b25565b61046c6104673660046139ad565b611589565b6040516102c293929190613c8a565b610296610489366004613d27565b611936565b6102b8600080516020614a6d83398151915281565b6104b66104b1366004613971565b611be3565b6040516102c29190613def565b6102b87f59a1c48e5837ad7a7f3dcedcbe129bf3249ec4fbf651fd4f5e2600ead39fe2f581565b6102b8600080516020614a8d83398151915281565b61051261050d3660046139ad565b611c53565b6040516102c29c9b9a99989796959493929190613e18565b61053d610538366004613f82565b611f6d565b6040516102c2919061403a565b61055d610558366004613a06565b612086565b60405190151581526020016102c2565b61029661057b366004614080565b6120af565b61055d61058e3660046139ad565b61223d565b6102b8600081565b6102b86105a93660046139ad565b60036020526000908152604090205481565b6102b86105c93660046140bc565b6122ed565b6102b86105dc366004614195565b61244e565b6005546102b8565b6102966105f73660046141e8565b61248e565b6002546103ab906001600160a01b031681565b61029661061d3660046142ee565b6127f7565b6102b86106303660046143ab565b612a75565b6104b6610643366004613790565b612a91565b6102966106563660046143d5565b612afb565b61066e610669366004614442565b612cdd565b6040516102c2919061447e565b610296610689366004613a06565b612e05565b6102b87fa57066973b2155f87e85ce4b35594aa85c6061a64b99afb1fcf8f974f04290e381565b6102b86106c3366004614491565b612e3c565b6103ab6106d63660046138d7565b6133dd565b6102b87f3fd1570350ad82b8536c3ba26e9b65482f86a92bc0631d77bd1bb4bc2035747381565b610296610710366004614590565b613415565b600080516020614a8d83398151915261072e8133612086565b6107535760405162461bcd60e51b815260040161074a906145b3565b60405180910390fd5b6001600160a01b0382166000908152600d6020526040902054806107b15760405162461bcd60e51b815260206004820152601560248201527414185c9d1a58da5c185b9d081b9bdd08199bdd5b99605a1b604482015260640161074a565b6000818152600c60205260409020600501805460ff191660011790556107e5600080516020614a6d83398151915284610ddc565b505050565b826000811180156107fd57506004548111155b6108195760405162461bcd60e51b815260040161074a906145f6565b60008181526006602052604090206007015460ff1661084a5760405162461bcd60e51b815260040161074a90614626565b600080516020614a6d8339815191526108638133612086565b61087f5760405162461bcd60e51b815260040161074a906145b3565b336000908152600d6020526040902054806108ac5760405162461bcd60e51b815260040161074a90614653565b6000818152600c602052604090206005015460ff166108dd5760405162461bcd60e51b815260040161074a9061468a565b6000868152600960209081526040808320815160608101835289815242818501908152928101898152825460018181018555938752949095208151600390950201938455915190830155915160028201906109389082614739565b5050604080518781524260208201528892507f7fbe57c67dc9da58a35dc6aace73056993cce3aba078b02f096f45a62f0fe843910160405180910390a2505050505050565b6009602052816000526040600020818154811061099957600080fd5b9060005260206000209060030201600091509150508060000154908060010154908060020180546109c9906146bf565b80601f01602080910402602001604051908101604052809291908181526020018280546109f5906146bf565b8015610a425780601f10610a1757610100808354040283529160200191610a42565b820191906000526020600020905b815481529060010190602001808311610a2557829003601f168201915b5050505050905083565b82600081118015610a5f57506004548111155b610a7b5760405162461bcd60e51b815260040161074a906145f6565b60008181526006602052604090206007015460ff16610aac5760405162461bcd60e51b815260040161074a90614626565b600084815260066020526040902060050154849061010090046001600160a01b03163314610b105760405162461bcd60e51b81526020600482015260116024820152702737ba10383937b23ab1ba1037bbb732b960791b604482015260640161074a565b336000908152600d602052604090205480610b3d5760405162461bcd60e51b815260040161074a90614653565b6000818152600c602052604090206005015460ff16610b6e5760405162461bcd60e51b815260040161074a9061468a565b6001600160a01b0385166000908152600d6020526040902054610bce5760405162461bcd60e51b815260206004820152601860248201527713995dc81bdddb995c881b9bdd081c9959da5cdd195c995960421b604482015260640161074a565b6001600160a01b0385166000908152600d60209081526040808320548352600c90915290206005015460ff16610c465760405162461bcd60e51b815260206004820152601e60248201527f4e6577206f776e6572206163636f756e742069732073757370656e6465640000604482015260640161074a565b60008681526006602081905260409091206005810180546001600160a01b03898116610100908102610100600160a81b0319841617909355919004169101610c8e8682614739565b506000878152600a602090815260408083208054600180820183559185528385200180546001600160a01b0319166001600160a01b038c161790558a84526008835281842082516060810184528a815242818601523393810193909352805491820181558452919092208251600390920201908190610d0d9082614739565b50602082810151600183810191909155604093840151600290930180546001600160a01b0319166001600160a01b039485161790558983166000818152600b84528581208054938401815581528390209091018b90559251428152918416918a917f516c8b339c132041f2a10d0e873c5eaf4944299c02b458d7491b7f7ac1574d2f910160405180910390a4867f08c1aa8a3ded74821ab8fe6981a7dd0f9ebb0c3fcef9196f34b9f4e9d0e4edcd8642604051610dcb9291906147f8565b60405180910390a250505050505050565b600082815260208190526040902060010154610df9905b33612086565b610e155760405162461bcd60e51b815260040161074a9061481a565b610e1f828261359d565b5050565b60076020528160005260406000208181548110610e3f57600080fd5b906000526020600020906005020160009150915050806000018054610e63906146bf565b80601f0160208091040260200160405190810160405280929190818152602001828054610e8f906146bf565b8015610edc5780601f10610eb157610100808354040283529160200191610edc565b820191906000526020600020905b815481529060010190602001808311610ebf57829003601f168201915b5050506001840154600285018054949560ff909216949193509150610f00906146bf565b80601f0160208091040260200160405190810160405280929190818152602001828054610f2c906146bf565b8015610f795780601f10610f4e57610100808354040283529160200191610f79565b820191906000526020600020905b815481529060010190602001808311610f5c57829003601f168201915b50505050600383015460049093015491926001600160a01b031691905085565b600c60205260009081526040902080546001820180546001600160a01b039092169291610fc5906146bf565b80601f0160208091040260200160405190810160405280929190818152602001828054610ff1906146bf565b801561103e5780601f106110135761010080835404028352916020019161103e565b820191906000526020600020905b81548152906001019060200180831161102157829003601f168201915b505050505090806002018054611053906146bf565b80601f016020809104026020016040519081016040528092919081815260200182805461107f906146bf565b80156110cc5780601f106110a1576101008083540402835291602001916110cc565b820191906000526020600020905b8154815290600101906020018083116110af57829003601f168201915b5050505050908060030180546110e1906146bf565b80601f016020809104026020016040519081016040528092919081815260200182805461110d906146bf565b801561115a5780601f1061112f5761010080835404028352916020019161115a565b820191906000526020600020905b81548152906001019060200180831161113d57829003601f168201915b50505050509080600401805461116f906146bf565b80601f016020809104026020016040519081016040528092919081815260200182805461119b906146bf565b80156111e85780601f106111bd576101008083540402835291602001916111e8565b820191906000526020600020905b8154815290600101906020018083116111cb57829003601f168201915b505050506005830154600690930154919260ff1691905087565b6001600160a01b03811633146112725760405162461bcd60e51b815260206004820152602f60248201527f416363657373436f6e74726f6c3a2063616e206f6e6c792072656e6f756e636560448201526e103937b632b9903337b91039b2b63360891b606482015260840161074a565b610e1f8282613604565b600080516020614a8d8339815191526112958133612086565b6112b15760405162461bcd60e51b815260040161074a906145b3565b6001600160a01b0382166000908152600d60205260409020548061130f5760405162461bcd60e51b815260206004820152601560248201527414185c9d1a58da5c185b9d081b9bdd08199bdd5b99605a1b604482015260640161074a565b6000818152600c60205260409020600501805460ff191690556107e5600080516020614a6d83398151915284612e05565b6008602052816000526040600020818154811061135c57600080fd5b906000526020600020906003020160009150915050806000018054611380906146bf565b80601f01602080910402602001604051908101604052809291908181526020018280546113ac906146bf565b80156113f95780601f106113ce576101008083540402835291602001916113f9565b820191906000526020600020905b8154815290600101906020018083116113dc57829003601f168201915b5050505060018301546002909301549192916001600160a01b0316905083565b60608160008111801561142e57506004548111155b61144a5760405162461bcd60e51b815260040161074a906145f6565b60008181526006602052604090206007015460ff1661147b5760405162461bcd60e51b815260040161074a90614626565b600083815260096020908152604080832080548251818502810185019093528083529193909284015b8282101561157c578382906000526020600020906003020160405180606001604052908160008201548152602001600182015481526020016002820180546114eb906146bf565b80601f0160208091040260200160405190810160405280929190818152602001828054611517906146bf565b80156115645780601f1061153957610100808354040283529160200191611564565b820191906000526020600020905b81548152906001019060200180831161154757829003601f168201915b505050505081525050815260200190600101906114a4565b5050505091505b50919050565b6060806060836000811180156115a157506004548111155b6115bd5760405162461bcd60e51b815260040161074a906145f6565b60008181526006602052604090206007015460ff166115ee5760405162461bcd60e51b815260040161074a90614626565b6000858152600a602090815260408083206008835281842060078452938290208154835181860281018601909452808452919493909291859183018282801561166057602002820191906000526020600020905b81546001600160a01b03168152600190910190602001808311611642575b5050505050925081805480602002602001604051908101604052809291908181526020016000905b8282101561176f57838290600052602060002090600302016040518060600160405290816000820180546116bb906146bf565b80601f01602080910402602001604051908101604052809291908181526020018280546116e7906146bf565b80156117345780601f1061170957610100808354040283529160200191611734565b820191906000526020600020905b81548152906001019060200180831161171757829003601f168201915b50505091835250506001828101546020808401919091526002909301546001600160a01b031660409092019190915291835292019101611688565b50505050915080805480602002602001604051908101604052809291908181526020016000905b8282101561192257838290600052602060002090600502016040518060a00160405290816000820180546117c9906146bf565b80601f01602080910402602001604051908101604052809291908181526020018280546117f5906146bf565b80156118425780601f1061181757610100808354040283529160200191611842565b820191906000526020600020905b81548152906001019060200180831161182557829003601f168201915b5050509183525050600182015460ff161515602082015260028201805460409092019161186e906146bf565b80601f016020809104026020016040519081016040528092919081815260200182805461189a906146bf565b80156118e75780601f106118bc576101008083540402835291602001916118e7565b820191906000526020600020905b8154815290600101906020018083116118ca57829003601f168201915b505050918352505060038201546001600160a01b03166020808301919091526004909201546040909101529082526001929092019101611796565b505050509050935093509350509193909250565b600080516020614a8d83398151915261194f8133612086565b61196b5760405162461bcd60e51b815260040161074a906145b3565b6001600160a01b0385166000908152600d6020526040902054156119d15760405162461bcd60e51b815260206004820152601e60248201527f5061727469636970616e7420616c726561647920726567697374657265640000604482015260640161074a565b6000836119dd42613669565b6119f460055460016119ef9190614876565b613669565b604051602001611a0693929190614889565b6040516020818303038152906040529050600e81604051611a2791906148f3565b908152602001604051809103902054600014611a8f5760405162461bcd60e51b815260206004820152602160248201527f47656e6572617465642075736572206b657920616c72656164792065786973746044820152607360f81b606482015260840161074a565b60058054906000611a9f8361490f565b90915550506040805160e0810182526001600160a01b03888116825260208083018981528385018990526060840188905260808401869052600160a085018190524260c08601526005546000908152600c90935294909120835181546001600160a01b0319169316929092178255519192909190820190611b209082614739565b5060408201516002820190611b359082614739565b5060608201516003820190611b4a9082614739565b5060808201516004820190611b5f9082614739565b5060a08201516005828101805460ff19169215159290921790915560c090920151600690910155546001600160a01b0387166000908152600d60205260409081902082905551600e90611bb39084906148f3565b90815260405190819003602001902055611bdb600080516020614a6d83398151915287610ddc565b505050505050565b6060600f82604051611bf591906148f3565b9081526040805191829003602090810183208054808302850183019093528284529190830182828015611c4757602002820191906000526020600020905b815481526020019060010190808311611c33575b50505050509050919050565b60066020526000908152604090208054600182018054919291611c75906146bf565b80601f0160208091040260200160405190810160405280929190818152602001828054611ca1906146bf565b8015611cee5780601f10611cc357610100808354040283529160200191611cee565b820191906000526020600020905b815481529060010190602001808311611cd157829003601f168201915b505050505090806002018054611d03906146bf565b80601f0160208091040260200160405190810160405280929190818152602001828054611d2f906146bf565b8015611d7c5780601f10611d5157610100808354040283529160200191611d7c565b820191906000526020600020905b815481529060010190602001808311611d5f57829003601f168201915b505050505090806003018054611d91906146bf565b80601f0160208091040260200160405190810160405280929190818152602001828054611dbd906146bf565b8015611e0a5780601f10611ddf57610100808354040283529160200191611e0a565b820191906000526020600020905b815481529060010190602001808311611ded57829003601f168201915b50505050600483015460058401546006850180549495929460ff831694506101009092046001600160a01b03169291611e42906146bf565b80601f0160208091040260200160405190810160405280929190818152602001828054611e6e906146bf565b8015611ebb5780601f10611e9057610100808354040283529160200191611ebb565b820191906000526020600020905b815481529060010190602001808311611e9e57829003601f168201915b5050505060078301546008840154600985018054949560ff9093169491935090611ee4906146bf565b80601f0160208091040260200160405190810160405280929190818152602001828054611f10906146bf565b8015611f5d5780601f10611f3257610100808354040283529160200191611f5d565b820191906000526020600020905b815481529060010190602001808311611f4057829003601f168201915b50505050509080600a015490508c565b60608151835114611fb95760405162461bcd60e51b8152602060048201526016602482015275082e4e4c2f2e640d8cadccee8d040dad2e6dac2e8c6d60531b604482015260640161074a565b600083516001600160401b03811115611fd457611fd46137ab565b604051908082528060200260200182016040528015611ffd578160200160208202803683370190505b50905060005b845181101561207c5761204885828151811061202157612021614928565b602002602001015185838151811061203b5761203b614928565b6020026020010151612086565b82828151811061205a5761205a614928565b91151560209283029190910190910152806120748161490f565b915050612003565b5090505b92915050565b6000918252602082815260408084206001600160a01b0393909316845291905290205460ff1690565b816000811180156120c257506004548111155b6120de5760405162461bcd60e51b815260040161074a906145f6565b60008181526006602052604090206007015460ff1661210f5760405162461bcd60e51b815260040161074a90614626565b600080516020614a8d8339815191526121288133612086565b6121445760405162461bcd60e51b815260040161074a906145b3565b60008481526006602081815260408084206005808201805460ff19908116600817909155600792830180549091169055908352818520825160e08101845260a0810195865265149150d0531360d21b60c082015294855284840186905291840188905233606085015242608085015281546001810183559185529190932082519293909102019081906121d79082614739565b50602082015160018201805460ff1916911515919091179055604082015160028201906122049082614739565b5060608201516003820180546001600160a01b0319166001600160a01b0390921691909117905560809091015160049091015550505050565b60008160008111801561225257506004548111155b61226e5760405162461bcd60e51b815260040161074a906145f6565b60008181526006602052604090206007015460ff1661229f5760405162461bcd60e51b815260040161074a90614626565b60008381526006602052604090206007015460ff1680156122e65750600860008481526006602052604090206005015460ff1660088111156122e3576122e3613e02565b14155b9392505050565b6000600080516020614a6d8339815191526123088133612086565b6123245760405162461bcd60e51b815260040161074a906145b3565b336000908152600d6020526040902054806123515760405162461bcd60e51b815260040161074a90614653565b6000818152600c602052604090206005015460ff166123825760405162461bcd60e51b815260040161074a9061468a565b336000908152600d6020908152604080832054808452600c909252822060040180549192916123b0906146bf565b80601f01602080910402602001604051908101604052809291908181526020018280546123dc906146bf565b80156124295780601f106123fe57610100808354040283529160200191612429565b820191906000526020600020905b81548152906001019060200180831161240c57829003601f168201915b5050505050905061243f8b8b8b8b8b8b87612e3c565b9b9a5050505050505050505050565b8151602081840181018051600f82529282019185019190912091905280548290811061247957600080fd5b90600052602060002001600091509150505481565b8051516124d55760405162461bcd60e51b8152602060048201526015602482015274139bc81c1c9bd91d58dd1cc81cdc1958da599a5959605a1b604482015260640161074a565b6020808201516001600160a01b03166000908152600d909152604090205461253a5760405162461bcd60e51b815260206004820152601860248201527713995dc81bdddb995c881b9bdd081c9959da5cdd195c995960421b604482015260640161074a565b60005b8151518110156127a85760008260000151828151811061255f5761255f614928565b6020908102919091018101516000818152600690925260409091206005015490915061010090046001600160a01b031633146125dd5760405162461bcd60e51b815260206004820152601960248201527f4e6f74206f776e6572206f6620616c6c2070726f647563747300000000000000604482015260640161074a565b60008181526006602052604090206007015460ff166126315760405162461bcd60e51b815260206004820152601060248201526f50726f6475637420696e61637469766560801b604482015260640161074a565b60208084015160008381526006928390526040908190206005810180546001600160a01b0390941661010002610100600160a81b0319909416939093179092558501519101906126819082614739565b5060608301516000828152600660205260409020600501805460ff191660018360088111156126b2576126b2613e02565b02179055506000818152600a60209081526040808320868301518154600180820184559286528486200180546001600160a01b0319166001600160a01b03909216919091179055848452600883528184208251606081018452888401518152428186015233938101939093528054918201815584529190922082516003909202019081906127409082614739565b50602082810151600183810191909155604093840151600290930180546001600160a01b0319166001600160a01b03948516179055868201519092166000908152600b82529283208054928301815583529091200155806127a08161490f565b91505061253d565b5080602001516001600160a01b03167f687491fb7d408065617308d02b13b4b3b8ca795e456afcba97427b2e54abb63a8260000151426040516127ec92919061493e565b60405180910390a250565b600080516020614a8d8339815191526128108133612086565b61282c5760405162461bcd60e51b815260040161074a906145b3565b6001600160a01b0386166000908152600d6020526040902054156128925760405162461bcd60e51b815260206004820152601e60248201527f5061727469636970616e7420616c726561647920726567697374657265640000604482015260640161074a565b600e826040516128a291906148f3565b9081526020016040518091039020546000146129005760405162461bcd60e51b815260206004820152601760248201527f55736572206b657920616c726561647920657869737473000000000000000000604482015260640161074a565b60008251116129515760405162461bcd60e51b815260206004820152601860248201527f55736572206b65792063616e6e6f7420626520656d7074790000000000000000604482015260640161074a565b600580549060006129618361490f565b90915550506040805160e0810182526001600160a01b03888116825260208083018981528385018990526060840188905260808401879052600160a085018190524260c08601526005546000908152600c90935294909120835181546001600160a01b03191693169290921782555191929091908201906129e29082614739565b50604082015160028201906129f79082614739565b5060608201516003820190612a0c9082614739565b5060808201516004820190612a219082614739565b5060a08201516005828101805460ff19169215159290921790915560c090920151600690910155546001600160a01b0387166000908152600d60205260409081902082905551600e90611bb39085906148f3565b600b602052816000526040600020818154811061247957600080fd5b6001600160a01b0381166000908152600b6020908152604091829020805483518184028101840190945280845260609392830182828015611c475760200282019190600052602060002090815481526020019060010190808311611c335750505050509050919050565b83600081118015612b0e57506004548111155b612b2a5760405162461bcd60e51b815260040161074a906145f6565b60008181526006602052604090206007015460ff16612b5b5760405162461bcd60e51b815260040161074a90614626565b600080516020614a6d833981519152612b748133612086565b612b905760405162461bcd60e51b815260040161074a906145b3565b336000908152600d602052604090205480612bbd5760405162461bcd60e51b815260040161074a90614653565b6000818152600c602052604090206005015460ff16612bee5760405162461bcd60e51b815260040161074a9061468a565b6000878152600760209081526040808320815160a0810183528a8152891515818501529182018890523360608301524260808301528054600181018255908452919092208251600590920201908190612c479082614739565b50602082015160018201805460ff191691151591909117905560408201516002820190612c749082614739565b5060608201516003820180546001600160a01b0319166001600160a01b0390921691909117905560809091015160049091015560405187907f69fadc3d7c481b5515778225c87aca24eb863d3dba21348491d8587016e0380190610dcb90899089908990614951565b60606000805b8351811015612d2757612d028585838151811061203b5761203b614928565b15612d155781612d118161490f565b9250505b80612d1f8161490f565b915050612ce3565b506000816001600160401b03811115612d4257612d426137ab565b604051908082528060200260200182016040528015612d6b578160200160208202803683370190505b5090506000805b8551811015612dfa57612d918787838151811061203b5761203b614928565b15612de857858181518110612da857612da8614928565b6020026020010151838381518110612dc257612dc2614928565b6001600160a01b039092166020928302919091019091015281612de48161490f565b9250505b80612df28161490f565b915050612d72565b509095945050505050565b600082815260208190526040902060010154612e2090610df3565b6112725760405162461bcd60e51b815260040161074a9061481a565b6000600080516020614a6d833981519152612e578133612086565b612e735760405162461bcd60e51b815260040161074a906145b3565b336000908152600d602052604090205480612ea05760405162461bcd60e51b815260040161074a90614653565b6000818152600c602052604090206005015460ff16612ed15760405162461bcd60e51b815260040161074a9061468a565b336000908152600d6020908152604080832054875188840120818552600c909352928190209051612f059160040190614988565b604051809103902014612f4d5760405162461bcd60e51b815260206004820152601060248201526f496e76616c69642075736572206b657960801b604482015260640161074a565b60008b5111612f9e5760405162461bcd60e51b815260206004820152601c60248201527f50726f64756374206e616d652063616e6e6f7420626520656d70747900000000604482015260640161074a565b6000885111612fef5760405162461bcd60e51b815260206004820152601c60248201527f4261746368206e756d6265722063616e6e6f7420626520656d70747900000000604482015260640161074a565b4287116130485760405162461bcd60e51b815260206004820152602160248201527f4578706972792064617465206d75737420626520696e207468652066757475726044820152606560f81b606482015260840161074a565b600480549060006130588361490f565b90915550506001546001600160a01b03161561310757600154604051636d66aa8f60e01b81526020600482015260076024820152661c1c9bd91d58dd60ca1b60448201526000916001600160a01b031690636d66aa8f90606401602060405180830381865afa1580156130cf573d6000803e3d6000fd5b505050506040513d601f19601f820116820180604052508101906130f391906149fe565b600454600090815260036020526040902055505b60405180610180016040528060045481526020018c81526020018b81526020018a81526020014281526020016000600881111561314657613146613e02565b81523360208083019190915260408083018a905260016060840181905260006080850181905260a085018e905260c09094018c905260045484526006835292208351815590830151909182019061319d9082614739565b50604082015160028201906131b29082614739565b50606082015160038201906131c79082614739565b506080820151600482015560a082015160058201805460ff191660018360088111156131f5576131f5613e02565b021790555060c08201516005820180546001600160a01b0390921661010002610100600160a81b031990921691909117905560e0820151600682019061323b9082614739565b5061010082015160078201805460ff1916911515919091179055610120820151600882015561014082015160098201906132759082614739565b506101609190910151600a91820155600480546000908152602092835260408082208054600181810183559184528584200180546001600160a01b03191633908117909155935483526008855281832082516060810184528c81524281880152928301949094528354908101845592825292902082516003909202019081906132fe9082614739565b50602082810151600183810191909155604093840151600290930180546001600160a01b0319166001600160a01b0390941693909317909255336000908152600b8252838120600454815494850182559082529190209091015551600f90613367908a906148f3565b9081526040519081900360209081018220600480548254600181018455600093845293909220909201555433917f90934fc9dc1095f968f4207cb62e27da1da3e31653ff34cbf837b6c349ded760906133c3908f9042906147f8565b60405180910390a350506004549998505050505050505050565b600a60205281600052604060002081815481106133f957600080fd5b6000918252602090912001546001600160a01b03169150829050565b8160008111801561342857506004548111155b6134445760405162461bcd60e51b815260040161074a906145f6565b60008181526006602052604090206007015460ff166134755760405162461bcd60e51b815260040161074a90614626565b600083815260066020526040902060050154839061010090046001600160a01b031633146134d95760405162461bcd60e51b81526020600482015260116024820152702737ba10383937b23ab1ba1037bbb732b960791b604482015260640161074a565b60008481526006602052604090206005015460ff1660088111156134ff576134ff613e02565b60ff1683600881111561351457613514613e02565b60ff16116135645760405162461bcd60e51b815260206004820152601960248201527f496e76616c69642073746167652070726f6772657373696f6e00000000000000604482015260640161074a565b6000848152600660205260409020600501805484919060ff1916600183600881111561359257613592613e02565b021790555050505050565b6135a78282612086565b610e1f576000828152602081815260408083206001600160a01b0385168085529252808320805460ff1916600117905551339285917f2f8788117e7eff1d82e926ec794901d17c78024a50270940304540a733656f0d9190a45050565b61360e8282612086565b15610e1f576000828152602081815260408083206001600160a01b0385168085529252808320805460ff1916905551339285917ff6391f5c32d9c69d2a47ea670b442974b53935d1edc7fd64eb21e047a839171b9190a45050565b6060816000036136905750506040805180820190915260018152600360fc1b602082015290565b8160005b81156136ba57806136a48161490f565b91506136b39050600a83614a2d565b9150613694565b6000816001600160401b038111156136d4576136d46137ab565b6040519080825280601f01601f1916602001820160405280156136fe576020820181803683370190505b508593509050815b831561376b57613717600a85614a41565b613722906030614876565b60f81b8261372f83614a55565b9250828151811061374257613742614928565b60200101906001600160f81b031916908160001a905350613764600a85614a2d565b9350613706565b50949350505050565b80356001600160a01b038116811461378b57600080fd5b919050565b6000602082840312156137a257600080fd5b6122e682613774565b634e487b7160e01b600052604160045260246000fd5b604051608081016001600160401b03811182821017156137e3576137e36137ab565b60405290565b604051601f8201601f191681016001600160401b0381118282101715613811576138116137ab565b604052919050565b600082601f83011261382a57600080fd5b81356001600160401b03811115613843576138436137ab565b613856601f8201601f19166020016137e9565b81815284602083860101111561386b57600080fd5b816020850160208301376000918101602001919091529392505050565b60008060006060848603121561389d57600080fd5b833592506020840135915060408401356001600160401b038111156138c157600080fd5b6138cd86828701613819565b9150509250925092565b600080604083850312156138ea57600080fd5b50508035926020909101359150565b60005b838110156139145781810151838201526020016138fc565b50506000910152565b600081518084526139358160208601602086016138f9565b601f01601f19169290920160200192915050565b838152826020820152606060408201526000613968606083018461391d565b95945050505050565b60006020828403121561398357600080fd5b81356001600160401b0381111561399957600080fd5b6139a584828501613819565b949350505050565b6000602082840312156139bf57600080fd5b5035919050565b6000806000606084860312156139db57600080fd5b833592506139eb60208501613774565b915060408401356001600160401b038111156138c157600080fd5b60008060408385031215613a1957600080fd5b82359150613a2960208401613774565b90509250929050565b60a081526000613a4560a083018861391d565b86151560208401528281036040840152613a5f818761391d565b6001600160a01b039590951660608401525050608001529392505050565b6001600160a01b038816815260e060208201819052600090613aa19083018961391d565b8281036040840152613ab3818961391d565b90508281036060840152613ac7818861391d565b90508281036080840152613adb818761391d565b94151560a0840152505060c0015295945050505050565b606081526000613b05606083018661391d565b6020830194909452506001600160a01b0391909116604090910152919050565b60006020808301818452808551808352604092508286019150828160051b87010184880160005b83811015613b9657888303603f1901855281518051845287810151888501528601516060878501819052613b828186018361391d565b968901969450505090860190600101613b4c565b509098975050505050505050565b600081518084526020808501945080840160005b83811015613bdd5781516001600160a01b031687529582019590820190600101613bb8565b509495945050505050565b6000815180845260208085019450848260051b860182860160005b85811015613c7d578383038952815160a08151818652613c258287018261391d565b9150508682015115158786015260408083015186830382880152613c49838261391d565b6060858101516001600160a01b03169089015260809485015194909701939093525050509784019790840190600101613c03565b5090979650505050505050565b60006060808352613c9d81840187613ba4565b6020848203818601528187518084528284019150828160051b850101838a0160005b83811015613d1357868303601f1901855281518051898552613ce38a86018261391d565b82890151868a01526040928301516001600160a01b03169290950191909152509385019390850190600101613cbf565b5050878103604089015261243f818a613be8565b60008060008060808587031215613d3d57600080fd5b613d4685613774565b935060208501356001600160401b0380821115613d6257600080fd5b613d6e88838901613819565b94506040870135915080821115613d8457600080fd5b613d9088838901613819565b93506060870135915080821115613da657600080fd5b50613db387828801613819565b91505092959194509250565b600081518084526020808501945080840160005b83811015613bdd57815187529582019590820190600101613dd3565b6020815260006122e66020830184613dbf565b634e487b7160e01b600052602160045260246000fd5b60006101808e8352806020840152613e328184018f61391d565b90508281036040840152613e46818e61391d565b90508281036060840152613e5a818d61391d565b90508a608084015260098a10613e8057634e487b7160e01b600052602160045260246000fd5b8960a0840152613e9b60c084018a6001600160a01b03169052565b82810360e0840152613ead818961391d565b871515610100850152905085610120840152828103610140840152613ed2818661391d565b915050826101608301529d9c50505050505050505050505050565b60006001600160401b03821115613f0657613f066137ab565b5060051b60200190565b600082601f830112613f2157600080fd5b81356020613f36613f3183613eed565b6137e9565b82815260059290921b84018101918181019086841115613f5557600080fd5b8286015b84811015613f7757613f6a81613774565b8352918301918301613f59565b509695505050505050565b60008060408385031215613f9557600080fd5b82356001600160401b0380821115613fac57600080fd5b818501915085601f830112613fc057600080fd5b81356020613fd0613f3183613eed565b82815260059290921b84018101918181019089841115613fef57600080fd5b948201945b8386101561400d57853582529482019490820190613ff4565b9650508601359250508082111561402357600080fd5b5061403085828601613f10565b9150509250929050565b6020808252825182820181905260009190848201906040850190845b81811015614074578351151583529284019291840191600101614056565b50909695505050505050565b6000806040838503121561409357600080fd5b8235915060208301356001600160401b038111156140b057600080fd5b61403085828601613819565b60008060008060008060c087890312156140d557600080fd5b86356001600160401b03808211156140ec57600080fd5b6140f88a838b01613819565b9750602089013591508082111561410e57600080fd5b61411a8a838b01613819565b9650604089013591508082111561413057600080fd5b61413c8a838b01613819565b9550606089013591508082111561415257600080fd5b61415e8a838b01613819565b94506080890135935060a089013591508082111561417b57600080fd5b5061418889828a01613819565b9150509295509295509295565b600080604083850312156141a857600080fd5b82356001600160401b038111156141be57600080fd5b6141ca85828601613819565b95602094909401359450505050565b80356009811061378b57600080fd5b600060208083850312156141fb57600080fd5b82356001600160401b038082111561421257600080fd5b908401906080828703121561422657600080fd5b61422e6137c1565b82358281111561423d57600080fd5b8301601f8101881361424e57600080fd5b803561425c613f3182613eed565b81815260059190911b8201860190868101908a83111561427b57600080fd5b928701925b8284101561429957833582529287019290870190614280565b8452506142aa915050838501613774565b8482015260408301359350818411156142c257600080fd5b6142ce87858501613819565b60408201526142df606084016141d9565b60608201529695505050505050565b600080600080600060a0868803121561430657600080fd5b61430f86613774565b945060208601356001600160401b038082111561432b57600080fd5b61433789838a01613819565b9550604088013591508082111561434d57600080fd5b61435989838a01613819565b9450606088013591508082111561436f57600080fd5b61437b89838a01613819565b9350608088013591508082111561439157600080fd5b5061439e88828901613819565b9150509295509295909350565b600080604083850312156143be57600080fd5b6143c783613774565b946020939093013593505050565b600080600080608085870312156143eb57600080fd5b8435935060208501356001600160401b038082111561440957600080fd5b61441588838901613819565b945060408701359150811515821461442c57600080fd5b90925060608601359080821115613da657600080fd5b6000806040838503121561445557600080fd5b8235915060208301356001600160401b0381111561447257600080fd5b61403085828601613f10565b6020815260006122e66020830184613ba4565b600080600080600080600060e0888a0312156144ac57600080fd5b87356001600160401b03808211156144c357600080fd5b6144cf8b838c01613819565b985060208a01359150808211156144e557600080fd5b6144f18b838c01613819565b975060408a013591508082111561450757600080fd5b6145138b838c01613819565b965060608a013591508082111561452957600080fd5b6145358b838c01613819565b955060808a0135945060a08a013591508082111561455257600080fd5b61455e8b838c01613819565b935060c08a013591508082111561457457600080fd5b506145818a828b01613819565b91505092959891949750929550565b600080604083850312156145a357600080fd5b82359150613a29602084016141d9565b60208082526023908201527f416363657373436f6e74726f6c3a206163636f756e74206d697373696e6720726040820152626f6c6560e81b606082015260800190565b602080825260169082015275141c9bd91d58dd08191bd95cc81b9bdd08195e1a5cdd60521b604082015260600190565b60208082526013908201527250726f6475637420697320696e61637469766560681b604082015260600190565b6020808252601c908201527f4e6f7420612072656769737465726564207061727469636970616e7400000000604082015260600190565b6020808252818101527f5061727469636970616e74206163636f756e742069732073757370656e646564604082015260600190565b600181811c908216806146d357607f821691505b60208210810361158357634e487b7160e01b600052602260045260246000fd5b601f8211156107e557600081815260208120601f850160051c8101602086101561471a5750805b601f850160051c820191505b81811015611bdb57828155600101614726565b81516001600160401b03811115614752576147526137ab565b6147668161476084546146bf565b846146f3565b602080601f83116001811461479b57600084156147835750858301515b600019600386901b1c1916600185901b178555611bdb565b600085815260208120601f198616915b828110156147ca578886015182559484019460019091019084016147ab565b50858210156147e85787850151600019600388901b60f8161c191681555b5050505050600190811b01905550565b60408152600061480b604083018561391d565b90508260208301529392505050565b60208082526026908201527f416363657373436f6e74726f6c3a2073656e646572206d75737420626520616e6040820152651030b236b4b760d11b606082015260800190565b634e487b7160e01b600052601160045260246000fd5b8082018082111561208057612080614860565b635553525f60e01b8152600084516148a88160048501602089016138f9565b8083019050605f60f81b80600483015285516148cb816005850160208a016138f9565b600592019182015283516148e68160068401602088016138f9565b0160060195945050505050565b600082516149058184602087016138f9565b9190910192915050565b60006001820161492157614921614860565b5060010190565b634e487b7160e01b600052603260045260246000fd5b60408152600061480b6040830185613dbf565b606081526000614964606083018661391d565b8415156020840152828103604084015261497e818561391d565b9695505050505050565b6000808354614996816146bf565b600182811680156149ae57600181146149c3576149f2565b60ff19841687528215158302870194506149f2565b8760005260208060002060005b858110156149e95781548a8201529084019082016149d0565b50505082870194505b50929695505050505050565b600060208284031215614a1057600080fd5b5051919050565b634e487b7160e01b600052601260045260246000fd5b600082614a3c57614a3c614a17565b500490565b600082614a5057614a50614a17565b500690565b600081614a6457614a64614860565b50600019019056fe938c45fe3baa5cbd047f2473358a27f57db22291e9af95379a15ad016886dfb7a49807205ce4d355092ef5a8a18f56e8913cf4a201fbe287825b095693c21775a26469706673582212205524b7ca806cff6d272447fad81a40e0c81195b41ca569ced7a6a8c358a652a264736f6c63430008130033",
  "immutableReferences": {},
  "source": "// SPDX-License-Identifier: MIT\r\npragma solidity ^0.8.19;\r\n\r\nimport \"./AccessControl.sol\";\r\nimport \"./AdaptiveSharding.sol\";\r\nimport \"./HighEfficiencyProcessor.sol\";\r\n\r\n/**\r\n * @title SupplyChainTraceability\r\n * @dev Advanced supply chain traceability system with high efficiency and comprehensive tracking\r\n */\r\ncontract SupplyChainTraceability is AccessControl {\r\n    \r\n    // Integration with sharding and efficiency processor\r\n    AdaptiveSharding public shardingContract;\r\n    HighEfficiencyProcessor public processorContract;\r\n    mapping(uint256 => uint256) public productToShard;\r\n    \r\n    // Events for tracking and transparency\r\n    event ProductCreated(uint256 indexed productId, string name, address indexed creator, uint256 timestamp);\r\n    event ProductTransferred(uint256 indexed productId, address indexed from, address indexed to, uint256 timestamp);\r\n    event BatchProcessed(uint256[] productIds, address indexed processor, uint256 timestamp);\r\n    event QualityCheckAdded(uint256 indexed productId, string checkType, bool passed, string notes);\r\n    event LocationUpdated(uint256 indexed productId, string location, uint256 timestamp);\r\n    event TemperatureLogged(uint256 indexed productId, int256 temperature, uint256 timestamp);\r\n    \r\n    // Product lifecycle stages\r\n    enum Stage {\r\n        Created,           // 0\r\n        RawMaterial,       // 1  \r\n        Manufacturing,     // 2\r\n        QualityControl,    // 3\r\n        Packaging,         // 4\r\n        Distribution,      // 5\r\n        Retail,           // 6\r\n        Sold,             // 7\r\n        Recalled          // 8\r\n    }\r\n    \r\n    // Product information structure\r\n    struct Product {\r\n        uint256 id;\r\n        string name;\r\n        string description;\r\n        string category;\r\n        uint256 createdAt;\r\n        Stage currentStage;\r\n        address currentOwner;\r\n        string currentLocation;\r\n        bool isActive;\r\n        uint256 parentProductId; // For products derived from others\r\n        string batchNumber;\r\n        uint256 expiryDate;\r\n    }\r\n    \r\n    // Quality check structure\r\n    struct QualityCheck {\r\n        string checkType;\r\n        bool passed;\r\n        string notes;\r\n        address inspector;\r\n        uint256 timestamp;\r\n    }\r\n    \r\n    // Location history structure\r\n    struct LocationHistory {\r\n        string location;\r\n        uint256 timestamp;\r\n        address updatedBy;\r\n    }\r\n    \r\n    // Temperature log structure\r\n    struct TemperatureLog {\r\n        int256 temperature;\r\n        uint256 timestamp;\r\n        string sensorId;\r\n    }\r\n    \r\n    // Supply chain participant structure\r\n    struct Participant {\r\n        address participantAddress;\r\n        string name;\r\n        string role;\r\n        string location;\r\n        string userKey;\r\n        bool isActive;\r\n        uint256 registeredAt;\r\n    }\r\n    \r\n    // State variables\r\n    uint256 private productCounter;\r\n    uint256 private participantCounter;\r\n    \r\n    // Mappings\r\n    mapping(uint256 => Product) public products;\r\n    mapping(uint256 => QualityCheck[]) public productQualityChecks;\r\n    mapping(uint256 => LocationHistory[]) public productLocationHistory;\r\n    mapping(uint256 => TemperatureLog[]) public productTemperatureLogs;\r\n    mapping(uint256 => address[]) public productOwnershipHistory;\r\n    mapping(address => uint256[]) public participantProducts;\r\n    mapping(uint256 => Participant) public participants;\r\n    mapping(address => uint256) public addressToParticipantId;\r\n    mapping(string => uint256) public userKeyToParticipantId;\r\n    mapping(string => uint256[]) public batchProducts; // batch number to product IDs\r\n    \r\n    // Gas optimization: Pack multiple operations\r\n    struct BatchOperation {\r\n        uint256[] productIds;\r\n        address newOwner;\r\n        string newLocation;\r\n        Stage newStage;\r\n    }\r\n    \r\n    modifier onlyProductOwner(uint256 _productId) {\r\n        require(products[_productId].currentOwner == msg.sender, \"Not product owner\");\r\n        _;\r\n    }\r\n    \r\n    modifier productExists(uint256 _productId) {\r\n        require(_productId > 0 && _productId <= productCounter, \"Product does not exist\");\r\n        require(products[_productId].isActive, \"Product is inactive\");\r\n        _;\r\n    }\r\n    \r\n    modifier onlyRegisteredParticipant() {\r\n        require(addressToParticipantId[msg.sender] > 0, \"Not a registered participant\");\r\n        _;\r\n    }\r\n    \r\n    modifier onlyActiveParticipant() {\r\n        uint256 participantId = addressToParticipantId[msg.sender];\r\n        require(participantId > 0, \"Not a registered participant\");\r\n        require(participants[participantId].isActive, \"Participant account is suspended\");\r\n        _;\r\n    }\r\n    \r\n    constructor(address _shardingContract, address _processorContract) {\r\n        _setupRole(DEFAULT_ADMIN_ROLE, msg.sender);\r\n        _setupRole(ADMIN_ROLE, msg.sender);\r\n        \r\n        if (_shardingContract != address(0)) {\r\n            shardingContract = AdaptiveSharding(_shardingContract);\r\n        }\r\n        if (_processorContract != address(0)) {\r\n            processorContract = HighEfficiencyProcessor(_processorContract);\r\n        }\r\n    }\r\n    \r\n    /**\r\n     * @dev Register a new supply chain participant with user key\r\n     */\r\n    function registerParticipant(\r\n        address _participantAddress,\r\n        string memory _name,\r\n        string memory _role,\r\n        string memory _location,\r\n        string memory _userKey\r\n    ) external onlyRole(ADMIN_ROLE) {\r\n        require(addressToParticipantId[_participantAddress] == 0, \"Participant already registered\");\r\n        require(userKeyToParticipantId[_userKey] == 0, \"User key already exists\");\r\n        require(bytes(_userKey).length > 0, \"User key cannot be empty\");\r\n        \r\n        participantCounter++;\r\n        participants[participantCounter] = Participant({\r\n            participantAddress: _participantAddress,\r\n            name: _name,\r\n            role: _role,\r\n            location: _location,\r\n            userKey: _userKey,\r\n            isActive: true,\r\n            registeredAt: block.timestamp\r\n        });\r\n        \r\n        addressToParticipantId[_participantAddress] = participantCounter;\r\n        userKeyToParticipantId[_userKey] = participantCounter;\r\n        grantRole(PARTICIPANT_ROLE, _participantAddress);\r\n    }\r\n    \r\n    /**\r\n     * @dev Register a new supply chain participant (backward compatibility - generates user key)\r\n     */\r\n    function registerParticipant(\r\n        address _participantAddress,\r\n        string memory _name,\r\n        string memory _role,\r\n        string memory _location\r\n    ) external onlyRole(ADMIN_ROLE) {\r\n        require(addressToParticipantId[_participantAddress] == 0, \"Participant already registered\");\r\n        \r\n        // Generate a simple user key for backward compatibility\r\n        string memory generatedUserKey = string(abi.encodePacked(\r\n            \"USR_\", \r\n            _role, \r\n            \"_\", \r\n            uint2str(block.timestamp), \r\n            \"_\", \r\n            uint2str(participantCounter + 1)\r\n        ));\r\n        \r\n        require(userKeyToParticipantId[generatedUserKey] == 0, \"Generated user key already exists\");\r\n        \r\n        participantCounter++;\r\n        participants[participantCounter] = Participant({\r\n            participantAddress: _participantAddress,\r\n            name: _name,\r\n            role: _role,\r\n            location: _location,\r\n            userKey: generatedUserKey,\r\n            isActive: true,\r\n            registeredAt: block.timestamp\r\n        });\r\n        \r\n        addressToParticipantId[_participantAddress] = participantCounter;\r\n        userKeyToParticipantId[generatedUserKey] = participantCounter;\r\n        grantRole(PARTICIPANT_ROLE, _participantAddress);\r\n    }\r\n    \r\n    /**\r\n     * @dev Convert uint to string (helper function)\r\n     */\r\n    function uint2str(uint256 _i) internal pure returns (string memory str) {\r\n        if (_i == 0) {\r\n            return \"0\";\r\n        }\r\n        uint256 j = _i;\r\n        uint256 length;\r\n        while (j != 0) {\r\n            length++;\r\n            j /= 10;\r\n        }\r\n        bytes memory bstr = new bytes(length);\r\n        uint256 k = length;\r\n        j = _i;\r\n        while (j != 0) {\r\n            bstr[--k] = bytes1(uint8(48 + j % 10));\r\n            j /= 10;\r\n        }\r\n        str = string(bstr);\r\n    }\r\n    \r\n    /**\r\n     * @dev Create a new product in the supply chain with user key validation\r\n     */\r\n    function createProductWithKey(\r\n        string memory _name,\r\n        string memory _description,\r\n        string memory _category,\r\n        string memory _batchNumber,\r\n        uint256 _expiryDate,\r\n        string memory _initialLocation,\r\n        string memory _userKey\r\n    ) public onlyRole(PARTICIPANT_ROLE) onlyActiveParticipant returns (uint256) {\r\n        // Validate user key matches the sender\r\n        uint256 participantId = addressToParticipantId[msg.sender];\r\n        require(\r\n            keccak256(bytes(participants[participantId].userKey)) == keccak256(bytes(_userKey)),\r\n            \"Invalid user key\"\r\n        );\r\n        \r\n        // Additional input validation\r\n        require(bytes(_name).length > 0, \"Product name cannot be empty\");\r\n        require(bytes(_batchNumber).length > 0, \"Batch number cannot be empty\");\r\n        require(_expiryDate > block.timestamp, \"Expiry date must be in the future\");\r\n        productCounter++;\r\n        \r\n        // Assign product to optimal shard\r\n        if (address(shardingContract) != address(0)) {\r\n            uint256 shardId = shardingContract.getOptimalShard(\"product\");\r\n            productToShard[productCounter] = shardId;\r\n        }\r\n        \r\n        products[productCounter] = Product({\r\n            id: productCounter,\r\n            name: _name,\r\n            description: _description,\r\n            category: _category,\r\n            createdAt: block.timestamp,\r\n            currentStage: Stage.Created,\r\n            currentOwner: msg.sender,\r\n            currentLocation: _initialLocation,\r\n            isActive: true,\r\n            parentProductId: 0,\r\n            batchNumber: _batchNumber,\r\n            expiryDate: _expiryDate\r\n        });\r\n        \r\n        // Initialize history\r\n        productOwnershipHistory[productCounter].push(msg.sender);\r\n        productLocationHistory[productCounter].push(LocationHistory({\r\n            location: _initialLocation,\r\n            timestamp: block.timestamp,\r\n            updatedBy: msg.sender\r\n        }));\r\n        \r\n        // Add to participant's products\r\n        participantProducts[msg.sender].push(productCounter);\r\n        \r\n        // Add to batch\r\n        batchProducts[_batchNumber].push(productCounter);\r\n        \r\n        emit ProductCreated(productCounter, _name, msg.sender, block.timestamp);\r\n        \r\n        return productCounter;\r\n    }\r\n    \r\n    /**\r\n     * @dev Create a new product (backward compatibility without user key)\r\n     */\r\n    function createProduct(\r\n        string memory _name,\r\n        string memory _description,\r\n        string memory _category,\r\n        string memory _batchNumber,\r\n        uint256 _expiryDate,\r\n        string memory _initialLocation\r\n    ) external onlyRole(PARTICIPANT_ROLE) onlyActiveParticipant returns (uint256) {\r\n        // Get user key from storage\r\n        uint256 participantId = addressToParticipantId[msg.sender];\r\n        string memory userKey = participants[participantId].userKey;\r\n        \r\n        // Call the new function with stored user key\r\n        return createProductWithKey(\r\n            _name,\r\n            _description,\r\n            _category,\r\n            _batchNumber,\r\n            _expiryDate,\r\n            _initialLocation,\r\n            userKey\r\n        );\r\n    }\r\n    \r\n    /**\r\n     * @dev Transfer product ownership with enhanced validation\r\n     */\r\n    function transferProduct(\r\n        uint256 _productId,\r\n        address _newOwner,\r\n        string memory _newLocation\r\n    ) external productExists(_productId) onlyProductOwner(_productId) onlyActiveParticipant {\r\n        require(addressToParticipantId[_newOwner] > 0, \"New owner not registered\");\r\n        require(participants[addressToParticipantId[_newOwner]].isActive, \"New owner account is suspended\");\r\n        \r\n        address previousOwner = products[_productId].currentOwner;\r\n        \r\n        // Update product\r\n        products[_productId].currentOwner = _newOwner;\r\n        products[_productId].currentLocation = _newLocation;\r\n        \r\n        // Update histories\r\n        productOwnershipHistory[_productId].push(_newOwner);\r\n        productLocationHistory[_productId].push(LocationHistory({\r\n            location: _newLocation,\r\n            timestamp: block.timestamp,\r\n            updatedBy: msg.sender\r\n        }));\r\n        \r\n        // Update participant products\r\n        participantProducts[_newOwner].push(_productId);\r\n        \r\n        emit ProductTransferred(_productId, previousOwner, _newOwner, block.timestamp);\r\n        emit LocationUpdated(_productId, _newLocation, block.timestamp);\r\n    }\r\n    \r\n    /**\r\n     * @dev Update product stage\r\n     */\r\n    function updateStage(\r\n        uint256 _productId,\r\n        Stage _newStage\r\n    ) external productExists(_productId) onlyProductOwner(_productId) {\r\n        require(uint8(_newStage) > uint8(products[_productId].currentStage), \"Invalid stage progression\");\r\n        \r\n        products[_productId].currentStage = _newStage;\r\n    }\r\n    \r\n    /**\r\n     * @dev Batch process multiple products (gas optimization)\r\n     */\r\n    function batchTransfer(\r\n        BatchOperation memory _operation\r\n    ) external {\r\n        require(_operation.productIds.length > 0, \"No products specified\");\r\n        require(addressToParticipantId[_operation.newOwner] > 0, \"New owner not registered\");\r\n        \r\n        for (uint256 i = 0; i < _operation.productIds.length; i++) {\r\n            uint256 productId = _operation.productIds[i];\r\n            require(products[productId].currentOwner == msg.sender, \"Not owner of all products\");\r\n            require(products[productId].isActive, \"Product inactive\");\r\n            \r\n            // Update product\r\n            products[productId].currentOwner = _operation.newOwner;\r\n            products[productId].currentLocation = _operation.newLocation;\r\n            products[productId].currentStage = _operation.newStage;\r\n            \r\n            // Update histories\r\n            productOwnershipHistory[productId].push(_operation.newOwner);\r\n            productLocationHistory[productId].push(LocationHistory({\r\n                location: _operation.newLocation,\r\n                timestamp: block.timestamp,\r\n                updatedBy: msg.sender\r\n            }));\r\n            \r\n            participantProducts[_operation.newOwner].push(productId);\r\n        }\r\n        \r\n        emit BatchProcessed(_operation.productIds, _operation.newOwner, block.timestamp);\r\n    }\r\n    \r\n    /**\r\n     * @dev Add quality check result with user validation\r\n     */\r\n    function addQualityCheck(\r\n        uint256 _productId,\r\n        string memory _checkType,\r\n        bool _passed,\r\n        string memory _notes\r\n    ) external productExists(_productId) onlyRole(PARTICIPANT_ROLE) onlyActiveParticipant {\r\n        productQualityChecks[_productId].push(QualityCheck({\r\n            checkType: _checkType,\r\n            passed: _passed,\r\n            notes: _notes,\r\n            inspector: msg.sender,\r\n            timestamp: block.timestamp\r\n        }));\r\n        \r\n        emit QualityCheckAdded(_productId, _checkType, _passed, _notes);\r\n    }\r\n    \r\n    /**\r\n     * @dev Log temperature data (IoT integration) with validation\r\n     */\r\n    function logTemperature(\r\n        uint256 _productId,\r\n        int256 _temperature,\r\n        string memory _sensorId\r\n    ) external productExists(_productId) onlyRole(PARTICIPANT_ROLE) onlyActiveParticipant {\r\n        productTemperatureLogs[_productId].push(TemperatureLog({\r\n            temperature: _temperature,\r\n            timestamp: block.timestamp,\r\n            sensorId: _sensorId\r\n        }));\r\n        \r\n        emit TemperatureLogged(_productId, _temperature, block.timestamp);\r\n    }\r\n    \r\n    /**\r\n     * @dev Recall a product\r\n     */\r\n    function recallProduct(\r\n        uint256 _productId,\r\n        string memory _reason\r\n    ) external productExists(_productId) onlyRole(ADMIN_ROLE) {\r\n        products[_productId].currentStage = Stage.Recalled;\r\n        products[_productId].isActive = false;\r\n        \r\n        // Add quality check for recall\r\n        productQualityChecks[_productId].push(QualityCheck({\r\n            checkType: \"RECALL\",\r\n            passed: false,\r\n            notes: _reason,\r\n            inspector: msg.sender,\r\n            timestamp: block.timestamp\r\n        }));\r\n    }\r\n    \r\n    /**\r\n     * @dev Suspend a participant (admin only)\r\n     */\r\n    function suspendParticipant(address _participantAddress) \r\n        external \r\n        onlyRole(ADMIN_ROLE) {\r\n        uint256 participantId = addressToParticipantId[_participantAddress];\r\n        require(participantId > 0, \"Participant not found\");\r\n        participants[participantId].isActive = false;\r\n        revokeRole(PARTICIPANT_ROLE, _participantAddress);\r\n    }\r\n    \r\n    /**\r\n     * @dev Reactivate a participant (admin only)\r\n     */\r\n    function reactivateParticipant(address _participantAddress) \r\n        external \r\n        onlyRole(ADMIN_ROLE) {\r\n        uint256 participantId = addressToParticipantId[_participantAddress];\r\n        require(participantId > 0, \"Participant not found\");\r\n        participants[participantId].isActive = true;\r\n        grantRole(PARTICIPANT_ROLE, _participantAddress);\r\n    }\r\n    \r\n    // View functions for comprehensive traceability\r\n    \r\n    function getProductHistory(uint256 _productId) \r\n        external \r\n        view \r\n        productExists(_productId) \r\n        returns (\r\n            address[] memory owners,\r\n            LocationHistory[] memory locations,\r\n            QualityCheck[] memory qualityChecks\r\n        ) {\r\n        return (\r\n            productOwnershipHistory[_productId],\r\n            productLocationHistory[_productId],\r\n            productQualityChecks[_productId]\r\n        );\r\n    }\r\n    \r\n    function getTemperatureHistory(uint256 _productId) \r\n        external \r\n        view \r\n        productExists(_productId) \r\n        returns (TemperatureLog[] memory) {\r\n        return productTemperatureLogs[_productId];\r\n    }\r\n    \r\n    function getBatchProducts(string memory _batchNumber) \r\n        external \r\n        view \r\n        returns (uint256[] memory) {\r\n        return batchProducts[_batchNumber];\r\n    }\r\n    \r\n    function getParticipantProducts(address _participant) \r\n        external \r\n        view \r\n        returns (uint256[] memory) {\r\n        return participantProducts[_participant];\r\n    }\r\n    \r\n    function isProductAuthentic(uint256 _productId) \r\n        external \r\n        view \r\n        productExists(_productId) \r\n        returns (bool) {\r\n        return products[_productId].isActive && \r\n               products[_productId].currentStage != Stage.Recalled;\r\n    }\r\n    \r\n    // Utility functions\r\n    function getProductCount() external view returns (uint256) {\r\n        return productCounter;\r\n    }\r\n    \r\n    function getParticipantCount() external view returns (uint256) {\r\n        return participantCounter;\r\n    }\r\n}",
  "sourcePath": "C:\\projects\\BLOCKCHAIN_PROJECT\\contracts\\SupplyChainTraceability.sol",
  "compiler": {
    "name": "solc",
    "version": "0.8.19+commit.7dd6d404.Emscripten.clang"
  },
  "schemaVersion": "3.4.16",
  "updatedAt": "2025-08-28T12:23:35.192Z",
  "networkType": "ethereum",
  "devdoc": {
    "details": "Advanced supply chain traceability system with high efficiency and comprehensive tracking",
    "kind": "dev",
    "methods": {
      "addQualityCheck(uint256,string,bool,string)": {
        "details": "Add quality check result with user validation"
      },
      "batchTransfer((uint256[],address,string,uint8))": {
        "details": "Batch process multiple products (gas optimization)"
      },
      "createProduct(string,string,string,string,uint256,string)": {
        "details": "Create a new product (backward compatibility without user key)"
      },
      "createProductWithKey(string,string,string,string,uint256,string,string)": {
        "details": "Create a new product in the supply chain with user key validation"
      },
      "getRoleAdmin(bytes32)": {
        "details": "Get the admin role for a given role"
      },
      "getRoleMembers(bytes32,address[])": {
        "details": "Get all accounts with a specific role (expensive operation, use carefully)"
      },
      "grantRole(bytes32,address)": {
        "details": "Grant a role to an account"
      },
      "hasRole(bytes32,address)": {
        "details": "Check if an account has a specific role"
      },
      "hasRoles(bytes32[],address[])": {
        "details": "Check if multiple accounts have required roles (batch check)"
      },
      "logTemperature(uint256,int256,string)": {
        "details": "Log temperature data (IoT integration) with validation"
      },
      "reactivateParticipant(address)": {
        "details": "Reactivate a participant (admin only)"
      },
      "recallProduct(uint256,string)": {
        "details": "Recall a product"
      },
      "registerParticipant(address,string,string,string)": {
        "details": "Register a new supply chain participant (backward compatibility - generates user key)"
      },
      "registerParticipant(address,string,string,string,string)": {
        "details": "Register a new supply chain participant with user key"
      },
      "renounceRole(bytes32,address)": {
        "details": "Renounce a role (can only be called by the account itself)"
      },
      "revokeRole(bytes32,address)": {
        "details": "Revoke a role from an account"
      },
      "suspendParticipant(address)": {
        "details": "Suspend a participant (admin only)"
      },
      "transferProduct(uint256,address,string)": {
        "details": "Transfer product ownership with enhanced validation"
      },
      "updateStage(uint256,uint8)": {
        "details": "Update product stage"
      }
    },
    "title": "SupplyChainTraceability",
    "version": 1
  },
  "userdoc": {
    "kind": "user",
    "methods": {},
    "version": 1
  }
}