{
  "contractName": "SupplyChainTraceability",
  "abi": [
    {
      "inputs": [],
      "stateMutability": "nonpayable",
      "type": "constructor"
    },
    {
      "anonymous": false,
      "inputs": [
        {
          "indexed": false,
          "internalType": "uint256[]",
          "name": "productIds",
          "type": "uint256[]"
        },
        {
          "indexed": true,
          "internalType": "address",
          "name": "processor",
          "type": "address"
        },
        {
          "indexed": false,
          "internalType": "uint256",
          "name": "timestamp",
          "type": "uint256"
        }
      ],
      "name": "BatchProcessed",
      "type": "event"
    },
    {
      "anonymous": false,
      "inputs": [
        {
          "indexed": true,
          "internalType": "uint256",
          "name": "productId",
          "type": "uint256"
        },
        {
          "indexed": false,
          "internalType": "string",
          "name": "location",
          "type": "string"
        },
        {
          "indexed": false,
          "internalType": "uint256",
          "name": "timestamp",
          "type": "uint256"
        }
      ],
      "name": "LocationUpdated",
      "type": "event"
    },
    {
      "anonymous": false,
      "inputs": [
        {
          "indexed": true,
          "internalType": "uint256",
          "name": "productId",
          "type": "uint256"
        },
        {
          "indexed": false,
          "internalType": "string",
          "name": "name",
          "type": "string"
        },
        {
          "indexed": true,
          "internalType": "address",
          "name": "creator",
          "type": "address"
        },
        {
          "indexed": false,
          "internalType": "uint256",
          "name": "timestamp",
          "type": "uint256"
        }
      ],
      "name": "ProductCreated",
      "type": "event"
    },
    {
      "anonymous": false,
      "inputs": [
        {
          "indexed": true,
          "internalType": "uint256",
          "name": "productId",
          "type": "uint256"
        },
        {
          "indexed": true,
          "internalType": "address",
          "name": "from",
          "type": "address"
        },
        {
          "indexed": true,
          "internalType": "address",
          "name": "to",
          "type": "address"
        },
        {
          "indexed": false,
          "internalType": "uint256",
          "name": "timestamp",
          "type": "uint256"
        }
      ],
      "name": "ProductTransferred",
      "type": "event"
    },
    {
      "anonymous": false,
      "inputs": [
        {
          "indexed": true,
          "internalType": "uint256",
          "name": "productId",
          "type": "uint256"
        },
        {
          "indexed": false,
          "internalType": "string",
          "name": "checkType",
          "type": "string"
        },
        {
          "indexed": false,
          "internalType": "bool",
          "name": "passed",
          "type": "bool"
        },
        {
          "indexed": false,
          "internalType": "string",
          "name": "notes",
          "type": "string"
        }
      ],
      "name": "QualityCheckAdded",
      "type": "event"
    },
    {
      "anonymous": false,
      "inputs": [
        {
          "indexed": true,
          "internalType": "bytes32",
          "name": "role",
          "type": "bytes32"
        },
        {
          "indexed": true,
          "internalType": "bytes32",
          "name": "previousAdminRole",
          "type": "bytes32"
        },
        {
          "indexed": true,
          "internalType": "bytes32",
          "name": "newAdminRole",
          "type": "bytes32"
        }
      ],
      "name": "RoleAdminChanged",
      "type": "event"
    },
    {
      "anonymous": false,
      "inputs": [
        {
          "indexed": true,
          "internalType": "bytes32",
          "name": "role",
          "type": "bytes32"
        },
        {
          "indexed": true,
          "internalType": "address",
          "name": "account",
          "type": "address"
        },
        {
          "indexed": true,
          "internalType": "address",
          "name": "sender",
          "type": "address"
        }
      ],
      "name": "RoleGranted",
      "type": "event"
    },
    {
      "anonymous": false,
      "inputs": [
        {
          "indexed": true,
          "internalType": "bytes32",
          "name": "role",
          "type": "bytes32"
        },
        {
          "indexed": true,
          "internalType": "address",
          "name": "account",
          "type": "address"
        },
        {
          "indexed": true,
          "internalType": "address",
          "name": "sender",
          "type": "address"
        }
      ],
      "name": "RoleRevoked",
      "type": "event"
    },
    {
      "anonymous": false,
      "inputs": [
        {
          "indexed": true,
          "internalType": "uint256",
          "name": "productId",
          "type": "uint256"
        },
        {
          "indexed": false,
          "internalType": "int256",
          "name": "temperature",
          "type": "int256"
        },
        {
          "indexed": false,
          "internalType": "uint256",
          "name": "timestamp",
          "type": "uint256"
        }
      ],
      "name": "TemperatureLogged",
      "type": "event"
    },
    {
      "inputs": [],
      "name": "ADMIN_ROLE",
      "outputs": [
        {
          "internalType": "bytes32",
          "name": "",
          "type": "bytes32"
        }
      ],
      "stateMutability": "view",
      "type": "function",
      "constant": true
    },
    {
      "inputs": [],
      "name": "AUDITOR_ROLE",
      "outputs": [
        {
          "internalType": "bytes32",
          "name": "",
          "type": "bytes32"
        }
      ],
      "stateMutability": "view",
      "type": "function",
      "constant": true
    },
    {
      "inputs": [],
      "name": "DEFAULT_ADMIN_ROLE",
      "outputs": [
        {
          "internalType": "bytes32",
          "name": "",
          "type": "bytes32"
        }
      ],
      "stateMutability": "view",
      "type": "function",
      "constant": true
    },
    {
      "inputs": [],
      "name": "IOT_DEVICE_ROLE",
      "outputs": [
        {
          "internalType": "bytes32",
          "name": "",
          "type": "bytes32"
        }
      ],
      "stateMutability": "view",
      "type": "function",
      "constant": true
    },
    {
      "inputs": [],
      "name": "PARTICIPANT_ROLE",
      "outputs": [
        {
          "internalType": "bytes32",
          "name": "",
          "type": "bytes32"
        }
      ],
      "stateMutability": "view",
      "type": "function",
      "constant": true
    },
    {
      "inputs": [
        {
          "internalType": "address",
          "name": "",
          "type": "address"
        }
      ],
      "name": "addressToParticipantId",
      "outputs": [
        {
          "internalType": "uint256",
          "name": "",
          "type": "uint256"
        }
      ],
      "stateMutability": "view",
      "type": "function",
      "constant": true
    },
    {
      "inputs": [
        {
          "internalType": "string",
          "name": "",
          "type": "string"
        },
        {
          "internalType": "uint256",
          "name": "",
          "type": "uint256"
        }
      ],
      "name": "batchProducts",
      "outputs": [
        {
          "internalType": "uint256",
          "name": "",
          "type": "uint256"
        }
      ],
      "stateMutability": "view",
      "type": "function",
      "constant": true
    },
    {
      "inputs": [
        {
          "internalType": "bytes32",
          "name": "role",
          "type": "bytes32"
        }
      ],
      "name": "getRoleAdmin",
      "outputs": [
        {
          "internalType": "bytes32",
          "name": "",
          "type": "bytes32"
        }
      ],
      "stateMutability": "view",
      "type": "function",
      "constant": true
    },
    {
      "inputs": [
        {
          "internalType": "bytes32",
          "name": "role",
          "type": "bytes32"
        },
        {
          "internalType": "address[]",
          "name": "candidates",
          "type": "address[]"
        }
      ],
      "name": "getRoleMembers",
      "outputs": [
        {
          "internalType": "address[]",
          "name": "",
          "type": "address[]"
        }
      ],
      "stateMutability": "view",
      "type": "function",
      "constant": true
    },
    {
      "inputs": [
        {
          "internalType": "bytes32",
          "name": "role",
          "type": "bytes32"
        },
        {
          "internalType": "address",
          "name": "account",
          "type": "address"
        }
      ],
      "name": "grantRole",
      "outputs": [],
      "stateMutability": "nonpayable",
      "type": "function"
    },
    {
      "inputs": [
        {
          "internalType": "bytes32",
          "name": "role",
          "type": "bytes32"
        },
        {
          "internalType": "address",
          "name": "account",
          "type": "address"
        }
      ],
      "name": "hasRole",
      "outputs": [
        {
          "internalType": "bool",
          "name": "",
          "type": "bool"
        }
      ],
      "stateMutability": "view",
      "type": "function",
      "constant": true
    },
    {
      "inputs": [
        {
          "internalType": "bytes32[]",
          "name": "roles",
          "type": "bytes32[]"
        },
        {
          "internalType": "address[]",
          "name": "accounts",
          "type": "address[]"
        }
      ],
      "name": "hasRoles",
      "outputs": [
        {
          "internalType": "bool[]",
          "name": "",
          "type": "bool[]"
        }
      ],
      "stateMutability": "view",
      "type": "function",
      "constant": true
    },
    {
      "inputs": [
        {
          "internalType": "address",
          "name": "",
          "type": "address"
        },
        {
          "internalType": "uint256",
          "name": "",
          "type": "uint256"
        }
      ],
      "name": "participantProducts",
      "outputs": [
        {
          "internalType": "uint256",
          "name": "",
          "type": "uint256"
        }
      ],
      "stateMutability": "view",
      "type": "function",
      "constant": true
    },
    {
      "inputs": [
        {
          "internalType": "uint256",
          "name": "",
          "type": "uint256"
        }
      ],
      "name": "participants",
      "outputs": [
        {
          "internalType": "address",
          "name": "participantAddress",
          "type": "address"
        },
        {
          "internalType": "string",
          "name": "name",
          "type": "string"
        },
        {
          "internalType": "string",
          "name": "role",
          "type": "string"
        },
        {
          "internalType": "string",
          "name": "location",
          "type": "string"
        },
        {
          "internalType": "bool",
          "name": "isActive",
          "type": "bool"
        },
        {
          "internalType": "uint256",
          "name": "registeredAt",
          "type": "uint256"
        }
      ],
      "stateMutability": "view",
      "type": "function",
      "constant": true
    },
    {
      "inputs": [
        {
          "internalType": "uint256",
          "name": "",
          "type": "uint256"
        },
        {
          "internalType": "uint256",
          "name": "",
          "type": "uint256"
        }
      ],
      "name": "productLocationHistory",
      "outputs": [
        {
          "internalType": "string",
          "name": "location",
          "type": "string"
        },
        {
          "internalType": "uint256",
          "name": "timestamp",
          "type": "uint256"
        },
        {
          "internalType": "address",
          "name": "updatedBy",
          "type": "address"
        }
      ],
      "stateMutability": "view",
      "type": "function",
      "constant": true
    },
    {
      "inputs": [
        {
          "internalType": "uint256",
          "name": "",
          "type": "uint256"
        },
        {
          "internalType": "uint256",
          "name": "",
          "type": "uint256"
        }
      ],
      "name": "productOwnershipHistory",
      "outputs": [
        {
          "internalType": "address",
          "name": "",
          "type": "address"
        }
      ],
      "stateMutability": "view",
      "type": "function",
      "constant": true
    },
    {
      "inputs": [
        {
          "internalType": "uint256",
          "name": "",
          "type": "uint256"
        },
        {
          "internalType": "uint256",
          "name": "",
          "type": "uint256"
        }
      ],
      "name": "productQualityChecks",
      "outputs": [
        {
          "internalType": "string",
          "name": "checkType",
          "type": "string"
        },
        {
          "internalType": "bool",
          "name": "passed",
          "type": "bool"
        },
        {
          "internalType": "string",
          "name": "notes",
          "type": "string"
        },
        {
          "internalType": "address",
          "name": "inspector",
          "type": "address"
        },
        {
          "internalType": "uint256",
          "name": "timestamp",
          "type": "uint256"
        }
      ],
      "stateMutability": "view",
      "type": "function",
      "constant": true
    },
    {
      "inputs": [
        {
          "internalType": "uint256",
          "name": "",
          "type": "uint256"
        },
        {
          "internalType": "uint256",
          "name": "",
          "type": "uint256"
        }
      ],
      "name": "productTemperatureLogs",
      "outputs": [
        {
          "internalType": "int256",
          "name": "temperature",
          "type": "int256"
        },
        {
          "internalType": "uint256",
          "name": "timestamp",
          "type": "uint256"
        },
        {
          "internalType": "string",
          "name": "sensorId",
          "type": "string"
        }
      ],
      "stateMutability": "view",
      "type": "function",
      "constant": true
    },
    {
      "inputs": [
        {
          "internalType": "uint256",
          "name": "",
          "type": "uint256"
        }
      ],
      "name": "products",
      "outputs": [
        {
          "internalType": "uint256",
          "name": "id",
          "type": "uint256"
        },
        {
          "internalType": "string",
          "name": "name",
          "type": "string"
        },
        {
          "internalType": "string",
          "name": "description",
          "type": "string"
        },
        {
          "internalType": "string",
          "name": "category",
          "type": "string"
        },
        {
          "internalType": "uint256",
          "name": "createdAt",
          "type": "uint256"
        },
        {
          "internalType": "enum SupplyChainTraceability.Stage",
          "name": "currentStage",
          "type": "uint8"
        },
        {
          "internalType": "address",
          "name": "currentOwner",
          "type": "address"
        },
        {
          "internalType": "string",
          "name": "currentLocation",
          "type": "string"
        },
        {
          "internalType": "bool",
          "name": "isActive",
          "type": "bool"
        },
        {
          "internalType": "uint256",
          "name": "parentProductId",
          "type": "uint256"
        },
        {
          "internalType": "string",
          "name": "batchNumber",
          "type": "string"
        },
        {
          "internalType": "uint256",
          "name": "expiryDate",
          "type": "uint256"
        }
      ],
      "stateMutability": "view",
      "type": "function",
      "constant": true
    },
    {
      "inputs": [
        {
          "internalType": "bytes32",
          "name": "role",
          "type": "bytes32"
        },
        {
          "internalType": "address",
          "name": "account",
          "type": "address"
        }
      ],
      "name": "renounceRole",
      "outputs": [],
      "stateMutability": "nonpayable",
      "type": "function"
    },
    {
      "inputs": [
        {
          "internalType": "bytes32",
          "name": "role",
          "type": "bytes32"
        },
        {
          "internalType": "address",
          "name": "account",
          "type": "address"
        }
      ],
      "name": "revokeRole",
      "outputs": [],
      "stateMutability": "nonpayable",
      "type": "function"
    },
    {
      "inputs": [
        {
          "internalType": "address",
          "name": "_participantAddress",
          "type": "address"
        },
        {
          "internalType": "string",
          "name": "_name",
          "type": "string"
        },
        {
          "internalType": "string",
          "name": "_role",
          "type": "string"
        },
        {
          "internalType": "string",
          "name": "_location",
          "type": "string"
        }
      ],
      "name": "registerParticipant",
      "outputs": [],
      "stateMutability": "nonpayable",
      "type": "function"
    },
    {
      "inputs": [
        {
          "internalType": "string",
          "name": "_name",
          "type": "string"
        },
        {
          "internalType": "string",
          "name": "_description",
          "type": "string"
        },
        {
          "internalType": "string",
          "name": "_category",
          "type": "string"
        },
        {
          "internalType": "string",
          "name": "_batchNumber",
          "type": "string"
        },
        {
          "internalType": "uint256",
          "name": "_expiryDate",
          "type": "uint256"
        },
        {
          "internalType": "string",
          "name": "_initialLocation",
          "type": "string"
        }
      ],
      "name": "createProduct",
      "outputs": [
        {
          "internalType": "uint256",
          "name": "",
          "type": "uint256"
        }
      ],
      "stateMutability": "nonpayable",
      "type": "function"
    },
    {
      "inputs": [
        {
          "internalType": "uint256",
          "name": "_productId",
          "type": "uint256"
        },
        {
          "internalType": "address",
          "name": "_newOwner",
          "type": "address"
        },
        {
          "internalType": "string",
          "name": "_newLocation",
          "type": "string"
        }
      ],
      "name": "transferProduct",
      "outputs": [],
      "stateMutability": "nonpayable",
      "type": "function"
    },
    {
      "inputs": [
        {
          "internalType": "uint256",
          "name": "_productId",
          "type": "uint256"
        },
        {
          "internalType": "enum SupplyChainTraceability.Stage",
          "name": "_newStage",
          "type": "uint8"
        }
      ],
      "name": "updateStage",
      "outputs": [],
      "stateMutability": "nonpayable",
      "type": "function"
    },
    {
      "inputs": [
        {
          "components": [
            {
              "internalType": "uint256[]",
              "name": "productIds",
              "type": "uint256[]"
            },
            {
              "internalType": "address",
              "name": "newOwner",
              "type": "address"
            },
            {
              "internalType": "string",
              "name": "newLocation",
              "type": "string"
            },
            {
              "internalType": "enum SupplyChainTraceability.Stage",
              "name": "newStage",
              "type": "uint8"
            }
          ],
          "internalType": "struct SupplyChainTraceability.BatchOperation",
          "name": "_operation",
          "type": "tuple"
        }
      ],
      "name": "batchTransfer",
      "outputs": [],
      "stateMutability": "nonpayable",
      "type": "function"
    },
    {
      "inputs": [
        {
          "internalType": "uint256",
          "name": "_productId",
          "type": "uint256"
        },
        {
          "internalType": "string",
          "name": "_checkType",
          "type": "string"
        },
        {
          "internalType": "bool",
          "name": "_passed",
          "type": "bool"
        },
        {
          "internalType": "string",
          "name": "_notes",
          "type": "string"
        }
      ],
      "name": "addQualityCheck",
      "outputs": [],
      "stateMutability": "nonpayable",
      "type": "function"
    },
    {
      "inputs": [
        {
          "internalType": "uint256",
          "name": "_productId",
          "type": "uint256"
        },
        {
          "internalType": "int256",
          "name": "_temperature",
          "type": "int256"
        },
        {
          "internalType": "string",
          "name": "_sensorId",
          "type": "string"
        }
      ],
      "name": "logTemperature",
      "outputs": [],
      "stateMutability": "nonpayable",
      "type": "function"
    },
    {
      "inputs": [
        {
          "internalType": "uint256",
          "name": "_productId",
          "type": "uint256"
        },
        {
          "internalType": "string",
          "name": "_reason",
          "type": "string"
        }
      ],
      "name": "recallProduct",
      "outputs": [],
      "stateMutability": "nonpayable",
      "type": "function"
    },
    {
      "inputs": [
        {
          "internalType": "uint256",
          "name": "_productId",
          "type": "uint256"
        }
      ],
      "name": "getProductHistory",
      "outputs": [
        {
          "internalType": "address[]",
          "name": "owners",
          "type": "address[]"
        },
        {
          "components": [
            {
              "internalType": "string",
              "name": "location",
              "type": "string"
            },
            {
              "internalType": "uint256",
              "name": "timestamp",
              "type": "uint256"
            },
            {
              "internalType": "address",
              "name": "updatedBy",
              "type": "address"
            }
          ],
          "internalType": "struct SupplyChainTraceability.LocationHistory[]",
          "name": "locations",
          "type": "tuple[]"
        },
        {
          "components": [
            {
              "internalType": "string",
              "name": "checkType",
              "type": "string"
            },
            {
              "internalType": "bool",
              "name": "passed",
              "type": "bool"
            },
            {
              "internalType": "string",
              "name": "notes",
              "type": "string"
            },
            {
              "internalType": "address",
              "name": "inspector",
              "type": "address"
            },
            {
              "internalType": "uint256",
              "name": "timestamp",
              "type": "uint256"
            }
          ],
          "internalType": "struct SupplyChainTraceability.QualityCheck[]",
          "name": "qualityChecks",
          "type": "tuple[]"
        }
      ],
      "stateMutability": "view",
      "type": "function",
      "constant": true
    },
    {
      "inputs": [
        {
          "internalType": "uint256",
          "name": "_productId",
          "type": "uint256"
        }
      ],
      "name": "getTemperatureHistory",
      "outputs": [
        {
          "components": [
            {
              "internalType": "int256",
              "name": "temperature",
              "type": "int256"
            },
            {
              "internalType": "uint256",
              "name": "timestamp",
              "type": "uint256"
            },
            {
              "internalType": "string",
              "name": "sensorId",
              "type": "string"
            }
          ],
          "internalType": "struct SupplyChainTraceability.TemperatureLog[]",
          "name": "",
          "type": "tuple[]"
        }
      ],
      "stateMutability": "view",
      "type": "function",
      "constant": true
    },
    {
      "inputs": [
        {
          "internalType": "string",
          "name": "_batchNumber",
          "type": "string"
        }
      ],
      "name": "getBatchProducts",
      "outputs": [
        {
          "internalType": "uint256[]",
          "name": "",
          "type": "uint256[]"
        }
      ],
      "stateMutability": "view",
      "type": "function",
      "constant": true
    },
    {
      "inputs": [
        {
          "internalType": "address",
          "name": "_participant",
          "type": "address"
        }
      ],
      "name": "getParticipantProducts",
      "outputs": [
        {
          "internalType": "uint256[]",
          "name": "",
          "type": "uint256[]"
        }
      ],
      "stateMutability": "view",
      "type": "function",
      "constant": true
    },
    {
      "inputs": [
        {
          "internalType": "uint256",
          "name": "_productId",
          "type": "uint256"
        }
      ],
      "name": "isProductAuthentic",
      "outputs": [
        {
          "internalType": "bool",
          "name": "",
          "type": "bool"
        }
      ],
      "stateMutability": "view",
      "type": "function",
      "constant": true
    },
    {
      "inputs": [],
      "name": "getProductCount",
      "outputs": [
        {
          "internalType": "uint256",
          "name": "",
          "type": "uint256"
        }
      ],
      "stateMutability": "view",
      "type": "function",
      "constant": true
    },
    {
      "inputs": [],
      "name": "getParticipantCount",
      "outputs": [
        {
          "internalType": "uint256",
          "name": "",
          "type": "uint256"
        }
      ],
      "stateMutability": "view",
      "type": "function",
      "constant": true
    }
  ],
  "bytecode": "0x60806040523480156200001157600080fd5b506200001f60003362000051565b6200004b7fa49807205ce4d355092ef5a8a18f56e8913cf4a201fbe287825b095693c217753362000051565b620000e3565b6200005d828262000061565b5050565b6000828152602081815260408083206001600160a01b038516845290915290205460ff166200005d576000828152602081815260408083206001600160a01b0385168085529252808320805460ff1916600117905551339285917f2f8788117e7eff1d82e926ec794901d17c78024a50270940304540a733656f0d9190a45050565b613a0b80620000f36000396000f3fe608060405234801561001057600080fd5b506004361061021c5760003560e01c80637acc0b2011610125578063adbf34d6116100ad578063d3036dd41161007c578063d3036dd414610548578063d547741f14610568578063f04926481461057b578063f1a93d4a146105a6578063f405c96b146105cd57600080fd5b8063adbf34d6146104fc578063c54652a81461050f578063c988437b14610522578063cbf7776f1461053557600080fd5b80639ce72b14116100f45780639ce72b14146104b3578063a217fddf146104c6578063a5d7ceec146104ce578063a7590f7d146104e1578063ad605729146104f457600080fd5b80637acc0b20146104325780638d4df7ab1461045d57806391d148541461047d5780639ce0f973146104a057600080fd5b806349469fed116101a85780635ecd9e25116101775780635ecd9e251461039c5780635f8a7abe146103af5780636c00a578146103c45780636e1d616e146103e457806375b238fc1461040b57600080fd5b806349469fed146103305780634a348da914610352578063564987451461035a57806357a096a11461037a57600080fd5b8063293bb2c1116101ef578063293bb2c1146102ae5780632f2ff15d146102c1578063301ab600146102d457806335c1d349146102f857806336568abe1461031d57600080fd5b80630960edad146102215780630e9103861461025457806320fd414c14610269578063248a9ca31461028b575b600080fd5b61024161022f366004612a64565b600a6020526000908152604090205481565b6040519081526020015b60405180910390f35b610267610262366004612b5c565b6105e0565b005b61027c610277366004612bab565b61071d565b60405161024b93929190612c1d565b610241610299366004612c45565b60009081526020819052604090206001015490565b6102676102bc366004612c5e565b6107ec565b6102676102cf366004612c9e565b610aa4565b6102e76102e2366004612bab565b610aeb565b60405161024b959493929190612cca565b61030b610306366004612c45565b610c61565b60405161024b96959493929190612d15565b61026761032b366004612c9e565b610e3c565b61034361033e366004612bab565b610eb6565b60405161024b93929190612d75565b600154610241565b61036d610368366004612c45565b610f8f565b60405161024b9190612da8565b61038d610388366004612c45565b6110ff565b60405161024b93929190612f10565b6102676103aa366004612fbc565b6114ac565b6102416000805160206139b683398151915281565b6103d76103d2366004613054565b61166d565b60405161024b91906130c0565b6102417f59a1c48e5837ad7a7f3dcedcbe129bf3249ec4fbf651fd4f5e2600ead39fe2f581565b6102417fa49807205ce4d355092ef5a8a18f56e8913cf4a201fbe287825b095693c2177581565b610445610440366004612c45565b6116dd565b60405161024b9c9b9a999897969594939291906130e9565b61047061046b366004613253565b6119f7565b60405161024b919061330b565b61049061048b366004612c9e565b611b0e565b604051901515815260200161024b565b6102676104ae366004613351565b611b37565b6104906104c1366004612c45565b611cdd565b610241600081565b6102416104dc36600461338d565b611d8d565b6102416104ef366004613466565b6120a7565b600254610241565b61026761050a3660046134b9565b6120e7565b61024161051d3660046135bf565b612453565b6103d7610530366004612a64565b61246f565b6102676105433660046135e9565b6124d9565b61055b610556366004613656565b61265d565b60405161024b9190613692565b610267610576366004612c9e565b612785565b61058e610589366004612bab565b6127bc565b6040516001600160a01b03909116815260200161024b565b6102417f3fd1570350ad82b8536c3ba26e9b65482f86a92bc0631d77bd1bb4bc2035747381565b6102676105db3660046136a5565b6127f4565b826000811180156105f357506001548111155b6106185760405162461bcd60e51b815260040161060f906136c8565b60405180910390fd5b60008181526003602052604090206007015460ff166106495760405162461bcd60e51b815260040161060f906136f8565b6000805160206139b68339815191526106628133611b0e565b61067e5760405162461bcd60e51b815260040161060f90613725565b6000858152600660209081526040808320815160608101835288815242818501908152928101888152825460018181018555938752949095208151600390950201938455915190830155915160028201906106d990826137eb565b5050604080518681524260208201528792507f7fbe57c67dc9da58a35dc6aace73056993cce3aba078b02f096f45a62f0fe843910160405180910390a25050505050565b6006602052816000526040600020818154811061073957600080fd5b90600052602060002090600302016000915091505080600001549080600101549080600201805461076990613768565b80601f016020809104026020016040519081016040528092919081815260200182805461079590613768565b80156107e25780601f106107b7576101008083540402835291602001916107e2565b820191906000526020600020905b8154815290600101906020018083116107c557829003601f168201915b5050505050905083565b826000811180156107ff57506001548111155b61081b5760405162461bcd60e51b815260040161060f906136c8565b60008181526003602052604090206007015460ff1661084c5760405162461bcd60e51b815260040161060f906136f8565b600084815260036020526040902060050154849061010090046001600160a01b031633146108b05760405162461bcd60e51b81526020600482015260116024820152702737ba10383937b23ab1ba1037bbb732b960791b604482015260640161060f565b6001600160a01b0384166000908152600a60205260409020546109105760405162461bcd60e51b815260206004820152601860248201527713995dc81bdddb995c881b9bdd081c9959da5cdd195c995960421b604482015260640161060f565b60008581526003602052604090206005810180546001600160a01b03878116610100908102610100600160a81b0319841617909355919004169060060161095785826137eb565b5060008681526007602090815260408083208054600180820183559185528385200180546001600160a01b0319166001600160a01b038b16179055898452600583528184208251606081018452898152428186015233938101939093528054918201815584529190922082516003909202019081906109d690826137eb565b50602082810151600183810191909155604093840151600290930180546001600160a01b0319166001600160a01b039485161790558883166000818152600884528581208054938401815581528390209091018a905592514281529184169189917f516c8b339c132041f2a10d0e873c5eaf4944299c02b458d7491b7f7ac1574d2f910160405180910390a4857f08c1aa8a3ded74821ab8fe6981a7dd0f9ebb0c3fcef9196f34b9f4e9d0e4edcd8542604051610a949291906138aa565b60405180910390a2505050505050565b600082815260208190526040902060010154610ac1905b33611b0e565b610add5760405162461bcd60e51b815260040161060f906138cc565b610ae7828261297c565b5050565b60046020528160005260406000208181548110610b0757600080fd5b906000526020600020906005020160009150915050806000018054610b2b90613768565b80601f0160208091040260200160405190810160405280929190818152602001828054610b5790613768565b8015610ba45780601f10610b7957610100808354040283529160200191610ba4565b820191906000526020600020905b815481529060010190602001808311610b8757829003601f168201915b5050506001840154600285018054949560ff909216949193509150610bc890613768565b80601f0160208091040260200160405190810160405280929190818152602001828054610bf490613768565b8015610c415780601f10610c1657610100808354040283529160200191610c41565b820191906000526020600020905b815481529060010190602001808311610c2457829003601f168201915b50505050600383015460049093015491926001600160a01b031691905085565b600960205260009081526040902080546001820180546001600160a01b039092169291610c8d90613768565b80601f0160208091040260200160405190810160405280929190818152602001828054610cb990613768565b8015610d065780601f10610cdb57610100808354040283529160200191610d06565b820191906000526020600020905b815481529060010190602001808311610ce957829003601f168201915b505050505090806002018054610d1b90613768565b80601f0160208091040260200160405190810160405280929190818152602001828054610d4790613768565b8015610d945780601f10610d6957610100808354040283529160200191610d94565b820191906000526020600020905b815481529060010190602001808311610d7757829003601f168201915b505050505090806003018054610da990613768565b80601f0160208091040260200160405190810160405280929190818152602001828054610dd590613768565b8015610e225780601f10610df757610100808354040283529160200191610e22565b820191906000526020600020905b815481529060010190602001808311610e0557829003601f168201915b505050506004830154600590930154919260ff1691905086565b6001600160a01b0381163314610eac5760405162461bcd60e51b815260206004820152602f60248201527f416363657373436f6e74726f6c3a2063616e206f6e6c792072656e6f756e636560448201526e103937b632b9903337b91039b2b63360891b606482015260840161060f565b610ae782826129e3565b60056020528160005260406000208181548110610ed257600080fd5b906000526020600020906003020160009150915050806000018054610ef690613768565b80601f0160208091040260200160405190810160405280929190818152602001828054610f2290613768565b8015610f6f5780601f10610f4457610100808354040283529160200191610f6f565b820191906000526020600020905b815481529060010190602001808311610f5257829003601f168201915b5050505060018301546002909301549192916001600160a01b0316905083565b606081600081118015610fa457506001548111155b610fc05760405162461bcd60e51b815260040161060f906136c8565b60008181526003602052604090206007015460ff16610ff15760405162461bcd60e51b815260040161060f906136f8565b600083815260066020908152604080832080548251818502810185019093528083529193909284015b828210156110f25783829060005260206000209060030201604051806060016040529081600082015481526020016001820154815260200160028201805461106190613768565b80601f016020809104026020016040519081016040528092919081815260200182805461108d90613768565b80156110da5780601f106110af576101008083540402835291602001916110da565b820191906000526020600020905b8154815290600101906020018083116110bd57829003601f168201915b5050505050815250508152602001906001019061101a565b5050505091505b50919050565b60608060608360008111801561111757506001548111155b6111335760405162461bcd60e51b815260040161060f906136c8565b60008181526003602052604090206007015460ff166111645760405162461bcd60e51b815260040161060f906136f8565b6000858152600760209081526040808320600583528184206004845293829020815483518186028101860190945280845291949390929185918301828280156111d657602002820191906000526020600020905b81546001600160a01b031681526001909101906020018083116111b8575b5050505050925081805480602002602001604051908101604052809291908181526020016000905b828210156112e5578382906000526020600020906003020160405180606001604052908160008201805461123190613768565b80601f016020809104026020016040519081016040528092919081815260200182805461125d90613768565b80156112aa5780601f1061127f576101008083540402835291602001916112aa565b820191906000526020600020905b81548152906001019060200180831161128d57829003601f168201915b50505091835250506001828101546020808401919091526002909301546001600160a01b0316604090920191909152918352920191016111fe565b50505050915080805480602002602001604051908101604052809291908181526020016000905b8282101561149857838290600052602060002090600502016040518060a001604052908160008201805461133f90613768565b80601f016020809104026020016040519081016040528092919081815260200182805461136b90613768565b80156113b85780601f1061138d576101008083540402835291602001916113b8565b820191906000526020600020905b81548152906001019060200180831161139b57829003601f168201915b5050509183525050600182015460ff16151560208201526002820180546040909201916113e490613768565b80601f016020809104026020016040519081016040528092919081815260200182805461141090613768565b801561145d5780601f106114325761010080835404028352916020019161145d565b820191906000526020600020905b81548152906001019060200180831161144057829003601f168201915b505050918352505060038201546001600160a01b0316602080830191909152600490920154604090910152908252600192909201910161130c565b505050509050935093509350509193909250565b7fa49807205ce4d355092ef5a8a18f56e8913cf4a201fbe287825b095693c217756114d78133611b0e565b6114f35760405162461bcd60e51b815260040161060f90613725565b6001600160a01b0385166000908152600a6020526040902054156115595760405162461bcd60e51b815260206004820152601e60248201527f5061727469636970616e7420616c726561647920726567697374657265640000604482015260640161060f565b6002805490600061156983613912565b90915550506040805160c0810182526001600160a01b0387811682526020808301888152838501889052606084018790526001608085018190524260a08601526002546000908152600990935294909120835181546001600160a01b03191693169290921782555191929091908201906115e390826137eb565b50604082015160028201906115f890826137eb565b506060820151600382019061160d90826137eb565b50608082015160048201805460ff191691151591909117905560a0909101516005909101556002546001600160a01b0386166000908152600a60205260409020556116666000805160206139b683398151915286610aa4565b5050505050565b6060600b8260405161167f9190613939565b90815260408051918290036020908101832080548083028501830190935282845291908301828280156116d157602002820191906000526020600020905b8154815260200190600101908083116116bd575b50505050509050919050565b600360205260009081526040902080546001820180549192916116ff90613768565b80601f016020809104026020016040519081016040528092919081815260200182805461172b90613768565b80156117785780601f1061174d57610100808354040283529160200191611778565b820191906000526020600020905b81548152906001019060200180831161175b57829003601f168201915b50505050509080600201805461178d90613768565b80601f01602080910402602001604051908101604052809291908181526020018280546117b990613768565b80156118065780601f106117db57610100808354040283529160200191611806565b820191906000526020600020905b8154815290600101906020018083116117e957829003601f168201915b50505050509080600301805461181b90613768565b80601f016020809104026020016040519081016040528092919081815260200182805461184790613768565b80156118945780601f1061186957610100808354040283529160200191611894565b820191906000526020600020905b81548152906001019060200180831161187757829003601f168201915b50505050600483015460058401546006850180549495929460ff831694506101009092046001600160a01b031692916118cc90613768565b80601f01602080910402602001604051908101604052809291908181526020018280546118f890613768565b80156119455780601f1061191a57610100808354040283529160200191611945565b820191906000526020600020905b81548152906001019060200180831161192857829003601f168201915b5050505060078301546008840154600985018054949560ff909316949193509061196e90613768565b80601f016020809104026020016040519081016040528092919081815260200182805461199a90613768565b80156119e75780601f106119bc576101008083540402835291602001916119e7565b820191906000526020600020905b8154815290600101906020018083116119ca57829003601f168201915b50505050509080600a015490508c565b60608151835114611a435760405162461bcd60e51b8152602060048201526016602482015275082e4e4c2f2e640d8cadccee8d040dad2e6dac2e8c6d60531b604482015260640161060f565b600083516001600160401b03811115611a5e57611a5e612a7f565b604051908082528060200260200182016040528015611a87578160200160208202803683370190505b50905060005b8451811015611b0657611ad2858281518110611aab57611aab613955565b6020026020010151858381518110611ac557611ac5613955565b6020026020010151611b0e565b828281518110611ae457611ae4613955565b9115156020928302919091019091015280611afe81613912565b915050611a8d565b509392505050565b6000918252602082815260408084206001600160a01b0393909316845291905290205460ff1690565b81600081118015611b4a57506001548111155b611b665760405162461bcd60e51b815260040161060f906136c8565b60008181526003602052604090206007015460ff16611b975760405162461bcd60e51b815260040161060f906136f8565b7fa49807205ce4d355092ef5a8a18f56e8913cf4a201fbe287825b095693c21775611bc28133611b0e565b611bde5760405162461bcd60e51b815260040161060f90613725565b60008481526003602090815260408083206005808201805460ff199081166008179091556007909201805490921690915560048352818420825160e081018452600660a0820190815265149150d0531360d21b60c083015281528085018690529283018890523360608401524260808401528054600181018255908552929093208151919392909202909101908190611c7790826137eb565b50602082015160018201805460ff191691151591909117905560408201516002820190611ca490826137eb565b5060608201516003820180546001600160a01b0319166001600160a01b0390921691909117905560809091015160049091015550505050565b600081600081118015611cf257506001548111155b611d0e5760405162461bcd60e51b815260040161060f906136c8565b60008181526003602052604090206007015460ff16611d3f5760405162461bcd60e51b815260040161060f906136f8565b60008381526003602052604090206007015460ff168015611d865750600860008481526003602052604090206005015460ff166008811115611d8357611d836130d3565b14155b9392505050565b60006000805160206139b6833981519152611da88133611b0e565b611dc45760405162461bcd60e51b815260040161060f90613725565b60018054906000611dd483613912565b9190505550604051806101800160405280600154815260200189815260200188815260200187815260200142815260200160006008811115611e1857611e186130d3565b815233602080830191909152604080830187905260016060840181905260006080850181905260a085018b905260c09094018990528054845260038352922083518155908301519091820190611e6e90826137eb565b5060408201516002820190611e8390826137eb565b5060608201516003820190611e9890826137eb565b506080820151600482015560a082015160058201805460ff19166001836008811115611ec657611ec66130d3565b021790555060c08201516005820180546001600160a01b0390921661010002610100600160a81b031990921691909117905560e08201516006820190611f0c90826137eb565b5061010082015160078201805460ff191691151591909117905561012082015160088201556101408201516009820190611f4690826137eb565b506101609190910151600a90910155600180546000908152600760209081526040808320805480860182559084528284200180546001600160a01b031916339081179091558454845260058352818420825160608101845289815242818601529283019190915280549485018155835291208151919260030201908190611fcd90826137eb565b50602082810151600183810191909155604093840151600290930180546001600160a01b0319166001600160a01b0390941693909317909255336000908152600882528381208354815494850182559082529190209091015551600b90612035908790613939565b90815260405190819003602090810182206001805482548083018455600093845293909220909201555433917f90934fc9dc1095f968f4207cb62e27da1da3e31653ff34cbf837b6c349ded76090612090908c9042906138aa565b60405180910390a350506001549695505050505050565b8151602081840181018051600b8252928201918501919091209190528054829081106120d257600080fd5b90600052602060002001600091509150505481565b80515161212e5760405162461bcd60e51b8152602060048201526015602482015274139bc81c1c9bd91d58dd1cc81cdc1958da599a5959605a1b604482015260640161060f565b6020808201516001600160a01b03166000908152600a90915260409020546121935760405162461bcd60e51b815260206004820152601860248201527713995dc81bdddb995c881b9bdd081c9959da5cdd195c995960421b604482015260640161060f565b60005b815151811015612404576000826000015182815181106121b8576121b8613955565b6020908102919091018101516000818152600390925260409091206005015490915061010090046001600160a01b031633146122365760405162461bcd60e51b815260206004820152601960248201527f4e6f74206f776e6572206f6620616c6c2070726f647563747300000000000000604482015260640161060f565b60008181526003602052604090206007015460ff1661228a5760405162461bcd60e51b815260206004820152601060248201526f50726f6475637420696e61637469766560801b604482015260640161060f565b602080840151600083815260039092526040918290206005810180546001600160a01b0390931661010002610100600160a81b031990931692909217909155908401516006909101906122dd90826137eb565b5060608301516000828152600360205260409020600501805460ff1916600183600881111561230e5761230e6130d3565b02179055506000818152600760209081526040808320868301518154600180820184559286528486200180546001600160a01b0319166001600160a01b039092169190911790558484526005835281842082516060810184528884015181524281860152339381019390935280549182018155845291909220825160039092020190819061239c90826137eb565b50602082810151600183810191909155604093840151600290930180546001600160a01b0319166001600160a01b03948516179055868201519092166000908152600882529283208054928301815583529091200155806123fc81613912565b915050612196565b5080602001516001600160a01b03167f687491fb7d408065617308d02b13b4b3b8ca795e456afcba97427b2e54abb63a82600001514260405161244892919061396b565b60405180910390a250565b600860205281600052604060002081815481106120d257600080fd5b6001600160a01b0381166000908152600860209081526040918290208054835181840281018401909452808452606093928301828280156116d157602002820191906000526020600020908154815260200190600101908083116116bd5750505050509050919050565b836000811180156124ec57506001548111155b6125085760405162461bcd60e51b815260040161060f906136c8565b60008181526003602052604090206007015460ff166125395760405162461bcd60e51b815260040161060f906136f8565b6000805160206139b68339815191526125528133611b0e565b61256e5760405162461bcd60e51b815260040161060f90613725565b6000868152600460209081526040808320815160a0810183528981528815158185015291820187905233606083015242608083015280546001810182559084529190922082516005909202019081906125c790826137eb565b50602082015160018201805460ff1916911515919091179055604082015160028201906125f490826137eb565b5060608201516003820180546001600160a01b0319166001600160a01b0390921691909117905560809091015160049091015560405186907f69fadc3d7c481b5515778225c87aca24eb863d3dba21348491d8587016e0380190610a949088908890889061397e565b60606000805b83518110156126a75761268285858381518110611ac557611ac5613955565b15612695578161269181613912565b9250505b8061269f81613912565b915050612663565b506000816001600160401b038111156126c2576126c2612a7f565b6040519080825280602002602001820160405280156126eb578160200160208202803683370190505b5090506000805b855181101561277a5761271187878381518110611ac557611ac5613955565b156127685785818151811061272857612728613955565b602002602001015183838151811061274257612742613955565b6001600160a01b03909216602092830291909101909101528161276481613912565b9250505b8061277281613912565b9150506126f2565b509095945050505050565b6000828152602081905260409020600101546127a090610abb565b610eac5760405162461bcd60e51b815260040161060f906138cc565b600760205281600052604060002081815481106127d857600080fd5b6000918252602090912001546001600160a01b03169150829050565b8160008111801561280757506001548111155b6128235760405162461bcd60e51b815260040161060f906136c8565b60008181526003602052604090206007015460ff166128545760405162461bcd60e51b815260040161060f906136f8565b600083815260036020526040902060050154839061010090046001600160a01b031633146128b85760405162461bcd60e51b81526020600482015260116024820152702737ba10383937b23ab1ba1037bbb732b960791b604482015260640161060f565b60008481526003602052604090206005015460ff1660088111156128de576128de6130d3565b60ff168360088111156128f3576128f36130d3565b60ff16116129435760405162461bcd60e51b815260206004820152601960248201527f496e76616c69642073746167652070726f6772657373696f6e00000000000000604482015260640161060f565b6000848152600360205260409020600501805484919060ff19166001836008811115612971576129716130d3565b021790555050505050565b6129868282611b0e565b610ae7576000828152602081815260408083206001600160a01b0385168085529252808320805460ff1916600117905551339285917f2f8788117e7eff1d82e926ec794901d17c78024a50270940304540a733656f0d9190a45050565b6129ed8282611b0e565b15610ae7576000828152602081815260408083206001600160a01b0385168085529252808320805460ff1916905551339285917ff6391f5c32d9c69d2a47ea670b442974b53935d1edc7fd64eb21e047a839171b9190a45050565b80356001600160a01b0381168114612a5f57600080fd5b919050565b600060208284031215612a7657600080fd5b611d8682612a48565b634e487b7160e01b600052604160045260246000fd5b604051608081016001600160401b0381118282101715612ab757612ab7612a7f565b60405290565b604051601f8201601f191681016001600160401b0381118282101715612ae557612ae5612a7f565b604052919050565b600082601f830112612afe57600080fd5b81356001600160401b03811115612b1757612b17612a7f565b612b2a601f8201601f1916602001612abd565b818152846020838601011115612b3f57600080fd5b816020850160208301376000918101602001919091529392505050565b600080600060608486031215612b7157600080fd5b833592506020840135915060408401356001600160401b03811115612b9557600080fd5b612ba186828701612aed565b9150509250925092565b60008060408385031215612bbe57600080fd5b50508035926020909101359150565b60005b83811015612be8578181015183820152602001612bd0565b50506000910152565b60008151808452612c09816020860160208601612bcd565b601f01601f19169290920160200192915050565b838152826020820152606060408201526000612c3c6060830184612bf1565b95945050505050565b600060208284031215612c5757600080fd5b5035919050565b600080600060608486031215612c7357600080fd5b83359250612c8360208501612a48565b915060408401356001600160401b03811115612b9557600080fd5b60008060408385031215612cb157600080fd5b82359150612cc160208401612a48565b90509250929050565b60a081526000612cdd60a0830188612bf1565b86151560208401528281036040840152612cf78187612bf1565b6001600160a01b039590951660608401525050608001529392505050565b6001600160a01b038716815260c060208201819052600090612d3990830188612bf1565b8281036040840152612d4b8188612bf1565b90508281036060840152612d5f8187612bf1565b9415156080840152505060a00152949350505050565b606081526000612d886060830186612bf1565b6020830194909452506001600160a01b0391909116604090910152919050565b60006020808301818452808551808352604092508286019150828160051b87010184880160005b83811015612e1957888303603f1901855281518051845287810151888501528601516060878501819052612e0581860183612bf1565b968901969450505090860190600101612dcf565b509098975050505050505050565b600081518084526020808501945080840160005b83811015612e605781516001600160a01b031687529582019590820190600101612e3b565b509495945050505050565b600081518084526020808501808196508360051b8101915082860160005b85811015612f03578284038952815160a08151818752612eab82880182612bf1565b9150508682015115158787015260408083015187830382890152612ecf8382612bf1565b6060858101516001600160a01b0316908a015260809485015194909801939093525050509784019790840190600101612e89565b5091979650505050505050565b60006060808352612f2381840187612e27565b6020848203818601528187518084528284019150828160051b850101838a0160005b83811015612f9957868303601f1901855281518051898552612f698a860182612bf1565b82890151868a01526040928301516001600160a01b03169290950191909152509385019390850190600101612f45565b50508781036040890152612fad818a612e6b565b9b9a5050505050505050505050565b60008060008060808587031215612fd257600080fd5b612fdb85612a48565b935060208501356001600160401b0380821115612ff757600080fd5b61300388838901612aed565b9450604087013591508082111561301957600080fd5b61302588838901612aed565b9350606087013591508082111561303b57600080fd5b5061304887828801612aed565b91505092959194509250565b60006020828403121561306657600080fd5b81356001600160401b0381111561307c57600080fd5b61308884828501612aed565b949350505050565b600081518084526020808501945080840160005b83811015612e60578151875295820195908201906001016130a4565b602081526000611d866020830184613090565b634e487b7160e01b600052602160045260246000fd5b60006101808e83528060208401526131038184018f612bf1565b90508281036040840152613117818e612bf1565b9050828103606084015261312b818d612bf1565b90508a608084015260098a1061315157634e487b7160e01b600052602160045260246000fd5b8960a084015261316c60c084018a6001600160a01b03169052565b82810360e084015261317e8189612bf1565b8715156101008501529050856101208401528281036101408401526131a38186612bf1565b915050826101608301529d9c50505050505050505050505050565b60006001600160401b038211156131d7576131d7612a7f565b5060051b60200190565b600082601f8301126131f257600080fd5b81356020613207613202836131be565b612abd565b82815260059290921b8401810191818101908684111561322657600080fd5b8286015b848110156132485761323b81612a48565b835291830191830161322a565b509695505050505050565b6000806040838503121561326657600080fd5b82356001600160401b038082111561327d57600080fd5b818501915085601f83011261329157600080fd5b813560206132a1613202836131be565b82815260059290921b840181019181810190898411156132c057600080fd5b948201945b838610156132de578535825294820194908201906132c5565b965050860135925050808211156132f457600080fd5b50613301858286016131e1565b9150509250929050565b6020808252825182820181905260009190848201906040850190845b81811015613345578351151583529284019291840191600101613327565b50909695505050505050565b6000806040838503121561336457600080fd5b8235915060208301356001600160401b0381111561338157600080fd5b61330185828601612aed565b60008060008060008060c087890312156133a657600080fd5b86356001600160401b03808211156133bd57600080fd5b6133c98a838b01612aed565b975060208901359150808211156133df57600080fd5b6133eb8a838b01612aed565b9650604089013591508082111561340157600080fd5b61340d8a838b01612aed565b9550606089013591508082111561342357600080fd5b61342f8a838b01612aed565b94506080890135935060a089013591508082111561344c57600080fd5b5061345989828a01612aed565b9150509295509295509295565b6000806040838503121561347957600080fd5b82356001600160401b0381111561348f57600080fd5b61349b85828601612aed565b95602094909401359450505050565b803560098110612a5f57600080fd5b600060208083850312156134cc57600080fd5b82356001600160401b03808211156134e357600080fd5b90840190608082870312156134f757600080fd5b6134ff612a95565b82358281111561350e57600080fd5b8301601f8101881361351f57600080fd5b803561352d613202826131be565b81815260059190911b8201860190868101908a83111561354c57600080fd5b928701925b8284101561356a57833582529287019290870190613551565b84525061357b915050838501612a48565b84820152604083013593508184111561359357600080fd5b61359f87858501612aed565b60408201526135b0606084016134aa565b60608201529695505050505050565b600080604083850312156135d257600080fd5b6135db83612a48565b946020939093013593505050565b600080600080608085870312156135ff57600080fd5b8435935060208501356001600160401b038082111561361d57600080fd5b61362988838901612aed565b945060408701359150811515821461364057600080fd5b9092506060860135908082111561303b57600080fd5b6000806040838503121561366957600080fd5b8235915060208301356001600160401b0381111561368657600080fd5b613301858286016131e1565b602081526000611d866020830184612e27565b600080604083850312156136b857600080fd5b82359150612cc1602084016134aa565b602080825260169082015275141c9bd91d58dd08191bd95cc81b9bdd08195e1a5cdd60521b604082015260600190565b60208082526013908201527250726f6475637420697320696e61637469766560681b604082015260600190565b60208082526023908201527f416363657373436f6e74726f6c3a206163636f756e74206d697373696e6720726040820152626f6c6560e81b606082015260800190565b600181811c9082168061377c57607f821691505b6020821081036110f957634e487b7160e01b600052602260045260246000fd5b601f8211156137e657600081815260208120601f850160051c810160208610156137c35750805b601f850160051c820191505b818110156137e2578281556001016137cf565b5050505b505050565b81516001600160401b0381111561380457613804612a7f565b613818816138128454613768565b8461379c565b602080601f83116001811461384d57600084156138355750858301515b600019600386901b1c1916600185901b1785556137e2565b600085815260208120601f198616915b8281101561387c5788860151825594840194600190910190840161385d565b508582101561389a5787850151600019600388901b60f8161c191681555b5050505050600190811b01905550565b6040815260006138bd6040830185612bf1565b90508260208301529392505050565b60208082526026908201527f416363657373436f6e74726f6c3a2073656e646572206d75737420626520616e6040820152651030b236b4b760d11b606082015260800190565b60006001820161393257634e487b7160e01b600052601160045260246000fd5b5060010190565b6000825161394b818460208701612bcd565b9190910192915050565b634e487b7160e01b600052603260045260246000fd5b6040815260006138bd6040830185613090565b6060815260006139916060830186612bf1565b841515602084015282810360408401526139ab8185612bf1565b969550505050505056fe938c45fe3baa5cbd047f2473358a27f57db22291e9af95379a15ad016886dfb7a2646970667358221220b9fdd9ee052376552b4f3c6eba8f6f0bdc52841f708d010e4633245891d191bf64736f6c63430008130033",
  "immutableReferences": {},
  "source": "// SPDX-License-Identifier: MIT\r\npragma solidity ^0.8.19;\r\n\r\nimport \"./AccessControl.sol\";\r\n\r\n/**\r\n * @title SupplyChainTraceability\r\n * @dev Advanced supply chain traceability system with high efficiency and comprehensive tracking\r\n */\r\ncontract SupplyChainTraceability is AccessControl {\r\n    \r\n    // Events for tracking and transparency\r\n    event ProductCreated(uint256 indexed productId, string name, address indexed creator, uint256 timestamp);\r\n    event ProductTransferred(uint256 indexed productId, address indexed from, address indexed to, uint256 timestamp);\r\n    event BatchProcessed(uint256[] productIds, address indexed processor, uint256 timestamp);\r\n    event QualityCheckAdded(uint256 indexed productId, string checkType, bool passed, string notes);\r\n    event LocationUpdated(uint256 indexed productId, string location, uint256 timestamp);\r\n    event TemperatureLogged(uint256 indexed productId, int256 temperature, uint256 timestamp);\r\n    \r\n    // Product lifecycle stages\r\n    enum Stage {\r\n        Created,           // 0\r\n        RawMaterial,       // 1  \r\n        Manufacturing,     // 2\r\n        QualityControl,    // 3\r\n        Packaging,         // 4\r\n        Distribution,      // 5\r\n        Retail,           // 6\r\n        Sold,             // 7\r\n        Recalled          // 8\r\n    }\r\n    \r\n    // Product information structure\r\n    struct Product {\r\n        uint256 id;\r\n        string name;\r\n        string description;\r\n        string category;\r\n        uint256 createdAt;\r\n        Stage currentStage;\r\n        address currentOwner;\r\n        string currentLocation;\r\n        bool isActive;\r\n        uint256 parentProductId; // For products derived from others\r\n        string batchNumber;\r\n        uint256 expiryDate;\r\n    }\r\n    \r\n    // Quality check structure\r\n    struct QualityCheck {\r\n        string checkType;\r\n        bool passed;\r\n        string notes;\r\n        address inspector;\r\n        uint256 timestamp;\r\n    }\r\n    \r\n    // Location history structure\r\n    struct LocationHistory {\r\n        string location;\r\n        uint256 timestamp;\r\n        address updatedBy;\r\n    }\r\n    \r\n    // Temperature log structure\r\n    struct TemperatureLog {\r\n        int256 temperature;\r\n        uint256 timestamp;\r\n        string sensorId;\r\n    }\r\n    \r\n    // Supply chain participant structure\r\n    struct Participant {\r\n        address participantAddress;\r\n        string name;\r\n        string role;\r\n        string location;\r\n        bool isActive;\r\n        uint256 registeredAt;\r\n    }\r\n    \r\n    // State variables\r\n    uint256 private productCounter;\r\n    uint256 private participantCounter;\r\n    \r\n    // Mappings\r\n    mapping(uint256 => Product) public products;\r\n    mapping(uint256 => QualityCheck[]) public productQualityChecks;\r\n    mapping(uint256 => LocationHistory[]) public productLocationHistory;\r\n    mapping(uint256 => TemperatureLog[]) public productTemperatureLogs;\r\n    mapping(uint256 => address[]) public productOwnershipHistory;\r\n    mapping(address => uint256[]) public participantProducts;\r\n    mapping(uint256 => Participant) public participants;\r\n    mapping(address => uint256) public addressToParticipantId;\r\n    mapping(string => uint256[]) public batchProducts; // batch number to product IDs\r\n    \r\n    // Gas optimization: Pack multiple operations\r\n    struct BatchOperation {\r\n        uint256[] productIds;\r\n        address newOwner;\r\n        string newLocation;\r\n        Stage newStage;\r\n    }\r\n    \r\n    modifier onlyProductOwner(uint256 _productId) {\r\n        require(products[_productId].currentOwner == msg.sender, \"Not product owner\");\r\n        _;\r\n    }\r\n    \r\n    modifier productExists(uint256 _productId) {\r\n        require(_productId > 0 && _productId <= productCounter, \"Product does not exist\");\r\n        require(products[_productId].isActive, \"Product is inactive\");\r\n        _;\r\n    }\r\n    \r\n    modifier onlyRegisteredParticipant() {\r\n        require(addressToParticipantId[msg.sender] > 0, \"Not a registered participant\");\r\n        _;\r\n    }\r\n    \r\n    constructor() {\r\n        _setupRole(DEFAULT_ADMIN_ROLE, msg.sender);\r\n        _setupRole(ADMIN_ROLE, msg.sender);\r\n    }\r\n    \r\n    /**\r\n     * @dev Register a new supply chain participant\r\n     */\r\n    function registerParticipant(\r\n        address _participantAddress,\r\n        string memory _name,\r\n        string memory _role,\r\n        string memory _location\r\n    ) external onlyRole(ADMIN_ROLE) {\r\n        require(addressToParticipantId[_participantAddress] == 0, \"Participant already registered\");\r\n        \r\n        participantCounter++;\r\n        participants[participantCounter] = Participant({\r\n            participantAddress: _participantAddress,\r\n            name: _name,\r\n            role: _role,\r\n            location: _location,\r\n            isActive: true,\r\n            registeredAt: block.timestamp\r\n        });\r\n        \r\n        addressToParticipantId[_participantAddress] = participantCounter;\r\n        grantRole(PARTICIPANT_ROLE, _participantAddress);\r\n    }\r\n    \r\n    /**\r\n     * @dev Create a new product in the supply chain\r\n     */\r\n    function createProduct(\r\n        string memory _name,\r\n        string memory _description,\r\n        string memory _category,\r\n        string memory _batchNumber,\r\n        uint256 _expiryDate,\r\n        string memory _initialLocation\r\n    ) external onlyRole(PARTICIPANT_ROLE) returns (uint256) {\r\n        productCounter++;\r\n        \r\n        products[productCounter] = Product({\r\n            id: productCounter,\r\n            name: _name,\r\n            description: _description,\r\n            category: _category,\r\n            createdAt: block.timestamp,\r\n            currentStage: Stage.Created,\r\n            currentOwner: msg.sender,\r\n            currentLocation: _initialLocation,\r\n            isActive: true,\r\n            parentProductId: 0,\r\n            batchNumber: _batchNumber,\r\n            expiryDate: _expiryDate\r\n        });\r\n        \r\n        // Initialize history\r\n        productOwnershipHistory[productCounter].push(msg.sender);\r\n        productLocationHistory[productCounter].push(LocationHistory({\r\n            location: _initialLocation,\r\n            timestamp: block.timestamp,\r\n            updatedBy: msg.sender\r\n        }));\r\n        \r\n        // Add to participant's products\r\n        participantProducts[msg.sender].push(productCounter);\r\n        \r\n        // Add to batch\r\n        batchProducts[_batchNumber].push(productCounter);\r\n        \r\n        emit ProductCreated(productCounter, _name, msg.sender, block.timestamp);\r\n        \r\n        return productCounter;\r\n    }\r\n    \r\n    /**\r\n     * @dev Transfer product ownership\r\n     */\r\n    function transferProduct(\r\n        uint256 _productId,\r\n        address _newOwner,\r\n        string memory _newLocation\r\n    ) external productExists(_productId) onlyProductOwner(_productId) {\r\n        require(addressToParticipantId[_newOwner] > 0, \"New owner not registered\");\r\n        \r\n        address previousOwner = products[_productId].currentOwner;\r\n        \r\n        // Update product\r\n        products[_productId].currentOwner = _newOwner;\r\n        products[_productId].currentLocation = _newLocation;\r\n        \r\n        // Update histories\r\n        productOwnershipHistory[_productId].push(_newOwner);\r\n        productLocationHistory[_productId].push(LocationHistory({\r\n            location: _newLocation,\r\n            timestamp: block.timestamp,\r\n            updatedBy: msg.sender\r\n        }));\r\n        \r\n        // Update participant products\r\n        participantProducts[_newOwner].push(_productId);\r\n        \r\n        emit ProductTransferred(_productId, previousOwner, _newOwner, block.timestamp);\r\n        emit LocationUpdated(_productId, _newLocation, block.timestamp);\r\n    }\r\n    \r\n    /**\r\n     * @dev Update product stage\r\n     */\r\n    function updateStage(\r\n        uint256 _productId,\r\n        Stage _newStage\r\n    ) external productExists(_productId) onlyProductOwner(_productId) {\r\n        require(uint8(_newStage) > uint8(products[_productId].currentStage), \"Invalid stage progression\");\r\n        \r\n        products[_productId].currentStage = _newStage;\r\n    }\r\n    \r\n    /**\r\n     * @dev Batch process multiple products (gas optimization)\r\n     */\r\n    function batchTransfer(\r\n        BatchOperation memory _operation\r\n    ) external {\r\n        require(_operation.productIds.length > 0, \"No products specified\");\r\n        require(addressToParticipantId[_operation.newOwner] > 0, \"New owner not registered\");\r\n        \r\n        for (uint256 i = 0; i < _operation.productIds.length; i++) {\r\n            uint256 productId = _operation.productIds[i];\r\n            require(products[productId].currentOwner == msg.sender, \"Not owner of all products\");\r\n            require(products[productId].isActive, \"Product inactive\");\r\n            \r\n            // Update product\r\n            products[productId].currentOwner = _operation.newOwner;\r\n            products[productId].currentLocation = _operation.newLocation;\r\n            products[productId].currentStage = _operation.newStage;\r\n            \r\n            // Update histories\r\n            productOwnershipHistory[productId].push(_operation.newOwner);\r\n            productLocationHistory[productId].push(LocationHistory({\r\n                location: _operation.newLocation,\r\n                timestamp: block.timestamp,\r\n                updatedBy: msg.sender\r\n            }));\r\n            \r\n            participantProducts[_operation.newOwner].push(productId);\r\n        }\r\n        \r\n        emit BatchProcessed(_operation.productIds, _operation.newOwner, block.timestamp);\r\n    }\r\n    \r\n    /**\r\n     * @dev Add quality check result\r\n     */\r\n    function addQualityCheck(\r\n        uint256 _productId,\r\n        string memory _checkType,\r\n        bool _passed,\r\n        string memory _notes\r\n    ) external productExists(_productId) onlyRole(PARTICIPANT_ROLE) {\r\n        productQualityChecks[_productId].push(QualityCheck({\r\n            checkType: _checkType,\r\n            passed: _passed,\r\n            notes: _notes,\r\n            inspector: msg.sender,\r\n            timestamp: block.timestamp\r\n        }));\r\n        \r\n        emit QualityCheckAdded(_productId, _checkType, _passed, _notes);\r\n    }\r\n    \r\n    /**\r\n     * @dev Log temperature data (IoT integration)\r\n     */\r\n    function logTemperature(\r\n        uint256 _productId,\r\n        int256 _temperature,\r\n        string memory _sensorId\r\n    ) external productExists(_productId) onlyRole(PARTICIPANT_ROLE) {\r\n        productTemperatureLogs[_productId].push(TemperatureLog({\r\n            temperature: _temperature,\r\n            timestamp: block.timestamp,\r\n            sensorId: _sensorId\r\n        }));\r\n        \r\n        emit TemperatureLogged(_productId, _temperature, block.timestamp);\r\n    }\r\n    \r\n    /**\r\n     * @dev Recall a product\r\n     */\r\n    function recallProduct(\r\n        uint256 _productId,\r\n        string memory _reason\r\n    ) external productExists(_productId) onlyRole(ADMIN_ROLE) {\r\n        products[_productId].currentStage = Stage.Recalled;\r\n        products[_productId].isActive = false;\r\n        \r\n        // Add quality check for recall\r\n        productQualityChecks[_productId].push(QualityCheck({\r\n            checkType: \"RECALL\",\r\n            passed: false,\r\n            notes: _reason,\r\n            inspector: msg.sender,\r\n            timestamp: block.timestamp\r\n        }));\r\n    }\r\n    \r\n    // View functions for comprehensive traceability\r\n    \r\n    function getProductHistory(uint256 _productId) \r\n        external \r\n        view \r\n        productExists(_productId) \r\n        returns (\r\n            address[] memory owners,\r\n            LocationHistory[] memory locations,\r\n            QualityCheck[] memory qualityChecks\r\n        ) {\r\n        return (\r\n            productOwnershipHistory[_productId],\r\n            productLocationHistory[_productId],\r\n            productQualityChecks[_productId]\r\n        );\r\n    }\r\n    \r\n    function getTemperatureHistory(uint256 _productId) \r\n        external \r\n        view \r\n        productExists(_productId) \r\n        returns (TemperatureLog[] memory) {\r\n        return productTemperatureLogs[_productId];\r\n    }\r\n    \r\n    function getBatchProducts(string memory _batchNumber) \r\n        external \r\n        view \r\n        returns (uint256[] memory) {\r\n        return batchProducts[_batchNumber];\r\n    }\r\n    \r\n    function getParticipantProducts(address _participant) \r\n        external \r\n        view \r\n        returns (uint256[] memory) {\r\n        return participantProducts[_participant];\r\n    }\r\n    \r\n    function isProductAuthentic(uint256 _productId) \r\n        external \r\n        view \r\n        productExists(_productId) \r\n        returns (bool) {\r\n        return products[_productId].isActive && \r\n               products[_productId].currentStage != Stage.Recalled;\r\n    }\r\n    \r\n    // Utility functions\r\n    function getProductCount() external view returns (uint256) {\r\n        return productCounter;\r\n    }\r\n    \r\n    function getParticipantCount() external view returns (uint256) {\r\n        return participantCounter;\r\n    }\r\n}",
  "sourcePath": "C:\\projects\\BLOCKCHAIN_PROJECT\\contracts\\SupplyChainTraceability.sol",
  "compiler": {
    "name": "solc",
    "version": "0.8.19+commit.7dd6d404.Emscripten.clang"
  },
  "schemaVersion": "3.4.16",
  "updatedAt": "2025-08-18T18:36:08.019Z",
  "networkType": "ethereum",
  "devdoc": {
    "details": "Advanced supply chain traceability system with high efficiency and comprehensive tracking",
    "kind": "dev",
    "methods": {
      "addQualityCheck(uint256,string,bool,string)": {
        "details": "Add quality check result"
      },
      "batchTransfer((uint256[],address,string,uint8))": {
        "details": "Batch process multiple products (gas optimization)"
      },
      "createProduct(string,string,string,string,uint256,string)": {
        "details": "Create a new product in the supply chain"
      },
      "getRoleAdmin(bytes32)": {
        "details": "Get the admin role for a given role"
      },
      "getRoleMembers(bytes32,address[])": {
        "details": "Get all accounts with a specific role (expensive operation, use carefully)"
      },
      "grantRole(bytes32,address)": {
        "details": "Grant a role to an account"
      },
      "hasRole(bytes32,address)": {
        "details": "Check if an account has a specific role"
      },
      "hasRoles(bytes32[],address[])": {
        "details": "Check if multiple accounts have required roles (batch check)"
      },
      "logTemperature(uint256,int256,string)": {
        "details": "Log temperature data (IoT integration)"
      },
      "recallProduct(uint256,string)": {
        "details": "Recall a product"
      },
      "registerParticipant(address,string,string,string)": {
        "details": "Register a new supply chain participant"
      },
      "renounceRole(bytes32,address)": {
        "details": "Renounce a role (can only be called by the account itself)"
      },
      "revokeRole(bytes32,address)": {
        "details": "Revoke a role from an account"
      },
      "transferProduct(uint256,address,string)": {
        "details": "Transfer product ownership"
      },
      "updateStage(uint256,uint8)": {
        "details": "Update product stage"
      }
    },
    "title": "SupplyChainTraceability",
    "version": 1
  },
  "userdoc": {
    "kind": "user",
    "methods": {},
    "version": 1
  }
}