{
  "contractName": "SupplyChainTraceability",
  "abi": [
    {
      "inputs": [
        {
          "internalType": "address",
          "name": "_shardingContract",
          "type": "address"
        },
        {
          "internalType": "address",
          "name": "_processorContract",
          "type": "address"
        }
      ],
      "stateMutability": "nonpayable",
      "type": "constructor"
    },
    {
      "anonymous": false,
      "inputs": [
        {
          "indexed": false,
          "internalType": "uint256[]",
          "name": "productIds",
          "type": "uint256[]"
        },
        {
          "indexed": true,
          "internalType": "address",
          "name": "processor",
          "type": "address"
        },
        {
          "indexed": false,
          "internalType": "uint256",
          "name": "timestamp",
          "type": "uint256"
        }
      ],
      "name": "BatchProcessed",
      "type": "event"
    },
    {
      "anonymous": false,
      "inputs": [
        {
          "indexed": true,
          "internalType": "uint256",
          "name": "productId",
          "type": "uint256"
        },
        {
          "indexed": false,
          "internalType": "string",
          "name": "location",
          "type": "string"
        },
        {
          "indexed": false,
          "internalType": "uint256",
          "name": "timestamp",
          "type": "uint256"
        }
      ],
      "name": "LocationUpdated",
      "type": "event"
    },
    {
      "anonymous": false,
      "inputs": [
        {
          "indexed": true,
          "internalType": "uint256",
          "name": "productId",
          "type": "uint256"
        },
        {
          "indexed": false,
          "internalType": "string",
          "name": "name",
          "type": "string"
        },
        {
          "indexed": true,
          "internalType": "address",
          "name": "creator",
          "type": "address"
        },
        {
          "indexed": false,
          "internalType": "uint256",
          "name": "timestamp",
          "type": "uint256"
        }
      ],
      "name": "ProductCreated",
      "type": "event"
    },
    {
      "anonymous": false,
      "inputs": [
        {
          "indexed": true,
          "internalType": "uint256",
          "name": "productId",
          "type": "uint256"
        },
        {
          "indexed": true,
          "internalType": "address",
          "name": "from",
          "type": "address"
        },
        {
          "indexed": true,
          "internalType": "address",
          "name": "to",
          "type": "address"
        },
        {
          "indexed": false,
          "internalType": "uint256",
          "name": "timestamp",
          "type": "uint256"
        }
      ],
      "name": "ProductTransferred",
      "type": "event"
    },
    {
      "anonymous": false,
      "inputs": [
        {
          "indexed": true,
          "internalType": "uint256",
          "name": "productId",
          "type": "uint256"
        },
        {
          "indexed": false,
          "internalType": "string",
          "name": "checkType",
          "type": "string"
        },
        {
          "indexed": false,
          "internalType": "bool",
          "name": "passed",
          "type": "bool"
        },
        {
          "indexed": false,
          "internalType": "string",
          "name": "notes",
          "type": "string"
        }
      ],
      "name": "QualityCheckAdded",
      "type": "event"
    },
    {
      "anonymous": false,
      "inputs": [
        {
          "indexed": true,
          "internalType": "bytes32",
          "name": "role",
          "type": "bytes32"
        },
        {
          "indexed": true,
          "internalType": "bytes32",
          "name": "previousAdminRole",
          "type": "bytes32"
        },
        {
          "indexed": true,
          "internalType": "bytes32",
          "name": "newAdminRole",
          "type": "bytes32"
        }
      ],
      "name": "RoleAdminChanged",
      "type": "event"
    },
    {
      "anonymous": false,
      "inputs": [
        {
          "indexed": true,
          "internalType": "bytes32",
          "name": "role",
          "type": "bytes32"
        },
        {
          "indexed": true,
          "internalType": "address",
          "name": "account",
          "type": "address"
        },
        {
          "indexed": true,
          "internalType": "address",
          "name": "sender",
          "type": "address"
        }
      ],
      "name": "RoleGranted",
      "type": "event"
    },
    {
      "anonymous": false,
      "inputs": [
        {
          "indexed": true,
          "internalType": "bytes32",
          "name": "role",
          "type": "bytes32"
        },
        {
          "indexed": true,
          "internalType": "address",
          "name": "account",
          "type": "address"
        },
        {
          "indexed": true,
          "internalType": "address",
          "name": "sender",
          "type": "address"
        }
      ],
      "name": "RoleRevoked",
      "type": "event"
    },
    {
      "anonymous": false,
      "inputs": [
        {
          "indexed": true,
          "internalType": "uint256",
          "name": "productId",
          "type": "uint256"
        },
        {
          "indexed": false,
          "internalType": "int256",
          "name": "temperature",
          "type": "int256"
        },
        {
          "indexed": false,
          "internalType": "uint256",
          "name": "timestamp",
          "type": "uint256"
        }
      ],
      "name": "TemperatureLogged",
      "type": "event"
    },
    {
      "inputs": [],
      "name": "ADMIN_ROLE",
      "outputs": [
        {
          "internalType": "bytes32",
          "name": "",
          "type": "bytes32"
        }
      ],
      "stateMutability": "view",
      "type": "function",
      "constant": true
    },
    {
      "inputs": [],
      "name": "AUDITOR_ROLE",
      "outputs": [
        {
          "internalType": "bytes32",
          "name": "",
          "type": "bytes32"
        }
      ],
      "stateMutability": "view",
      "type": "function",
      "constant": true
    },
    {
      "inputs": [],
      "name": "DEFAULT_ADMIN_ROLE",
      "outputs": [
        {
          "internalType": "bytes32",
          "name": "",
          "type": "bytes32"
        }
      ],
      "stateMutability": "view",
      "type": "function",
      "constant": true
    },
    {
      "inputs": [],
      "name": "IOT_DEVICE_ROLE",
      "outputs": [
        {
          "internalType": "bytes32",
          "name": "",
          "type": "bytes32"
        }
      ],
      "stateMutability": "view",
      "type": "function",
      "constant": true
    },
    {
      "inputs": [],
      "name": "PARTICIPANT_ROLE",
      "outputs": [
        {
          "internalType": "bytes32",
          "name": "",
          "type": "bytes32"
        }
      ],
      "stateMutability": "view",
      "type": "function",
      "constant": true
    },
    {
      "inputs": [],
      "name": "SHARD_MANAGER_ROLE",
      "outputs": [
        {
          "internalType": "bytes32",
          "name": "",
          "type": "bytes32"
        }
      ],
      "stateMutability": "view",
      "type": "function",
      "constant": true
    },
    {
      "inputs": [
        {
          "internalType": "address",
          "name": "",
          "type": "address"
        }
      ],
      "name": "addressToParticipantId",
      "outputs": [
        {
          "internalType": "uint256",
          "name": "",
          "type": "uint256"
        }
      ],
      "stateMutability": "view",
      "type": "function",
      "constant": true
    },
    {
      "inputs": [
        {
          "internalType": "string",
          "name": "",
          "type": "string"
        },
        {
          "internalType": "uint256",
          "name": "",
          "type": "uint256"
        }
      ],
      "name": "batchProducts",
      "outputs": [
        {
          "internalType": "uint256",
          "name": "",
          "type": "uint256"
        }
      ],
      "stateMutability": "view",
      "type": "function",
      "constant": true
    },
    {
      "inputs": [
        {
          "internalType": "bytes32",
          "name": "role",
          "type": "bytes32"
        }
      ],
      "name": "getRoleAdmin",
      "outputs": [
        {
          "internalType": "bytes32",
          "name": "",
          "type": "bytes32"
        }
      ],
      "stateMutability": "view",
      "type": "function",
      "constant": true
    },
    {
      "inputs": [
        {
          "internalType": "bytes32",
          "name": "role",
          "type": "bytes32"
        },
        {
          "internalType": "address[]",
          "name": "candidates",
          "type": "address[]"
        }
      ],
      "name": "getRoleMembers",
      "outputs": [
        {
          "internalType": "address[]",
          "name": "",
          "type": "address[]"
        }
      ],
      "stateMutability": "view",
      "type": "function",
      "constant": true
    },
    {
      "inputs": [
        {
          "internalType": "bytes32",
          "name": "role",
          "type": "bytes32"
        },
        {
          "internalType": "address",
          "name": "account",
          "type": "address"
        }
      ],
      "name": "grantRole",
      "outputs": [],
      "stateMutability": "nonpayable",
      "type": "function"
    },
    {
      "inputs": [
        {
          "internalType": "bytes32",
          "name": "role",
          "type": "bytes32"
        },
        {
          "internalType": "address",
          "name": "account",
          "type": "address"
        }
      ],
      "name": "hasRole",
      "outputs": [
        {
          "internalType": "bool",
          "name": "",
          "type": "bool"
        }
      ],
      "stateMutability": "view",
      "type": "function",
      "constant": true
    },
    {
      "inputs": [
        {
          "internalType": "bytes32[]",
          "name": "roles",
          "type": "bytes32[]"
        },
        {
          "internalType": "address[]",
          "name": "accounts",
          "type": "address[]"
        }
      ],
      "name": "hasRoles",
      "outputs": [
        {
          "internalType": "bool[]",
          "name": "",
          "type": "bool[]"
        }
      ],
      "stateMutability": "view",
      "type": "function",
      "constant": true
    },
    {
      "inputs": [
        {
          "internalType": "address",
          "name": "",
          "type": "address"
        },
        {
          "internalType": "uint256",
          "name": "",
          "type": "uint256"
        }
      ],
      "name": "participantProducts",
      "outputs": [
        {
          "internalType": "uint256",
          "name": "",
          "type": "uint256"
        }
      ],
      "stateMutability": "view",
      "type": "function",
      "constant": true
    },
    {
      "inputs": [
        {
          "internalType": "uint256",
          "name": "",
          "type": "uint256"
        }
      ],
      "name": "participants",
      "outputs": [
        {
          "internalType": "address",
          "name": "participantAddress",
          "type": "address"
        },
        {
          "internalType": "string",
          "name": "name",
          "type": "string"
        },
        {
          "internalType": "string",
          "name": "role",
          "type": "string"
        },
        {
          "internalType": "string",
          "name": "location",
          "type": "string"
        },
        {
          "internalType": "bool",
          "name": "isActive",
          "type": "bool"
        },
        {
          "internalType": "uint256",
          "name": "registeredAt",
          "type": "uint256"
        }
      ],
      "stateMutability": "view",
      "type": "function",
      "constant": true
    },
    {
      "inputs": [],
      "name": "processorContract",
      "outputs": [
        {
          "internalType": "contract HighEfficiencyProcessor",
          "name": "",
          "type": "address"
        }
      ],
      "stateMutability": "view",
      "type": "function",
      "constant": true
    },
    {
      "inputs": [
        {
          "internalType": "uint256",
          "name": "",
          "type": "uint256"
        },
        {
          "internalType": "uint256",
          "name": "",
          "type": "uint256"
        }
      ],
      "name": "productLocationHistory",
      "outputs": [
        {
          "internalType": "string",
          "name": "location",
          "type": "string"
        },
        {
          "internalType": "uint256",
          "name": "timestamp",
          "type": "uint256"
        },
        {
          "internalType": "address",
          "name": "updatedBy",
          "type": "address"
        }
      ],
      "stateMutability": "view",
      "type": "function",
      "constant": true
    },
    {
      "inputs": [
        {
          "internalType": "uint256",
          "name": "",
          "type": "uint256"
        },
        {
          "internalType": "uint256",
          "name": "",
          "type": "uint256"
        }
      ],
      "name": "productOwnershipHistory",
      "outputs": [
        {
          "internalType": "address",
          "name": "",
          "type": "address"
        }
      ],
      "stateMutability": "view",
      "type": "function",
      "constant": true
    },
    {
      "inputs": [
        {
          "internalType": "uint256",
          "name": "",
          "type": "uint256"
        },
        {
          "internalType": "uint256",
          "name": "",
          "type": "uint256"
        }
      ],
      "name": "productQualityChecks",
      "outputs": [
        {
          "internalType": "string",
          "name": "checkType",
          "type": "string"
        },
        {
          "internalType": "bool",
          "name": "passed",
          "type": "bool"
        },
        {
          "internalType": "string",
          "name": "notes",
          "type": "string"
        },
        {
          "internalType": "address",
          "name": "inspector",
          "type": "address"
        },
        {
          "internalType": "uint256",
          "name": "timestamp",
          "type": "uint256"
        }
      ],
      "stateMutability": "view",
      "type": "function",
      "constant": true
    },
    {
      "inputs": [
        {
          "internalType": "uint256",
          "name": "",
          "type": "uint256"
        },
        {
          "internalType": "uint256",
          "name": "",
          "type": "uint256"
        }
      ],
      "name": "productTemperatureLogs",
      "outputs": [
        {
          "internalType": "int256",
          "name": "temperature",
          "type": "int256"
        },
        {
          "internalType": "uint256",
          "name": "timestamp",
          "type": "uint256"
        },
        {
          "internalType": "string",
          "name": "sensorId",
          "type": "string"
        }
      ],
      "stateMutability": "view",
      "type": "function",
      "constant": true
    },
    {
      "inputs": [
        {
          "internalType": "uint256",
          "name": "",
          "type": "uint256"
        }
      ],
      "name": "productToShard",
      "outputs": [
        {
          "internalType": "uint256",
          "name": "",
          "type": "uint256"
        }
      ],
      "stateMutability": "view",
      "type": "function",
      "constant": true
    },
    {
      "inputs": [
        {
          "internalType": "uint256",
          "name": "",
          "type": "uint256"
        }
      ],
      "name": "products",
      "outputs": [
        {
          "internalType": "uint256",
          "name": "id",
          "type": "uint256"
        },
        {
          "internalType": "string",
          "name": "name",
          "type": "string"
        },
        {
          "internalType": "string",
          "name": "description",
          "type": "string"
        },
        {
          "internalType": "string",
          "name": "category",
          "type": "string"
        },
        {
          "internalType": "uint256",
          "name": "createdAt",
          "type": "uint256"
        },
        {
          "internalType": "enum SupplyChainTraceability.Stage",
          "name": "currentStage",
          "type": "uint8"
        },
        {
          "internalType": "address",
          "name": "currentOwner",
          "type": "address"
        },
        {
          "internalType": "string",
          "name": "currentLocation",
          "type": "string"
        },
        {
          "internalType": "bool",
          "name": "isActive",
          "type": "bool"
        },
        {
          "internalType": "uint256",
          "name": "parentProductId",
          "type": "uint256"
        },
        {
          "internalType": "string",
          "name": "batchNumber",
          "type": "string"
        },
        {
          "internalType": "uint256",
          "name": "expiryDate",
          "type": "uint256"
        }
      ],
      "stateMutability": "view",
      "type": "function",
      "constant": true
    },
    {
      "inputs": [
        {
          "internalType": "bytes32",
          "name": "role",
          "type": "bytes32"
        },
        {
          "internalType": "address",
          "name": "account",
          "type": "address"
        }
      ],
      "name": "renounceRole",
      "outputs": [],
      "stateMutability": "nonpayable",
      "type": "function"
    },
    {
      "inputs": [
        {
          "internalType": "bytes32",
          "name": "role",
          "type": "bytes32"
        },
        {
          "internalType": "address",
          "name": "account",
          "type": "address"
        }
      ],
      "name": "revokeRole",
      "outputs": [],
      "stateMutability": "nonpayable",
      "type": "function"
    },
    {
      "inputs": [],
      "name": "shardingContract",
      "outputs": [
        {
          "internalType": "contract AdaptiveSharding",
          "name": "",
          "type": "address"
        }
      ],
      "stateMutability": "view",
      "type": "function",
      "constant": true
    },
    {
      "inputs": [
        {
          "internalType": "address",
          "name": "_participantAddress",
          "type": "address"
        },
        {
          "internalType": "string",
          "name": "_name",
          "type": "string"
        },
        {
          "internalType": "string",
          "name": "_role",
          "type": "string"
        },
        {
          "internalType": "string",
          "name": "_location",
          "type": "string"
        }
      ],
      "name": "registerParticipant",
      "outputs": [],
      "stateMutability": "nonpayable",
      "type": "function"
    },
    {
      "inputs": [
        {
          "internalType": "string",
          "name": "_name",
          "type": "string"
        },
        {
          "internalType": "string",
          "name": "_description",
          "type": "string"
        },
        {
          "internalType": "string",
          "name": "_category",
          "type": "string"
        },
        {
          "internalType": "string",
          "name": "_batchNumber",
          "type": "string"
        },
        {
          "internalType": "uint256",
          "name": "_expiryDate",
          "type": "uint256"
        },
        {
          "internalType": "string",
          "name": "_initialLocation",
          "type": "string"
        }
      ],
      "name": "createProduct",
      "outputs": [
        {
          "internalType": "uint256",
          "name": "",
          "type": "uint256"
        }
      ],
      "stateMutability": "nonpayable",
      "type": "function"
    },
    {
      "inputs": [
        {
          "internalType": "uint256",
          "name": "_productId",
          "type": "uint256"
        },
        {
          "internalType": "address",
          "name": "_newOwner",
          "type": "address"
        },
        {
          "internalType": "string",
          "name": "_newLocation",
          "type": "string"
        }
      ],
      "name": "transferProduct",
      "outputs": [],
      "stateMutability": "nonpayable",
      "type": "function"
    },
    {
      "inputs": [
        {
          "internalType": "uint256",
          "name": "_productId",
          "type": "uint256"
        },
        {
          "internalType": "enum SupplyChainTraceability.Stage",
          "name": "_newStage",
          "type": "uint8"
        }
      ],
      "name": "updateStage",
      "outputs": [],
      "stateMutability": "nonpayable",
      "type": "function"
    },
    {
      "inputs": [
        {
          "components": [
            {
              "internalType": "uint256[]",
              "name": "productIds",
              "type": "uint256[]"
            },
            {
              "internalType": "address",
              "name": "newOwner",
              "type": "address"
            },
            {
              "internalType": "string",
              "name": "newLocation",
              "type": "string"
            },
            {
              "internalType": "enum SupplyChainTraceability.Stage",
              "name": "newStage",
              "type": "uint8"
            }
          ],
          "internalType": "struct SupplyChainTraceability.BatchOperation",
          "name": "_operation",
          "type": "tuple"
        }
      ],
      "name": "batchTransfer",
      "outputs": [],
      "stateMutability": "nonpayable",
      "type": "function"
    },
    {
      "inputs": [
        {
          "internalType": "uint256",
          "name": "_productId",
          "type": "uint256"
        },
        {
          "internalType": "string",
          "name": "_checkType",
          "type": "string"
        },
        {
          "internalType": "bool",
          "name": "_passed",
          "type": "bool"
        },
        {
          "internalType": "string",
          "name": "_notes",
          "type": "string"
        }
      ],
      "name": "addQualityCheck",
      "outputs": [],
      "stateMutability": "nonpayable",
      "type": "function"
    },
    {
      "inputs": [
        {
          "internalType": "uint256",
          "name": "_productId",
          "type": "uint256"
        },
        {
          "internalType": "int256",
          "name": "_temperature",
          "type": "int256"
        },
        {
          "internalType": "string",
          "name": "_sensorId",
          "type": "string"
        }
      ],
      "name": "logTemperature",
      "outputs": [],
      "stateMutability": "nonpayable",
      "type": "function"
    },
    {
      "inputs": [
        {
          "internalType": "uint256",
          "name": "_productId",
          "type": "uint256"
        },
        {
          "internalType": "string",
          "name": "_reason",
          "type": "string"
        }
      ],
      "name": "recallProduct",
      "outputs": [],
      "stateMutability": "nonpayable",
      "type": "function"
    },
    {
      "inputs": [
        {
          "internalType": "uint256",
          "name": "_productId",
          "type": "uint256"
        }
      ],
      "name": "getProductHistory",
      "outputs": [
        {
          "internalType": "address[]",
          "name": "owners",
          "type": "address[]"
        },
        {
          "components": [
            {
              "internalType": "string",
              "name": "location",
              "type": "string"
            },
            {
              "internalType": "uint256",
              "name": "timestamp",
              "type": "uint256"
            },
            {
              "internalType": "address",
              "name": "updatedBy",
              "type": "address"
            }
          ],
          "internalType": "struct SupplyChainTraceability.LocationHistory[]",
          "name": "locations",
          "type": "tuple[]"
        },
        {
          "components": [
            {
              "internalType": "string",
              "name": "checkType",
              "type": "string"
            },
            {
              "internalType": "bool",
              "name": "passed",
              "type": "bool"
            },
            {
              "internalType": "string",
              "name": "notes",
              "type": "string"
            },
            {
              "internalType": "address",
              "name": "inspector",
              "type": "address"
            },
            {
              "internalType": "uint256",
              "name": "timestamp",
              "type": "uint256"
            }
          ],
          "internalType": "struct SupplyChainTraceability.QualityCheck[]",
          "name": "qualityChecks",
          "type": "tuple[]"
        }
      ],
      "stateMutability": "view",
      "type": "function",
      "constant": true
    },
    {
      "inputs": [
        {
          "internalType": "uint256",
          "name": "_productId",
          "type": "uint256"
        }
      ],
      "name": "getTemperatureHistory",
      "outputs": [
        {
          "components": [
            {
              "internalType": "int256",
              "name": "temperature",
              "type": "int256"
            },
            {
              "internalType": "uint256",
              "name": "timestamp",
              "type": "uint256"
            },
            {
              "internalType": "string",
              "name": "sensorId",
              "type": "string"
            }
          ],
          "internalType": "struct SupplyChainTraceability.TemperatureLog[]",
          "name": "",
          "type": "tuple[]"
        }
      ],
      "stateMutability": "view",
      "type": "function",
      "constant": true
    },
    {
      "inputs": [
        {
          "internalType": "string",
          "name": "_batchNumber",
          "type": "string"
        }
      ],
      "name": "getBatchProducts",
      "outputs": [
        {
          "internalType": "uint256[]",
          "name": "",
          "type": "uint256[]"
        }
      ],
      "stateMutability": "view",
      "type": "function",
      "constant": true
    },
    {
      "inputs": [
        {
          "internalType": "address",
          "name": "_participant",
          "type": "address"
        }
      ],
      "name": "getParticipantProducts",
      "outputs": [
        {
          "internalType": "uint256[]",
          "name": "",
          "type": "uint256[]"
        }
      ],
      "stateMutability": "view",
      "type": "function",
      "constant": true
    },
    {
      "inputs": [
        {
          "internalType": "uint256",
          "name": "_productId",
          "type": "uint256"
        }
      ],
      "name": "isProductAuthentic",
      "outputs": [
        {
          "internalType": "bool",
          "name": "",
          "type": "bool"
        }
      ],
      "stateMutability": "view",
      "type": "function",
      "constant": true
    },
    {
      "inputs": [],
      "name": "getProductCount",
      "outputs": [
        {
          "internalType": "uint256",
          "name": "",
          "type": "uint256"
        }
      ],
      "stateMutability": "view",
      "type": "function",
      "constant": true
    },
    {
      "inputs": [],
      "name": "getParticipantCount",
      "outputs": [
        {
          "internalType": "uint256",
          "name": "",
          "type": "uint256"
        }
      ],
      "stateMutability": "view",
      "type": "function",
      "constant": true
    }
  ],
  "bytecode": "0x60806040523480156200001157600080fd5b5060405162003d2338038062003d2383398101604081905262000034916200017c565b62000041600033620000cd565b6200006d7fa49807205ce4d355092ef5a8a18f56e8913cf4a201fbe287825b095693c2177533620000cd565b6001600160a01b038216156200009957600180546001600160a01b0319166001600160a01b0384161790555b6001600160a01b03811615620000c557600280546001600160a01b0319166001600160a01b0383161790555b5050620001b4565b620000d98282620000dd565b5050565b6000828152602081815260408083206001600160a01b038516845290915290205460ff16620000d9576000828152602081815260408083206001600160a01b0385168085529252808320805460ff1916600117905551339285917f2f8788117e7eff1d82e926ec794901d17c78024a50270940304540a733656f0d9190a45050565b80516001600160a01b03811681146200017757600080fd5b919050565b600080604083850312156200019057600080fd5b6200019b836200015f565b9150620001ab602084016200015f565b90509250929050565b613b5f80620001c46000396000f3fe608060405234801561001057600080fd5b50600436106102485760003560e01c80638d4df7ab1161013b578063b6dfb096116100b8578063d547741f1161007c578063d547741f146105f2578063e2348a5d14610605578063f04926481461062c578063f1a93d4a1461063f578063f405c96b1461066657600080fd5b8063b6dfb09614610586578063c54652a814610599578063c988437b146105ac578063cbf7776f146105bf578063d3036dd4146105d257600080fd5b8063a2f2f907116100ff578063a2f2f90714610525578063a5d7ceec14610545578063a7590f7d14610558578063ad6057291461056b578063adbf34d61461057357600080fd5b80638d4df7ab146104b457806391d14854146104d45780639ce0f973146104f75780639ce72b141461050a578063a217fddf1461051d57600080fd5b806349469fed116101c95780635f8a7abe1161018d5780635f8a7abe146104065780636c00a5781461041b5780636e1d616e1461043b57806375b238fc146104625780637acc0b201461048957600080fd5b806349469fed146103875780634a348da9146103a957806356498745146103b157806357a096a1146103d15780635ecd9e25146103f357600080fd5b80632f2ff15d116102105780632f2ff15d146102ed578063301ab60014610300578063318fd5d01461032457806335c1d3491461034f57806336568abe1461037457600080fd5b80630960edad1461024d5780630e9103861461028057806320fd414c14610295578063248a9ca3146102b7578063293bb2c1146102da575b600080fd5b61026d61025b366004612ba2565b600d6020526000908152604090205481565b6040519081526020015b60405180910390f35b61029361028e366004612c9a565b610679565b005b6102a86102a3366004612ce9565b6107b6565b60405161027793929190612d5b565b61026d6102c5366004612d83565b60009081526020819052604090206001015490565b6102936102e8366004612d9c565b610885565b6102936102fb366004612ddc565b610b3e565b61031361030e366004612ce9565b610b85565b604051610277959493929190612e08565b600154610337906001600160a01b031681565b6040516001600160a01b039091168152602001610277565b61036261035d366004612d83565b610cfb565b60405161027796959493929190612e53565b610293610382366004612ddc565b610ed6565b61039a610395366004612ce9565b610f50565b60405161027793929190612eb3565b60045461026d565b6103c46103bf366004612d83565b611029565b6040516102779190612ee6565b6103e46103df366004612d83565b611199565b6040516102779392919061304b565b6102936104013660046130f7565b611546565b61026d600080516020613b0a83398151915281565b61042e61042936600461318f565b611705565b60405161027791906131fb565b61026d7f59a1c48e5837ad7a7f3dcedcbe129bf3249ec4fbf651fd4f5e2600ead39fe2f581565b61026d7fa49807205ce4d355092ef5a8a18f56e8913cf4a201fbe287825b095693c2177581565b61049c610497366004612d83565b611775565b6040516102779c9b9a99989796959493929190613224565b6104c76104c236600461338e565b611a8f565b6040516102779190613446565b6104e76104e2366004612ddc565b611ba6565b6040519015158152602001610277565b61029361050536600461348c565b611bcf565b6104e7610518366004612d83565b611d6f565b61026d600081565b61026d610533366004612d83565b60036020526000908152604090205481565b61026d6105533660046134c8565b611e1f565b61026d6105663660046135a1565b6121e8565b60055461026d565b6102936105813660046135f4565b612228565b600254610337906001600160a01b031681565b61026d6105a73660046136fa565b612591565b61042e6105ba366004612ba2565b6125ad565b6102936105cd366004613724565b612617565b6105e56105e0366004613791565b61279b565b60405161027791906137cd565b610293610600366004612ddc565b6128c3565b61026d7fa57066973b2155f87e85ce4b35594aa85c6061a64b99afb1fcf8f974f04290e381565b61033761063a366004612ce9565b6128fa565b61026d7f3fd1570350ad82b8536c3ba26e9b65482f86a92bc0631d77bd1bb4bc2035747381565b6102936106743660046137e0565b612932565b8260008111801561068c57506004548111155b6106b15760405162461bcd60e51b81526004016106a890613803565b60405180910390fd5b60008181526006602052604090206007015460ff166106e25760405162461bcd60e51b81526004016106a890613833565b600080516020613b0a8339815191526106fb8133611ba6565b6107175760405162461bcd60e51b81526004016106a890613860565b6000858152600960209081526040808320815160608101835288815242818501908152928101888152825460018181018555938752949095208151600390950201938455915190830155915160028201906107729082613926565b5050604080518681524260208201528792507f7fbe57c67dc9da58a35dc6aace73056993cce3aba078b02f096f45a62f0fe843910160405180910390a25050505050565b600960205281600052604060002081815481106107d257600080fd5b906000526020600020906003020160009150915050806000015490806001015490806002018054610802906138a3565b80601f016020809104026020016040519081016040528092919081815260200182805461082e906138a3565b801561087b5780601f106108505761010080835404028352916020019161087b565b820191906000526020600020905b81548152906001019060200180831161085e57829003601f168201915b5050505050905083565b8260008111801561089857506004548111155b6108b45760405162461bcd60e51b81526004016106a890613803565b60008181526006602052604090206007015460ff166108e55760405162461bcd60e51b81526004016106a890613833565b600084815260066020526040902060050154849061010090046001600160a01b031633146109495760405162461bcd60e51b81526020600482015260116024820152702737ba10383937b23ab1ba1037bbb732b960791b60448201526064016106a8565b6001600160a01b0384166000908152600d60205260409020546109a95760405162461bcd60e51b815260206004820152601860248201527713995dc81bdddb995c881b9bdd081c9959da5cdd195c995960421b60448201526064016106a8565b60008581526006602081905260409091206005810180546001600160a01b03888116610100908102610100600160a81b03198416179093559190041691016109f18582613926565b506000868152600a602090815260408083208054600180820183559185528385200180546001600160a01b0319166001600160a01b038b1617905589845260088352818420825160608101845289815242818601523393810193909352805491820181558452919092208251600390920201908190610a709082613926565b50602082810151600183810191909155604093840151600290930180546001600160a01b0319166001600160a01b039485161790558883166000818152600b84528581208054938401815581528390209091018a905592514281529184169189917f516c8b339c132041f2a10d0e873c5eaf4944299c02b458d7491b7f7ac1574d2f910160405180910390a4857f08c1aa8a3ded74821ab8fe6981a7dd0f9ebb0c3fcef9196f34b9f4e9d0e4edcd8542604051610b2e9291906139e5565b60405180910390a2505050505050565b600082815260208190526040902060010154610b5b905b33611ba6565b610b775760405162461bcd60e51b81526004016106a890613a07565b610b818282612aba565b5050565b60076020528160005260406000208181548110610ba157600080fd5b906000526020600020906005020160009150915050806000018054610bc5906138a3565b80601f0160208091040260200160405190810160405280929190818152602001828054610bf1906138a3565b8015610c3e5780601f10610c1357610100808354040283529160200191610c3e565b820191906000526020600020905b815481529060010190602001808311610c2157829003601f168201915b5050506001840154600285018054949560ff909216949193509150610c62906138a3565b80601f0160208091040260200160405190810160405280929190818152602001828054610c8e906138a3565b8015610cdb5780601f10610cb057610100808354040283529160200191610cdb565b820191906000526020600020905b815481529060010190602001808311610cbe57829003601f168201915b50505050600383015460049093015491926001600160a01b031691905085565b600c60205260009081526040902080546001820180546001600160a01b039092169291610d27906138a3565b80601f0160208091040260200160405190810160405280929190818152602001828054610d53906138a3565b8015610da05780601f10610d7557610100808354040283529160200191610da0565b820191906000526020600020905b815481529060010190602001808311610d8357829003601f168201915b505050505090806002018054610db5906138a3565b80601f0160208091040260200160405190810160405280929190818152602001828054610de1906138a3565b8015610e2e5780601f10610e0357610100808354040283529160200191610e2e565b820191906000526020600020905b815481529060010190602001808311610e1157829003601f168201915b505050505090806003018054610e43906138a3565b80601f0160208091040260200160405190810160405280929190818152602001828054610e6f906138a3565b8015610ebc5780601f10610e9157610100808354040283529160200191610ebc565b820191906000526020600020905b815481529060010190602001808311610e9f57829003601f168201915b505050506004830154600590930154919260ff1691905086565b6001600160a01b0381163314610f465760405162461bcd60e51b815260206004820152602f60248201527f416363657373436f6e74726f6c3a2063616e206f6e6c792072656e6f756e636560448201526e103937b632b9903337b91039b2b63360891b60648201526084016106a8565b610b818282612b21565b60086020528160005260406000208181548110610f6c57600080fd5b906000526020600020906003020160009150915050806000018054610f90906138a3565b80601f0160208091040260200160405190810160405280929190818152602001828054610fbc906138a3565b80156110095780601f10610fde57610100808354040283529160200191611009565b820191906000526020600020905b815481529060010190602001808311610fec57829003601f168201915b5050505060018301546002909301549192916001600160a01b0316905083565b60608160008111801561103e57506004548111155b61105a5760405162461bcd60e51b81526004016106a890613803565b60008181526006602052604090206007015460ff1661108b5760405162461bcd60e51b81526004016106a890613833565b600083815260096020908152604080832080548251818502810185019093528083529193909284015b8282101561118c578382906000526020600020906003020160405180606001604052908160008201548152602001600182015481526020016002820180546110fb906138a3565b80601f0160208091040260200160405190810160405280929190818152602001828054611127906138a3565b80156111745780601f1061114957610100808354040283529160200191611174565b820191906000526020600020905b81548152906001019060200180831161115757829003601f168201915b505050505081525050815260200190600101906110b4565b5050505091505b50919050565b6060806060836000811180156111b157506004548111155b6111cd5760405162461bcd60e51b81526004016106a890613803565b60008181526006602052604090206007015460ff166111fe5760405162461bcd60e51b81526004016106a890613833565b6000858152600a602090815260408083206008835281842060078452938290208154835181860281018601909452808452919493909291859183018282801561127057602002820191906000526020600020905b81546001600160a01b03168152600190910190602001808311611252575b5050505050925081805480602002602001604051908101604052809291908181526020016000905b8282101561137f57838290600052602060002090600302016040518060600160405290816000820180546112cb906138a3565b80601f01602080910402602001604051908101604052809291908181526020018280546112f7906138a3565b80156113445780601f1061131957610100808354040283529160200191611344565b820191906000526020600020905b81548152906001019060200180831161132757829003601f168201915b50505091835250506001828101546020808401919091526002909301546001600160a01b031660409092019190915291835292019101611298565b50505050915080805480602002602001604051908101604052809291908181526020016000905b8282101561153257838290600052602060002090600502016040518060a00160405290816000820180546113d9906138a3565b80601f0160208091040260200160405190810160405280929190818152602001828054611405906138a3565b80156114525780601f1061142757610100808354040283529160200191611452565b820191906000526020600020905b81548152906001019060200180831161143557829003601f168201915b5050509183525050600182015460ff161515602082015260028201805460409092019161147e906138a3565b80601f01602080910402602001604051908101604052809291908181526020018280546114aa906138a3565b80156114f75780601f106114cc576101008083540402835291602001916114f7565b820191906000526020600020905b8154815290600101906020018083116114da57829003601f168201915b505050918352505060038201546001600160a01b031660208083019190915260049092015460409091015290825260019290920191016113a6565b505050509050935093509350509193909250565b7fa49807205ce4d355092ef5a8a18f56e8913cf4a201fbe287825b095693c217756115718133611ba6565b61158d5760405162461bcd60e51b81526004016106a890613860565b6001600160a01b0385166000908152600d6020526040902054156115f35760405162461bcd60e51b815260206004820152601e60248201527f5061727469636970616e7420616c72656164792072656769737465726564000060448201526064016106a8565b6005805490600061160383613a4d565b90915550506040805160c0810182526001600160a01b0387811682526020808301888152838501889052606084018790526001608085018190524260a08601526005546000908152600c90935294909120835181546001600160a01b031916931692909217825551919290919082019061167d9082613926565b50604082015160028201906116929082613926565b50606082015160038201906116a79082613926565b50608082015160048201805460ff191691151591909117905560a090910151600591820155546001600160a01b0386166000908152600d60205260409020556116fe600080516020613b0a83398151915286610b3e565b5050505050565b6060600e826040516117179190613a74565b908152604080519182900360209081018320805480830285018301909352828452919083018282801561176957602002820191906000526020600020905b815481526020019060010190808311611755575b50505050509050919050565b60066020526000908152604090208054600182018054919291611797906138a3565b80601f01602080910402602001604051908101604052809291908181526020018280546117c3906138a3565b80156118105780601f106117e557610100808354040283529160200191611810565b820191906000526020600020905b8154815290600101906020018083116117f357829003601f168201915b505050505090806002018054611825906138a3565b80601f0160208091040260200160405190810160405280929190818152602001828054611851906138a3565b801561189e5780601f106118735761010080835404028352916020019161189e565b820191906000526020600020905b81548152906001019060200180831161188157829003601f168201915b5050505050908060030180546118b3906138a3565b80601f01602080910402602001604051908101604052809291908181526020018280546118df906138a3565b801561192c5780601f106119015761010080835404028352916020019161192c565b820191906000526020600020905b81548152906001019060200180831161190f57829003601f168201915b50505050600483015460058401546006850180549495929460ff831694506101009092046001600160a01b03169291611964906138a3565b80601f0160208091040260200160405190810160405280929190818152602001828054611990906138a3565b80156119dd5780601f106119b2576101008083540402835291602001916119dd565b820191906000526020600020905b8154815290600101906020018083116119c057829003601f168201915b5050505060078301546008840154600985018054949560ff9093169491935090611a06906138a3565b80601f0160208091040260200160405190810160405280929190818152602001828054611a32906138a3565b8015611a7f5780601f10611a5457610100808354040283529160200191611a7f565b820191906000526020600020905b815481529060010190602001808311611a6257829003601f168201915b50505050509080600a015490508c565b60608151835114611adb5760405162461bcd60e51b8152602060048201526016602482015275082e4e4c2f2e640d8cadccee8d040dad2e6dac2e8c6d60531b60448201526064016106a8565b600083516001600160401b03811115611af657611af6612bbd565b604051908082528060200260200182016040528015611b1f578160200160208202803683370190505b50905060005b8451811015611b9e57611b6a858281518110611b4357611b43613a90565b6020026020010151858381518110611b5d57611b5d613a90565b6020026020010151611ba6565b828281518110611b7c57611b7c613a90565b9115156020928302919091019091015280611b9681613a4d565b915050611b25565b509392505050565b6000918252602082815260408084206001600160a01b0393909316845291905290205460ff1690565b81600081118015611be257506004548111155b611bfe5760405162461bcd60e51b81526004016106a890613803565b60008181526006602052604090206007015460ff16611c2f5760405162461bcd60e51b81526004016106a890613833565b7fa49807205ce4d355092ef5a8a18f56e8913cf4a201fbe287825b095693c21775611c5a8133611ba6565b611c765760405162461bcd60e51b81526004016106a890613860565b60008481526006602081815260408084206005808201805460ff19908116600817909155600792830180549091169055908352818520825160e08101845260a0810195865265149150d0531360d21b60c08201529485528484018690529184018890523360608501524260808501528154600181018355918552919093208251929390910201908190611d099082613926565b50602082015160018201805460ff191691151591909117905560408201516002820190611d369082613926565b5060608201516003820180546001600160a01b0319166001600160a01b0390921691909117905560809091015160049091015550505050565b600081600081118015611d8457506004548111155b611da05760405162461bcd60e51b81526004016106a890613803565b60008181526006602052604090206007015460ff16611dd15760405162461bcd60e51b81526004016106a890613833565b60008381526006602052604090206007015460ff168015611e185750600860008481526006602052604090206005015460ff166008811115611e1557611e1561320e565b14155b9392505050565b6000600080516020613b0a833981519152611e3a8133611ba6565b611e565760405162461bcd60e51b81526004016106a890613860565b60048054906000611e6683613a4d565b90915550506001546001600160a01b031615611f1557600154604051636d66aa8f60e01b81526020600482015260076024820152661c1c9bd91d58dd60ca1b60448201526000916001600160a01b031690636d66aa8f90606401602060405180830381865afa158015611edd573d6000803e3d6000fd5b505050506040513d601f19601f82011682018060405250810190611f019190613aa6565b600454600090815260036020526040902055505b604051806101800160405280600454815260200189815260200188815260200187815260200142815260200160006008811115611f5457611f5461320e565b815233602080830191909152604080830187905260016060840181905260006080850181905260a085018b905260c0909401899052600454845260068352922083518155908301519091820190611fab9082613926565b5060408201516002820190611fc09082613926565b5060608201516003820190611fd59082613926565b506080820151600482015560a082015160058201805460ff191660018360088111156120035761200361320e565b021790555060c08201516005820180546001600160a01b0390921661010002610100600160a81b031990921691909117905560e082015160068201906120499082613926565b5061010082015160078201805460ff1916911515919091179055610120820151600882015561014082015160098201906120839082613926565b506101609190910151600a91820155600480546000908152602092835260408082208054600181810183559184528584200180546001600160a01b031916339081179091559354835260088552818320825160608101845289815242818801529283019490945283549081018455928252929020825160039092020190819061210c9082613926565b50602082810151600183810191909155604093840151600290930180546001600160a01b0319166001600160a01b0390941693909317909255336000908152600b8252838120600454815494850182559082529190209091015551600e90612175908790613a74565b9081526040519081900360209081018220600480548254600181018455600093845293909220909201555433917f90934fc9dc1095f968f4207cb62e27da1da3e31653ff34cbf837b6c349ded760906121d1908c9042906139e5565b60405180910390a350506004549695505050505050565b8151602081840181018051600e82529282019185019190912091905280548290811061221357600080fd5b90600052602060002001600091509150505481565b80515161226f5760405162461bcd60e51b8152602060048201526015602482015274139bc81c1c9bd91d58dd1cc81cdc1958da599a5959605a1b60448201526064016106a8565b6020808201516001600160a01b03166000908152600d90915260409020546122d45760405162461bcd60e51b815260206004820152601860248201527713995dc81bdddb995c881b9bdd081c9959da5cdd195c995960421b60448201526064016106a8565b60005b815151811015612542576000826000015182815181106122f9576122f9613a90565b6020908102919091018101516000818152600690925260409091206005015490915061010090046001600160a01b031633146123775760405162461bcd60e51b815260206004820152601960248201527f4e6f74206f776e6572206f6620616c6c2070726f64756374730000000000000060448201526064016106a8565b60008181526006602052604090206007015460ff166123cb5760405162461bcd60e51b815260206004820152601060248201526f50726f6475637420696e61637469766560801b60448201526064016106a8565b60208084015160008381526006928390526040908190206005810180546001600160a01b0390941661010002610100600160a81b03199094169390931790925585015191019061241b9082613926565b5060608301516000828152600660205260409020600501805460ff1916600183600881111561244c5761244c61320e565b02179055506000818152600a60209081526040808320868301518154600180820184559286528486200180546001600160a01b0319166001600160a01b03909216919091179055848452600883528184208251606081018452888401518152428186015233938101939093528054918201815584529190922082516003909202019081906124da9082613926565b50602082810151600183810191909155604093840151600290930180546001600160a01b0319166001600160a01b03948516179055868201519092166000908152600b825292832080549283018155835290912001558061253a81613a4d565b9150506122d7565b5080602001516001600160a01b03167f687491fb7d408065617308d02b13b4b3b8ca795e456afcba97427b2e54abb63a826000015142604051612586929190613abf565b60405180910390a250565b600b602052816000526040600020818154811061221357600080fd5b6001600160a01b0381166000908152600b602090815260409182902080548351818402810184019094528084526060939283018282801561176957602002820191906000526020600020908154815260200190600101908083116117555750505050509050919050565b8360008111801561262a57506004548111155b6126465760405162461bcd60e51b81526004016106a890613803565b60008181526006602052604090206007015460ff166126775760405162461bcd60e51b81526004016106a890613833565b600080516020613b0a8339815191526126908133611ba6565b6126ac5760405162461bcd60e51b81526004016106a890613860565b6000868152600760209081526040808320815160a0810183528981528815158185015291820187905233606083015242608083015280546001810182559084529190922082516005909202019081906127059082613926565b50602082015160018201805460ff1916911515919091179055604082015160028201906127329082613926565b5060608201516003820180546001600160a01b0319166001600160a01b0390921691909117905560809091015160049091015560405186907f69fadc3d7c481b5515778225c87aca24eb863d3dba21348491d8587016e0380190610b2e90889088908890613ad2565b60606000805b83518110156127e5576127c085858381518110611b5d57611b5d613a90565b156127d357816127cf81613a4d565b9250505b806127dd81613a4d565b9150506127a1565b506000816001600160401b0381111561280057612800612bbd565b604051908082528060200260200182016040528015612829578160200160208202803683370190505b5090506000805b85518110156128b85761284f87878381518110611b5d57611b5d613a90565b156128a65785818151811061286657612866613a90565b602002602001015183838151811061288057612880613a90565b6001600160a01b0390921660209283029190910190910152816128a281613a4d565b9250505b806128b081613a4d565b915050612830565b509095945050505050565b6000828152602081905260409020600101546128de90610b55565b610f465760405162461bcd60e51b81526004016106a890613a07565b600a602052816000526040600020818154811061291657600080fd5b6000918252602090912001546001600160a01b03169150829050565b8160008111801561294557506004548111155b6129615760405162461bcd60e51b81526004016106a890613803565b60008181526006602052604090206007015460ff166129925760405162461bcd60e51b81526004016106a890613833565b600083815260066020526040902060050154839061010090046001600160a01b031633146129f65760405162461bcd60e51b81526020600482015260116024820152702737ba10383937b23ab1ba1037bbb732b960791b60448201526064016106a8565b60008481526006602052604090206005015460ff166008811115612a1c57612a1c61320e565b60ff16836008811115612a3157612a3161320e565b60ff1611612a815760405162461bcd60e51b815260206004820152601960248201527f496e76616c69642073746167652070726f6772657373696f6e0000000000000060448201526064016106a8565b6000848152600660205260409020600501805484919060ff19166001836008811115612aaf57612aaf61320e565b021790555050505050565b612ac48282611ba6565b610b81576000828152602081815260408083206001600160a01b0385168085529252808320805460ff1916600117905551339285917f2f8788117e7eff1d82e926ec794901d17c78024a50270940304540a733656f0d9190a45050565b612b2b8282611ba6565b15610b81576000828152602081815260408083206001600160a01b0385168085529252808320805460ff1916905551339285917ff6391f5c32d9c69d2a47ea670b442974b53935d1edc7fd64eb21e047a839171b9190a45050565b80356001600160a01b0381168114612b9d57600080fd5b919050565b600060208284031215612bb457600080fd5b611e1882612b86565b634e487b7160e01b600052604160045260246000fd5b604051608081016001600160401b0381118282101715612bf557612bf5612bbd565b60405290565b604051601f8201601f191681016001600160401b0381118282101715612c2357612c23612bbd565b604052919050565b600082601f830112612c3c57600080fd5b81356001600160401b03811115612c5557612c55612bbd565b612c68601f8201601f1916602001612bfb565b818152846020838601011115612c7d57600080fd5b816020850160208301376000918101602001919091529392505050565b600080600060608486031215612caf57600080fd5b833592506020840135915060408401356001600160401b03811115612cd357600080fd5b612cdf86828701612c2b565b9150509250925092565b60008060408385031215612cfc57600080fd5b50508035926020909101359150565b60005b83811015612d26578181015183820152602001612d0e565b50506000910152565b60008151808452612d47816020860160208601612d0b565b601f01601f19169290920160200192915050565b838152826020820152606060408201526000612d7a6060830184612d2f565b95945050505050565b600060208284031215612d9557600080fd5b5035919050565b600080600060608486031215612db157600080fd5b83359250612dc160208501612b86565b915060408401356001600160401b03811115612cd357600080fd5b60008060408385031215612def57600080fd5b82359150612dff60208401612b86565b90509250929050565b60a081526000612e1b60a0830188612d2f565b86151560208401528281036040840152612e358187612d2f565b6001600160a01b039590951660608401525050608001529392505050565b6001600160a01b038716815260c060208201819052600090612e7790830188612d2f565b8281036040840152612e898188612d2f565b90508281036060840152612e9d8187612d2f565b9415156080840152505060a00152949350505050565b606081526000612ec66060830186612d2f565b6020830194909452506001600160a01b0391909116604090910152919050565b60006020808301818452808551808352604092508286019150828160051b87010184880160005b83811015612f5757888303603f1901855281518051845287810151888501528601516060878501819052612f4381860183612d2f565b968901969450505090860190600101612f0d565b509098975050505050505050565b600081518084526020808501945080840160005b83811015612f9e5781516001600160a01b031687529582019590820190600101612f79565b509495945050505050565b6000815180845260208085019450848260051b860182860160005b8581101561303e578383038952815160a08151818652612fe682870182612d2f565b915050868201511515878601526040808301518683038288015261300a8382612d2f565b6060858101516001600160a01b03169089015260809485015194909701939093525050509784019790840190600101612fc4565b5090979650505050505050565b6000606080835261305e81840187612f65565b6020848203818601528187518084528284019150828160051b850101838a0160005b838110156130d457868303601f19018552815180518985526130a48a860182612d2f565b82890151868a01526040928301516001600160a01b03169290950191909152509385019390850190600101613080565b505087810360408901526130e8818a612fa9565b9b9a5050505050505050505050565b6000806000806080858703121561310d57600080fd5b61311685612b86565b935060208501356001600160401b038082111561313257600080fd5b61313e88838901612c2b565b9450604087013591508082111561315457600080fd5b61316088838901612c2b565b9350606087013591508082111561317657600080fd5b5061318387828801612c2b565b91505092959194509250565b6000602082840312156131a157600080fd5b81356001600160401b038111156131b757600080fd5b6131c384828501612c2b565b949350505050565b600081518084526020808501945080840160005b83811015612f9e578151875295820195908201906001016131df565b602081526000611e1860208301846131cb565b634e487b7160e01b600052602160045260246000fd5b60006101808e835280602084015261323e8184018f612d2f565b90508281036040840152613252818e612d2f565b90508281036060840152613266818d612d2f565b90508a608084015260098a1061328c57634e487b7160e01b600052602160045260246000fd5b8960a08401526132a760c084018a6001600160a01b03169052565b82810360e08401526132b98189612d2f565b8715156101008501529050856101208401528281036101408401526132de8186612d2f565b915050826101608301529d9c50505050505050505050505050565b60006001600160401b0382111561331257613312612bbd565b5060051b60200190565b600082601f83011261332d57600080fd5b8135602061334261333d836132f9565b612bfb565b82815260059290921b8401810191818101908684111561336157600080fd5b8286015b848110156133835761337681612b86565b8352918301918301613365565b509695505050505050565b600080604083850312156133a157600080fd5b82356001600160401b03808211156133b857600080fd5b818501915085601f8301126133cc57600080fd5b813560206133dc61333d836132f9565b82815260059290921b840181019181810190898411156133fb57600080fd5b948201945b8386101561341957853582529482019490820190613400565b9650508601359250508082111561342f57600080fd5b5061343c8582860161331c565b9150509250929050565b6020808252825182820181905260009190848201906040850190845b81811015613480578351151583529284019291840191600101613462565b50909695505050505050565b6000806040838503121561349f57600080fd5b8235915060208301356001600160401b038111156134bc57600080fd5b61343c85828601612c2b565b60008060008060008060c087890312156134e157600080fd5b86356001600160401b03808211156134f857600080fd5b6135048a838b01612c2b565b9750602089013591508082111561351a57600080fd5b6135268a838b01612c2b565b9650604089013591508082111561353c57600080fd5b6135488a838b01612c2b565b9550606089013591508082111561355e57600080fd5b61356a8a838b01612c2b565b94506080890135935060a089013591508082111561358757600080fd5b5061359489828a01612c2b565b9150509295509295509295565b600080604083850312156135b457600080fd5b82356001600160401b038111156135ca57600080fd5b6135d685828601612c2b565b95602094909401359450505050565b803560098110612b9d57600080fd5b6000602080838503121561360757600080fd5b82356001600160401b038082111561361e57600080fd5b908401906080828703121561363257600080fd5b61363a612bd3565b82358281111561364957600080fd5b8301601f8101881361365a57600080fd5b803561366861333d826132f9565b81815260059190911b8201860190868101908a83111561368757600080fd5b928701925b828410156136a55783358252928701929087019061368c565b8452506136b6915050838501612b86565b8482015260408301359350818411156136ce57600080fd5b6136da87858501612c2b565b60408201526136eb606084016135e5565b60608201529695505050505050565b6000806040838503121561370d57600080fd5b61371683612b86565b946020939093013593505050565b6000806000806080858703121561373a57600080fd5b8435935060208501356001600160401b038082111561375857600080fd5b61376488838901612c2b565b945060408701359150811515821461377b57600080fd5b9092506060860135908082111561317657600080fd5b600080604083850312156137a457600080fd5b8235915060208301356001600160401b038111156137c157600080fd5b61343c8582860161331c565b602081526000611e186020830184612f65565b600080604083850312156137f357600080fd5b82359150612dff602084016135e5565b602080825260169082015275141c9bd91d58dd08191bd95cc81b9bdd08195e1a5cdd60521b604082015260600190565b60208082526013908201527250726f6475637420697320696e61637469766560681b604082015260600190565b60208082526023908201527f416363657373436f6e74726f6c3a206163636f756e74206d697373696e6720726040820152626f6c6560e81b606082015260800190565b600181811c908216806138b757607f821691505b60208210810361119357634e487b7160e01b600052602260045260246000fd5b601f82111561392157600081815260208120601f850160051c810160208610156138fe5750805b601f850160051c820191505b8181101561391d5782815560010161390a565b5050505b505050565b81516001600160401b0381111561393f5761393f612bbd565b6139538161394d84546138a3565b846138d7565b602080601f83116001811461398857600084156139705750858301515b600019600386901b1c1916600185901b17855561391d565b600085815260208120601f198616915b828110156139b757888601518255948401946001909101908401613998565b50858210156139d55787850151600019600388901b60f8161c191681555b5050505050600190811b01905550565b6040815260006139f86040830185612d2f565b90508260208301529392505050565b60208082526026908201527f416363657373436f6e74726f6c3a2073656e646572206d75737420626520616e6040820152651030b236b4b760d11b606082015260800190565b600060018201613a6d57634e487b7160e01b600052601160045260246000fd5b5060010190565b60008251613a86818460208701612d0b565b9190910192915050565b634e487b7160e01b600052603260045260246000fd5b600060208284031215613ab857600080fd5b5051919050565b6040815260006139f860408301856131cb565b606081526000613ae56060830186612d2f565b84151560208401528281036040840152613aff8185612d2f565b969550505050505056fe938c45fe3baa5cbd047f2473358a27f57db22291e9af95379a15ad016886dfb7a26469706673582212205ab64b91049d09d7c6d0db474ced56168501b897229bd12aebc2b81b6cfe3ec264736f6c63430008130033",
  "immutableReferences": {},
  "source": "// SPDX-License-Identifier: MIT\r\npragma solidity ^0.8.19;\r\n\r\nimport \"./AccessControl.sol\";\r\nimport \"./AdaptiveSharding.sol\";\r\nimport \"./HighEfficiencyProcessor.sol\";\r\n\r\n/**\r\n * @title SupplyChainTraceability\r\n * @dev Advanced supply chain traceability system with high efficiency and comprehensive tracking\r\n */\r\ncontract SupplyChainTraceability is AccessControl {\r\n    \r\n    // Integration with sharding and efficiency processor\r\n    AdaptiveSharding public shardingContract;\r\n    HighEfficiencyProcessor public processorContract;\r\n    mapping(uint256 => uint256) public productToShard;\r\n    \r\n    // Events for tracking and transparency\r\n    event ProductCreated(uint256 indexed productId, string name, address indexed creator, uint256 timestamp);\r\n    event ProductTransferred(uint256 indexed productId, address indexed from, address indexed to, uint256 timestamp);\r\n    event BatchProcessed(uint256[] productIds, address indexed processor, uint256 timestamp);\r\n    event QualityCheckAdded(uint256 indexed productId, string checkType, bool passed, string notes);\r\n    event LocationUpdated(uint256 indexed productId, string location, uint256 timestamp);\r\n    event TemperatureLogged(uint256 indexed productId, int256 temperature, uint256 timestamp);\r\n    \r\n    // Product lifecycle stages\r\n    enum Stage {\r\n        Created,           // 0\r\n        RawMaterial,       // 1  \r\n        Manufacturing,     // 2\r\n        QualityControl,    // 3\r\n        Packaging,         // 4\r\n        Distribution,      // 5\r\n        Retail,           // 6\r\n        Sold,             // 7\r\n        Recalled          // 8\r\n    }\r\n    \r\n    // Product information structure\r\n    struct Product {\r\n        uint256 id;\r\n        string name;\r\n        string description;\r\n        string category;\r\n        uint256 createdAt;\r\n        Stage currentStage;\r\n        address currentOwner;\r\n        string currentLocation;\r\n        bool isActive;\r\n        uint256 parentProductId; // For products derived from others\r\n        string batchNumber;\r\n        uint256 expiryDate;\r\n    }\r\n    \r\n    // Quality check structure\r\n    struct QualityCheck {\r\n        string checkType;\r\n        bool passed;\r\n        string notes;\r\n        address inspector;\r\n        uint256 timestamp;\r\n    }\r\n    \r\n    // Location history structure\r\n    struct LocationHistory {\r\n        string location;\r\n        uint256 timestamp;\r\n        address updatedBy;\r\n    }\r\n    \r\n    // Temperature log structure\r\n    struct TemperatureLog {\r\n        int256 temperature;\r\n        uint256 timestamp;\r\n        string sensorId;\r\n    }\r\n    \r\n    // Supply chain participant structure\r\n    struct Participant {\r\n        address participantAddress;\r\n        string name;\r\n        string role;\r\n        string location;\r\n        bool isActive;\r\n        uint256 registeredAt;\r\n    }\r\n    \r\n    // State variables\r\n    uint256 private productCounter;\r\n    uint256 private participantCounter;\r\n    \r\n    // Mappings\r\n    mapping(uint256 => Product) public products;\r\n    mapping(uint256 => QualityCheck[]) public productQualityChecks;\r\n    mapping(uint256 => LocationHistory[]) public productLocationHistory;\r\n    mapping(uint256 => TemperatureLog[]) public productTemperatureLogs;\r\n    mapping(uint256 => address[]) public productOwnershipHistory;\r\n    mapping(address => uint256[]) public participantProducts;\r\n    mapping(uint256 => Participant) public participants;\r\n    mapping(address => uint256) public addressToParticipantId;\r\n    mapping(string => uint256[]) public batchProducts; // batch number to product IDs\r\n    \r\n    // Gas optimization: Pack multiple operations\r\n    struct BatchOperation {\r\n        uint256[] productIds;\r\n        address newOwner;\r\n        string newLocation;\r\n        Stage newStage;\r\n    }\r\n    \r\n    modifier onlyProductOwner(uint256 _productId) {\r\n        require(products[_productId].currentOwner == msg.sender, \"Not product owner\");\r\n        _;\r\n    }\r\n    \r\n    modifier productExists(uint256 _productId) {\r\n        require(_productId > 0 && _productId <= productCounter, \"Product does not exist\");\r\n        require(products[_productId].isActive, \"Product is inactive\");\r\n        _;\r\n    }\r\n    \r\n    modifier onlyRegisteredParticipant() {\r\n        require(addressToParticipantId[msg.sender] > 0, \"Not a registered participant\");\r\n        _;\r\n    }\r\n    \r\n    constructor(address _shardingContract, address _processorContract) {\r\n        _setupRole(DEFAULT_ADMIN_ROLE, msg.sender);\r\n        _setupRole(ADMIN_ROLE, msg.sender);\r\n        \r\n        if (_shardingContract != address(0)) {\r\n            shardingContract = AdaptiveSharding(_shardingContract);\r\n        }\r\n        if (_processorContract != address(0)) {\r\n            processorContract = HighEfficiencyProcessor(_processorContract);\r\n        }\r\n    }\r\n    \r\n    /**\r\n     * @dev Register a new supply chain participant\r\n     */\r\n    function registerParticipant(\r\n        address _participantAddress,\r\n        string memory _name,\r\n        string memory _role,\r\n        string memory _location\r\n    ) external onlyRole(ADMIN_ROLE) {\r\n        require(addressToParticipantId[_participantAddress] == 0, \"Participant already registered\");\r\n        \r\n        participantCounter++;\r\n        participants[participantCounter] = Participant({\r\n            participantAddress: _participantAddress,\r\n            name: _name,\r\n            role: _role,\r\n            location: _location,\r\n            isActive: true,\r\n            registeredAt: block.timestamp\r\n        });\r\n        \r\n        addressToParticipantId[_participantAddress] = participantCounter;\r\n        grantRole(PARTICIPANT_ROLE, _participantAddress);\r\n    }\r\n    \r\n    /**\r\n     * @dev Create a new product in the supply chain\r\n     */\r\n    function createProduct(\r\n        string memory _name,\r\n        string memory _description,\r\n        string memory _category,\r\n        string memory _batchNumber,\r\n        uint256 _expiryDate,\r\n        string memory _initialLocation\r\n    ) external onlyRole(PARTICIPANT_ROLE) returns (uint256) {\r\n        productCounter++;\r\n        \r\n        // Assign product to optimal shard\r\n        if (address(shardingContract) != address(0)) {\r\n            uint256 shardId = shardingContract.getOptimalShard(\"product\");\r\n            productToShard[productCounter] = shardId;\r\n        }\r\n        \r\n        products[productCounter] = Product({\r\n            id: productCounter,\r\n            name: _name,\r\n            description: _description,\r\n            category: _category,\r\n            createdAt: block.timestamp,\r\n            currentStage: Stage.Created,\r\n            currentOwner: msg.sender,\r\n            currentLocation: _initialLocation,\r\n            isActive: true,\r\n            parentProductId: 0,\r\n            batchNumber: _batchNumber,\r\n            expiryDate: _expiryDate\r\n        });\r\n        \r\n        // Initialize history\r\n        productOwnershipHistory[productCounter].push(msg.sender);\r\n        productLocationHistory[productCounter].push(LocationHistory({\r\n            location: _initialLocation,\r\n            timestamp: block.timestamp,\r\n            updatedBy: msg.sender\r\n        }));\r\n        \r\n        // Add to participant's products\r\n        participantProducts[msg.sender].push(productCounter);\r\n        \r\n        // Add to batch\r\n        batchProducts[_batchNumber].push(productCounter);\r\n        \r\n        emit ProductCreated(productCounter, _name, msg.sender, block.timestamp);\r\n        \r\n        return productCounter;\r\n    }\r\n    \r\n    /**\r\n     * @dev Transfer product ownership\r\n     */\r\n    function transferProduct(\r\n        uint256 _productId,\r\n        address _newOwner,\r\n        string memory _newLocation\r\n    ) external productExists(_productId) onlyProductOwner(_productId) {\r\n        require(addressToParticipantId[_newOwner] > 0, \"New owner not registered\");\r\n        \r\n        address previousOwner = products[_productId].currentOwner;\r\n        \r\n        // Update product\r\n        products[_productId].currentOwner = _newOwner;\r\n        products[_productId].currentLocation = _newLocation;\r\n        \r\n        // Update histories\r\n        productOwnershipHistory[_productId].push(_newOwner);\r\n        productLocationHistory[_productId].push(LocationHistory({\r\n            location: _newLocation,\r\n            timestamp: block.timestamp,\r\n            updatedBy: msg.sender\r\n        }));\r\n        \r\n        // Update participant products\r\n        participantProducts[_newOwner].push(_productId);\r\n        \r\n        emit ProductTransferred(_productId, previousOwner, _newOwner, block.timestamp);\r\n        emit LocationUpdated(_productId, _newLocation, block.timestamp);\r\n    }\r\n    \r\n    /**\r\n     * @dev Update product stage\r\n     */\r\n    function updateStage(\r\n        uint256 _productId,\r\n        Stage _newStage\r\n    ) external productExists(_productId) onlyProductOwner(_productId) {\r\n        require(uint8(_newStage) > uint8(products[_productId].currentStage), \"Invalid stage progression\");\r\n        \r\n        products[_productId].currentStage = _newStage;\r\n    }\r\n    \r\n    /**\r\n     * @dev Batch process multiple products (gas optimization)\r\n     */\r\n    function batchTransfer(\r\n        BatchOperation memory _operation\r\n    ) external {\r\n        require(_operation.productIds.length > 0, \"No products specified\");\r\n        require(addressToParticipantId[_operation.newOwner] > 0, \"New owner not registered\");\r\n        \r\n        for (uint256 i = 0; i < _operation.productIds.length; i++) {\r\n            uint256 productId = _operation.productIds[i];\r\n            require(products[productId].currentOwner == msg.sender, \"Not owner of all products\");\r\n            require(products[productId].isActive, \"Product inactive\");\r\n            \r\n            // Update product\r\n            products[productId].currentOwner = _operation.newOwner;\r\n            products[productId].currentLocation = _operation.newLocation;\r\n            products[productId].currentStage = _operation.newStage;\r\n            \r\n            // Update histories\r\n            productOwnershipHistory[productId].push(_operation.newOwner);\r\n            productLocationHistory[productId].push(LocationHistory({\r\n                location: _operation.newLocation,\r\n                timestamp: block.timestamp,\r\n                updatedBy: msg.sender\r\n            }));\r\n            \r\n            participantProducts[_operation.newOwner].push(productId);\r\n        }\r\n        \r\n        emit BatchProcessed(_operation.productIds, _operation.newOwner, block.timestamp);\r\n    }\r\n    \r\n    /**\r\n     * @dev Add quality check result\r\n     */\r\n    function addQualityCheck(\r\n        uint256 _productId,\r\n        string memory _checkType,\r\n        bool _passed,\r\n        string memory _notes\r\n    ) external productExists(_productId) onlyRole(PARTICIPANT_ROLE) {\r\n        productQualityChecks[_productId].push(QualityCheck({\r\n            checkType: _checkType,\r\n            passed: _passed,\r\n            notes: _notes,\r\n            inspector: msg.sender,\r\n            timestamp: block.timestamp\r\n        }));\r\n        \r\n        emit QualityCheckAdded(_productId, _checkType, _passed, _notes);\r\n    }\r\n    \r\n    /**\r\n     * @dev Log temperature data (IoT integration)\r\n     */\r\n    function logTemperature(\r\n        uint256 _productId,\r\n        int256 _temperature,\r\n        string memory _sensorId\r\n    ) external productExists(_productId) onlyRole(PARTICIPANT_ROLE) {\r\n        productTemperatureLogs[_productId].push(TemperatureLog({\r\n            temperature: _temperature,\r\n            timestamp: block.timestamp,\r\n            sensorId: _sensorId\r\n        }));\r\n        \r\n        emit TemperatureLogged(_productId, _temperature, block.timestamp);\r\n    }\r\n    \r\n    /**\r\n     * @dev Recall a product\r\n     */\r\n    function recallProduct(\r\n        uint256 _productId,\r\n        string memory _reason\r\n    ) external productExists(_productId) onlyRole(ADMIN_ROLE) {\r\n        products[_productId].currentStage = Stage.Recalled;\r\n        products[_productId].isActive = false;\r\n        \r\n        // Add quality check for recall\r\n        productQualityChecks[_productId].push(QualityCheck({\r\n            checkType: \"RECALL\",\r\n            passed: false,\r\n            notes: _reason,\r\n            inspector: msg.sender,\r\n            timestamp: block.timestamp\r\n        }));\r\n    }\r\n    \r\n    // View functions for comprehensive traceability\r\n    \r\n    function getProductHistory(uint256 _productId) \r\n        external \r\n        view \r\n        productExists(_productId) \r\n        returns (\r\n            address[] memory owners,\r\n            LocationHistory[] memory locations,\r\n            QualityCheck[] memory qualityChecks\r\n        ) {\r\n        return (\r\n            productOwnershipHistory[_productId],\r\n            productLocationHistory[_productId],\r\n            productQualityChecks[_productId]\r\n        );\r\n    }\r\n    \r\n    function getTemperatureHistory(uint256 _productId) \r\n        external \r\n        view \r\n        productExists(_productId) \r\n        returns (TemperatureLog[] memory) {\r\n        return productTemperatureLogs[_productId];\r\n    }\r\n    \r\n    function getBatchProducts(string memory _batchNumber) \r\n        external \r\n        view \r\n        returns (uint256[] memory) {\r\n        return batchProducts[_batchNumber];\r\n    }\r\n    \r\n    function getParticipantProducts(address _participant) \r\n        external \r\n        view \r\n        returns (uint256[] memory) {\r\n        return participantProducts[_participant];\r\n    }\r\n    \r\n    function isProductAuthentic(uint256 _productId) \r\n        external \r\n        view \r\n        productExists(_productId) \r\n        returns (bool) {\r\n        return products[_productId].isActive && \r\n               products[_productId].currentStage != Stage.Recalled;\r\n    }\r\n    \r\n    // Utility functions\r\n    function getProductCount() external view returns (uint256) {\r\n        return productCounter;\r\n    }\r\n    \r\n    function getParticipantCount() external view returns (uint256) {\r\n        return participantCounter;\r\n    }\r\n}",
  "sourcePath": "C:\\projects\\BLOCKCHAIN_PROJECT\\contracts\\SupplyChainTraceability.sol",
  "compiler": {
    "name": "solc",
    "version": "0.8.19+commit.7dd6d404.Emscripten.clang"
  },
  "schemaVersion": "3.4.16",
  "updatedAt": "2025-08-24T05:03:08.260Z",
  "networkType": "ethereum",
  "devdoc": {
    "details": "Advanced supply chain traceability system with high efficiency and comprehensive tracking",
    "kind": "dev",
    "methods": {
      "addQualityCheck(uint256,string,bool,string)": {
        "details": "Add quality check result"
      },
      "batchTransfer((uint256[],address,string,uint8))": {
        "details": "Batch process multiple products (gas optimization)"
      },
      "createProduct(string,string,string,string,uint256,string)": {
        "details": "Create a new product in the supply chain"
      },
      "getRoleAdmin(bytes32)": {
        "details": "Get the admin role for a given role"
      },
      "getRoleMembers(bytes32,address[])": {
        "details": "Get all accounts with a specific role (expensive operation, use carefully)"
      },
      "grantRole(bytes32,address)": {
        "details": "Grant a role to an account"
      },
      "hasRole(bytes32,address)": {
        "details": "Check if an account has a specific role"
      },
      "hasRoles(bytes32[],address[])": {
        "details": "Check if multiple accounts have required roles (batch check)"
      },
      "logTemperature(uint256,int256,string)": {
        "details": "Log temperature data (IoT integration)"
      },
      "recallProduct(uint256,string)": {
        "details": "Recall a product"
      },
      "registerParticipant(address,string,string,string)": {
        "details": "Register a new supply chain participant"
      },
      "renounceRole(bytes32,address)": {
        "details": "Renounce a role (can only be called by the account itself)"
      },
      "revokeRole(bytes32,address)": {
        "details": "Revoke a role from an account"
      },
      "transferProduct(uint256,address,string)": {
        "details": "Transfer product ownership"
      },
      "updateStage(uint256,uint8)": {
        "details": "Update product stage"
      }
    },
    "title": "SupplyChainTraceability",
    "version": 1
  },
  "userdoc": {
    "kind": "user",
    "methods": {},
    "version": 1
  }
}