{
  "contractName": "SupplyChain",
  "abi": [
    {
      "inputs": [],
      "stateMutability": "nonpayable",
      "type": "constructor"
    },
    {
      "inputs": [
        {
          "internalType": "uint256",
          "name": "",
          "type": "uint256"
        }
      ],
      "name": "DIS",
      "outputs": [
        {
          "internalType": "address",
          "name": "addr",
          "type": "address"
        },
        {
          "internalType": "uint256",
          "name": "id",
          "type": "uint256"
        },
        {
          "internalType": "string",
          "name": "name",
          "type": "string"
        },
        {
          "internalType": "string",
          "name": "place",
          "type": "string"
        }
      ],
      "stateMutability": "view",
      "type": "function",
      "constant": true
    },
    {
      "inputs": [
        {
          "internalType": "uint256",
          "name": "",
          "type": "uint256"
        }
      ],
      "name": "MAN",
      "outputs": [
        {
          "internalType": "address",
          "name": "addr",
          "type": "address"
        },
        {
          "internalType": "uint256",
          "name": "id",
          "type": "uint256"
        },
        {
          "internalType": "string",
          "name": "name",
          "type": "string"
        },
        {
          "internalType": "string",
          "name": "place",
          "type": "string"
        }
      ],
      "stateMutability": "view",
      "type": "function",
      "constant": true
    },
    {
      "inputs": [
        {
          "internalType": "uint256",
          "name": "",
          "type": "uint256"
        }
      ],
      "name": "MedicineStock",
      "outputs": [
        {
          "internalType": "uint256",
          "name": "id",
          "type": "uint256"
        },
        {
          "internalType": "string",
          "name": "name",
          "type": "string"
        },
        {
          "internalType": "string",
          "name": "description",
          "type": "string"
        },
        {
          "internalType": "uint256",
          "name": "RMSid",
          "type": "uint256"
        },
        {
          "internalType": "uint256",
          "name": "MANid",
          "type": "uint256"
        },
        {
          "internalType": "uint256",
          "name": "DISid",
          "type": "uint256"
        },
        {
          "internalType": "uint256",
          "name": "RETid",
          "type": "uint256"
        },
        {
          "internalType": "enum SupplyChain.STAGE",
          "name": "stage",
          "type": "uint8"
        }
      ],
      "stateMutability": "view",
      "type": "function",
      "constant": true
    },
    {
      "inputs": [],
      "name": "Owner",
      "outputs": [
        {
          "internalType": "address",
          "name": "",
          "type": "address"
        }
      ],
      "stateMutability": "view",
      "type": "function",
      "constant": true
    },
    {
      "inputs": [
        {
          "internalType": "uint256",
          "name": "",
          "type": "uint256"
        }
      ],
      "name": "RET",
      "outputs": [
        {
          "internalType": "address",
          "name": "addr",
          "type": "address"
        },
        {
          "internalType": "uint256",
          "name": "id",
          "type": "uint256"
        },
        {
          "internalType": "string",
          "name": "name",
          "type": "string"
        },
        {
          "internalType": "string",
          "name": "place",
          "type": "string"
        }
      ],
      "stateMutability": "view",
      "type": "function",
      "constant": true
    },
    {
      "inputs": [
        {
          "internalType": "uint256",
          "name": "",
          "type": "uint256"
        }
      ],
      "name": "RMS",
      "outputs": [
        {
          "internalType": "address",
          "name": "addr",
          "type": "address"
        },
        {
          "internalType": "uint256",
          "name": "id",
          "type": "uint256"
        },
        {
          "internalType": "string",
          "name": "name",
          "type": "string"
        },
        {
          "internalType": "string",
          "name": "place",
          "type": "string"
        }
      ],
      "stateMutability": "view",
      "type": "function",
      "constant": true
    },
    {
      "inputs": [],
      "name": "disCtr",
      "outputs": [
        {
          "internalType": "uint256",
          "name": "",
          "type": "uint256"
        }
      ],
      "stateMutability": "view",
      "type": "function",
      "constant": true
    },
    {
      "inputs": [],
      "name": "manCtr",
      "outputs": [
        {
          "internalType": "uint256",
          "name": "",
          "type": "uint256"
        }
      ],
      "stateMutability": "view",
      "type": "function",
      "constant": true
    },
    {
      "inputs": [],
      "name": "medicineCtr",
      "outputs": [
        {
          "internalType": "uint256",
          "name": "",
          "type": "uint256"
        }
      ],
      "stateMutability": "view",
      "type": "function",
      "constant": true
    },
    {
      "inputs": [],
      "name": "retCtr",
      "outputs": [
        {
          "internalType": "uint256",
          "name": "",
          "type": "uint256"
        }
      ],
      "stateMutability": "view",
      "type": "function",
      "constant": true
    },
    {
      "inputs": [],
      "name": "rmsCtr",
      "outputs": [
        {
          "internalType": "uint256",
          "name": "",
          "type": "uint256"
        }
      ],
      "stateMutability": "view",
      "type": "function",
      "constant": true
    },
    {
      "inputs": [
        {
          "internalType": "uint256",
          "name": "_medicineID",
          "type": "uint256"
        }
      ],
      "name": "showStage",
      "outputs": [
        {
          "internalType": "string",
          "name": "result",
          "type": "string"
        }
      ],
      "stateMutability": "view",
      "type": "function",
      "constant": true
    },
    {
      "inputs": [
        {
          "internalType": "address",
          "name": "_address",
          "type": "address"
        },
        {
          "internalType": "string",
          "name": "_name",
          "type": "string"
        },
        {
          "internalType": "string",
          "name": "_place",
          "type": "string"
        }
      ],
      "name": "addRMS",
      "outputs": [],
      "stateMutability": "nonpayable",
      "type": "function"
    },
    {
      "inputs": [
        {
          "internalType": "address",
          "name": "_address",
          "type": "address"
        },
        {
          "internalType": "string",
          "name": "_name",
          "type": "string"
        },
        {
          "internalType": "string",
          "name": "_place",
          "type": "string"
        }
      ],
      "name": "addManufacturer",
      "outputs": [],
      "stateMutability": "nonpayable",
      "type": "function"
    },
    {
      "inputs": [
        {
          "internalType": "address",
          "name": "_address",
          "type": "address"
        },
        {
          "internalType": "string",
          "name": "_name",
          "type": "string"
        },
        {
          "internalType": "string",
          "name": "_place",
          "type": "string"
        }
      ],
      "name": "addDistributor",
      "outputs": [],
      "stateMutability": "nonpayable",
      "type": "function"
    },
    {
      "inputs": [
        {
          "internalType": "address",
          "name": "_address",
          "type": "address"
        },
        {
          "internalType": "string",
          "name": "_name",
          "type": "string"
        },
        {
          "internalType": "string",
          "name": "_place",
          "type": "string"
        }
      ],
      "name": "addRetailer",
      "outputs": [],
      "stateMutability": "nonpayable",
      "type": "function"
    },
    {
      "inputs": [
        {
          "internalType": "uint256",
          "name": "_medicineID",
          "type": "uint256"
        }
      ],
      "name": "RMSsupply",
      "outputs": [],
      "stateMutability": "nonpayable",
      "type": "function"
    },
    {
      "inputs": [
        {
          "internalType": "uint256",
          "name": "_medicineID",
          "type": "uint256"
        }
      ],
      "name": "Manufacturing",
      "outputs": [],
      "stateMutability": "nonpayable",
      "type": "function"
    },
    {
      "inputs": [
        {
          "internalType": "uint256",
          "name": "_medicineID",
          "type": "uint256"
        }
      ],
      "name": "Distribute",
      "outputs": [],
      "stateMutability": "nonpayable",
      "type": "function"
    },
    {
      "inputs": [
        {
          "internalType": "uint256",
          "name": "_medicineID",
          "type": "uint256"
        }
      ],
      "name": "Retail",
      "outputs": [],
      "stateMutability": "nonpayable",
      "type": "function"
    },
    {
      "inputs": [
        {
          "internalType": "uint256",
          "name": "_medicineID",
          "type": "uint256"
        }
      ],
      "name": "sold",
      "outputs": [],
      "stateMutability": "nonpayable",
      "type": "function"
    },
    {
      "inputs": [
        {
          "internalType": "string",
          "name": "_name",
          "type": "string"
        },
        {
          "internalType": "string",
          "name": "_description",
          "type": "string"
        }
      ],
      "name": "addMedicine",
      "outputs": [],
      "stateMutability": "nonpayable",
      "type": "function"
    }
  ],
  "bytecode": "0x60806040526000600155600060025560006003556000600455600060055534801561002957600080fd5b50600080546001600160a01b031916331790556115738061004b6000396000f3fe608060405234801561001057600080fd5b50600436106101425760003560e01c806386c18275116100b8578063b4a99a4e1161007c578063b4a99a4e14610278578063cc403069146102a3578063dd286398146102b6578063e101a2e0146102bf578063eb1a06b5146102df578063eef5cb401461030657600080fd5b806386c18275146102235780638f4183cc146102365780639c03facb14610249578063a48d335a1461025c578063a95f29d91461026f57600080fd5b8063438e9c4d1161010a578063438e9c4d146101c55780634def474a146101ce57806359bf286f146101e15780636a992c9f146101f45780637e43d94d14610207578063857ddb041461021057600080fd5b80632a4af440146101475780632b0187ac1461015c5780632b70b08d146101885780632bdb2e6b1461019b5780633d753a1c146101b2575b600080fd5b61015a61015536600461119e565b610319565b005b61016f61016a366004611220565b6103d0565b60405161017f949392919061127f565b60405180910390f35b61015a61019636600461119e565b610513565b6101a460045481565b60405190815260200161017f565b61015a6101c0366004611220565b6105ae565b6101a460035481565b61015a6101dc366004611220565b610646565b61016f6101ef366004611220565b6106d7565b61015a61020236600461119e565b610709565b6101a460055481565b61015a61021e36600461119e565b6107a3565b61015a610231366004611220565b61083d565b61015a6102443660046112c3565b6108cb565b61015a610257366004611220565b610a20565b61015a61026a366004611220565b610ac8565b6101a460015481565b60005461028b906001600160a01b031681565b6040516001600160a01b03909116815260200161017f565b61016f6102b1366004611220565b610b59565b6101a460025481565b6102d26102cd366004611220565b610b8b565b60405161017f9190611327565b6102f26102ed366004611220565b610dcf565b60405161017f989796959493929190611357565b61016f610314366004611220565b610f24565b6000546001600160a01b0316331461033057600080fd5b60048054906000610340836113d1565b9091555050604080516080810182526001600160a01b0385811682526004546020808401828152848601888152606086018890526000938452600990925294909120835181546001600160a01b031916931692909217825592516001820155915190919060028201906103b3908261147d565b50606082015160038201906103c8908261147d565b505050505050565b6009602052600090815260409020805460018201546002830180546001600160a01b03909316939192610402906113f8565b80601f016020809104026020016040519081016040528092919081815260200182805461042e906113f8565b801561047b5780601f106104505761010080835404028352916020019161047b565b820191906000526020600020905b81548152906001019060200180831161045e57829003601f168201915b505050505090806003018054610490906113f8565b80601f01602080910402602001604051908101604052809291908181526020018280546104bc906113f8565b80156105095780601f106104de57610100808354040283529160200191610509565b820191906000526020600020905b8154815290600101906020018083116104ec57829003601f168201915b5050505050905084565b6000546001600160a01b0316331461052a57600080fd5b6002805490600061053a836113d1565b9091555050604080516080810182526001600160a01b038581168252600280546020808501828152858701898152606087018990526000938452600790925295909120845181546001600160a01b031916941693909317835593516001830155925191929091908201906103b3908261147d565b6000811180156105c057506001548111155b6105c957600080fd5b60006105d433610f56565b9050600081116105e357600080fd5b600360008381526006602052604090206007015460ff16600581111561060b5761060b611341565b1461061557600080fd5b600082815260066020819052604090912090810182905560070180546004919060ff19166001835b02179055505050565b60008111801561065857506001548111155b61066157600080fd5b600061066c33610fc6565b90506000811161067b57600080fd5b600260008381526006602052604090206007015460ff1660058111156106a3576106a3611341565b146106ad57600080fd5b60008281526006602052604090206005810182905560070180546003919060ff191660018361063d565b600a602052600090815260409020805460018201546002830180546001600160a01b03909316939192610402906113f8565b6000546001600160a01b0316331461072057600080fd5b60038054906000610730836113d1565b9091555050604080516080810182526001600160a01b0385811682526003546020808401828152848601888152606086018890526000938452600890925294909120835181546001600160a01b031916931692909217825592516001820155915190919060028201906103b3908261147d565b6000546001600160a01b031633146107ba57600080fd5b600580549060006107ca836113d1565b9091555050604080516080810182526001600160a01b0385811682526005546020808401828152848601888152606086018890526000938452600a90925294909120835181546001600160a01b031916931692909217825592516001820155915190919060028201906103b3908261147d565b60008111801561084f57506001548111155b61085857600080fd5b60006108633361102d565b90506000811161087257600080fd5b60008281526006602052604081206007015460ff16600581111561089857610898611341565b146108a257600080fd5b60008281526006602052604090206003810182905560070180546001919060ff1916828061063d565b6000546001600160a01b031633146108e257600080fd5b60006002541180156108f657506000600354115b801561090457506000600454115b801561091257506000600554115b61091b57600080fd5b6001805490600061092b836113d1565b91905055506040518061010001604052806001548152602001838152602001828152602001600081526020016000815260200160008152602001600081526020016000600581111561097f5761097f611341565b9052600180546000908152600660209081526040909120835181559083015190918201906109ad908261147d565b50604082015160028201906109c2908261147d565b50606082015181600301556080820151816004015560a0820151816005015560c0820151816006015560e08201518160070160006101000a81548160ff02191690836005811115610a1557610a15611341565b021790555050505050565b600081118015610a3257506001548111155b610a3b57600080fd5b6000610a4633610f56565b905060008111610a5557600080fd5b600082815260066020819052604090912001548114610a7357600080fd5b600460008381526006602052604090206007015460ff166005811115610a9b57610a9b611341565b14610aa557600080fd5b600082815260066020526040902060070180546005919060ff191660018361063d565b600081118015610ada57506001548111155b610ae357600080fd5b6000610aee33611094565b905060008111610afd57600080fd5b600160008381526006602052604090206007015460ff166005811115610b2557610b25611341565b14610b2f57600080fd5b60008281526006602052604090206004810182905560070180546002919060ff191660018361063d565b6008602052600090815260409020805460018201546002830180546001600160a01b03909316939192610402906113f8565b6060600060015411610b9c57600080fd5b60008281526006602052604081206007015460ff166005811115610bc257610bc2611341565b03610bf357505060408051808201909152601081526f1359591a58da5b994813dc99195c995960821b602082015290565b600160008381526006602052604090206007015460ff166005811115610c1b57610c1b611341565b03610c5957505060408051808201909152601981527f526177204d6174657269616c20537570706c7920537461676500000000000000602082015290565b600260008381526006602052604090206007015460ff166005811115610c8157610c81611341565b03610cb55750506040805180820190915260138152724d616e75666163747572696e6720537461676560681b602082015290565b600360008381526006602052604090206007015460ff166005811115610cdd57610cdd611341565b03610d10575050604080518082019091526012815271446973747269627574696f6e20537461676560701b602082015290565b600460008381526006602052604090206007015460ff166005811115610d3857610d38611341565b03610d6557505060408051808201909152600c81526b52657461696c20537461676560a01b602082015290565b600560008381526006602052604090206007015460ff166005811115610d8d57610d8d611341565b03610dbb57505060408051808201909152600d81526c1359591a58da5b994814dbdb19609a1b602082015290565b505060408051602081019091526000815290565b60066020526000908152604090208054600182018054919291610df1906113f8565b80601f0160208091040260200160405190810160405280929190818152602001828054610e1d906113f8565b8015610e6a5780601f10610e3f57610100808354040283529160200191610e6a565b820191906000526020600020905b815481529060010190602001808311610e4d57829003601f168201915b505050505090806002018054610e7f906113f8565b80601f0160208091040260200160405190810160405280929190818152602001828054610eab906113f8565b8015610ef85780601f10610ecd57610100808354040283529160200191610ef8565b820191906000526020600020905b815481529060010190602001808311610edb57829003601f168201915b505050600384015460048501546005860154600687015460079097015495969295919450925060ff1688565b6007602052600090815260409020805460018201546002830180546001600160a01b03909316939192610402906113f8565b60008060055411610f6657600080fd5b60015b6005548111610fbd576000818152600a60205260409020546001600160a01b03808516911603610fab576000908152600a602052604090206001015492915050565b80610fb5816113d1565b915050610f69565b50600092915050565b60008060045411610fd657600080fd5b60015b6004548111610fbd576000818152600960205260409020546001600160a01b0380851691160361101b5760009081526009602052604090206001015492915050565b80611025816113d1565b915050610fd9565b6000806002541161103d57600080fd5b60015b6002548111610fbd576000818152600760205260409020546001600160a01b038085169116036110825760009081526007602052604090206001015492915050565b8061108c816113d1565b915050611040565b600080600354116110a457600080fd5b60015b6003548111610fbd576000818152600860205260409020546001600160a01b038085169116036110e95760009081526008602052604090206001015492915050565b806110f3816113d1565b9150506110a7565b634e487b7160e01b600052604160045260246000fd5b600082601f83011261112257600080fd5b813567ffffffffffffffff8082111561113d5761113d6110fb565b604051601f8301601f19908116603f01168101908282118183101715611165576111656110fb565b8160405283815286602085880101111561117e57600080fd5b836020870160208301376000602085830101528094505050505092915050565b6000806000606084860312156111b357600080fd5b83356001600160a01b03811681146111ca57600080fd5b9250602084013567ffffffffffffffff808211156111e757600080fd5b6111f387838801611111565b9350604086013591508082111561120957600080fd5b5061121686828701611111565b9150509250925092565b60006020828403121561123257600080fd5b5035919050565b6000815180845260005b8181101561125f57602081850181015186830182015201611243565b506000602082860101526020601f19601f83011685010191505092915050565b60018060a01b03851681528360208201526080604082015260006112a66080830185611239565b82810360608401526112b88185611239565b979650505050505050565b600080604083850312156112d657600080fd5b823567ffffffffffffffff808211156112ee57600080fd5b6112fa86838701611111565b9350602085013591508082111561131057600080fd5b5061131d85828601611111565b9150509250929050565b60208152600061133a6020830184611239565b9392505050565b634e487b7160e01b600052602160045260246000fd5b60006101008a83528060208401526113718184018b611239565b90508281036040840152611385818a611239565b9150508660608301528560808301528460a08301528360c0830152600683106113be57634e487b7160e01b600052602160045260246000fd5b8260e08301529998505050505050505050565b6000600182016113f157634e487b7160e01b600052601160045260246000fd5b5060010190565b600181811c9082168061140c57607f821691505b60208210810361142c57634e487b7160e01b600052602260045260246000fd5b50919050565b601f82111561147857600081815260208120601f850160051c810160208610156114595750805b601f850160051c820191505b818110156103c857828155600101611465565b505050565b815167ffffffffffffffff811115611497576114976110fb565b6114ab816114a584546113f8565b84611432565b602080601f8311600181146114e057600084156114c85750858301515b600019600386901b1c1916600185901b1785556103c8565b600085815260208120601f198616915b8281101561150f578886015182559484019460019091019084016114f0565b508582101561152d5787850151600019600388901b60f8161c191681555b5050505050600190811b0190555056fea26469706673582212205921d86121da4dc062f38d682efea1f067f04bde4bf54376ac994339c5ea5a2364736f6c63430008130033",
  "immutableReferences": {},
  "source": "// SPDX-License-Identifier: MIT\r\npragma solidity >=0.4.22 <0.9.0;\r\n\r\ncontract SupplyChain {\r\n    //Smart Contract owner will be the person who deploys the contract only he can authorize various roles like retailer, Manufacturer,etc\r\n    address public Owner;\r\n\r\n    //note this constructor will be called when smart contract will be deployed on blockchain\r\n    constructor() {\r\n        Owner = msg.sender;\r\n    }\r\n\r\n    //Roles (flow of pharma supply chain)\r\n    // RawMaterialSupplier; //This is where Manufacturer will get raw materials to make medicines\r\n    // Manufacturer;  //Various WHO guidelines should be followed by this person\r\n    // Distributor; //This guy distributes the medicines to retailers\r\n    // Retailer; //Normal customer buys from the retailer\r\n\r\n    //modifier to make sure only the owner is using the function\r\n    modifier onlyByOwner() {\r\n        require(msg.sender == Owner);\r\n        _;\r\n    }\r\n\r\n    //stages of a medicine in pharma supply chain\r\n    enum STAGE {\r\n        Init,\r\n        RawMaterialSupply,\r\n        Manufacture,\r\n        Distribution,\r\n        Retail,\r\n        sold\r\n    }\r\n    //using this we are going to track every single medicine the owner orders\r\n\r\n    //Medicine count\r\n    uint256 public medicineCtr = 0;\r\n    //Raw material supplier count\r\n    uint256 public rmsCtr = 0;\r\n    //Manufacturer count\r\n    uint256 public manCtr = 0;\r\n    //distributor count\r\n    uint256 public disCtr = 0;\r\n    //retailer count\r\n    uint256 public retCtr = 0;\r\n\r\n    //To store information about the medicine\r\n    struct medicine {\r\n        uint256 id; //unique medicine id\r\n        string name; //name of the medicine\r\n        string description; //about medicine\r\n        uint256 RMSid; //id of the Raw Material supplier for this particular medicine\r\n        uint256 MANid; //id of the Manufacturer for this particular medicine\r\n        uint256 DISid; //id of the distributor for this particular medicine\r\n        uint256 RETid; //id of the retailer for this particular medicine\r\n        STAGE stage; //current medicine stage\r\n    }\r\n\r\n    //To store all the medicines on the blockchain\r\n    mapping(uint256 => medicine) public MedicineStock;\r\n\r\n    //To show status to client applications\r\n    function showStage(uint256 _medicineID)\r\n        public\r\n        view\r\n        returns (string memory result)\r\n    {\r\n        require(medicineCtr > 0);\r\n        if (MedicineStock[_medicineID].stage == STAGE.Init)\r\n            return \"Medicine Ordered\";\r\n        else if (MedicineStock[_medicineID].stage == STAGE.RawMaterialSupply)\r\n            return \"Raw Material Supply Stage\";\r\n        else if (MedicineStock[_medicineID].stage == STAGE.Manufacture)\r\n            return \"Manufacturing Stage\";\r\n        else if (MedicineStock[_medicineID].stage == STAGE.Distribution)\r\n            return \"Distribution Stage\";\r\n        else if (MedicineStock[_medicineID].stage == STAGE.Retail)\r\n            return \"Retail Stage\";\r\n        else if (MedicineStock[_medicineID].stage == STAGE.sold)\r\n            return \"Medicine Sold\";\r\n\r\n        result = \"\";\r\n        return result;\r\n    }\r\n\r\n    //To store information about raw material supplier\r\n    struct rawMaterialSupplier {\r\n        address addr;\r\n        uint256 id; //supplier id\r\n        string name; //Name of the raw material supplier\r\n        string place; //Place the raw material supplier is based in\r\n    }\r\n\r\n    //To store all the raw material suppliers on the blockchain\r\n    mapping(uint256 => rawMaterialSupplier) public RMS;\r\n\r\n    //To store information about manufacturer\r\n    struct manufacturer {\r\n        address addr;\r\n        uint256 id; //manufacturer id\r\n        string name; //Name of the manufacturer\r\n        string place; //Place the manufacturer is based in\r\n    }\r\n\r\n    //To store all the manufacturers on the blockchain\r\n    mapping(uint256 => manufacturer) public MAN;\r\n\r\n    //To store information about distributor\r\n    struct distributor {\r\n        address addr;\r\n        uint256 id; //distributor id\r\n        string name; //Name of the distributor\r\n        string place; //Place the distributor is based in\r\n    }\r\n\r\n    //To store all the distributors on the blockchain\r\n    mapping(uint256 => distributor) public DIS;\r\n\r\n    //To store information about retailer\r\n    struct retailer {\r\n        address addr;\r\n        uint256 id; //retailer id\r\n        string name; //Name of the retailer\r\n        string place; //Place the retailer is based in\r\n    }\r\n\r\n    //To store all the retailers on the blockchain\r\n    mapping(uint256 => retailer) public RET;\r\n\r\n    //To add raw material suppliers. Only contract owner can add a new raw material supplier\r\n    function addRMS(\r\n        address _address,\r\n        string memory _name,\r\n        string memory _place\r\n    ) public onlyByOwner() {\r\n        rmsCtr++;\r\n        RMS[rmsCtr] = rawMaterialSupplier(_address, rmsCtr, _name, _place);\r\n    }\r\n\r\n    //To add manufacturer. Only contract owner can add a new manufacturer\r\n    function addManufacturer(\r\n        address _address,\r\n        string memory _name,\r\n        string memory _place\r\n    ) public onlyByOwner() {\r\n        manCtr++;\r\n        MAN[manCtr] = manufacturer(_address, manCtr, _name, _place);\r\n    }\r\n\r\n    //To add distributor. Only contract owner can add a new distributor\r\n    function addDistributor(\r\n        address _address,\r\n        string memory _name,\r\n        string memory _place\r\n    ) public onlyByOwner() {\r\n        disCtr++;\r\n        DIS[disCtr] = distributor(_address, disCtr, _name, _place);\r\n    }\r\n\r\n    //To add retailer. Only contract owner can add a new retailer\r\n    function addRetailer(\r\n        address _address,\r\n        string memory _name,\r\n        string memory _place\r\n    ) public onlyByOwner() {\r\n        retCtr++;\r\n        RET[retCtr] = retailer(_address, retCtr, _name, _place);\r\n    }\r\n\r\n    //To supply raw materials from RMS supplier to the manufacturer\r\n    function RMSsupply(uint256 _medicineID) public {\r\n        require(_medicineID > 0 && _medicineID <= medicineCtr);\r\n        uint256 _id = findRMS(msg.sender);\r\n        require(_id > 0);\r\n        require(MedicineStock[_medicineID].stage == STAGE.Init);\r\n        MedicineStock[_medicineID].RMSid = _id;\r\n        MedicineStock[_medicineID].stage = STAGE.RawMaterialSupply;\r\n    }\r\n\r\n    //To check if RMS is available in the blockchain\r\n    function findRMS(address _address) private view returns (uint256) {\r\n        require(rmsCtr > 0);\r\n        for (uint256 i = 1; i <= rmsCtr; i++) {\r\n            if (RMS[i].addr == _address) return RMS[i].id;\r\n        }\r\n        return 0;\r\n    }\r\n\r\n    //To manufacture medicine\r\n    function Manufacturing(uint256 _medicineID) public {\r\n        require(_medicineID > 0 && _medicineID <= medicineCtr);\r\n        uint256 _id = findMAN(msg.sender);\r\n        require(_id > 0);\r\n        require(MedicineStock[_medicineID].stage == STAGE.RawMaterialSupply);\r\n        MedicineStock[_medicineID].MANid = _id;\r\n        MedicineStock[_medicineID].stage = STAGE.Manufacture;\r\n    }\r\n\r\n    //To check if Manufacturer is available in the blockchain\r\n    function findMAN(address _address) private view returns (uint256) {\r\n        require(manCtr > 0);\r\n        for (uint256 i = 1; i <= manCtr; i++) {\r\n            if (MAN[i].addr == _address) return MAN[i].id;\r\n        }\r\n        return 0;\r\n    }\r\n\r\n    //To supply medicines from Manufacturer to distributor\r\n    function Distribute(uint256 _medicineID) public {\r\n        require(_medicineID > 0 && _medicineID <= medicineCtr);\r\n        uint256 _id = findDIS(msg.sender);\r\n        require(_id > 0);\r\n        require(MedicineStock[_medicineID].stage == STAGE.Manufacture);\r\n        MedicineStock[_medicineID].DISid = _id;\r\n        MedicineStock[_medicineID].stage = STAGE.Distribution;\r\n    }\r\n\r\n    //To check if distributor is available in the blockchain\r\n    function findDIS(address _address) private view returns (uint256) {\r\n        require(disCtr > 0);\r\n        for (uint256 i = 1; i <= disCtr; i++) {\r\n            if (DIS[i].addr == _address) return DIS[i].id;\r\n        }\r\n        return 0;\r\n    }\r\n\r\n    //To supply medicines from distributor to retailer\r\n    function Retail(uint256 _medicineID) public {\r\n        require(_medicineID > 0 && _medicineID <= medicineCtr);\r\n        uint256 _id = findRET(msg.sender);\r\n        require(_id > 0);\r\n        require(MedicineStock[_medicineID].stage == STAGE.Distribution);\r\n        MedicineStock[_medicineID].RETid = _id;\r\n        MedicineStock[_medicineID].stage = STAGE.Retail;\r\n    }\r\n\r\n    //To check if retailer is available in the blockchain\r\n    function findRET(address _address) private view returns (uint256) {\r\n        require(retCtr > 0);\r\n        for (uint256 i = 1; i <= retCtr; i++) {\r\n            if (RET[i].addr == _address) return RET[i].id;\r\n        }\r\n        return 0;\r\n    }\r\n\r\n    //To sell medicines from retailer to consumer\r\n    function sold(uint256 _medicineID) public {\r\n        require(_medicineID > 0 && _medicineID <= medicineCtr);\r\n        uint256 _id = findRET(msg.sender);\r\n        require(_id > 0);\r\n        require(_id == MedicineStock[_medicineID].RETid); //Only correct retailer can mark medicine as sold\r\n        require(MedicineStock[_medicineID].stage == STAGE.Retail);\r\n        MedicineStock[_medicineID].stage = STAGE.sold;\r\n    }\r\n\r\n    // To add new medicines to the stock\r\n    function addMedicine(string memory _name, string memory _description)\r\n        public\r\n        onlyByOwner()\r\n    {\r\n        require((rmsCtr > 0) && (manCtr > 0) && (disCtr > 0) && (retCtr > 0));\r\n        medicineCtr++;\r\n        MedicineStock[medicineCtr] = medicine(\r\n            medicineCtr,\r\n            _name,\r\n            _description,\r\n            0,\r\n            0,\r\n            0,\r\n            0,\r\n            STAGE.Init\r\n        );\r\n    }\r\n}\r\n",
  "sourcePath": "C:\\projects\\BLOCKCHAIN_PROJECT\\contracts\\SupplyChain.sol",
  "compiler": {
    "name": "solc",
    "version": "0.8.19+commit.7dd6d404.Emscripten.clang"
  },
  "schemaVersion": "3.4.16",
  "updatedAt": "2025-08-22T13:23:10.330Z",
  "networkType": "ethereum",
  "devdoc": {
    "kind": "dev",
    "methods": {},
    "version": 1
  },
  "userdoc": {
    "kind": "user",
    "methods": {},
    "version": 1
  }
}