{
  "contractName": "SupplyChainTraceability",
  "abi": [
    {
      "inputs": [],
      "stateMutability": "nonpayable",
      "type": "constructor"
    },
    {
      "anonymous": false,
      "inputs": [
        {
          "indexed": false,
          "internalType": "uint256[]",
          "name": "productIds",
          "type": "uint256[]"
        },
        {
          "indexed": true,
          "internalType": "address",
          "name": "processor",
          "type": "address"
        },
        {
          "indexed": false,
          "internalType": "uint256",
          "name": "timestamp",
          "type": "uint256"
        }
      ],
      "name": "BatchProcessed",
      "type": "event"
    },
    {
      "anonymous": false,
      "inputs": [
        {
          "indexed": true,
          "internalType": "uint256",
          "name": "productId",
          "type": "uint256"
        },
        {
          "indexed": false,
          "internalType": "string",
          "name": "location",
          "type": "string"
        },
        {
          "indexed": false,
          "internalType": "uint256",
          "name": "timestamp",
          "type": "uint256"
        }
      ],
      "name": "LocationUpdated",
      "type": "event"
    },
    {
      "anonymous": false,
      "inputs": [
        {
          "indexed": true,
          "internalType": "uint256",
          "name": "productId",
          "type": "uint256"
        },
        {
          "indexed": false,
          "internalType": "string",
          "name": "name",
          "type": "string"
        },
        {
          "indexed": true,
          "internalType": "address",
          "name": "creator",
          "type": "address"
        },
        {
          "indexed": false,
          "internalType": "uint256",
          "name": "timestamp",
          "type": "uint256"
        }
      ],
      "name": "ProductCreated",
      "type": "event"
    },
    {
      "anonymous": false,
      "inputs": [
        {
          "indexed": true,
          "internalType": "uint256",
          "name": "productId",
          "type": "uint256"
        },
        {
          "indexed": true,
          "internalType": "address",
          "name": "from",
          "type": "address"
        },
        {
          "indexed": true,
          "internalType": "address",
          "name": "to",
          "type": "address"
        },
        {
          "indexed": false,
          "internalType": "uint256",
          "name": "timestamp",
          "type": "uint256"
        }
      ],
      "name": "ProductTransferred",
      "type": "event"
    },
    {
      "anonymous": false,
      "inputs": [
        {
          "indexed": true,
          "internalType": "uint256",
          "name": "productId",
          "type": "uint256"
        },
        {
          "indexed": false,
          "internalType": "string",
          "name": "checkType",
          "type": "string"
        },
        {
          "indexed": false,
          "internalType": "bool",
          "name": "passed",
          "type": "bool"
        },
        {
          "indexed": false,
          "internalType": "string",
          "name": "notes",
          "type": "string"
        }
      ],
      "name": "QualityCheckAdded",
      "type": "event"
    },
    {
      "anonymous": false,
      "inputs": [
        {
          "indexed": true,
          "internalType": "bytes32",
          "name": "role",
          "type": "bytes32"
        },
        {
          "indexed": true,
          "internalType": "bytes32",
          "name": "previousAdminRole",
          "type": "bytes32"
        },
        {
          "indexed": true,
          "internalType": "bytes32",
          "name": "newAdminRole",
          "type": "bytes32"
        }
      ],
      "name": "RoleAdminChanged",
      "type": "event"
    },
    {
      "anonymous": false,
      "inputs": [
        {
          "indexed": true,
          "internalType": "bytes32",
          "name": "role",
          "type": "bytes32"
        },
        {
          "indexed": true,
          "internalType": "address",
          "name": "account",
          "type": "address"
        },
        {
          "indexed": true,
          "internalType": "address",
          "name": "sender",
          "type": "address"
        }
      ],
      "name": "RoleGranted",
      "type": "event"
    },
    {
      "anonymous": false,
      "inputs": [
        {
          "indexed": true,
          "internalType": "bytes32",
          "name": "role",
          "type": "bytes32"
        },
        {
          "indexed": true,
          "internalType": "address",
          "name": "account",
          "type": "address"
        },
        {
          "indexed": true,
          "internalType": "address",
          "name": "sender",
          "type": "address"
        }
      ],
      "name": "RoleRevoked",
      "type": "event"
    },
    {
      "anonymous": false,
      "inputs": [
        {
          "indexed": true,
          "internalType": "uint256",
          "name": "productId",
          "type": "uint256"
        },
        {
          "indexed": false,
          "internalType": "int256",
          "name": "temperature",
          "type": "int256"
        },
        {
          "indexed": false,
          "internalType": "uint256",
          "name": "timestamp",
          "type": "uint256"
        }
      ],
      "name": "TemperatureLogged",
      "type": "event"
    },
    {
      "inputs": [],
      "name": "ADMIN_ROLE",
      "outputs": [
        {
          "internalType": "bytes32",
          "name": "",
          "type": "bytes32"
        }
      ],
      "stateMutability": "view",
      "type": "function",
      "constant": true
    },
    {
      "inputs": [],
      "name": "AUDITOR_ROLE",
      "outputs": [
        {
          "internalType": "bytes32",
          "name": "",
          "type": "bytes32"
        }
      ],
      "stateMutability": "view",
      "type": "function",
      "constant": true
    },
    {
      "inputs": [],
      "name": "DEFAULT_ADMIN_ROLE",
      "outputs": [
        {
          "internalType": "bytes32",
          "name": "",
          "type": "bytes32"
        }
      ],
      "stateMutability": "view",
      "type": "function",
      "constant": true
    },
    {
      "inputs": [],
      "name": "IOT_DEVICE_ROLE",
      "outputs": [
        {
          "internalType": "bytes32",
          "name": "",
          "type": "bytes32"
        }
      ],
      "stateMutability": "view",
      "type": "function",
      "constant": true
    },
    {
      "inputs": [],
      "name": "PARTICIPANT_ROLE",
      "outputs": [
        {
          "internalType": "bytes32",
          "name": "",
          "type": "bytes32"
        }
      ],
      "stateMutability": "view",
      "type": "function",
      "constant": true
    },
    {
      "inputs": [],
      "name": "SHARD_MANAGER_ROLE",
      "outputs": [
        {
          "internalType": "bytes32",
          "name": "",
          "type": "bytes32"
        }
      ],
      "stateMutability": "view",
      "type": "function",
      "constant": true
    },
    {
      "inputs": [
        {
          "internalType": "address",
          "name": "",
          "type": "address"
        }
      ],
      "name": "addressToParticipantId",
      "outputs": [
        {
          "internalType": "uint256",
          "name": "",
          "type": "uint256"
        }
      ],
      "stateMutability": "view",
      "type": "function",
      "constant": true
    },
    {
      "inputs": [
        {
          "internalType": "string",
          "name": "",
          "type": "string"
        },
        {
          "internalType": "uint256",
          "name": "",
          "type": "uint256"
        }
      ],
      "name": "batchProducts",
      "outputs": [
        {
          "internalType": "uint256",
          "name": "",
          "type": "uint256"
        }
      ],
      "stateMutability": "view",
      "type": "function",
      "constant": true
    },
    {
      "inputs": [
        {
          "internalType": "bytes32",
          "name": "role",
          "type": "bytes32"
        }
      ],
      "name": "getRoleAdmin",
      "outputs": [
        {
          "internalType": "bytes32",
          "name": "",
          "type": "bytes32"
        }
      ],
      "stateMutability": "view",
      "type": "function",
      "constant": true
    },
    {
      "inputs": [
        {
          "internalType": "bytes32",
          "name": "role",
          "type": "bytes32"
        },
        {
          "internalType": "address[]",
          "name": "candidates",
          "type": "address[]"
        }
      ],
      "name": "getRoleMembers",
      "outputs": [
        {
          "internalType": "address[]",
          "name": "",
          "type": "address[]"
        }
      ],
      "stateMutability": "view",
      "type": "function",
      "constant": true
    },
    {
      "inputs": [
        {
          "internalType": "bytes32",
          "name": "role",
          "type": "bytes32"
        },
        {
          "internalType": "address",
          "name": "account",
          "type": "address"
        }
      ],
      "name": "grantRole",
      "outputs": [],
      "stateMutability": "nonpayable",
      "type": "function"
    },
    {
      "inputs": [
        {
          "internalType": "bytes32",
          "name": "role",
          "type": "bytes32"
        },
        {
          "internalType": "address",
          "name": "account",
          "type": "address"
        }
      ],
      "name": "hasRole",
      "outputs": [
        {
          "internalType": "bool",
          "name": "",
          "type": "bool"
        }
      ],
      "stateMutability": "view",
      "type": "function",
      "constant": true
    },
    {
      "inputs": [
        {
          "internalType": "bytes32[]",
          "name": "roles",
          "type": "bytes32[]"
        },
        {
          "internalType": "address[]",
          "name": "accounts",
          "type": "address[]"
        }
      ],
      "name": "hasRoles",
      "outputs": [
        {
          "internalType": "bool[]",
          "name": "",
          "type": "bool[]"
        }
      ],
      "stateMutability": "view",
      "type": "function",
      "constant": true
    },
    {
      "inputs": [
        {
          "internalType": "address",
          "name": "",
          "type": "address"
        },
        {
          "internalType": "uint256",
          "name": "",
          "type": "uint256"
        }
      ],
      "name": "participantProducts",
      "outputs": [
        {
          "internalType": "uint256",
          "name": "",
          "type": "uint256"
        }
      ],
      "stateMutability": "view",
      "type": "function",
      "constant": true
    },
    {
      "inputs": [
        {
          "internalType": "uint256",
          "name": "",
          "type": "uint256"
        }
      ],
      "name": "participants",
      "outputs": [
        {
          "internalType": "address",
          "name": "participantAddress",
          "type": "address"
        },
        {
          "internalType": "string",
          "name": "name",
          "type": "string"
        },
        {
          "internalType": "string",
          "name": "role",
          "type": "string"
        },
        {
          "internalType": "string",
          "name": "location",
          "type": "string"
        },
        {
          "internalType": "bool",
          "name": "isActive",
          "type": "bool"
        },
        {
          "internalType": "uint256",
          "name": "registeredAt",
          "type": "uint256"
        }
      ],
      "stateMutability": "view",
      "type": "function",
      "constant": true
    },
    {
      "inputs": [
        {
          "internalType": "uint256",
          "name": "",
          "type": "uint256"
        },
        {
          "internalType": "uint256",
          "name": "",
          "type": "uint256"
        }
      ],
      "name": "productLocationHistory",
      "outputs": [
        {
          "internalType": "string",
          "name": "location",
          "type": "string"
        },
        {
          "internalType": "uint256",
          "name": "timestamp",
          "type": "uint256"
        },
        {
          "internalType": "address",
          "name": "updatedBy",
          "type": "address"
        }
      ],
      "stateMutability": "view",
      "type": "function",
      "constant": true
    },
    {
      "inputs": [
        {
          "internalType": "uint256",
          "name": "",
          "type": "uint256"
        },
        {
          "internalType": "uint256",
          "name": "",
          "type": "uint256"
        }
      ],
      "name": "productOwnershipHistory",
      "outputs": [
        {
          "internalType": "address",
          "name": "",
          "type": "address"
        }
      ],
      "stateMutability": "view",
      "type": "function",
      "constant": true
    },
    {
      "inputs": [
        {
          "internalType": "uint256",
          "name": "",
          "type": "uint256"
        },
        {
          "internalType": "uint256",
          "name": "",
          "type": "uint256"
        }
      ],
      "name": "productQualityChecks",
      "outputs": [
        {
          "internalType": "string",
          "name": "checkType",
          "type": "string"
        },
        {
          "internalType": "bool",
          "name": "passed",
          "type": "bool"
        },
        {
          "internalType": "string",
          "name": "notes",
          "type": "string"
        },
        {
          "internalType": "address",
          "name": "inspector",
          "type": "address"
        },
        {
          "internalType": "uint256",
          "name": "timestamp",
          "type": "uint256"
        }
      ],
      "stateMutability": "view",
      "type": "function",
      "constant": true
    },
    {
      "inputs": [
        {
          "internalType": "uint256",
          "name": "",
          "type": "uint256"
        },
        {
          "internalType": "uint256",
          "name": "",
          "type": "uint256"
        }
      ],
      "name": "productTemperatureLogs",
      "outputs": [
        {
          "internalType": "int256",
          "name": "temperature",
          "type": "int256"
        },
        {
          "internalType": "uint256",
          "name": "timestamp",
          "type": "uint256"
        },
        {
          "internalType": "string",
          "name": "sensorId",
          "type": "string"
        }
      ],
      "stateMutability": "view",
      "type": "function",
      "constant": true
    },
    {
      "inputs": [
        {
          "internalType": "uint256",
          "name": "",
          "type": "uint256"
        }
      ],
      "name": "products",
      "outputs": [
        {
          "internalType": "uint256",
          "name": "id",
          "type": "uint256"
        },
        {
          "internalType": "string",
          "name": "name",
          "type": "string"
        },
        {
          "internalType": "string",
          "name": "description",
          "type": "string"
        },
        {
          "internalType": "string",
          "name": "category",
          "type": "string"
        },
        {
          "internalType": "uint256",
          "name": "createdAt",
          "type": "uint256"
        },
        {
          "internalType": "enum SupplyChainTraceability.Stage",
          "name": "currentStage",
          "type": "uint8"
        },
        {
          "internalType": "address",
          "name": "currentOwner",
          "type": "address"
        },
        {
          "internalType": "string",
          "name": "currentLocation",
          "type": "string"
        },
        {
          "internalType": "bool",
          "name": "isActive",
          "type": "bool"
        },
        {
          "internalType": "uint256",
          "name": "parentProductId",
          "type": "uint256"
        },
        {
          "internalType": "string",
          "name": "batchNumber",
          "type": "string"
        },
        {
          "internalType": "uint256",
          "name": "expiryDate",
          "type": "uint256"
        }
      ],
      "stateMutability": "view",
      "type": "function",
      "constant": true
    },
    {
      "inputs": [
        {
          "internalType": "bytes32",
          "name": "role",
          "type": "bytes32"
        },
        {
          "internalType": "address",
          "name": "account",
          "type": "address"
        }
      ],
      "name": "renounceRole",
      "outputs": [],
      "stateMutability": "nonpayable",
      "type": "function"
    },
    {
      "inputs": [
        {
          "internalType": "bytes32",
          "name": "role",
          "type": "bytes32"
        },
        {
          "internalType": "address",
          "name": "account",
          "type": "address"
        }
      ],
      "name": "revokeRole",
      "outputs": [],
      "stateMutability": "nonpayable",
      "type": "function"
    },
    {
      "inputs": [
        {
          "internalType": "address",
          "name": "_participantAddress",
          "type": "address"
        },
        {
          "internalType": "string",
          "name": "_name",
          "type": "string"
        },
        {
          "internalType": "string",
          "name": "_role",
          "type": "string"
        },
        {
          "internalType": "string",
          "name": "_location",
          "type": "string"
        }
      ],
      "name": "registerParticipant",
      "outputs": [],
      "stateMutability": "nonpayable",
      "type": "function"
    },
    {
      "inputs": [
        {
          "internalType": "string",
          "name": "_name",
          "type": "string"
        },
        {
          "internalType": "string",
          "name": "_description",
          "type": "string"
        },
        {
          "internalType": "string",
          "name": "_category",
          "type": "string"
        },
        {
          "internalType": "string",
          "name": "_batchNumber",
          "type": "string"
        },
        {
          "internalType": "uint256",
          "name": "_expiryDate",
          "type": "uint256"
        },
        {
          "internalType": "string",
          "name": "_initialLocation",
          "type": "string"
        }
      ],
      "name": "createProduct",
      "outputs": [
        {
          "internalType": "uint256",
          "name": "",
          "type": "uint256"
        }
      ],
      "stateMutability": "nonpayable",
      "type": "function"
    },
    {
      "inputs": [
        {
          "internalType": "uint256",
          "name": "_productId",
          "type": "uint256"
        },
        {
          "internalType": "address",
          "name": "_newOwner",
          "type": "address"
        },
        {
          "internalType": "string",
          "name": "_newLocation",
          "type": "string"
        }
      ],
      "name": "transferProduct",
      "outputs": [],
      "stateMutability": "nonpayable",
      "type": "function"
    },
    {
      "inputs": [
        {
          "internalType": "uint256",
          "name": "_productId",
          "type": "uint256"
        },
        {
          "internalType": "enum SupplyChainTraceability.Stage",
          "name": "_newStage",
          "type": "uint8"
        }
      ],
      "name": "updateStage",
      "outputs": [],
      "stateMutability": "nonpayable",
      "type": "function"
    },
    {
      "inputs": [
        {
          "components": [
            {
              "internalType": "uint256[]",
              "name": "productIds",
              "type": "uint256[]"
            },
            {
              "internalType": "address",
              "name": "newOwner",
              "type": "address"
            },
            {
              "internalType": "string",
              "name": "newLocation",
              "type": "string"
            },
            {
              "internalType": "enum SupplyChainTraceability.Stage",
              "name": "newStage",
              "type": "uint8"
            }
          ],
          "internalType": "struct SupplyChainTraceability.BatchOperation",
          "name": "_operation",
          "type": "tuple"
        }
      ],
      "name": "batchTransfer",
      "outputs": [],
      "stateMutability": "nonpayable",
      "type": "function"
    },
    {
      "inputs": [
        {
          "internalType": "uint256",
          "name": "_productId",
          "type": "uint256"
        },
        {
          "internalType": "string",
          "name": "_checkType",
          "type": "string"
        },
        {
          "internalType": "bool",
          "name": "_passed",
          "type": "bool"
        },
        {
          "internalType": "string",
          "name": "_notes",
          "type": "string"
        }
      ],
      "name": "addQualityCheck",
      "outputs": [],
      "stateMutability": "nonpayable",
      "type": "function"
    },
    {
      "inputs": [
        {
          "internalType": "uint256",
          "name": "_productId",
          "type": "uint256"
        },
        {
          "internalType": "int256",
          "name": "_temperature",
          "type": "int256"
        },
        {
          "internalType": "string",
          "name": "_sensorId",
          "type": "string"
        }
      ],
      "name": "logTemperature",
      "outputs": [],
      "stateMutability": "nonpayable",
      "type": "function"
    },
    {
      "inputs": [
        {
          "internalType": "uint256",
          "name": "_productId",
          "type": "uint256"
        },
        {
          "internalType": "string",
          "name": "_reason",
          "type": "string"
        }
      ],
      "name": "recallProduct",
      "outputs": [],
      "stateMutability": "nonpayable",
      "type": "function"
    },
    {
      "inputs": [
        {
          "internalType": "uint256",
          "name": "_productId",
          "type": "uint256"
        }
      ],
      "name": "getProductHistory",
      "outputs": [
        {
          "internalType": "address[]",
          "name": "owners",
          "type": "address[]"
        },
        {
          "components": [
            {
              "internalType": "string",
              "name": "location",
              "type": "string"
            },
            {
              "internalType": "uint256",
              "name": "timestamp",
              "type": "uint256"
            },
            {
              "internalType": "address",
              "name": "updatedBy",
              "type": "address"
            }
          ],
          "internalType": "struct SupplyChainTraceability.LocationHistory[]",
          "name": "locations",
          "type": "tuple[]"
        },
        {
          "components": [
            {
              "internalType": "string",
              "name": "checkType",
              "type": "string"
            },
            {
              "internalType": "bool",
              "name": "passed",
              "type": "bool"
            },
            {
              "internalType": "string",
              "name": "notes",
              "type": "string"
            },
            {
              "internalType": "address",
              "name": "inspector",
              "type": "address"
            },
            {
              "internalType": "uint256",
              "name": "timestamp",
              "type": "uint256"
            }
          ],
          "internalType": "struct SupplyChainTraceability.QualityCheck[]",
          "name": "qualityChecks",
          "type": "tuple[]"
        }
      ],
      "stateMutability": "view",
      "type": "function",
      "constant": true
    },
    {
      "inputs": [
        {
          "internalType": "uint256",
          "name": "_productId",
          "type": "uint256"
        }
      ],
      "name": "getTemperatureHistory",
      "outputs": [
        {
          "components": [
            {
              "internalType": "int256",
              "name": "temperature",
              "type": "int256"
            },
            {
              "internalType": "uint256",
              "name": "timestamp",
              "type": "uint256"
            },
            {
              "internalType": "string",
              "name": "sensorId",
              "type": "string"
            }
          ],
          "internalType": "struct SupplyChainTraceability.TemperatureLog[]",
          "name": "",
          "type": "tuple[]"
        }
      ],
      "stateMutability": "view",
      "type": "function",
      "constant": true
    },
    {
      "inputs": [
        {
          "internalType": "string",
          "name": "_batchNumber",
          "type": "string"
        }
      ],
      "name": "getBatchProducts",
      "outputs": [
        {
          "internalType": "uint256[]",
          "name": "",
          "type": "uint256[]"
        }
      ],
      "stateMutability": "view",
      "type": "function",
      "constant": true
    },
    {
      "inputs": [
        {
          "internalType": "address",
          "name": "_participant",
          "type": "address"
        }
      ],
      "name": "getParticipantProducts",
      "outputs": [
        {
          "internalType": "uint256[]",
          "name": "",
          "type": "uint256[]"
        }
      ],
      "stateMutability": "view",
      "type": "function",
      "constant": true
    },
    {
      "inputs": [
        {
          "internalType": "uint256",
          "name": "_productId",
          "type": "uint256"
        }
      ],
      "name": "isProductAuthentic",
      "outputs": [
        {
          "internalType": "bool",
          "name": "",
          "type": "bool"
        }
      ],
      "stateMutability": "view",
      "type": "function",
      "constant": true
    },
    {
      "inputs": [],
      "name": "getProductCount",
      "outputs": [
        {
          "internalType": "uint256",
          "name": "",
          "type": "uint256"
        }
      ],
      "stateMutability": "view",
      "type": "function",
      "constant": true
    },
    {
      "inputs": [],
      "name": "getParticipantCount",
      "outputs": [
        {
          "internalType": "uint256",
          "name": "",
          "type": "uint256"
        }
      ],
      "stateMutability": "view",
      "type": "function",
      "constant": true
    }
  ],
  "bytecode": "0x60806040523480156200001157600080fd5b506200001f60003362000051565b6200004b7fa49807205ce4d355092ef5a8a18f56e8913cf4a201fbe287825b095693c217753362000051565b620000e3565b6200005d828262000061565b5050565b6000828152602081815260408083206001600160a01b038516845290915290205460ff166200005d576000828152602081815260408083206001600160a01b0385168085529252808320805460ff1916600117905551339285917f2f8788117e7eff1d82e926ec794901d17c78024a50270940304540a733656f0d9190a45050565b613a3d80620000f36000396000f3fe608060405234801561001057600080fd5b50600436106102275760003560e01c80637acc0b2011610130578063adbf34d6116100b8578063d547741f1161007c578063d547741f14610573578063e2348a5d14610586578063f0492648146105ad578063f1a93d4a146105d8578063f405c96b146105ff57600080fd5b8063adbf34d614610507578063c54652a81461051a578063c988437b1461052d578063cbf7776f14610540578063d3036dd41461055357600080fd5b80639ce72b14116100ff5780639ce72b14146104be578063a217fddf146104d1578063a5d7ceec146104d9578063a7590f7d146104ec578063ad605729146104ff57600080fd5b80637acc0b201461043d5780638d4df7ab1461046857806391d14854146104885780639ce0f973146104ab57600080fd5b806349469fed116101b35780635ecd9e25116101825780635ecd9e25146103a75780635f8a7abe146103ba5780636c00a578146103cf5780636e1d616e146103ef57806375b238fc1461041657600080fd5b806349469fed1461033b5780634a348da91461035d578063564987451461036557806357a096a11461038557600080fd5b8063293bb2c1116101fa578063293bb2c1146102b95780632f2ff15d146102cc578063301ab600146102df57806335c1d3491461030357806336568abe1461032857600080fd5b80630960edad1461022c5780630e9103861461025f57806320fd414c14610274578063248a9ca314610296575b600080fd5b61024c61023a366004612a96565b600a6020526000908152604090205481565b6040519081526020015b60405180910390f35b61027261026d366004612b8e565b610612565b005b610287610282366004612bdd565b61074f565b60405161025693929190612c4f565b61024c6102a4366004612c77565b60009081526020819052604090206001015490565b6102726102c7366004612c90565b61081e565b6102726102da366004612cd0565b610ad6565b6102f26102ed366004612bdd565b610b1d565b604051610256959493929190612cfc565b610316610311366004612c77565b610c93565b60405161025696959493929190612d47565b610272610336366004612cd0565b610e6e565b61034e610349366004612bdd565b610ee8565b60405161025693929190612da7565b60015461024c565b610378610373366004612c77565b610fc1565b6040516102569190612dda565b610398610393366004612c77565b611131565b60405161025693929190612f42565b6102726103b5366004612fee565b6114de565b61024c6000805160206139e883398151915281565b6103e26103dd366004613086565b61169f565b60405161025691906130f2565b61024c7f59a1c48e5837ad7a7f3dcedcbe129bf3249ec4fbf651fd4f5e2600ead39fe2f581565b61024c7fa49807205ce4d355092ef5a8a18f56e8913cf4a201fbe287825b095693c2177581565b61045061044b366004612c77565b61170f565b6040516102569c9b9a9998979695949392919061311b565b61047b610476366004613285565b611a29565b604051610256919061333d565b61049b610496366004612cd0565b611b40565b6040519015158152602001610256565b6102726104b9366004613383565b611b69565b61049b6104cc366004612c77565b611d0f565b61024c600081565b61024c6104e73660046133bf565b611dbf565b61024c6104fa366004613498565b6120d9565b60025461024c565b6102726105153660046134eb565b612119565b61024c6105283660046135f1565b612485565b6103e261053b366004612a96565b6124a1565b61027261054e36600461361b565b61250b565b610566610561366004613688565b61268f565b60405161025691906136c4565b610272610581366004612cd0565b6127b7565b61024c7fa57066973b2155f87e85ce4b35594aa85c6061a64b99afb1fcf8f974f04290e381565b6105c06105bb366004612bdd565b6127ee565b6040516001600160a01b039091168152602001610256565b61024c7f3fd1570350ad82b8536c3ba26e9b65482f86a92bc0631d77bd1bb4bc2035747381565b61027261060d3660046136d7565b612826565b8260008111801561062557506001548111155b61064a5760405162461bcd60e51b8152600401610641906136fa565b60405180910390fd5b60008181526003602052604090206007015460ff1661067b5760405162461bcd60e51b81526004016106419061372a565b6000805160206139e88339815191526106948133611b40565b6106b05760405162461bcd60e51b815260040161064190613757565b60008581526006602090815260408083208151606081018352888152428185019081529281018881528254600181810185559387529490952081516003909502019384559151908301559151600282019061070b908261381d565b5050604080518681524260208201528792507f7fbe57c67dc9da58a35dc6aace73056993cce3aba078b02f096f45a62f0fe843910160405180910390a25050505050565b6006602052816000526040600020818154811061076b57600080fd5b90600052602060002090600302016000915091505080600001549080600101549080600201805461079b9061379a565b80601f01602080910402602001604051908101604052809291908181526020018280546107c79061379a565b80156108145780601f106107e957610100808354040283529160200191610814565b820191906000526020600020905b8154815290600101906020018083116107f757829003601f168201915b5050505050905083565b8260008111801561083157506001548111155b61084d5760405162461bcd60e51b8152600401610641906136fa565b60008181526003602052604090206007015460ff1661087e5760405162461bcd60e51b81526004016106419061372a565b600084815260036020526040902060050154849061010090046001600160a01b031633146108e25760405162461bcd60e51b81526020600482015260116024820152702737ba10383937b23ab1ba1037bbb732b960791b6044820152606401610641565b6001600160a01b0384166000908152600a60205260409020546109425760405162461bcd60e51b815260206004820152601860248201527713995dc81bdddb995c881b9bdd081c9959da5cdd195c995960421b6044820152606401610641565b60008581526003602052604090206005810180546001600160a01b03878116610100908102610100600160a81b03198416179093559190041690600601610989858261381d565b5060008681526007602090815260408083208054600180820183559185528385200180546001600160a01b0319166001600160a01b038b1617905589845260058352818420825160608101845289815242818601523393810193909352805491820181558452919092208251600390920201908190610a08908261381d565b50602082810151600183810191909155604093840151600290930180546001600160a01b0319166001600160a01b039485161790558883166000818152600884528581208054938401815581528390209091018a905592514281529184169189917f516c8b339c132041f2a10d0e873c5eaf4944299c02b458d7491b7f7ac1574d2f910160405180910390a4857f08c1aa8a3ded74821ab8fe6981a7dd0f9ebb0c3fcef9196f34b9f4e9d0e4edcd8542604051610ac69291906138dc565b60405180910390a2505050505050565b600082815260208190526040902060010154610af3905b33611b40565b610b0f5760405162461bcd60e51b8152600401610641906138fe565b610b1982826129ae565b5050565b60046020528160005260406000208181548110610b3957600080fd5b906000526020600020906005020160009150915050806000018054610b5d9061379a565b80601f0160208091040260200160405190810160405280929190818152602001828054610b899061379a565b8015610bd65780601f10610bab57610100808354040283529160200191610bd6565b820191906000526020600020905b815481529060010190602001808311610bb957829003601f168201915b5050506001840154600285018054949560ff909216949193509150610bfa9061379a565b80601f0160208091040260200160405190810160405280929190818152602001828054610c269061379a565b8015610c735780601f10610c4857610100808354040283529160200191610c73565b820191906000526020600020905b815481529060010190602001808311610c5657829003601f168201915b50505050600383015460049093015491926001600160a01b031691905085565b600960205260009081526040902080546001820180546001600160a01b039092169291610cbf9061379a565b80601f0160208091040260200160405190810160405280929190818152602001828054610ceb9061379a565b8015610d385780601f10610d0d57610100808354040283529160200191610d38565b820191906000526020600020905b815481529060010190602001808311610d1b57829003601f168201915b505050505090806002018054610d4d9061379a565b80601f0160208091040260200160405190810160405280929190818152602001828054610d799061379a565b8015610dc65780601f10610d9b57610100808354040283529160200191610dc6565b820191906000526020600020905b815481529060010190602001808311610da957829003601f168201915b505050505090806003018054610ddb9061379a565b80601f0160208091040260200160405190810160405280929190818152602001828054610e079061379a565b8015610e545780601f10610e2957610100808354040283529160200191610e54565b820191906000526020600020905b815481529060010190602001808311610e3757829003601f168201915b505050506004830154600590930154919260ff1691905086565b6001600160a01b0381163314610ede5760405162461bcd60e51b815260206004820152602f60248201527f416363657373436f6e74726f6c3a2063616e206f6e6c792072656e6f756e636560448201526e103937b632b9903337b91039b2b63360891b6064820152608401610641565b610b198282612a15565b60056020528160005260406000208181548110610f0457600080fd5b906000526020600020906003020160009150915050806000018054610f289061379a565b80601f0160208091040260200160405190810160405280929190818152602001828054610f549061379a565b8015610fa15780601f10610f7657610100808354040283529160200191610fa1565b820191906000526020600020905b815481529060010190602001808311610f8457829003601f168201915b5050505060018301546002909301549192916001600160a01b0316905083565b606081600081118015610fd657506001548111155b610ff25760405162461bcd60e51b8152600401610641906136fa565b60008181526003602052604090206007015460ff166110235760405162461bcd60e51b81526004016106419061372a565b600083815260066020908152604080832080548251818502810185019093528083529193909284015b82821015611124578382906000526020600020906003020160405180606001604052908160008201548152602001600182015481526020016002820180546110939061379a565b80601f01602080910402602001604051908101604052809291908181526020018280546110bf9061379a565b801561110c5780601f106110e15761010080835404028352916020019161110c565b820191906000526020600020905b8154815290600101906020018083116110ef57829003601f168201915b5050505050815250508152602001906001019061104c565b5050505091505b50919050565b60608060608360008111801561114957506001548111155b6111655760405162461bcd60e51b8152600401610641906136fa565b60008181526003602052604090206007015460ff166111965760405162461bcd60e51b81526004016106419061372a565b60008581526007602090815260408083206005835281842060048452938290208154835181860281018601909452808452919493909291859183018282801561120857602002820191906000526020600020905b81546001600160a01b031681526001909101906020018083116111ea575b5050505050925081805480602002602001604051908101604052809291908181526020016000905b8282101561131757838290600052602060002090600302016040518060600160405290816000820180546112639061379a565b80601f016020809104026020016040519081016040528092919081815260200182805461128f9061379a565b80156112dc5780601f106112b1576101008083540402835291602001916112dc565b820191906000526020600020905b8154815290600101906020018083116112bf57829003601f168201915b50505091835250506001828101546020808401919091526002909301546001600160a01b031660409092019190915291835292019101611230565b50505050915080805480602002602001604051908101604052809291908181526020016000905b828210156114ca57838290600052602060002090600502016040518060a00160405290816000820180546113719061379a565b80601f016020809104026020016040519081016040528092919081815260200182805461139d9061379a565b80156113ea5780601f106113bf576101008083540402835291602001916113ea565b820191906000526020600020905b8154815290600101906020018083116113cd57829003601f168201915b5050509183525050600182015460ff16151560208201526002820180546040909201916114169061379a565b80601f01602080910402602001604051908101604052809291908181526020018280546114429061379a565b801561148f5780601f106114645761010080835404028352916020019161148f565b820191906000526020600020905b81548152906001019060200180831161147257829003601f168201915b505050918352505060038201546001600160a01b0316602080830191909152600490920154604090910152908252600192909201910161133e565b505050509050935093509350509193909250565b7fa49807205ce4d355092ef5a8a18f56e8913cf4a201fbe287825b095693c217756115098133611b40565b6115255760405162461bcd60e51b815260040161064190613757565b6001600160a01b0385166000908152600a60205260409020541561158b5760405162461bcd60e51b815260206004820152601e60248201527f5061727469636970616e7420616c7265616479207265676973746572656400006044820152606401610641565b6002805490600061159b83613944565b90915550506040805160c0810182526001600160a01b0387811682526020808301888152838501889052606084018790526001608085018190524260a08601526002546000908152600990935294909120835181546001600160a01b0319169316929092178255519192909190820190611615908261381d565b506040820151600282019061162a908261381d565b506060820151600382019061163f908261381d565b50608082015160048201805460ff191691151591909117905560a0909101516005909101556002546001600160a01b0386166000908152600a60205260409020556116986000805160206139e883398151915286610ad6565b5050505050565b6060600b826040516116b1919061396b565b908152604080519182900360209081018320805480830285018301909352828452919083018282801561170357602002820191906000526020600020905b8154815260200190600101908083116116ef575b50505050509050919050565b600360205260009081526040902080546001820180549192916117319061379a565b80601f016020809104026020016040519081016040528092919081815260200182805461175d9061379a565b80156117aa5780601f1061177f576101008083540402835291602001916117aa565b820191906000526020600020905b81548152906001019060200180831161178d57829003601f168201915b5050505050908060020180546117bf9061379a565b80601f01602080910402602001604051908101604052809291908181526020018280546117eb9061379a565b80156118385780601f1061180d57610100808354040283529160200191611838565b820191906000526020600020905b81548152906001019060200180831161181b57829003601f168201915b50505050509080600301805461184d9061379a565b80601f01602080910402602001604051908101604052809291908181526020018280546118799061379a565b80156118c65780601f1061189b576101008083540402835291602001916118c6565b820191906000526020600020905b8154815290600101906020018083116118a957829003601f168201915b50505050600483015460058401546006850180549495929460ff831694506101009092046001600160a01b031692916118fe9061379a565b80601f016020809104026020016040519081016040528092919081815260200182805461192a9061379a565b80156119775780601f1061194c57610100808354040283529160200191611977565b820191906000526020600020905b81548152906001019060200180831161195a57829003601f168201915b5050505060078301546008840154600985018054949560ff90931694919350906119a09061379a565b80601f01602080910402602001604051908101604052809291908181526020018280546119cc9061379a565b8015611a195780601f106119ee57610100808354040283529160200191611a19565b820191906000526020600020905b8154815290600101906020018083116119fc57829003601f168201915b50505050509080600a015490508c565b60608151835114611a755760405162461bcd60e51b8152602060048201526016602482015275082e4e4c2f2e640d8cadccee8d040dad2e6dac2e8c6d60531b6044820152606401610641565b600083516001600160401b03811115611a9057611a90612ab1565b604051908082528060200260200182016040528015611ab9578160200160208202803683370190505b50905060005b8451811015611b3857611b04858281518110611add57611add613987565b6020026020010151858381518110611af757611af7613987565b6020026020010151611b40565b828281518110611b1657611b16613987565b9115156020928302919091019091015280611b3081613944565b915050611abf565b509392505050565b6000918252602082815260408084206001600160a01b0393909316845291905290205460ff1690565b81600081118015611b7c57506001548111155b611b985760405162461bcd60e51b8152600401610641906136fa565b60008181526003602052604090206007015460ff16611bc95760405162461bcd60e51b81526004016106419061372a565b7fa49807205ce4d355092ef5a8a18f56e8913cf4a201fbe287825b095693c21775611bf48133611b40565b611c105760405162461bcd60e51b815260040161064190613757565b60008481526003602090815260408083206005808201805460ff199081166008179091556007909201805490921690915560048352818420825160e081018452600660a0820190815265149150d0531360d21b60c083015281528085018690529283018890523360608401524260808401528054600181018255908552929093208151919392909202909101908190611ca9908261381d565b50602082015160018201805460ff191691151591909117905560408201516002820190611cd6908261381d565b5060608201516003820180546001600160a01b0319166001600160a01b0390921691909117905560809091015160049091015550505050565b600081600081118015611d2457506001548111155b611d405760405162461bcd60e51b8152600401610641906136fa565b60008181526003602052604090206007015460ff16611d715760405162461bcd60e51b81526004016106419061372a565b60008381526003602052604090206007015460ff168015611db85750600860008481526003602052604090206005015460ff166008811115611db557611db5613105565b14155b9392505050565b60006000805160206139e8833981519152611dda8133611b40565b611df65760405162461bcd60e51b815260040161064190613757565b60018054906000611e0683613944565b9190505550604051806101800160405280600154815260200189815260200188815260200187815260200142815260200160006008811115611e4a57611e4a613105565b815233602080830191909152604080830187905260016060840181905260006080850181905260a085018b905260c09094018990528054845260038352922083518155908301519091820190611ea0908261381d565b5060408201516002820190611eb5908261381d565b5060608201516003820190611eca908261381d565b506080820151600482015560a082015160058201805460ff19166001836008811115611ef857611ef8613105565b021790555060c08201516005820180546001600160a01b0390921661010002610100600160a81b031990921691909117905560e08201516006820190611f3e908261381d565b5061010082015160078201805460ff191691151591909117905561012082015160088201556101408201516009820190611f78908261381d565b506101609190910151600a90910155600180546000908152600760209081526040808320805480860182559084528284200180546001600160a01b031916339081179091558454845260058352818420825160608101845289815242818601529283019190915280549485018155835291208151919260030201908190611fff908261381d565b50602082810151600183810191909155604093840151600290930180546001600160a01b0319166001600160a01b0390941693909317909255336000908152600882528381208354815494850182559082529190209091015551600b9061206790879061396b565b90815260405190819003602090810182206001805482548083018455600093845293909220909201555433917f90934fc9dc1095f968f4207cb62e27da1da3e31653ff34cbf837b6c349ded760906120c2908c9042906138dc565b60405180910390a350506001549695505050505050565b8151602081840181018051600b82529282019185019190912091905280548290811061210457600080fd5b90600052602060002001600091509150505481565b8051516121605760405162461bcd60e51b8152602060048201526015602482015274139bc81c1c9bd91d58dd1cc81cdc1958da599a5959605a1b6044820152606401610641565b6020808201516001600160a01b03166000908152600a90915260409020546121c55760405162461bcd60e51b815260206004820152601860248201527713995dc81bdddb995c881b9bdd081c9959da5cdd195c995960421b6044820152606401610641565b60005b815151811015612436576000826000015182815181106121ea576121ea613987565b6020908102919091018101516000818152600390925260409091206005015490915061010090046001600160a01b031633146122685760405162461bcd60e51b815260206004820152601960248201527f4e6f74206f776e6572206f6620616c6c2070726f6475637473000000000000006044820152606401610641565b60008181526003602052604090206007015460ff166122bc5760405162461bcd60e51b815260206004820152601060248201526f50726f6475637420696e61637469766560801b6044820152606401610641565b602080840151600083815260039092526040918290206005810180546001600160a01b0390931661010002610100600160a81b0319909316929092179091559084015160069091019061230f908261381d565b5060608301516000828152600360205260409020600501805460ff1916600183600881111561234057612340613105565b02179055506000818152600760209081526040808320868301518154600180820184559286528486200180546001600160a01b0319166001600160a01b03909216919091179055848452600583528184208251606081018452888401518152428186015233938101939093528054918201815584529190922082516003909202019081906123ce908261381d565b50602082810151600183810191909155604093840151600290930180546001600160a01b0319166001600160a01b039485161790558682015190921660009081526008825292832080549283018155835290912001558061242e81613944565b9150506121c8565b5080602001516001600160a01b03167f687491fb7d408065617308d02b13b4b3b8ca795e456afcba97427b2e54abb63a82600001514260405161247a92919061399d565b60405180910390a250565b6008602052816000526040600020818154811061210457600080fd5b6001600160a01b03811660009081526008602090815260409182902080548351818402810184019094528084526060939283018282801561170357602002820191906000526020600020908154815260200190600101908083116116ef5750505050509050919050565b8360008111801561251e57506001548111155b61253a5760405162461bcd60e51b8152600401610641906136fa565b60008181526003602052604090206007015460ff1661256b5760405162461bcd60e51b81526004016106419061372a565b6000805160206139e88339815191526125848133611b40565b6125a05760405162461bcd60e51b815260040161064190613757565b6000868152600460209081526040808320815160a0810183528981528815158185015291820187905233606083015242608083015280546001810182559084529190922082516005909202019081906125f9908261381d565b50602082015160018201805460ff191691151591909117905560408201516002820190612626908261381d565b5060608201516003820180546001600160a01b0319166001600160a01b0390921691909117905560809091015160049091015560405186907f69fadc3d7c481b5515778225c87aca24eb863d3dba21348491d8587016e0380190610ac6908890889088906139b0565b60606000805b83518110156126d9576126b485858381518110611af757611af7613987565b156126c757816126c381613944565b9250505b806126d181613944565b915050612695565b506000816001600160401b038111156126f4576126f4612ab1565b60405190808252806020026020018201604052801561271d578160200160208202803683370190505b5090506000805b85518110156127ac5761274387878381518110611af757611af7613987565b1561279a5785818151811061275a5761275a613987565b602002602001015183838151811061277457612774613987565b6001600160a01b03909216602092830291909101909101528161279681613944565b9250505b806127a481613944565b915050612724565b509095945050505050565b6000828152602081905260409020600101546127d290610aed565b610ede5760405162461bcd60e51b8152600401610641906138fe565b6007602052816000526040600020818154811061280a57600080fd5b6000918252602090912001546001600160a01b03169150829050565b8160008111801561283957506001548111155b6128555760405162461bcd60e51b8152600401610641906136fa565b60008181526003602052604090206007015460ff166128865760405162461bcd60e51b81526004016106419061372a565b600083815260036020526040902060050154839061010090046001600160a01b031633146128ea5760405162461bcd60e51b81526020600482015260116024820152702737ba10383937b23ab1ba1037bbb732b960791b6044820152606401610641565b60008481526003602052604090206005015460ff16600881111561291057612910613105565b60ff1683600881111561292557612925613105565b60ff16116129755760405162461bcd60e51b815260206004820152601960248201527f496e76616c69642073746167652070726f6772657373696f6e000000000000006044820152606401610641565b6000848152600360205260409020600501805484919060ff191660018360088111156129a3576129a3613105565b021790555050505050565b6129b88282611b40565b610b19576000828152602081815260408083206001600160a01b0385168085529252808320805460ff1916600117905551339285917f2f8788117e7eff1d82e926ec794901d17c78024a50270940304540a733656f0d9190a45050565b612a1f8282611b40565b15610b19576000828152602081815260408083206001600160a01b0385168085529252808320805460ff1916905551339285917ff6391f5c32d9c69d2a47ea670b442974b53935d1edc7fd64eb21e047a839171b9190a45050565b80356001600160a01b0381168114612a9157600080fd5b919050565b600060208284031215612aa857600080fd5b611db882612a7a565b634e487b7160e01b600052604160045260246000fd5b604051608081016001600160401b0381118282101715612ae957612ae9612ab1565b60405290565b604051601f8201601f191681016001600160401b0381118282101715612b1757612b17612ab1565b604052919050565b600082601f830112612b3057600080fd5b81356001600160401b03811115612b4957612b49612ab1565b612b5c601f8201601f1916602001612aef565b818152846020838601011115612b7157600080fd5b816020850160208301376000918101602001919091529392505050565b600080600060608486031215612ba357600080fd5b833592506020840135915060408401356001600160401b03811115612bc757600080fd5b612bd386828701612b1f565b9150509250925092565b60008060408385031215612bf057600080fd5b50508035926020909101359150565b60005b83811015612c1a578181015183820152602001612c02565b50506000910152565b60008151808452612c3b816020860160208601612bff565b601f01601f19169290920160200192915050565b838152826020820152606060408201526000612c6e6060830184612c23565b95945050505050565b600060208284031215612c8957600080fd5b5035919050565b600080600060608486031215612ca557600080fd5b83359250612cb560208501612a7a565b915060408401356001600160401b03811115612bc757600080fd5b60008060408385031215612ce357600080fd5b82359150612cf360208401612a7a565b90509250929050565b60a081526000612d0f60a0830188612c23565b86151560208401528281036040840152612d298187612c23565b6001600160a01b039590951660608401525050608001529392505050565b6001600160a01b038716815260c060208201819052600090612d6b90830188612c23565b8281036040840152612d7d8188612c23565b90508281036060840152612d918187612c23565b9415156080840152505060a00152949350505050565b606081526000612dba6060830186612c23565b6020830194909452506001600160a01b0391909116604090910152919050565b60006020808301818452808551808352604092508286019150828160051b87010184880160005b83811015612e4b57888303603f1901855281518051845287810151888501528601516060878501819052612e3781860183612c23565b968901969450505090860190600101612e01565b509098975050505050505050565b600081518084526020808501945080840160005b83811015612e925781516001600160a01b031687529582019590820190600101612e6d565b509495945050505050565b600081518084526020808501808196508360051b8101915082860160005b85811015612f35578284038952815160a08151818752612edd82880182612c23565b9150508682015115158787015260408083015187830382890152612f018382612c23565b6060858101516001600160a01b0316908a015260809485015194909801939093525050509784019790840190600101612ebb565b5091979650505050505050565b60006060808352612f5581840187612e59565b6020848203818601528187518084528284019150828160051b850101838a0160005b83811015612fcb57868303601f1901855281518051898552612f9b8a860182612c23565b82890151868a01526040928301516001600160a01b03169290950191909152509385019390850190600101612f77565b50508781036040890152612fdf818a612e9d565b9b9a5050505050505050505050565b6000806000806080858703121561300457600080fd5b61300d85612a7a565b935060208501356001600160401b038082111561302957600080fd5b61303588838901612b1f565b9450604087013591508082111561304b57600080fd5b61305788838901612b1f565b9350606087013591508082111561306d57600080fd5b5061307a87828801612b1f565b91505092959194509250565b60006020828403121561309857600080fd5b81356001600160401b038111156130ae57600080fd5b6130ba84828501612b1f565b949350505050565b600081518084526020808501945080840160005b83811015612e92578151875295820195908201906001016130d6565b602081526000611db860208301846130c2565b634e487b7160e01b600052602160045260246000fd5b60006101808e83528060208401526131358184018f612c23565b90508281036040840152613149818e612c23565b9050828103606084015261315d818d612c23565b90508a608084015260098a1061318357634e487b7160e01b600052602160045260246000fd5b8960a084015261319e60c084018a6001600160a01b03169052565b82810360e08401526131b08189612c23565b8715156101008501529050856101208401528281036101408401526131d58186612c23565b915050826101608301529d9c50505050505050505050505050565b60006001600160401b0382111561320957613209612ab1565b5060051b60200190565b600082601f83011261322457600080fd5b81356020613239613234836131f0565b612aef565b82815260059290921b8401810191818101908684111561325857600080fd5b8286015b8481101561327a5761326d81612a7a565b835291830191830161325c565b509695505050505050565b6000806040838503121561329857600080fd5b82356001600160401b03808211156132af57600080fd5b818501915085601f8301126132c357600080fd5b813560206132d3613234836131f0565b82815260059290921b840181019181810190898411156132f257600080fd5b948201945b83861015613310578535825294820194908201906132f7565b9650508601359250508082111561332657600080fd5b5061333385828601613213565b9150509250929050565b6020808252825182820181905260009190848201906040850190845b81811015613377578351151583529284019291840191600101613359565b50909695505050505050565b6000806040838503121561339657600080fd5b8235915060208301356001600160401b038111156133b357600080fd5b61333385828601612b1f565b60008060008060008060c087890312156133d857600080fd5b86356001600160401b03808211156133ef57600080fd5b6133fb8a838b01612b1f565b9750602089013591508082111561341157600080fd5b61341d8a838b01612b1f565b9650604089013591508082111561343357600080fd5b61343f8a838b01612b1f565b9550606089013591508082111561345557600080fd5b6134618a838b01612b1f565b94506080890135935060a089013591508082111561347e57600080fd5b5061348b89828a01612b1f565b9150509295509295509295565b600080604083850312156134ab57600080fd5b82356001600160401b038111156134c157600080fd5b6134cd85828601612b1f565b95602094909401359450505050565b803560098110612a9157600080fd5b600060208083850312156134fe57600080fd5b82356001600160401b038082111561351557600080fd5b908401906080828703121561352957600080fd5b613531612ac7565b82358281111561354057600080fd5b8301601f8101881361355157600080fd5b803561355f613234826131f0565b81815260059190911b8201860190868101908a83111561357e57600080fd5b928701925b8284101561359c57833582529287019290870190613583565b8452506135ad915050838501612a7a565b8482015260408301359350818411156135c557600080fd5b6135d187858501612b1f565b60408201526135e2606084016134dc565b60608201529695505050505050565b6000806040838503121561360457600080fd5b61360d83612a7a565b946020939093013593505050565b6000806000806080858703121561363157600080fd5b8435935060208501356001600160401b038082111561364f57600080fd5b61365b88838901612b1f565b945060408701359150811515821461367257600080fd5b9092506060860135908082111561306d57600080fd5b6000806040838503121561369b57600080fd5b8235915060208301356001600160401b038111156136b857600080fd5b61333385828601613213565b602081526000611db86020830184612e59565b600080604083850312156136ea57600080fd5b82359150612cf3602084016134dc565b602080825260169082015275141c9bd91d58dd08191bd95cc81b9bdd08195e1a5cdd60521b604082015260600190565b60208082526013908201527250726f6475637420697320696e61637469766560681b604082015260600190565b60208082526023908201527f416363657373436f6e74726f6c3a206163636f756e74206d697373696e6720726040820152626f6c6560e81b606082015260800190565b600181811c908216806137ae57607f821691505b60208210810361112b57634e487b7160e01b600052602260045260246000fd5b601f82111561381857600081815260208120601f850160051c810160208610156137f55750805b601f850160051c820191505b8181101561381457828155600101613801565b5050505b505050565b81516001600160401b0381111561383657613836612ab1565b61384a81613844845461379a565b846137ce565b602080601f83116001811461387f57600084156138675750858301515b600019600386901b1c1916600185901b178555613814565b600085815260208120601f198616915b828110156138ae5788860151825594840194600190910190840161388f565b50858210156138cc5787850151600019600388901b60f8161c191681555b5050505050600190811b01905550565b6040815260006138ef6040830185612c23565b90508260208301529392505050565b60208082526026908201527f416363657373436f6e74726f6c3a2073656e646572206d75737420626520616e6040820152651030b236b4b760d11b606082015260800190565b60006001820161396457634e487b7160e01b600052601160045260246000fd5b5060010190565b6000825161397d818460208701612bff565b9190910192915050565b634e487b7160e01b600052603260045260246000fd5b6040815260006138ef60408301856130c2565b6060815260006139c36060830186612c23565b841515602084015282810360408401526139dd8185612c23565b969550505050505056fe938c45fe3baa5cbd047f2473358a27f57db22291e9af95379a15ad016886dfb7a2646970667358221220bd6be62ff60016d1cfa6607a9f92b9784faef1105e1b95e7c77c95c8c74b893f64736f6c63430008130033",
  "immutableReferences": {},
  "source": "// SPDX-License-Identifier: MIT\r\npragma solidity ^0.8.19;\r\n\r\nimport \"./AccessControl.sol\";\r\n\r\n/**\r\n * @title SupplyChainTraceability\r\n * @dev Advanced supply chain traceability system with high efficiency and comprehensive tracking\r\n */\r\ncontract SupplyChainTraceability is AccessControl {\r\n    \r\n    // Events for tracking and transparency\r\n    event ProductCreated(uint256 indexed productId, string name, address indexed creator, uint256 timestamp);\r\n    event ProductTransferred(uint256 indexed productId, address indexed from, address indexed to, uint256 timestamp);\r\n    event BatchProcessed(uint256[] productIds, address indexed processor, uint256 timestamp);\r\n    event QualityCheckAdded(uint256 indexed productId, string checkType, bool passed, string notes);\r\n    event LocationUpdated(uint256 indexed productId, string location, uint256 timestamp);\r\n    event TemperatureLogged(uint256 indexed productId, int256 temperature, uint256 timestamp);\r\n    \r\n    // Product lifecycle stages\r\n    enum Stage {\r\n        Created,           // 0\r\n        RawMaterial,       // 1  \r\n        Manufacturing,     // 2\r\n        QualityControl,    // 3\r\n        Packaging,         // 4\r\n        Distribution,      // 5\r\n        Retail,           // 6\r\n        Sold,             // 7\r\n        Recalled          // 8\r\n    }\r\n    \r\n    // Product information structure\r\n    struct Product {\r\n        uint256 id;\r\n        string name;\r\n        string description;\r\n        string category;\r\n        uint256 createdAt;\r\n        Stage currentStage;\r\n        address currentOwner;\r\n        string currentLocation;\r\n        bool isActive;\r\n        uint256 parentProductId; // For products derived from others\r\n        string batchNumber;\r\n        uint256 expiryDate;\r\n    }\r\n    \r\n    // Quality check structure\r\n    struct QualityCheck {\r\n        string checkType;\r\n        bool passed;\r\n        string notes;\r\n        address inspector;\r\n        uint256 timestamp;\r\n    }\r\n    \r\n    // Location history structure\r\n    struct LocationHistory {\r\n        string location;\r\n        uint256 timestamp;\r\n        address updatedBy;\r\n    }\r\n    \r\n    // Temperature log structure\r\n    struct TemperatureLog {\r\n        int256 temperature;\r\n        uint256 timestamp;\r\n        string sensorId;\r\n    }\r\n    \r\n    // Supply chain participant structure\r\n    struct Participant {\r\n        address participantAddress;\r\n        string name;\r\n        string role;\r\n        string location;\r\n        bool isActive;\r\n        uint256 registeredAt;\r\n    }\r\n    \r\n    // State variables\r\n    uint256 private productCounter;\r\n    uint256 private participantCounter;\r\n    \r\n    // Mappings\r\n    mapping(uint256 => Product) public products;\r\n    mapping(uint256 => QualityCheck[]) public productQualityChecks;\r\n    mapping(uint256 => LocationHistory[]) public productLocationHistory;\r\n    mapping(uint256 => TemperatureLog[]) public productTemperatureLogs;\r\n    mapping(uint256 => address[]) public productOwnershipHistory;\r\n    mapping(address => uint256[]) public participantProducts;\r\n    mapping(uint256 => Participant) public participants;\r\n    mapping(address => uint256) public addressToParticipantId;\r\n    mapping(string => uint256[]) public batchProducts; // batch number to product IDs\r\n    \r\n    // Gas optimization: Pack multiple operations\r\n    struct BatchOperation {\r\n        uint256[] productIds;\r\n        address newOwner;\r\n        string newLocation;\r\n        Stage newStage;\r\n    }\r\n    \r\n    modifier onlyProductOwner(uint256 _productId) {\r\n        require(products[_productId].currentOwner == msg.sender, \"Not product owner\");\r\n        _;\r\n    }\r\n    \r\n    modifier productExists(uint256 _productId) {\r\n        require(_productId > 0 && _productId <= productCounter, \"Product does not exist\");\r\n        require(products[_productId].isActive, \"Product is inactive\");\r\n        _;\r\n    }\r\n    \r\n    modifier onlyRegisteredParticipant() {\r\n        require(addressToParticipantId[msg.sender] > 0, \"Not a registered participant\");\r\n        _;\r\n    }\r\n    \r\n    constructor() {\r\n        _setupRole(DEFAULT_ADMIN_ROLE, msg.sender);\r\n        _setupRole(ADMIN_ROLE, msg.sender);\r\n    }\r\n    \r\n    /**\r\n     * @dev Register a new supply chain participant\r\n     */\r\n    function registerParticipant(\r\n        address _participantAddress,\r\n        string memory _name,\r\n        string memory _role,\r\n        string memory _location\r\n    ) external onlyRole(ADMIN_ROLE) {\r\n        require(addressToParticipantId[_participantAddress] == 0, \"Participant already registered\");\r\n        \r\n        participantCounter++;\r\n        participants[participantCounter] = Participant({\r\n            participantAddress: _participantAddress,\r\n            name: _name,\r\n            role: _role,\r\n            location: _location,\r\n            isActive: true,\r\n            registeredAt: block.timestamp\r\n        });\r\n        \r\n        addressToParticipantId[_participantAddress] = participantCounter;\r\n        grantRole(PARTICIPANT_ROLE, _participantAddress);\r\n    }\r\n    \r\n    /**\r\n     * @dev Create a new product in the supply chain\r\n     */\r\n    function createProduct(\r\n        string memory _name,\r\n        string memory _description,\r\n        string memory _category,\r\n        string memory _batchNumber,\r\n        uint256 _expiryDate,\r\n        string memory _initialLocation\r\n    ) external onlyRole(PARTICIPANT_ROLE) returns (uint256) {\r\n        productCounter++;\r\n        \r\n        products[productCounter] = Product({\r\n            id: productCounter,\r\n            name: _name,\r\n            description: _description,\r\n            category: _category,\r\n            createdAt: block.timestamp,\r\n            currentStage: Stage.Created,\r\n            currentOwner: msg.sender,\r\n            currentLocation: _initialLocation,\r\n            isActive: true,\r\n            parentProductId: 0,\r\n            batchNumber: _batchNumber,\r\n            expiryDate: _expiryDate\r\n        });\r\n        \r\n        // Initialize history\r\n        productOwnershipHistory[productCounter].push(msg.sender);\r\n        productLocationHistory[productCounter].push(LocationHistory({\r\n            location: _initialLocation,\r\n            timestamp: block.timestamp,\r\n            updatedBy: msg.sender\r\n        }));\r\n        \r\n        // Add to participant's products\r\n        participantProducts[msg.sender].push(productCounter);\r\n        \r\n        // Add to batch\r\n        batchProducts[_batchNumber].push(productCounter);\r\n        \r\n        emit ProductCreated(productCounter, _name, msg.sender, block.timestamp);\r\n        \r\n        return productCounter;\r\n    }\r\n    \r\n    /**\r\n     * @dev Transfer product ownership\r\n     */\r\n    function transferProduct(\r\n        uint256 _productId,\r\n        address _newOwner,\r\n        string memory _newLocation\r\n    ) external productExists(_productId) onlyProductOwner(_productId) {\r\n        require(addressToParticipantId[_newOwner] > 0, \"New owner not registered\");\r\n        \r\n        address previousOwner = products[_productId].currentOwner;\r\n        \r\n        // Update product\r\n        products[_productId].currentOwner = _newOwner;\r\n        products[_productId].currentLocation = _newLocation;\r\n        \r\n        // Update histories\r\n        productOwnershipHistory[_productId].push(_newOwner);\r\n        productLocationHistory[_productId].push(LocationHistory({\r\n            location: _newLocation,\r\n            timestamp: block.timestamp,\r\n            updatedBy: msg.sender\r\n        }));\r\n        \r\n        // Update participant products\r\n        participantProducts[_newOwner].push(_productId);\r\n        \r\n        emit ProductTransferred(_productId, previousOwner, _newOwner, block.timestamp);\r\n        emit LocationUpdated(_productId, _newLocation, block.timestamp);\r\n    }\r\n    \r\n    /**\r\n     * @dev Update product stage\r\n     */\r\n    function updateStage(\r\n        uint256 _productId,\r\n        Stage _newStage\r\n    ) external productExists(_productId) onlyProductOwner(_productId) {\r\n        require(uint8(_newStage) > uint8(products[_productId].currentStage), \"Invalid stage progression\");\r\n        \r\n        products[_productId].currentStage = _newStage;\r\n    }\r\n    \r\n    /**\r\n     * @dev Batch process multiple products (gas optimization)\r\n     */\r\n    function batchTransfer(\r\n        BatchOperation memory _operation\r\n    ) external {\r\n        require(_operation.productIds.length > 0, \"No products specified\");\r\n        require(addressToParticipantId[_operation.newOwner] > 0, \"New owner not registered\");\r\n        \r\n        for (uint256 i = 0; i < _operation.productIds.length; i++) {\r\n            uint256 productId = _operation.productIds[i];\r\n            require(products[productId].currentOwner == msg.sender, \"Not owner of all products\");\r\n            require(products[productId].isActive, \"Product inactive\");\r\n            \r\n            // Update product\r\n            products[productId].currentOwner = _operation.newOwner;\r\n            products[productId].currentLocation = _operation.newLocation;\r\n            products[productId].currentStage = _operation.newStage;\r\n            \r\n            // Update histories\r\n            productOwnershipHistory[productId].push(_operation.newOwner);\r\n            productLocationHistory[productId].push(LocationHistory({\r\n                location: _operation.newLocation,\r\n                timestamp: block.timestamp,\r\n                updatedBy: msg.sender\r\n            }));\r\n            \r\n            participantProducts[_operation.newOwner].push(productId);\r\n        }\r\n        \r\n        emit BatchProcessed(_operation.productIds, _operation.newOwner, block.timestamp);\r\n    }\r\n    \r\n    /**\r\n     * @dev Add quality check result\r\n     */\r\n    function addQualityCheck(\r\n        uint256 _productId,\r\n        string memory _checkType,\r\n        bool _passed,\r\n        string memory _notes\r\n    ) external productExists(_productId) onlyRole(PARTICIPANT_ROLE) {\r\n        productQualityChecks[_productId].push(QualityCheck({\r\n            checkType: _checkType,\r\n            passed: _passed,\r\n            notes: _notes,\r\n            inspector: msg.sender,\r\n            timestamp: block.timestamp\r\n        }));\r\n        \r\n        emit QualityCheckAdded(_productId, _checkType, _passed, _notes);\r\n    }\r\n    \r\n    /**\r\n     * @dev Log temperature data (IoT integration)\r\n     */\r\n    function logTemperature(\r\n        uint256 _productId,\r\n        int256 _temperature,\r\n        string memory _sensorId\r\n    ) external productExists(_productId) onlyRole(PARTICIPANT_ROLE) {\r\n        productTemperatureLogs[_productId].push(TemperatureLog({\r\n            temperature: _temperature,\r\n            timestamp: block.timestamp,\r\n            sensorId: _sensorId\r\n        }));\r\n        \r\n        emit TemperatureLogged(_productId, _temperature, block.timestamp);\r\n    }\r\n    \r\n    /**\r\n     * @dev Recall a product\r\n     */\r\n    function recallProduct(\r\n        uint256 _productId,\r\n        string memory _reason\r\n    ) external productExists(_productId) onlyRole(ADMIN_ROLE) {\r\n        products[_productId].currentStage = Stage.Recalled;\r\n        products[_productId].isActive = false;\r\n        \r\n        // Add quality check for recall\r\n        productQualityChecks[_productId].push(QualityCheck({\r\n            checkType: \"RECALL\",\r\n            passed: false,\r\n            notes: _reason,\r\n            inspector: msg.sender,\r\n            timestamp: block.timestamp\r\n        }));\r\n    }\r\n    \r\n    // View functions for comprehensive traceability\r\n    \r\n    function getProductHistory(uint256 _productId) \r\n        external \r\n        view \r\n        productExists(_productId) \r\n        returns (\r\n            address[] memory owners,\r\n            LocationHistory[] memory locations,\r\n            QualityCheck[] memory qualityChecks\r\n        ) {\r\n        return (\r\n            productOwnershipHistory[_productId],\r\n            productLocationHistory[_productId],\r\n            productQualityChecks[_productId]\r\n        );\r\n    }\r\n    \r\n    function getTemperatureHistory(uint256 _productId) \r\n        external \r\n        view \r\n        productExists(_productId) \r\n        returns (TemperatureLog[] memory) {\r\n        return productTemperatureLogs[_productId];\r\n    }\r\n    \r\n    function getBatchProducts(string memory _batchNumber) \r\n        external \r\n        view \r\n        returns (uint256[] memory) {\r\n        return batchProducts[_batchNumber];\r\n    }\r\n    \r\n    function getParticipantProducts(address _participant) \r\n        external \r\n        view \r\n        returns (uint256[] memory) {\r\n        return participantProducts[_participant];\r\n    }\r\n    \r\n    function isProductAuthentic(uint256 _productId) \r\n        external \r\n        view \r\n        productExists(_productId) \r\n        returns (bool) {\r\n        return products[_productId].isActive && \r\n               products[_productId].currentStage != Stage.Recalled;\r\n    }\r\n    \r\n    // Utility functions\r\n    function getProductCount() external view returns (uint256) {\r\n        return productCounter;\r\n    }\r\n    \r\n    function getParticipantCount() external view returns (uint256) {\r\n        return participantCounter;\r\n    }\r\n}",
  "sourcePath": "C:\\projects\\BLOCKCHAIN_PROJECT\\contracts\\SupplyChainTraceability.sol",
  "compiler": {
    "name": "solc",
    "version": "0.8.19+commit.7dd6d404.Emscripten.clang"
  },
  "schemaVersion": "3.4.16",
  "updatedAt": "2025-08-21T13:38:07.249Z",
  "networkType": "ethereum",
  "devdoc": {
    "details": "Advanced supply chain traceability system with high efficiency and comprehensive tracking",
    "kind": "dev",
    "methods": {
      "addQualityCheck(uint256,string,bool,string)": {
        "details": "Add quality check result"
      },
      "batchTransfer((uint256[],address,string,uint8))": {
        "details": "Batch process multiple products (gas optimization)"
      },
      "createProduct(string,string,string,string,uint256,string)": {
        "details": "Create a new product in the supply chain"
      },
      "getRoleAdmin(bytes32)": {
        "details": "Get the admin role for a given role"
      },
      "getRoleMembers(bytes32,address[])": {
        "details": "Get all accounts with a specific role (expensive operation, use carefully)"
      },
      "grantRole(bytes32,address)": {
        "details": "Grant a role to an account"
      },
      "hasRole(bytes32,address)": {
        "details": "Check if an account has a specific role"
      },
      "hasRoles(bytes32[],address[])": {
        "details": "Check if multiple accounts have required roles (batch check)"
      },
      "logTemperature(uint256,int256,string)": {
        "details": "Log temperature data (IoT integration)"
      },
      "recallProduct(uint256,string)": {
        "details": "Recall a product"
      },
      "registerParticipant(address,string,string,string)": {
        "details": "Register a new supply chain participant"
      },
      "renounceRole(bytes32,address)": {
        "details": "Renounce a role (can only be called by the account itself)"
      },
      "revokeRole(bytes32,address)": {
        "details": "Revoke a role from an account"
      },
      "transferProduct(uint256,address,string)": {
        "details": "Transfer product ownership"
      },
      "updateStage(uint256,uint8)": {
        "details": "Update product stage"
      }
    },
    "title": "SupplyChainTraceability",
    "version": 1
  },
  "userdoc": {
    "kind": "user",
    "methods": {},
    "version": 1
  }
}